{
	"contracts/CrowdFund/CrowdFund.sol": {
		"CrowdFund": {
			"abi": [
				{
					"inputs": [
						{
							"internalType": "address",
							"name": "_token",
							"type": "address"
						}
					],
					"stateMutability": "nonpayable",
					"type": "constructor"
				},
				{
					"anonymous": false,
					"inputs": [
						{
							"indexed": false,
							"internalType": "uint256",
							"name": "id",
							"type": "uint256"
						}
					],
					"name": "Cancel",
					"type": "event"
				},
				{
					"anonymous": false,
					"inputs": [
						{
							"indexed": false,
							"internalType": "uint256",
							"name": "id",
							"type": "uint256"
						}
					],
					"name": "Claim",
					"type": "event"
				},
				{
					"anonymous": false,
					"inputs": [
						{
							"indexed": false,
							"internalType": "uint256",
							"name": "id",
							"type": "uint256"
						},
						{
							"indexed": true,
							"internalType": "address",
							"name": "creator",
							"type": "address"
						},
						{
							"indexed": false,
							"internalType": "uint256",
							"name": "goal",
							"type": "uint256"
						},
						{
							"indexed": false,
							"internalType": "uint32",
							"name": "startAt",
							"type": "uint32"
						},
						{
							"indexed": false,
							"internalType": "uint32",
							"name": "endAt",
							"type": "uint32"
						}
					],
					"name": "Launch",
					"type": "event"
				},
				{
					"anonymous": false,
					"inputs": [
						{
							"indexed": true,
							"internalType": "uint256",
							"name": "id",
							"type": "uint256"
						},
						{
							"indexed": true,
							"internalType": "address",
							"name": "caller",
							"type": "address"
						},
						{
							"indexed": false,
							"internalType": "uint256",
							"name": "amount",
							"type": "uint256"
						}
					],
					"name": "Pledge",
					"type": "event"
				},
				{
					"anonymous": false,
					"inputs": [
						{
							"indexed": false,
							"internalType": "uint256",
							"name": "id",
							"type": "uint256"
						},
						{
							"indexed": true,
							"internalType": "address",
							"name": "caller",
							"type": "address"
						},
						{
							"indexed": false,
							"internalType": "uint256",
							"name": "amount",
							"type": "uint256"
						}
					],
					"name": "Refund",
					"type": "event"
				},
				{
					"anonymous": false,
					"inputs": [
						{
							"indexed": true,
							"internalType": "uint256",
							"name": "id",
							"type": "uint256"
						},
						{
							"indexed": true,
							"internalType": "address",
							"name": "caller",
							"type": "address"
						},
						{
							"indexed": false,
							"internalType": "uint256",
							"name": "amount",
							"type": "uint256"
						}
					],
					"name": "Unpledge",
					"type": "event"
				},
				{
					"inputs": [
						{
							"internalType": "uint256",
							"name": "",
							"type": "uint256"
						}
					],
					"name": "campaigns",
					"outputs": [
						{
							"internalType": "address",
							"name": "creator",
							"type": "address"
						},
						{
							"internalType": "uint256",
							"name": "goal",
							"type": "uint256"
						},
						{
							"internalType": "uint256",
							"name": "donation",
							"type": "uint256"
						},
						{
							"internalType": "uint32",
							"name": "startAt",
							"type": "uint32"
						},
						{
							"internalType": "uint32",
							"name": "endAt",
							"type": "uint32"
						},
						{
							"internalType": "bool",
							"name": "completed",
							"type": "bool"
						}
					],
					"stateMutability": "view",
					"type": "function"
				},
				{
					"inputs": [
						{
							"internalType": "uint256",
							"name": "_id",
							"type": "uint256"
						}
					],
					"name": "cancel",
					"outputs": [],
					"stateMutability": "nonpayable",
					"type": "function"
				},
				{
					"inputs": [
						{
							"internalType": "uint256",
							"name": "_id",
							"type": "uint256"
						}
					],
					"name": "claim",
					"outputs": [],
					"stateMutability": "nonpayable",
					"type": "function"
				},
				{
					"inputs": [
						{
							"internalType": "uint256",
							"name": "",
							"type": "uint256"
						},
						{
							"internalType": "address",
							"name": "",
							"type": "address"
						}
					],
					"name": "donatedAmount",
					"outputs": [
						{
							"internalType": "uint256",
							"name": "",
							"type": "uint256"
						}
					],
					"stateMutability": "view",
					"type": "function"
				},
				{
					"inputs": [
						{
							"internalType": "uint256",
							"name": "_goal",
							"type": "uint256"
						},
						{
							"internalType": "uint32",
							"name": "_startAt",
							"type": "uint32"
						},
						{
							"internalType": "uint32",
							"name": "_endAt",
							"type": "uint32"
						}
					],
					"name": "launch",
					"outputs": [],
					"stateMutability": "nonpayable",
					"type": "function"
				},
				{
					"inputs": [
						{
							"internalType": "uint256",
							"name": "_id",
							"type": "uint256"
						},
						{
							"internalType": "uint256",
							"name": "_amount",
							"type": "uint256"
						}
					],
					"name": "pledge",
					"outputs": [],
					"stateMutability": "nonpayable",
					"type": "function"
				},
				{
					"inputs": [
						{
							"internalType": "uint256",
							"name": "_id",
							"type": "uint256"
						}
					],
					"name": "refund",
					"outputs": [],
					"stateMutability": "nonpayable",
					"type": "function"
				},
				{
					"inputs": [],
					"name": "token",
					"outputs": [
						{
							"internalType": "contract IERC20",
							"name": "",
							"type": "address"
						}
					],
					"stateMutability": "view",
					"type": "function"
				},
				{
					"inputs": [],
					"name": "total",
					"outputs": [
						{
							"internalType": "uint256",
							"name": "",
							"type": "uint256"
						}
					],
					"stateMutability": "view",
					"type": "function"
				},
				{
					"inputs": [
						{
							"internalType": "uint256",
							"name": "_id",
							"type": "uint256"
						},
						{
							"internalType": "uint256",
							"name": "_amount",
							"type": "uint256"
						}
					],
					"name": "unpledge",
					"outputs": [],
					"stateMutability": "nonpayable",
					"type": "function"
				}
			],
			"devdoc": {
				"kind": "dev",
				"methods": {},
				"version": 1
			},
			"evm": {
				"assembly": "    /* \"contracts/CrowdFund/CrowdFund.sol\":262:3930  contract CrowdFund {\r... */\n  mstore(0x40, 0xa0)\n    /* \"contracts/CrowdFund/CrowdFund.sol\":630:699  constructor(address _token) {\r... */\n  callvalue\n  dup1\n  iszero\n  tag_1\n  jumpi\n  0x00\n  dup1\n  revert\ntag_1:\n  pop\n  mload(0x40)\n  sub(codesize, bytecodeSize)\n  dup1\n  bytecodeSize\n  dup4\n  codecopy\n  dup2\n  dup2\n  add\n  0x40\n  mstore\n  dup2\n  add\n  swap1\n  tag_2\n  swap2\n  swap1\n  tag_3\n  jump\t// in\ntag_2:\n    /* \"contracts/CrowdFund/CrowdFund.sol\":684:690  _token */\n  dup1\n    /* \"contracts/CrowdFund/CrowdFund.sol\":669:691  token = IERC20(_token) */\n  0xffffffffffffffffffffffffffffffffffffffff\n  and\n  0x80\n  dup2\n  0xffffffffffffffffffffffffffffffffffffffff\n  and\n  0x60\n  shl\n  dup2\n  mstore\n  pop\n  pop\n    /* \"contracts/CrowdFund/CrowdFund.sol\":630:699  constructor(address _token) {\r... */\n  pop\n    /* \"contracts/CrowdFund/CrowdFund.sol\":262:3930  contract CrowdFund {\r... */\n  jump(tag_6)\n    /* \"#utility.yul\":7:150   */\ntag_8:\n    /* \"#utility.yul\":64:69   */\n  0x00\n    /* \"#utility.yul\":95:101   */\n  dup2\n    /* \"#utility.yul\":89:102   */\n  mload\n    /* \"#utility.yul\":80:102   */\n  swap1\n  pop\n    /* \"#utility.yul\":111:144   */\n  tag_10\n    /* \"#utility.yul\":138:143   */\n  dup2\n    /* \"#utility.yul\":111:144   */\n  tag_11\n  jump\t// in\ntag_10:\n    /* \"#utility.yul\":7:150   */\n  swap3\n  swap2\n  pop\n  pop\n  jump\t// out\n    /* \"#utility.yul\":156:507   */\ntag_3:\n    /* \"#utility.yul\":226:232   */\n  0x00\n    /* \"#utility.yul\":275:277   */\n  0x20\n    /* \"#utility.yul\":263:272   */\n  dup3\n    /* \"#utility.yul\":254:261   */\n  dup5\n    /* \"#utility.yul\":250:273   */\n  sub\n    /* \"#utility.yul\":246:278   */\n  slt\n    /* \"#utility.yul\":243:362   */\n  iszero\n  tag_13\n  jumpi\n    /* \"#utility.yul\":281:360   */\n  tag_14\n  tag_15\n  jump\t// in\ntag_14:\n    /* \"#utility.yul\":243:362   */\ntag_13:\n    /* \"#utility.yul\":401:402   */\n  0x00\n    /* \"#utility.yul\":426:490   */\n  tag_16\n    /* \"#utility.yul\":482:489   */\n  dup5\n    /* \"#utility.yul\":473:479   */\n  dup3\n    /* \"#utility.yul\":462:471   */\n  dup6\n    /* \"#utility.yul\":458:480   */\n  add\n    /* \"#utility.yul\":426:490   */\n  tag_8\n  jump\t// in\ntag_16:\n    /* \"#utility.yul\":416:490   */\n  swap2\n  pop\n    /* \"#utility.yul\":372:500   */\n  pop\n    /* \"#utility.yul\":156:507   */\n  swap3\n  swap2\n  pop\n  pop\n  jump\t// out\n    /* \"#utility.yul\":594:690   */\ntag_19:\n    /* \"#utility.yul\":631:638   */\n  0x00\n    /* \"#utility.yul\":660:684   */\n  tag_21\n    /* \"#utility.yul\":678:683   */\n  dup3\n    /* \"#utility.yul\":660:684   */\n  tag_22\n  jump\t// in\ntag_21:\n    /* \"#utility.yul\":649:684   */\n  swap1\n  pop\n    /* \"#utility.yul\":594:690   */\n  swap2\n  swap1\n  pop\n  jump\t// out\n    /* \"#utility.yul\":696:822   */\ntag_22:\n    /* \"#utility.yul\":733:740   */\n  0x00\n    /* \"#utility.yul\":773:815   */\n  0xffffffffffffffffffffffffffffffffffffffff\n    /* \"#utility.yul\":766:771   */\n  dup3\n    /* \"#utility.yul\":762:816   */\n  and\n    /* \"#utility.yul\":751:816   */\n  swap1\n  pop\n    /* \"#utility.yul\":696:822   */\n  swap2\n  swap1\n  pop\n  jump\t// out\n    /* \"#utility.yul\":951:1068   */\ntag_15:\n    /* \"#utility.yul\":1060:1061   */\n  0x00\n    /* \"#utility.yul\":1057:1058   */\n  dup1\n    /* \"#utility.yul\":1050:1062   */\n  revert\n    /* \"#utility.yul\":1074:1196   */\ntag_11:\n    /* \"#utility.yul\":1147:1171   */\n  tag_28\n    /* \"#utility.yul\":1165:1170   */\n  dup2\n    /* \"#utility.yul\":1147:1171   */\n  tag_19\n  jump\t// in\ntag_28:\n    /* \"#utility.yul\":1140:1145   */\n  dup2\n    /* \"#utility.yul\":1137:1172   */\n  eq\n    /* \"#utility.yul\":1127:1190   */\n  tag_29\n  jumpi\n    /* \"#utility.yul\":1186:1187   */\n  0x00\n    /* \"#utility.yul\":1183:1184   */\n  dup1\n    /* \"#utility.yul\":1176:1188   */\n  revert\n    /* \"#utility.yul\":1127:1190   */\ntag_29:\n    /* \"#utility.yul\":1074:1196   */\n  pop\n  jump\t// out\n    /* \"contracts/CrowdFund/CrowdFund.sol\":262:3930  contract CrowdFund {\r... */\ntag_6:\n  shr(0x60, mload(0x80))\n  codecopy(0x00, dataOffset(sub_0), dataSize(sub_0))\n  0x00\n  assignImmutable(\"0x81e080ffc23e8b8d44dd829bc823229e92b893eb1d8f624419d3f5682eb97fc3\")\n  return(0x00, dataSize(sub_0))\nstop\n\nsub_0: assembly {\n        /* \"contracts/CrowdFund/CrowdFund.sol\":262:3930  contract CrowdFund {\r... */\n      mstore(0x40, 0x80)\n      callvalue\n      dup1\n      iszero\n      tag_1\n      jumpi\n      0x00\n      dup1\n      revert\n    tag_1:\n      pop\n      jumpi(tag_2, lt(calldatasize, 0x04))\n      shr(0xe0, calldataload(0x00))\n      dup1\n      0x40e58ee5\n      gt\n      tag_13\n      jumpi\n      dup1\n      0x40e58ee5\n      eq\n      tag_8\n      jumpi\n      dup1\n      0x711853ab\n      eq\n      tag_9\n      jumpi\n      dup1\n      0xeaf65e08\n      eq\n      tag_10\n      jumpi\n      dup1\n      0xfc0c546a\n      eq\n      tag_11\n      jumpi\n      dup1\n      0xfde327be\n      eq\n      tag_12\n      jumpi\n      jump(tag_2)\n    tag_13:\n      dup1\n      0x141961bc\n      eq\n      tag_3\n      jumpi\n      dup1\n      0x278ecde1\n      eq\n      tag_4\n      jumpi\n      dup1\n      0x2c63f146\n      eq\n      tag_5\n      jumpi\n      dup1\n      0x2ddbd13a\n      eq\n      tag_6\n      jumpi\n      dup1\n      0x379607f5\n      eq\n      tag_7\n      jumpi\n    tag_2:\n      0x00\n      dup1\n      revert\n        /* \"contracts/CrowdFund/CrowdFund.sol\":525:552  Campaign[] public campaigns */\n    tag_3:\n      tag_14\n      0x04\n      dup1\n      calldatasize\n      sub\n      dup2\n      add\n      swap1\n      tag_15\n      swap2\n      swap1\n      tag_16\n      jump\t// in\n    tag_15:\n      tag_17\n      jump\t// in\n    tag_14:\n      mload(0x40)\n      tag_18\n      swap7\n      swap6\n      swap5\n      swap4\n      swap3\n      swap2\n      swap1\n      tag_19\n      jump\t// in\n    tag_18:\n      mload(0x40)\n      dup1\n      swap2\n      sub\n      swap1\n      return\n        /* \"contracts/CrowdFund/CrowdFund.sol\":3474:3927  function refund(uint _id) external {\r... */\n    tag_4:\n      tag_20\n      0x04\n      dup1\n      calldatasize\n      sub\n      dup2\n      add\n      swap1\n      tag_21\n      swap2\n      swap1\n      tag_16\n      jump\t// in\n    tag_21:\n      tag_22\n      jump\t// in\n    tag_20:\n      stop\n        /* \"contracts/CrowdFund/CrowdFund.sol\":1071:1715  function launch(uint _goal, uint32 _startAt, uint32 _endAt) external {\r... */\n    tag_5:\n      tag_23\n      0x04\n      dup1\n      calldatasize\n      sub\n      dup2\n      add\n      swap1\n      tag_24\n      swap2\n      swap1\n      tag_25\n      jump\t// in\n    tag_24:\n      tag_26\n      jump\t// in\n    tag_23:\n      stop\n        /* \"contracts/CrowdFund/CrowdFund.sol\":324:341  uint public total */\n    tag_6:\n      tag_27\n      tag_28\n      jump\t// in\n    tag_27:\n      mload(0x40)\n      tag_29\n      swap2\n      swap1\n      tag_30\n      jump\t// in\n    tag_29:\n      mload(0x40)\n      dup1\n      swap2\n      sub\n      swap1\n      return\n        /* \"contracts/CrowdFund/CrowdFund.sol\":2939:3466  function claim(uint _id) external {\r... */\n    tag_7:\n      tag_31\n      0x04\n      dup1\n      calldatasize\n      sub\n      dup2\n      add\n      swap1\n      tag_32\n      swap2\n      swap1\n      tag_16\n      jump\t// in\n    tag_32:\n      tag_33\n      jump\t// in\n    tag_31:\n      stop\n        /* \"contracts/CrowdFund/CrowdFund.sol\":1723:2041  function cancel(uint _id) external {\r... */\n    tag_8:\n      tag_34\n      0x04\n      dup1\n      calldatasize\n      sub\n      dup2\n      add\n      swap1\n      tag_35\n      swap2\n      swap1\n      tag_16\n      jump\t// in\n    tag_35:\n      tag_36\n      jump\t// in\n    tag_34:\n      stop\n        /* \"contracts/CrowdFund/CrowdFund.sol\":2545:2931  function unpledge(uint _id, uint _amount) external {\r... */\n    tag_9:\n      tag_37\n      0x04\n      dup1\n      calldatasize\n      sub\n      dup2\n      add\n      swap1\n      tag_38\n      swap2\n      swap1\n      tag_39\n      jump\t// in\n    tag_38:\n      tag_40\n      jump\t// in\n    tag_37:\n      stop\n        /* \"contracts/CrowdFund/CrowdFund.sol\":559:621  mapping(uint => mapping(address => uint)) public donatedAmount */\n    tag_10:\n      tag_41\n      0x04\n      dup1\n      calldatasize\n      sub\n      dup2\n      add\n      swap1\n      tag_42\n      swap2\n      swap1\n      tag_43\n      jump\t// in\n    tag_42:\n      tag_44\n      jump\t// in\n    tag_41:\n      mload(0x40)\n      tag_45\n      swap2\n      swap1\n      tag_30\n      jump\t// in\n    tag_45:\n      mload(0x40)\n      dup1\n      swap2\n      sub\n      swap1\n      return\n        /* \"contracts/CrowdFund/CrowdFund.sol\":288:317  IERC20 public immutable token */\n    tag_11:\n      tag_46\n      tag_47\n      jump\t// in\n    tag_46:\n      mload(0x40)\n      tag_48\n      swap2\n      swap1\n      tag_49\n      jump\t// in\n    tag_48:\n      mload(0x40)\n      dup1\n      swap2\n      sub\n      swap1\n      return\n        /* \"contracts/CrowdFund/CrowdFund.sol\":2049:2537  function pledge(uint _id, uint _amount) external {\r... */\n    tag_12:\n      tag_50\n      0x04\n      dup1\n      calldatasize\n      sub\n      dup2\n      add\n      swap1\n      tag_51\n      swap2\n      swap1\n      tag_39\n      jump\t// in\n    tag_51:\n      tag_52\n      jump\t// in\n    tag_50:\n      stop\n        /* \"contracts/CrowdFund/CrowdFund.sol\":525:552  Campaign[] public campaigns */\n    tag_17:\n      0x01\n      dup2\n      dup2\n      sload\n      dup2\n      lt\n      tag_53\n      jumpi\n      0x00\n      dup1\n      revert\n    tag_53:\n      swap1\n      0x00\n      mstore\n      keccak256(0x00, 0x20)\n      swap1\n      0x04\n      mul\n      add\n      0x00\n      swap2\n      pop\n      swap1\n      pop\n      dup1\n      0x00\n      add\n      0x00\n      swap1\n      sload\n      swap1\n      0x0100\n      exp\n      swap1\n      div\n      0xffffffffffffffffffffffffffffffffffffffff\n      and\n      swap1\n      dup1\n      0x01\n      add\n      sload\n      swap1\n      dup1\n      0x02\n      add\n      sload\n      swap1\n      dup1\n      0x03\n      add\n      0x00\n      swap1\n      sload\n      swap1\n      0x0100\n      exp\n      swap1\n      div\n      0xffffffff\n      and\n      swap1\n      dup1\n      0x03\n      add\n      0x04\n      swap1\n      sload\n      swap1\n      0x0100\n      exp\n      swap1\n      div\n      0xffffffff\n      and\n      swap1\n      dup1\n      0x03\n      add\n      0x08\n      swap1\n      sload\n      swap1\n      0x0100\n      exp\n      swap1\n      div\n      0xff\n      and\n      swap1\n      pop\n      dup7\n      jump\t// out\n        /* \"contracts/CrowdFund/CrowdFund.sol\":3474:3927  function refund(uint _id) external {\r... */\n    tag_22:\n        /* \"contracts/CrowdFund/CrowdFund.sol\":3520:3544  Campaign memory campaign */\n      0x00\n        /* \"contracts/CrowdFund/CrowdFund.sol\":3547:3556  campaigns */\n      0x01\n        /* \"contracts/CrowdFund/CrowdFund.sol\":3557:3560  _id */\n      dup3\n        /* \"contracts/CrowdFund/CrowdFund.sol\":3547:3561  campaigns[_id] */\n      dup2\n      sload\n      dup2\n      lt\n      tag_56\n      jumpi\n      tag_57\n      tag_58\n      jump\t// in\n    tag_57:\n    tag_56:\n      swap1\n      0x00\n      mstore\n      keccak256(0x00, 0x20)\n      swap1\n      0x04\n      mul\n      add\n        /* \"contracts/CrowdFund/CrowdFund.sol\":3520:3561  Campaign memory campaign = campaigns[_id] */\n      mload(0x40)\n      dup1\n      0xc0\n      add\n      0x40\n      mstore\n      swap1\n      dup2\n      0x00\n      dup3\n      add\n      0x00\n      swap1\n      sload\n      swap1\n      0x0100\n      exp\n      swap1\n      div\n      0xffffffffffffffffffffffffffffffffffffffff\n      and\n      0xffffffffffffffffffffffffffffffffffffffff\n      and\n      0xffffffffffffffffffffffffffffffffffffffff\n      and\n      dup2\n      mstore\n      0x20\n      add\n      0x01\n      dup3\n      add\n      sload\n      dup2\n      mstore\n      0x20\n      add\n      0x02\n      dup3\n      add\n      sload\n      dup2\n      mstore\n      0x20\n      add\n      0x03\n      dup3\n      add\n      0x00\n      swap1\n      sload\n      swap1\n      0x0100\n      exp\n      swap1\n      div\n      0xffffffff\n      and\n      0xffffffff\n      and\n      0xffffffff\n      and\n      dup2\n      mstore\n      0x20\n      add\n      0x03\n      dup3\n      add\n      0x04\n      swap1\n      sload\n      swap1\n      0x0100\n      exp\n      swap1\n      div\n      0xffffffff\n      and\n      0xffffffff\n      and\n      0xffffffff\n      and\n      dup2\n      mstore\n      0x20\n      add\n      0x03\n      dup3\n      add\n      0x08\n      swap1\n      sload\n      swap1\n      0x0100\n      exp\n      swap1\n      div\n      0xff\n      and\n      iszero\n      iszero\n      iszero\n      iszero\n      dup2\n      mstore\n      pop\n      pop\n      swap1\n      pop\n        /* \"contracts/CrowdFund/CrowdFund.sol\":3598:3606  campaign */\n      dup1\n        /* \"contracts/CrowdFund/CrowdFund.sol\":3598:3612  campaign.endAt */\n      0x80\n      add\n      mload\n        /* \"contracts/CrowdFund/CrowdFund.sol\":3580:3612  block.timestamp > campaign.endAt */\n      0xffffffff\n      and\n        /* \"contracts/CrowdFund/CrowdFund.sol\":3580:3595  block.timestamp */\n      timestamp\n        /* \"contracts/CrowdFund/CrowdFund.sol\":3580:3612  block.timestamp > campaign.endAt */\n      gt\n        /* \"contracts/CrowdFund/CrowdFund.sol\":3572:3643  require(block.timestamp > campaign.endAt, \"Campaign is still going on\") */\n      tag_60\n      jumpi\n      mload(0x40)\n      0x08c379a000000000000000000000000000000000000000000000000000000000\n      dup2\n      mstore\n      0x04\n      add\n      tag_61\n      swap1\n      tag_62\n      jump\t// in\n    tag_61:\n      mload(0x40)\n      dup1\n      swap2\n      sub\n      swap1\n      revert\n    tag_60:\n        /* \"contracts/CrowdFund/CrowdFund.sol\":3682:3690  campaign */\n      dup1\n        /* \"contracts/CrowdFund/CrowdFund.sol\":3682:3695  campaign.goal */\n      0x20\n      add\n      mload\n        /* \"contracts/CrowdFund/CrowdFund.sol\":3662:3670  campaign */\n      dup2\n        /* \"contracts/CrowdFund/CrowdFund.sol\":3662:3679  campaign.donation */\n      0x40\n      add\n      mload\n        /* \"contracts/CrowdFund/CrowdFund.sol\":3662:3695  campaign.donation < campaign.goal */\n      lt\n        /* \"contracts/CrowdFund/CrowdFund.sol\":3654:3732  require(campaign.donation < campaign.goal, \"Campaign has reached to the goal\") */\n      tag_63\n      jumpi\n      mload(0x40)\n      0x08c379a000000000000000000000000000000000000000000000000000000000\n      dup2\n      mstore\n      0x04\n      add\n      tag_64\n      swap1\n      tag_65\n      jump\t// in\n    tag_64:\n      mload(0x40)\n      dup1\n      swap2\n      sub\n      swap1\n      revert\n    tag_63:\n        /* \"contracts/CrowdFund/CrowdFund.sol\":3745:3753  uint bal */\n      0x00\n        /* \"contracts/CrowdFund/CrowdFund.sol\":3756:3769  donatedAmount */\n      0x02\n        /* \"contracts/CrowdFund/CrowdFund.sol\":3756:3774  donatedAmount[_id] */\n      0x00\n        /* \"contracts/CrowdFund/CrowdFund.sol\":3770:3773  _id */\n      dup5\n        /* \"contracts/CrowdFund/CrowdFund.sol\":3756:3774  donatedAmount[_id] */\n      dup2\n      mstore\n      0x20\n      add\n      swap1\n      dup2\n      mstore\n      0x20\n      add\n      0x00\n      keccak256\n        /* \"contracts/CrowdFund/CrowdFund.sol\":3756:3786  donatedAmount[_id][msg.sender] */\n      0x00\n        /* \"contracts/CrowdFund/CrowdFund.sol\":3775:3785  msg.sender */\n      caller\n        /* \"contracts/CrowdFund/CrowdFund.sol\":3756:3786  donatedAmount[_id][msg.sender] */\n      0xffffffffffffffffffffffffffffffffffffffff\n      and\n      0xffffffffffffffffffffffffffffffffffffffff\n      and\n      dup2\n      mstore\n      0x20\n      add\n      swap1\n      dup2\n      mstore\n      0x20\n      add\n      0x00\n      keccak256\n      sload\n        /* \"contracts/CrowdFund/CrowdFund.sol\":3745:3786  uint bal = donatedAmount[_id][msg.sender] */\n      swap1\n      pop\n        /* \"contracts/CrowdFund/CrowdFund.sol\":3830:3831  0 */\n      0x00\n        /* \"contracts/CrowdFund/CrowdFund.sol\":3797:3810  donatedAmount */\n      0x02\n        /* \"contracts/CrowdFund/CrowdFund.sol\":3797:3815  donatedAmount[_id] */\n      0x00\n        /* \"contracts/CrowdFund/CrowdFund.sol\":3811:3814  _id */\n      dup6\n        /* \"contracts/CrowdFund/CrowdFund.sol\":3797:3815  donatedAmount[_id] */\n      dup2\n      mstore\n      0x20\n      add\n      swap1\n      dup2\n      mstore\n      0x20\n      add\n      0x00\n      keccak256\n        /* \"contracts/CrowdFund/CrowdFund.sol\":3797:3827  donatedAmount[_id][msg.sender] */\n      0x00\n        /* \"contracts/CrowdFund/CrowdFund.sol\":3816:3826  msg.sender */\n      caller\n        /* \"contracts/CrowdFund/CrowdFund.sol\":3797:3827  donatedAmount[_id][msg.sender] */\n      0xffffffffffffffffffffffffffffffffffffffff\n      and\n      0xffffffffffffffffffffffffffffffffffffffff\n      and\n      dup2\n      mstore\n      0x20\n      add\n      swap1\n      dup2\n      mstore\n      0x20\n      add\n      0x00\n      keccak256\n        /* \"contracts/CrowdFund/CrowdFund.sol\":3797:3831  donatedAmount[_id][msg.sender] = 0 */\n      dup2\n      swap1\n      sstore\n      pop\n        /* \"contracts/CrowdFund/CrowdFund.sol\":3842:3847  token */\n      immutable(\"0x81e080ffc23e8b8d44dd829bc823229e92b893eb1d8f624419d3f5682eb97fc3\")\n        /* \"contracts/CrowdFund/CrowdFund.sol\":3842:3856  token.transfer */\n      0xffffffffffffffffffffffffffffffffffffffff\n      and\n      0xa9059cbb\n        /* \"contracts/CrowdFund/CrowdFund.sol\":3857:3867  msg.sender */\n      caller\n        /* \"contracts/CrowdFund/CrowdFund.sol\":3869:3872  bal */\n      dup4\n        /* \"contracts/CrowdFund/CrowdFund.sol\":3842:3873  token.transfer(msg.sender, bal) */\n      mload(0x40)\n      dup4\n      0xffffffff\n      and\n      0xe0\n      shl\n      dup2\n      mstore\n      0x04\n      add\n      tag_66\n      swap3\n      swap2\n      swap1\n      tag_67\n      jump\t// in\n    tag_66:\n      0x20\n      mload(0x40)\n      dup1\n      dup4\n      sub\n      dup2\n      0x00\n      dup8\n      dup1\n      extcodesize\n      iszero\n      dup1\n      iszero\n      tag_68\n      jumpi\n      0x00\n      dup1\n      revert\n    tag_68:\n      pop\n      gas\n      call\n      iszero\n      dup1\n      iszero\n      tag_70\n      jumpi\n      returndatasize\n      0x00\n      dup1\n      returndatacopy\n      revert(0x00, returndatasize)\n    tag_70:\n      pop\n      pop\n      pop\n      pop\n      mload(0x40)\n      returndatasize\n      not(0x1f)\n      0x1f\n      dup3\n      add\n      and\n      dup3\n      add\n      dup1\n      0x40\n      mstore\n      pop\n      dup2\n      add\n      swap1\n      tag_71\n      swap2\n      swap1\n      tag_72\n      jump\t// in\n    tag_71:\n      pop\n        /* \"contracts/CrowdFund/CrowdFund.sol\":3903:3913  msg.sender */\n      caller\n        /* \"contracts/CrowdFund/CrowdFund.sol\":3891:3919  Refund(_id, msg.sender, bal) */\n      0xffffffffffffffffffffffffffffffffffffffff\n      and\n      0x21e12a7cad0da5928167e1084ea4d5fdf8d9af66657a2543a9ac76a0ca081477\n        /* \"contracts/CrowdFund/CrowdFund.sol\":3898:3901  _id */\n      dup5\n        /* \"contracts/CrowdFund/CrowdFund.sol\":3915:3918  bal */\n      dup4\n        /* \"contracts/CrowdFund/CrowdFund.sol\":3891:3919  Refund(_id, msg.sender, bal) */\n      mload(0x40)\n      tag_73\n      swap3\n      swap2\n      swap1\n      tag_74\n      jump\t// in\n    tag_73:\n      mload(0x40)\n      dup1\n      swap2\n      sub\n      swap1\n      log2\n        /* \"contracts/CrowdFund/CrowdFund.sol\":3509:3927  {\r... */\n      pop\n      pop\n        /* \"contracts/CrowdFund/CrowdFund.sol\":3474:3927  function refund(uint _id) external {\r... */\n      pop\n      jump\t// out\n        /* \"contracts/CrowdFund/CrowdFund.sol\":1071:1715  function launch(uint _goal, uint32 _startAt, uint32 _endAt) external {\r... */\n    tag_26:\n        /* \"contracts/CrowdFund/CrowdFund.sol\":1171:1186  block.timestamp */\n      timestamp\n        /* \"contracts/CrowdFund/CrowdFund.sol\":1159:1167  _startAt */\n      dup3\n        /* \"contracts/CrowdFund/CrowdFund.sol\":1159:1186  _startAt >= block.timestamp */\n      0xffffffff\n      and\n      lt\n      iszero\n        /* \"contracts/CrowdFund/CrowdFund.sol\":1151:1219  require(_startAt >= block.timestamp, \"Campaing can`t start in past\") */\n      tag_76\n      jumpi\n      mload(0x40)\n      0x08c379a000000000000000000000000000000000000000000000000000000000\n      dup2\n      mstore\n      0x04\n      add\n      tag_77\n      swap1\n      tag_78\n      jump\t// in\n    tag_77:\n      mload(0x40)\n      dup1\n      swap2\n      sub\n      swap1\n      revert\n    tag_76:\n        /* \"contracts/CrowdFund/CrowdFund.sol\":1248:1256  _startAt */\n      dup2\n        /* \"contracts/CrowdFund/CrowdFund.sol\":1238:1256  _endAt >= _startAt */\n      0xffffffff\n      and\n        /* \"contracts/CrowdFund/CrowdFund.sol\":1238:1244  _endAt */\n      dup2\n        /* \"contracts/CrowdFund/CrowdFund.sol\":1238:1256  _endAt >= _startAt */\n      0xffffffff\n      and\n      lt\n      iszero\n        /* \"contracts/CrowdFund/CrowdFund.sol\":1230:1309  require(_endAt >= _startAt, \"Campaing`s end time should be greater then start\") */\n      tag_79\n      jumpi\n      mload(0x40)\n      0x08c379a000000000000000000000000000000000000000000000000000000000\n      dup2\n      mstore\n      0x04\n      add\n      tag_80\n      swap1\n      tag_81\n      jump\t// in\n    tag_80:\n      mload(0x40)\n      dup1\n      swap2\n      sub\n      swap1\n      revert\n    tag_79:\n        /* \"contracts/CrowdFund/CrowdFund.sol\":1338:1353  block.timestamp */\n      timestamp\n        /* \"contracts/CrowdFund/CrowdFund.sol\":1328:1334  _endAt */\n      dup2\n        /* \"contracts/CrowdFund/CrowdFund.sol\":1328:1353  _endAt <= block.timestamp */\n      0xffffffff\n      and\n      gt\n      iszero\n        /* \"contracts/CrowdFund/CrowdFund.sol\":1320:1388  require(_endAt <= block.timestamp, \"Campaing should end in 90 days\") */\n      tag_82\n      jumpi\n      mload(0x40)\n      0x08c379a000000000000000000000000000000000000000000000000000000000\n      dup2\n      mstore\n      0x04\n      add\n      tag_83\n      swap1\n      tag_84\n      jump\t// in\n    tag_83:\n      mload(0x40)\n      dup1\n      swap2\n      sub\n      swap1\n      revert\n    tag_82:\n        /* \"contracts/CrowdFund/CrowdFund.sol\":1410:1411  1 */\n      0x01\n        /* \"contracts/CrowdFund/CrowdFund.sol\":1401:1406  total */\n      0x00\n      dup1\n        /* \"contracts/CrowdFund/CrowdFund.sol\":1401:1411  total += 1 */\n      dup3\n      dup3\n      sload\n      tag_85\n      swap2\n      swap1\n      tag_86\n      jump\t// in\n    tag_85:\n      swap3\n      pop\n      pop\n      dup2\n      swap1\n      sstore\n      pop\n        /* \"contracts/CrowdFund/CrowdFund.sol\":1441:1639  Campaign({\r... */\n      mload(0x40)\n      dup1\n      0xc0\n      add\n      0x40\n      mstore\n      dup1\n        /* \"contracts/CrowdFund/CrowdFund.sol\":1474:1484  msg.sender */\n      caller\n        /* \"contracts/CrowdFund/CrowdFund.sol\":1441:1639  Campaign({\r... */\n      0xffffffffffffffffffffffffffffffffffffffff\n      and\n      dup2\n      mstore\n      0x20\n      add\n        /* \"contracts/CrowdFund/CrowdFund.sol\":1505:1510  _goal */\n      dup5\n        /* \"contracts/CrowdFund/CrowdFund.sol\":1441:1639  Campaign({\r... */\n      dup2\n      mstore\n      0x20\n      add\n        /* \"contracts/CrowdFund/CrowdFund.sol\":1535:1536  0 */\n      0x00\n        /* \"contracts/CrowdFund/CrowdFund.sol\":1441:1639  Campaign({\r... */\n      dup2\n      mstore\n      0x20\n      add\n        /* \"contracts/CrowdFund/CrowdFund.sol\":1560:1568  _startAt */\n      dup4\n        /* \"contracts/CrowdFund/CrowdFund.sol\":1441:1639  Campaign({\r... */\n      0xffffffff\n      and\n      dup2\n      mstore\n      0x20\n      add\n        /* \"contracts/CrowdFund/CrowdFund.sol\":1590:1596  _endAt */\n      dup3\n        /* \"contracts/CrowdFund/CrowdFund.sol\":1441:1639  Campaign({\r... */\n      0xffffffff\n      and\n      dup2\n      mstore\n      0x20\n      add\n        /* \"contracts/CrowdFund/CrowdFund.sol\":1622:1627  false */\n      0x00\n        /* \"contracts/CrowdFund/CrowdFund.sol\":1441:1639  Campaign({\r... */\n      iszero\n      iszero\n      dup2\n      mstore\n      pop\n        /* \"contracts/CrowdFund/CrowdFund.sol\":1422:1431  campaigns */\n      0x01\n        /* \"contracts/CrowdFund/CrowdFund.sol\":1432:1437  total */\n      sload(0x00)\n        /* \"contracts/CrowdFund/CrowdFund.sol\":1422:1438  campaigns[total] */\n      dup2\n      sload\n      dup2\n      lt\n      tag_87\n      jumpi\n      tag_88\n      tag_58\n      jump\t// in\n    tag_88:\n    tag_87:\n      swap1\n      0x00\n      mstore\n      keccak256(0x00, 0x20)\n      swap1\n      0x04\n      mul\n      add\n        /* \"contracts/CrowdFund/CrowdFund.sol\":1422:1639  campaigns[total] = Campaign({\r... */\n      0x00\n      dup3\n      add\n      mload\n      dup2\n      0x00\n      add\n      exp(0x0100, 0x00)\n      dup2\n      sload\n      dup2\n      0xffffffffffffffffffffffffffffffffffffffff\n      mul\n      not\n      and\n      swap1\n      dup4\n      0xffffffffffffffffffffffffffffffffffffffff\n      and\n      mul\n      or\n      swap1\n      sstore\n      pop\n      0x20\n      dup3\n      add\n      mload\n      dup2\n      0x01\n      add\n      sstore\n      0x40\n      dup3\n      add\n      mload\n      dup2\n      0x02\n      add\n      sstore\n      0x60\n      dup3\n      add\n      mload\n      dup2\n      0x03\n      add\n      exp(0x0100, 0x00)\n      dup2\n      sload\n      dup2\n      0xffffffff\n      mul\n      not\n      and\n      swap1\n      dup4\n      0xffffffff\n      and\n      mul\n      or\n      swap1\n      sstore\n      pop\n      0x80\n      dup3\n      add\n      mload\n      dup2\n      0x03\n      add\n      exp(0x0100, 0x04)\n      dup2\n      sload\n      dup2\n      0xffffffff\n      mul\n      not\n      and\n      swap1\n      dup4\n      0xffffffff\n      and\n      mul\n      or\n      swap1\n      sstore\n      pop\n      0xa0\n      dup3\n      add\n      mload\n      dup2\n      0x03\n      add\n      exp(0x0100, 0x08)\n      dup2\n      sload\n      dup2\n      0xff\n      mul\n      not\n      and\n      swap1\n      dup4\n      iszero\n      iszero\n      mul\n      or\n      swap1\n      sstore\n      pop\n      swap1\n      pop\n      pop\n        /* \"contracts/CrowdFund/CrowdFund.sol\":1671:1681  msg.sender */\n      caller\n        /* \"contracts/CrowdFund/CrowdFund.sol\":1657:1707  Launch(total, msg.sender, _goal, _startAt, _endAt) */\n      0xffffffffffffffffffffffffffffffffffffffff\n      and\n      0x0601cd0d650b473037e838a2696d41e654433d065b3f56b28d1d3302e44a304f\n        /* \"contracts/CrowdFund/CrowdFund.sol\":1664:1669  total */\n      sload(0x00)\n        /* \"contracts/CrowdFund/CrowdFund.sol\":1683:1688  _goal */\n      dup6\n        /* \"contracts/CrowdFund/CrowdFund.sol\":1690:1698  _startAt */\n      dup6\n        /* \"contracts/CrowdFund/CrowdFund.sol\":1700:1706  _endAt */\n      dup6\n        /* \"contracts/CrowdFund/CrowdFund.sol\":1657:1707  Launch(total, msg.sender, _goal, _startAt, _endAt) */\n      mload(0x40)\n      tag_90\n      swap5\n      swap4\n      swap3\n      swap2\n      swap1\n      tag_91\n      jump\t// in\n    tag_90:\n      mload(0x40)\n      dup1\n      swap2\n      sub\n      swap1\n      log2\n        /* \"contracts/CrowdFund/CrowdFund.sol\":1071:1715  function launch(uint _goal, uint32 _startAt, uint32 _endAt) external {\r... */\n      pop\n      pop\n      pop\n      jump\t// out\n        /* \"contracts/CrowdFund/CrowdFund.sol\":324:341  uint public total */\n    tag_28:\n      sload(0x00)\n      dup2\n      jump\t// out\n        /* \"contracts/CrowdFund/CrowdFund.sol\":2939:3466  function claim(uint _id) external {\r... */\n    tag_33:\n        /* \"contracts/CrowdFund/CrowdFund.sol\":2984:3009  Campaign storage campaign */\n      0x00\n        /* \"contracts/CrowdFund/CrowdFund.sol\":3012:3021  campaigns */\n      0x01\n        /* \"contracts/CrowdFund/CrowdFund.sol\":3022:3025  _id */\n      dup3\n        /* \"contracts/CrowdFund/CrowdFund.sol\":3012:3026  campaigns[_id] */\n      dup2\n      sload\n      dup2\n      lt\n      tag_93\n      jumpi\n      tag_94\n      tag_58\n      jump\t// in\n    tag_94:\n    tag_93:\n      swap1\n      0x00\n      mstore\n      keccak256(0x00, 0x20)\n      swap1\n      0x04\n      mul\n      add\n        /* \"contracts/CrowdFund/CrowdFund.sol\":2984:3026  Campaign storage campaign = campaigns[_id] */\n      swap1\n      pop\n        /* \"contracts/CrowdFund/CrowdFund.sol\":3065:3075  msg.sender */\n      caller\n        /* \"contracts/CrowdFund/CrowdFund.sol\":3045:3075  campaign.creator == msg.sender */\n      0xffffffffffffffffffffffffffffffffffffffff\n      and\n        /* \"contracts/CrowdFund/CrowdFund.sol\":3045:3053  campaign */\n      dup2\n        /* \"contracts/CrowdFund/CrowdFund.sol\":3045:3061  campaign.creator */\n      0x00\n      add\n      0x00\n      swap1\n      sload\n      swap1\n      0x0100\n      exp\n      swap1\n      div\n      0xffffffffffffffffffffffffffffffffffffffff\n      and\n        /* \"contracts/CrowdFund/CrowdFund.sol\":3045:3075  campaign.creator == msg.sender */\n      0xffffffffffffffffffffffffffffffffffffffff\n      and\n      eq\n        /* \"contracts/CrowdFund/CrowdFund.sol\":3037:3102  require(campaign.creator == msg.sender, \"You are not authorised\") */\n      tag_96\n      jumpi\n      mload(0x40)\n      0x08c379a000000000000000000000000000000000000000000000000000000000\n      dup2\n      mstore\n      0x04\n      add\n      tag_97\n      swap1\n      tag_98\n      jump\t// in\n    tag_97:\n      mload(0x40)\n      dup1\n      swap2\n      sub\n      swap1\n      revert\n    tag_96:\n        /* \"contracts/CrowdFund/CrowdFund.sol\":3139:3147  campaign */\n      dup1\n        /* \"contracts/CrowdFund/CrowdFund.sol\":3139:3153  campaign.endAt */\n      0x03\n      add\n      0x04\n      swap1\n      sload\n      swap1\n      0x0100\n      exp\n      swap1\n      div\n      0xffffffff\n      and\n        /* \"contracts/CrowdFund/CrowdFund.sol\":3121:3153  block.timestamp > campaign.endAt */\n      0xffffffff\n      and\n        /* \"contracts/CrowdFund/CrowdFund.sol\":3121:3136  block.timestamp */\n      timestamp\n        /* \"contracts/CrowdFund/CrowdFund.sol\":3121:3153  block.timestamp > campaign.endAt */\n      gt\n        /* \"contracts/CrowdFund/CrowdFund.sol\":3113:3184  require(block.timestamp > campaign.endAt, \"Campaign is still going on\") */\n      tag_99\n      jumpi\n      mload(0x40)\n      0x08c379a000000000000000000000000000000000000000000000000000000000\n      dup2\n      mstore\n      0x04\n      add\n      tag_100\n      swap1\n      tag_62\n      jump\t// in\n    tag_100:\n      mload(0x40)\n      dup1\n      swap2\n      sub\n      swap1\n      revert\n    tag_99:\n        /* \"contracts/CrowdFund/CrowdFund.sol\":3224:3232  campaign */\n      dup1\n        /* \"contracts/CrowdFund/CrowdFund.sol\":3224:3237  campaign.goal */\n      0x01\n      add\n      sload\n        /* \"contracts/CrowdFund/CrowdFund.sol\":3203:3211  campaign */\n      dup2\n        /* \"contracts/CrowdFund/CrowdFund.sol\":3203:3220  campaign.donation */\n      0x02\n      add\n      sload\n        /* \"contracts/CrowdFund/CrowdFund.sol\":3203:3237  campaign.donation >= campaign.goal */\n      lt\n      iszero\n        /* \"contracts/CrowdFund/CrowdFund.sol\":3195:3272  require(campaign.donation >= campaign.goal, \"Campign must reach to the goal\") */\n      tag_101\n      jumpi\n      mload(0x40)\n      0x08c379a000000000000000000000000000000000000000000000000000000000\n      dup2\n      mstore\n      0x04\n      add\n      tag_102\n      swap1\n      tag_103\n      jump\t// in\n    tag_102:\n      mload(0x40)\n      dup1\n      swap2\n      sub\n      swap1\n      revert\n    tag_101:\n        /* \"contracts/CrowdFund/CrowdFund.sol\":3292:3300  campaign */\n      dup1\n        /* \"contracts/CrowdFund/CrowdFund.sol\":3292:3310  campaign.completed */\n      0x03\n      add\n      0x08\n      swap1\n      sload\n      swap1\n      0x0100\n      exp\n      swap1\n      div\n      0xff\n      and\n        /* \"contracts/CrowdFund/CrowdFund.sol\":3291:3310  !campaign.completed */\n      iszero\n        /* \"contracts/CrowdFund/CrowdFund.sol\":3283:3330  require(!campaign.completed, \"already claimed\") */\n      tag_104\n      jumpi\n      mload(0x40)\n      0x08c379a000000000000000000000000000000000000000000000000000000000\n      dup2\n      mstore\n      0x04\n      add\n      tag_105\n      swap1\n      tag_106\n      jump\t// in\n    tag_105:\n      mload(0x40)\n      dup1\n      swap2\n      sub\n      swap1\n      revert\n    tag_104:\n        /* \"contracts/CrowdFund/CrowdFund.sol\":3364:3368  true */\n      0x01\n        /* \"contracts/CrowdFund/CrowdFund.sol\":3343:3351  campaign */\n      dup2\n        /* \"contracts/CrowdFund/CrowdFund.sol\":3343:3361  campaign.completed */\n      0x03\n      add\n      0x08\n        /* \"contracts/CrowdFund/CrowdFund.sol\":3343:3368  campaign.completed = true */\n      0x0100\n      exp\n      dup2\n      sload\n      dup2\n      0xff\n      mul\n      not\n      and\n      swap1\n      dup4\n      iszero\n      iszero\n      mul\n      or\n      swap1\n      sstore\n      pop\n        /* \"contracts/CrowdFund/CrowdFund.sol\":3379:3384  token */\n      immutable(\"0x81e080ffc23e8b8d44dd829bc823229e92b893eb1d8f624419d3f5682eb97fc3\")\n        /* \"contracts/CrowdFund/CrowdFund.sol\":3379:3393  token.transfer */\n      0xffffffffffffffffffffffffffffffffffffffff\n      and\n      0xa9059cbb\n        /* \"contracts/CrowdFund/CrowdFund.sol\":3394:3402  campaign */\n      dup3\n        /* \"contracts/CrowdFund/CrowdFund.sol\":3394:3410  campaign.creator */\n      0x00\n      add\n      0x00\n      swap1\n      sload\n      swap1\n      0x0100\n      exp\n      swap1\n      div\n      0xffffffffffffffffffffffffffffffffffffffff\n      and\n        /* \"contracts/CrowdFund/CrowdFund.sol\":3412:3420  campaign */\n      dup4\n        /* \"contracts/CrowdFund/CrowdFund.sol\":3412:3429  campaign.donation */\n      0x02\n      add\n      sload\n        /* \"contracts/CrowdFund/CrowdFund.sol\":3379:3430  token.transfer(campaign.creator, campaign.donation) */\n      mload(0x40)\n      dup4\n      0xffffffff\n      and\n      0xe0\n      shl\n      dup2\n      mstore\n      0x04\n      add\n      tag_107\n      swap3\n      swap2\n      swap1\n      tag_67\n      jump\t// in\n    tag_107:\n      0x20\n      mload(0x40)\n      dup1\n      dup4\n      sub\n      dup2\n      0x00\n      dup8\n      dup1\n      extcodesize\n      iszero\n      dup1\n      iszero\n      tag_108\n      jumpi\n      0x00\n      dup1\n      revert\n    tag_108:\n      pop\n      gas\n      call\n      iszero\n      dup1\n      iszero\n      tag_110\n      jumpi\n      returndatasize\n      0x00\n      dup1\n      returndatacopy\n      revert(0x00, returndatasize)\n    tag_110:\n      pop\n      pop\n      pop\n      pop\n      mload(0x40)\n      returndatasize\n      not(0x1f)\n      0x1f\n      dup3\n      add\n      and\n      dup3\n      add\n      dup1\n      0x40\n      mstore\n      pop\n      dup2\n      add\n      swap1\n      tag_111\n      swap2\n      swap1\n      tag_72\n      jump\t// in\n    tag_111:\n      pop\n        /* \"contracts/CrowdFund/CrowdFund.sol\":3448:3458  Claim(_id) */\n      0x7bb2b3c10797baccb6f8c4791f1edd6ca2f0d028ee0eda64b01a9a57e3a653f7\n        /* \"contracts/CrowdFund/CrowdFund.sol\":3454:3457  _id */\n      dup3\n        /* \"contracts/CrowdFund/CrowdFund.sol\":3448:3458  Claim(_id) */\n      mload(0x40)\n      tag_112\n      swap2\n      swap1\n      tag_30\n      jump\t// in\n    tag_112:\n      mload(0x40)\n      dup1\n      swap2\n      sub\n      swap1\n      log1\n        /* \"contracts/CrowdFund/CrowdFund.sol\":2973:3466  {\r... */\n      pop\n        /* \"contracts/CrowdFund/CrowdFund.sol\":2939:3466  function claim(uint _id) external {\r... */\n      pop\n      jump\t// out\n        /* \"contracts/CrowdFund/CrowdFund.sol\":1723:2041  function cancel(uint _id) external {\r... */\n    tag_36:\n        /* \"contracts/CrowdFund/CrowdFund.sol\":1769:1793  Campaign memory campaign */\n      0x00\n        /* \"contracts/CrowdFund/CrowdFund.sol\":1796:1805  campaigns */\n      0x01\n        /* \"contracts/CrowdFund/CrowdFund.sol\":1806:1809  _id */\n      dup3\n        /* \"contracts/CrowdFund/CrowdFund.sol\":1796:1810  campaigns[_id] */\n      dup2\n      sload\n      dup2\n      lt\n      tag_114\n      jumpi\n      tag_115\n      tag_58\n      jump\t// in\n    tag_115:\n    tag_114:\n      swap1\n      0x00\n      mstore\n      keccak256(0x00, 0x20)\n      swap1\n      0x04\n      mul\n      add\n        /* \"contracts/CrowdFund/CrowdFund.sol\":1769:1810  Campaign memory campaign = campaigns[_id] */\n      mload(0x40)\n      dup1\n      0xc0\n      add\n      0x40\n      mstore\n      swap1\n      dup2\n      0x00\n      dup3\n      add\n      0x00\n      swap1\n      sload\n      swap1\n      0x0100\n      exp\n      swap1\n      div\n      0xffffffffffffffffffffffffffffffffffffffff\n      and\n      0xffffffffffffffffffffffffffffffffffffffff\n      and\n      0xffffffffffffffffffffffffffffffffffffffff\n      and\n      dup2\n      mstore\n      0x20\n      add\n      0x01\n      dup3\n      add\n      sload\n      dup2\n      mstore\n      0x20\n      add\n      0x02\n      dup3\n      add\n      sload\n      dup2\n      mstore\n      0x20\n      add\n      0x03\n      dup3\n      add\n      0x00\n      swap1\n      sload\n      swap1\n      0x0100\n      exp\n      swap1\n      div\n      0xffffffff\n      and\n      0xffffffff\n      and\n      0xffffffff\n      and\n      dup2\n      mstore\n      0x20\n      add\n      0x03\n      dup3\n      add\n      0x04\n      swap1\n      sload\n      swap1\n      0x0100\n      exp\n      swap1\n      div\n      0xffffffff\n      and\n      0xffffffff\n      and\n      0xffffffff\n      and\n      dup2\n      mstore\n      0x20\n      add\n      0x03\n      dup3\n      add\n      0x08\n      swap1\n      sload\n      swap1\n      0x0100\n      exp\n      swap1\n      div\n      0xff\n      and\n      iszero\n      iszero\n      iszero\n      iszero\n      dup2\n      mstore\n      pop\n      pop\n      swap1\n      pop\n        /* \"contracts/CrowdFund/CrowdFund.sol\":1849:1859  msg.sender */\n      caller\n        /* \"contracts/CrowdFund/CrowdFund.sol\":1829:1859  campaign.creator == msg.sender */\n      0xffffffffffffffffffffffffffffffffffffffff\n      and\n        /* \"contracts/CrowdFund/CrowdFund.sol\":1829:1837  campaign */\n      dup2\n        /* \"contracts/CrowdFund/CrowdFund.sol\":1829:1845  campaign.creator */\n      0x00\n      add\n      mload\n        /* \"contracts/CrowdFund/CrowdFund.sol\":1829:1859  campaign.creator == msg.sender */\n      0xffffffffffffffffffffffffffffffffffffffff\n      and\n      eq\n        /* \"contracts/CrowdFund/CrowdFund.sol\":1821:1886  require(campaign.creator == msg.sender, \"You are not authorised\") */\n      tag_117\n      jumpi\n      mload(0x40)\n      0x08c379a000000000000000000000000000000000000000000000000000000000\n      dup2\n      mstore\n      0x04\n      add\n      tag_118\n      swap1\n      tag_98\n      jump\t// in\n    tag_118:\n      mload(0x40)\n      dup1\n      swap2\n      sub\n      swap1\n      revert\n    tag_117:\n        /* \"contracts/CrowdFund/CrowdFund.sol\":1923:1931  campaign */\n      dup1\n        /* \"contracts/CrowdFund/CrowdFund.sol\":1923:1939  campaign.startAt */\n      0x60\n      add\n      mload\n        /* \"contracts/CrowdFund/CrowdFund.sol\":1905:1939  block.timestamp < campaign.startAt */\n      0xffffffff\n      and\n        /* \"contracts/CrowdFund/CrowdFund.sol\":1905:1920  block.timestamp */\n      timestamp\n        /* \"contracts/CrowdFund/CrowdFund.sol\":1905:1939  block.timestamp < campaign.startAt */\n      lt\n        /* \"contracts/CrowdFund/CrowdFund.sol\":1897:1972  require(block.timestamp < campaign.startAt, \"Campaign has not started yet\") */\n      tag_119\n      jumpi\n      mload(0x40)\n      0x08c379a000000000000000000000000000000000000000000000000000000000\n      dup2\n      mstore\n      0x04\n      add\n      tag_120\n      swap1\n      tag_121\n      jump\t// in\n    tag_120:\n      mload(0x40)\n      dup1\n      swap2\n      sub\n      swap1\n      revert\n    tag_119:\n        /* \"contracts/CrowdFund/CrowdFund.sol\":1992:2001  campaigns */\n      0x01\n        /* \"contracts/CrowdFund/CrowdFund.sol\":2002:2005  _id */\n      dup3\n        /* \"contracts/CrowdFund/CrowdFund.sol\":1992:2006  campaigns[_id] */\n      dup2\n      sload\n      dup2\n      lt\n      tag_122\n      jumpi\n      tag_123\n      tag_58\n      jump\t// in\n    tag_123:\n    tag_122:\n      swap1\n      0x00\n      mstore\n      keccak256(0x00, 0x20)\n      swap1\n      0x04\n      mul\n      add\n      0x00\n        /* \"contracts/CrowdFund/CrowdFund.sol\":1985:2006  delete campaigns[_id] */\n      dup1\n      dup3\n      add\n      exp(0x0100, 0x00)\n      dup2\n      sload\n      swap1\n      0xffffffffffffffffffffffffffffffffffffffff\n      mul\n      not\n      and\n      swap1\n      sstore\n      0x01\n      dup3\n      add\n      0x00\n      swap1\n      sstore\n      0x02\n      dup3\n      add\n      0x00\n      swap1\n      sstore\n      0x03\n      dup3\n      add\n      exp(0x0100, 0x00)\n      dup2\n      sload\n      swap1\n      0xffffffff\n      mul\n      not\n      and\n      swap1\n      sstore\n      0x03\n      dup3\n      add\n      exp(0x0100, 0x04)\n      dup2\n      sload\n      swap1\n      0xffffffff\n      mul\n      not\n      and\n      swap1\n      sstore\n      0x03\n      dup3\n      add\n      exp(0x0100, 0x08)\n      dup2\n      sload\n      swap1\n      0xff\n      mul\n      not\n      and\n      swap1\n      sstore\n      pop\n      pop\n        /* \"contracts/CrowdFund/CrowdFund.sol\":2022:2033  Cancel(_id) */\n      0x8bf30e7ff26833413be5f69e1d373744864d600b664204b4a2f9844a8eedb9ed\n        /* \"contracts/CrowdFund/CrowdFund.sol\":2029:2032  _id */\n      dup3\n        /* \"contracts/CrowdFund/CrowdFund.sol\":2022:2033  Cancel(_id) */\n      mload(0x40)\n      tag_125\n      swap2\n      swap1\n      tag_30\n      jump\t// in\n    tag_125:\n      mload(0x40)\n      dup1\n      swap2\n      sub\n      swap1\n      log1\n        /* \"contracts/CrowdFund/CrowdFund.sol\":1758:2041  {\r... */\n      pop\n        /* \"contracts/CrowdFund/CrowdFund.sol\":1723:2041  function cancel(uint _id) external {\r... */\n      pop\n      jump\t// out\n        /* \"contracts/CrowdFund/CrowdFund.sol\":2545:2931  function unpledge(uint _id, uint _amount) external {\r... */\n    tag_40:\n        /* \"contracts/CrowdFund/CrowdFund.sol\":2607:2632  Campaign storage campaign */\n      0x00\n        /* \"contracts/CrowdFund/CrowdFund.sol\":2635:2644  campaigns */\n      0x01\n        /* \"contracts/CrowdFund/CrowdFund.sol\":2645:2648  _id */\n      dup4\n        /* \"contracts/CrowdFund/CrowdFund.sol\":2635:2649  campaigns[_id] */\n      dup2\n      sload\n      dup2\n      lt\n      tag_127\n      jumpi\n      tag_128\n      tag_58\n      jump\t// in\n    tag_128:\n    tag_127:\n      swap1\n      0x00\n      mstore\n      keccak256(0x00, 0x20)\n      swap1\n      0x04\n      mul\n      add\n        /* \"contracts/CrowdFund/CrowdFund.sol\":2607:2649  Campaign storage campaign = campaigns[_id] */\n      swap1\n      pop\n        /* \"contracts/CrowdFund/CrowdFund.sol\":2687:2695  campaign */\n      dup1\n        /* \"contracts/CrowdFund/CrowdFund.sol\":2687:2701  campaign.endAt */\n      0x03\n      add\n      0x04\n      swap1\n      sload\n      swap1\n      0x0100\n      exp\n      swap1\n      div\n      0xffffffff\n      and\n        /* \"contracts/CrowdFund/CrowdFund.sol\":2668:2701  block.timestamp <= campaign.endAt */\n      0xffffffff\n      and\n        /* \"contracts/CrowdFund/CrowdFund.sol\":2668:2683  block.timestamp */\n      timestamp\n        /* \"contracts/CrowdFund/CrowdFund.sol\":2668:2701  block.timestamp <= campaign.endAt */\n      gt\n      iszero\n        /* \"contracts/CrowdFund/CrowdFund.sol\":2660:2732  require(block.timestamp <= campaign.endAt, \"Campaign has already ended\") */\n      tag_130\n      jumpi\n      mload(0x40)\n      0x08c379a000000000000000000000000000000000000000000000000000000000\n      dup2\n      mstore\n      0x04\n      add\n      tag_131\n      swap1\n      tag_132\n      jump\t// in\n    tag_131:\n      mload(0x40)\n      dup1\n      swap2\n      sub\n      swap1\n      revert\n    tag_130:\n        /* \"contracts/CrowdFund/CrowdFund.sol\":2766:2773  _amount */\n      dup2\n        /* \"contracts/CrowdFund/CrowdFund.sol\":2745:2753  campaign */\n      dup2\n        /* \"contracts/CrowdFund/CrowdFund.sol\":2745:2762  campaign.donation */\n      0x02\n      add\n      0x00\n        /* \"contracts/CrowdFund/CrowdFund.sol\":2745:2773  campaign.donation -= _amount */\n      dup3\n      dup3\n      sload\n      tag_133\n      swap2\n      swap1\n      tag_134\n      jump\t// in\n    tag_133:\n      swap3\n      pop\n      pop\n      dup2\n      swap1\n      sstore\n      pop\n        /* \"contracts/CrowdFund/CrowdFund.sol\":2818:2825  _amount */\n      dup2\n        /* \"contracts/CrowdFund/CrowdFund.sol\":2784:2797  donatedAmount */\n      0x02\n        /* \"contracts/CrowdFund/CrowdFund.sol\":2784:2802  donatedAmount[_id] */\n      0x00\n        /* \"contracts/CrowdFund/CrowdFund.sol\":2798:2801  _id */\n      dup6\n        /* \"contracts/CrowdFund/CrowdFund.sol\":2784:2802  donatedAmount[_id] */\n      dup2\n      mstore\n      0x20\n      add\n      swap1\n      dup2\n      mstore\n      0x20\n      add\n      0x00\n      keccak256\n        /* \"contracts/CrowdFund/CrowdFund.sol\":2784:2814  donatedAmount[_id][msg.sender] */\n      0x00\n        /* \"contracts/CrowdFund/CrowdFund.sol\":2803:2813  msg.sender */\n      caller\n        /* \"contracts/CrowdFund/CrowdFund.sol\":2784:2814  donatedAmount[_id][msg.sender] */\n      0xffffffffffffffffffffffffffffffffffffffff\n      and\n      0xffffffffffffffffffffffffffffffffffffffff\n      and\n      dup2\n      mstore\n      0x20\n      add\n      swap1\n      dup2\n      mstore\n      0x20\n      add\n      0x00\n      keccak256\n      0x00\n        /* \"contracts/CrowdFund/CrowdFund.sol\":2784:2825  donatedAmount[_id][msg.sender] -= _amount */\n      dup3\n      dup3\n      sload\n      tag_135\n      swap2\n      swap1\n      tag_134\n      jump\t// in\n    tag_135:\n      swap3\n      pop\n      pop\n      dup2\n      swap1\n      sstore\n      pop\n        /* \"contracts/CrowdFund/CrowdFund.sol\":2836:2841  token */\n      immutable(\"0x81e080ffc23e8b8d44dd829bc823229e92b893eb1d8f624419d3f5682eb97fc3\")\n        /* \"contracts/CrowdFund/CrowdFund.sol\":2836:2850  token.transfer */\n      0xffffffffffffffffffffffffffffffffffffffff\n      and\n      0xa9059cbb\n        /* \"contracts/CrowdFund/CrowdFund.sol\":2851:2861  msg.sender */\n      caller\n        /* \"contracts/CrowdFund/CrowdFund.sol\":2863:2870  _amount */\n      dup5\n        /* \"contracts/CrowdFund/CrowdFund.sol\":2836:2871  token.transfer(msg.sender, _amount) */\n      mload(0x40)\n      dup4\n      0xffffffff\n      and\n      0xe0\n      shl\n      dup2\n      mstore\n      0x04\n      add\n      tag_136\n      swap3\n      swap2\n      swap1\n      tag_67\n      jump\t// in\n    tag_136:\n      0x20\n      mload(0x40)\n      dup1\n      dup4\n      sub\n      dup2\n      0x00\n      dup8\n      dup1\n      extcodesize\n      iszero\n      dup1\n      iszero\n      tag_137\n      jumpi\n      0x00\n      dup1\n      revert\n    tag_137:\n      pop\n      gas\n      call\n      iszero\n      dup1\n      iszero\n      tag_139\n      jumpi\n      returndatasize\n      0x00\n      dup1\n      returndatacopy\n      revert(0x00, returndatasize)\n    tag_139:\n      pop\n      pop\n      pop\n      pop\n      mload(0x40)\n      returndatasize\n      not(0x1f)\n      0x1f\n      dup3\n      add\n      and\n      dup3\n      add\n      dup1\n      0x40\n      mstore\n      pop\n      dup2\n      add\n      swap1\n      tag_140\n      swap2\n      swap1\n      tag_72\n      jump\t// in\n    tag_140:\n      pop\n        /* \"contracts/CrowdFund/CrowdFund.sol\":2903:2913  msg.sender */\n      caller\n        /* \"contracts/CrowdFund/CrowdFund.sol\":2889:2923  Unpledge(_id, msg.sender, _amount) */\n      0xffffffffffffffffffffffffffffffffffffffff\n      and\n        /* \"contracts/CrowdFund/CrowdFund.sol\":2898:2901  _id */\n      dup4\n        /* \"contracts/CrowdFund/CrowdFund.sol\":2889:2923  Unpledge(_id, msg.sender, _amount) */\n      0x2eeeab891b26a214d1b25749f88a406bdea852bd8c9bfda977e0ef8114c180ba\n        /* \"contracts/CrowdFund/CrowdFund.sol\":2915:2922  _amount */\n      dup5\n        /* \"contracts/CrowdFund/CrowdFund.sol\":2889:2923  Unpledge(_id, msg.sender, _amount) */\n      mload(0x40)\n      tag_141\n      swap2\n      swap1\n      tag_30\n      jump\t// in\n    tag_141:\n      mload(0x40)\n      dup1\n      swap2\n      sub\n      swap1\n      log3\n        /* \"contracts/CrowdFund/CrowdFund.sol\":2596:2931  {\r... */\n      pop\n        /* \"contracts/CrowdFund/CrowdFund.sol\":2545:2931  function unpledge(uint _id, uint _amount) external {\r... */\n      pop\n      pop\n      jump\t// out\n        /* \"contracts/CrowdFund/CrowdFund.sol\":559:621  mapping(uint => mapping(address => uint)) public donatedAmount */\n    tag_44:\n      mstore(0x20, 0x02)\n      dup2\n      0x00\n      mstore\n      mstore(0x20, keccak256(0x00, 0x40))\n      dup1\n      0x00\n      mstore\n      keccak256(0x00, 0x40)\n      0x00\n      swap2\n      pop\n      swap2\n      pop\n      pop\n      sload\n      dup2\n      jump\t// out\n        /* \"contracts/CrowdFund/CrowdFund.sol\":288:317  IERC20 public immutable token */\n    tag_47:\n      immutable(\"0x81e080ffc23e8b8d44dd829bc823229e92b893eb1d8f624419d3f5682eb97fc3\")\n      dup2\n      jump\t// out\n        /* \"contracts/CrowdFund/CrowdFund.sol\":2049:2537  function pledge(uint _id, uint _amount) external {\r... */\n    tag_52:\n        /* \"contracts/CrowdFund/CrowdFund.sol\":2109:2134  Campaign storage campaign */\n      0x00\n        /* \"contracts/CrowdFund/CrowdFund.sol\":2137:2146  campaigns */\n      0x01\n        /* \"contracts/CrowdFund/CrowdFund.sol\":2147:2150  _id */\n      dup4\n        /* \"contracts/CrowdFund/CrowdFund.sol\":2137:2151  campaigns[_id] */\n      dup2\n      sload\n      dup2\n      lt\n      tag_143\n      jumpi\n      tag_144\n      tag_58\n      jump\t// in\n    tag_144:\n    tag_143:\n      swap1\n      0x00\n      mstore\n      keccak256(0x00, 0x20)\n      swap1\n      0x04\n      mul\n      add\n        /* \"contracts/CrowdFund/CrowdFund.sol\":2109:2151  Campaign storage campaign = campaigns[_id] */\n      swap1\n      pop\n        /* \"contracts/CrowdFund/CrowdFund.sol\":2189:2197  campaign */\n      dup1\n        /* \"contracts/CrowdFund/CrowdFund.sol\":2189:2205  campaign.startAt */\n      0x03\n      add\n      0x00\n      swap1\n      sload\n      swap1\n      0x0100\n      exp\n      swap1\n      div\n      0xffffffff\n      and\n        /* \"contracts/CrowdFund/CrowdFund.sol\":2170:2205  block.timestamp >= campaign.startAt */\n      0xffffffff\n      and\n        /* \"contracts/CrowdFund/CrowdFund.sol\":2170:2185  block.timestamp */\n      timestamp\n        /* \"contracts/CrowdFund/CrowdFund.sol\":2170:2205  block.timestamp >= campaign.startAt */\n      lt\n      iszero\n        /* \"contracts/CrowdFund/CrowdFund.sol\":2162:2238  require(block.timestamp >= campaign.startAt, \"Campaign has not started yet\") */\n      tag_146\n      jumpi\n      mload(0x40)\n      0x08c379a000000000000000000000000000000000000000000000000000000000\n      dup2\n      mstore\n      0x04\n      add\n      tag_147\n      swap1\n      tag_121\n      jump\t// in\n    tag_147:\n      mload(0x40)\n      dup1\n      swap2\n      sub\n      swap1\n      revert\n    tag_146:\n        /* \"contracts/CrowdFund/CrowdFund.sol\":2276:2284  campaign */\n      dup1\n        /* \"contracts/CrowdFund/CrowdFund.sol\":2276:2290  campaign.endAt */\n      0x03\n      add\n      0x04\n      swap1\n      sload\n      swap1\n      0x0100\n      exp\n      swap1\n      div\n      0xffffffff\n      and\n        /* \"contracts/CrowdFund/CrowdFund.sol\":2257:2290  block.timestamp <= campaign.endAt */\n      0xffffffff\n      and\n        /* \"contracts/CrowdFund/CrowdFund.sol\":2257:2272  block.timestamp */\n      timestamp\n        /* \"contracts/CrowdFund/CrowdFund.sol\":2257:2290  block.timestamp <= campaign.endAt */\n      gt\n      iszero\n        /* \"contracts/CrowdFund/CrowdFund.sol\":2249:2321  require(block.timestamp <= campaign.endAt, \"Campaign has already ended\") */\n      tag_148\n      jumpi\n      mload(0x40)\n      0x08c379a000000000000000000000000000000000000000000000000000000000\n      dup2\n      mstore\n      0x04\n      add\n      tag_149\n      swap1\n      tag_132\n      jump\t// in\n    tag_149:\n      mload(0x40)\n      dup1\n      swap2\n      sub\n      swap1\n      revert\n    tag_148:\n        /* \"contracts/CrowdFund/CrowdFund.sol\":2355:2362  _amount */\n      dup2\n        /* \"contracts/CrowdFund/CrowdFund.sol\":2334:2342  campaign */\n      dup2\n        /* \"contracts/CrowdFund/CrowdFund.sol\":2334:2351  campaign.donation */\n      0x02\n      add\n      0x00\n        /* \"contracts/CrowdFund/CrowdFund.sol\":2334:2362  campaign.donation += _amount */\n      dup3\n      dup3\n      sload\n      tag_150\n      swap2\n      swap1\n      tag_86\n      jump\t// in\n    tag_150:\n      swap3\n      pop\n      pop\n      dup2\n      swap1\n      sstore\n      pop\n        /* \"contracts/CrowdFund/CrowdFund.sol\":2407:2414  _amount */\n      dup2\n        /* \"contracts/CrowdFund/CrowdFund.sol\":2373:2386  donatedAmount */\n      0x02\n        /* \"contracts/CrowdFund/CrowdFund.sol\":2373:2391  donatedAmount[_id] */\n      0x00\n        /* \"contracts/CrowdFund/CrowdFund.sol\":2387:2390  _id */\n      dup6\n        /* \"contracts/CrowdFund/CrowdFund.sol\":2373:2391  donatedAmount[_id] */\n      dup2\n      mstore\n      0x20\n      add\n      swap1\n      dup2\n      mstore\n      0x20\n      add\n      0x00\n      keccak256\n        /* \"contracts/CrowdFund/CrowdFund.sol\":2373:2403  donatedAmount[_id][msg.sender] */\n      0x00\n        /* \"contracts/CrowdFund/CrowdFund.sol\":2392:2402  msg.sender */\n      caller\n        /* \"contracts/CrowdFund/CrowdFund.sol\":2373:2403  donatedAmount[_id][msg.sender] */\n      0xffffffffffffffffffffffffffffffffffffffff\n      and\n      0xffffffffffffffffffffffffffffffffffffffff\n      and\n      dup2\n      mstore\n      0x20\n      add\n      swap1\n      dup2\n      mstore\n      0x20\n      add\n      0x00\n      keccak256\n      0x00\n        /* \"contracts/CrowdFund/CrowdFund.sol\":2373:2414  donatedAmount[_id][msg.sender] += _amount */\n      dup3\n      dup3\n      sload\n      tag_151\n      swap2\n      swap1\n      tag_86\n      jump\t// in\n    tag_151:\n      swap3\n      pop\n      pop\n      dup2\n      swap1\n      sstore\n      pop\n        /* \"contracts/CrowdFund/CrowdFund.sol\":2425:2430  token */\n      immutable(\"0x81e080ffc23e8b8d44dd829bc823229e92b893eb1d8f624419d3f5682eb97fc3\")\n        /* \"contracts/CrowdFund/CrowdFund.sol\":2425:2443  token.transferFrom */\n      0xffffffffffffffffffffffffffffffffffffffff\n      and\n      0x23b872dd\n        /* \"contracts/CrowdFund/CrowdFund.sol\":2444:2454  msg.sender */\n      caller\n        /* \"contracts/CrowdFund/CrowdFund.sol\":2464:2468  this */\n      address\n        /* \"contracts/CrowdFund/CrowdFund.sol\":2471:2478  _amount */\n      dup6\n        /* \"contracts/CrowdFund/CrowdFund.sol\":2425:2479  token.transferFrom(msg.sender, address(this), _amount) */\n      mload(0x40)\n      dup5\n      0xffffffff\n      and\n      0xe0\n      shl\n      dup2\n      mstore\n      0x04\n      add\n      tag_152\n      swap4\n      swap3\n      swap2\n      swap1\n      tag_153\n      jump\t// in\n    tag_152:\n      0x20\n      mload(0x40)\n      dup1\n      dup4\n      sub\n      dup2\n      0x00\n      dup8\n      dup1\n      extcodesize\n      iszero\n      dup1\n      iszero\n      tag_154\n      jumpi\n      0x00\n      dup1\n      revert\n    tag_154:\n      pop\n      gas\n      call\n      iszero\n      dup1\n      iszero\n      tag_156\n      jumpi\n      returndatasize\n      0x00\n      dup1\n      returndatacopy\n      revert(0x00, returndatasize)\n    tag_156:\n      pop\n      pop\n      pop\n      pop\n      mload(0x40)\n      returndatasize\n      not(0x1f)\n      0x1f\n      dup3\n      add\n      and\n      dup3\n      add\n      dup1\n      0x40\n      mstore\n      pop\n      dup2\n      add\n      swap1\n      tag_157\n      swap2\n      swap1\n      tag_72\n      jump\t// in\n    tag_157:\n      pop\n        /* \"contracts/CrowdFund/CrowdFund.sol\":2509:2519  msg.sender */\n      caller\n        /* \"contracts/CrowdFund/CrowdFund.sol\":2497:2529  Pledge(_id, msg.sender, _amount) */\n      0xffffffffffffffffffffffffffffffffffffffff\n      and\n        /* \"contracts/CrowdFund/CrowdFund.sol\":2504:2507  _id */\n      dup4\n        /* \"contracts/CrowdFund/CrowdFund.sol\":2497:2529  Pledge(_id, msg.sender, _amount) */\n      0x06bdb975df800a73232998e71ed585d536222f1dfeaa622d7f62a23ada686c82\n        /* \"contracts/CrowdFund/CrowdFund.sol\":2521:2528  _amount */\n      dup5\n        /* \"contracts/CrowdFund/CrowdFund.sol\":2497:2529  Pledge(_id, msg.sender, _amount) */\n      mload(0x40)\n      tag_158\n      swap2\n      swap1\n      tag_30\n      jump\t// in\n    tag_158:\n      mload(0x40)\n      dup1\n      swap2\n      sub\n      swap1\n      log3\n        /* \"contracts/CrowdFund/CrowdFund.sol\":2098:2537  {\r... */\n      pop\n        /* \"contracts/CrowdFund/CrowdFund.sol\":2049:2537  function pledge(uint _id, uint _amount) external {\r... */\n      pop\n      pop\n      jump\t// out\n        /* \"#utility.yul\":7:146   */\n    tag_160:\n        /* \"#utility.yul\":53:58   */\n      0x00\n        /* \"#utility.yul\":91:97   */\n      dup2\n        /* \"#utility.yul\":78:98   */\n      calldataload\n        /* \"#utility.yul\":69:98   */\n      swap1\n      pop\n        /* \"#utility.yul\":107:140   */\n      tag_162\n        /* \"#utility.yul\":134:139   */\n      dup2\n        /* \"#utility.yul\":107:140   */\n      tag_163\n      jump\t// in\n    tag_162:\n        /* \"#utility.yul\":7:146   */\n      swap3\n      swap2\n      pop\n      pop\n      jump\t// out\n        /* \"#utility.yul\":152:289   */\n    tag_164:\n        /* \"#utility.yul\":206:211   */\n      0x00\n        /* \"#utility.yul\":237:243   */\n      dup2\n        /* \"#utility.yul\":231:244   */\n      mload\n        /* \"#utility.yul\":222:244   */\n      swap1\n      pop\n        /* \"#utility.yul\":253:283   */\n      tag_166\n        /* \"#utility.yul\":277:282   */\n      dup2\n        /* \"#utility.yul\":253:283   */\n      tag_167\n      jump\t// in\n    tag_166:\n        /* \"#utility.yul\":152:289   */\n      swap3\n      swap2\n      pop\n      pop\n      jump\t// out\n        /* \"#utility.yul\":295:434   */\n    tag_168:\n        /* \"#utility.yul\":341:346   */\n      0x00\n        /* \"#utility.yul\":379:385   */\n      dup2\n        /* \"#utility.yul\":366:386   */\n      calldataload\n        /* \"#utility.yul\":357:386   */\n      swap1\n      pop\n        /* \"#utility.yul\":395:428   */\n      tag_170\n        /* \"#utility.yul\":422:427   */\n      dup2\n        /* \"#utility.yul\":395:428   */\n      tag_171\n      jump\t// in\n    tag_170:\n        /* \"#utility.yul\":295:434   */\n      swap3\n      swap2\n      pop\n      pop\n      jump\t// out\n        /* \"#utility.yul\":440:577   */\n    tag_172:\n        /* \"#utility.yul\":485:490   */\n      0x00\n        /* \"#utility.yul\":523:529   */\n      dup2\n        /* \"#utility.yul\":510:530   */\n      calldataload\n        /* \"#utility.yul\":501:530   */\n      swap1\n      pop\n        /* \"#utility.yul\":539:571   */\n      tag_174\n        /* \"#utility.yul\":565:570   */\n      dup2\n        /* \"#utility.yul\":539:571   */\n      tag_175\n      jump\t// in\n    tag_174:\n        /* \"#utility.yul\":440:577   */\n      swap3\n      swap2\n      pop\n      pop\n      jump\t// out\n        /* \"#utility.yul\":583:928   */\n    tag_72:\n        /* \"#utility.yul\":650:656   */\n      0x00\n        /* \"#utility.yul\":699:701   */\n      0x20\n        /* \"#utility.yul\":687:696   */\n      dup3\n        /* \"#utility.yul\":678:685   */\n      dup5\n        /* \"#utility.yul\":674:697   */\n      sub\n        /* \"#utility.yul\":670:702   */\n      slt\n        /* \"#utility.yul\":667:786   */\n      iszero\n      tag_177\n      jumpi\n        /* \"#utility.yul\":705:784   */\n      tag_178\n      tag_179\n      jump\t// in\n    tag_178:\n        /* \"#utility.yul\":667:786   */\n    tag_177:\n        /* \"#utility.yul\":825:826   */\n      0x00\n        /* \"#utility.yul\":850:911   */\n      tag_180\n        /* \"#utility.yul\":903:910   */\n      dup5\n        /* \"#utility.yul\":894:900   */\n      dup3\n        /* \"#utility.yul\":883:892   */\n      dup6\n        /* \"#utility.yul\":879:901   */\n      add\n        /* \"#utility.yul\":850:911   */\n      tag_164\n      jump\t// in\n    tag_180:\n        /* \"#utility.yul\":840:911   */\n      swap2\n      pop\n        /* \"#utility.yul\":796:921   */\n      pop\n        /* \"#utility.yul\":583:928   */\n      swap3\n      swap2\n      pop\n      pop\n      jump\t// out\n        /* \"#utility.yul\":934:1263   */\n    tag_16:\n        /* \"#utility.yul\":993:999   */\n      0x00\n        /* \"#utility.yul\":1042:1044   */\n      0x20\n        /* \"#utility.yul\":1030:1039   */\n      dup3\n        /* \"#utility.yul\":1021:1028   */\n      dup5\n        /* \"#utility.yul\":1017:1040   */\n      sub\n        /* \"#utility.yul\":1013:1045   */\n      slt\n        /* \"#utility.yul\":1010:1129   */\n      iszero\n      tag_182\n      jumpi\n        /* \"#utility.yul\":1048:1127   */\n      tag_183\n      tag_179\n      jump\t// in\n    tag_183:\n        /* \"#utility.yul\":1010:1129   */\n    tag_182:\n        /* \"#utility.yul\":1168:1169   */\n      0x00\n        /* \"#utility.yul\":1193:1246   */\n      tag_184\n        /* \"#utility.yul\":1238:1245   */\n      dup5\n        /* \"#utility.yul\":1229:1235   */\n      dup3\n        /* \"#utility.yul\":1218:1227   */\n      dup6\n        /* \"#utility.yul\":1214:1236   */\n      add\n        /* \"#utility.yul\":1193:1246   */\n      tag_168\n      jump\t// in\n    tag_184:\n        /* \"#utility.yul\":1183:1246   */\n      swap2\n      pop\n        /* \"#utility.yul\":1139:1256   */\n      pop\n        /* \"#utility.yul\":934:1263   */\n      swap3\n      swap2\n      pop\n      pop\n      jump\t// out\n        /* \"#utility.yul\":1269:1743   */\n    tag_43:\n        /* \"#utility.yul\":1337:1343   */\n      0x00\n        /* \"#utility.yul\":1345:1351   */\n      dup1\n        /* \"#utility.yul\":1394:1396   */\n      0x40\n        /* \"#utility.yul\":1382:1391   */\n      dup4\n        /* \"#utility.yul\":1373:1380   */\n      dup6\n        /* \"#utility.yul\":1369:1392   */\n      sub\n        /* \"#utility.yul\":1365:1397   */\n      slt\n        /* \"#utility.yul\":1362:1481   */\n      iszero\n      tag_186\n      jumpi\n        /* \"#utility.yul\":1400:1479   */\n      tag_187\n      tag_179\n      jump\t// in\n    tag_187:\n        /* \"#utility.yul\":1362:1481   */\n    tag_186:\n        /* \"#utility.yul\":1520:1521   */\n      0x00\n        /* \"#utility.yul\":1545:1598   */\n      tag_188\n        /* \"#utility.yul\":1590:1597   */\n      dup6\n        /* \"#utility.yul\":1581:1587   */\n      dup3\n        /* \"#utility.yul\":1570:1579   */\n      dup7\n        /* \"#utility.yul\":1566:1588   */\n      add\n        /* \"#utility.yul\":1545:1598   */\n      tag_168\n      jump\t// in\n    tag_188:\n        /* \"#utility.yul\":1535:1598   */\n      swap3\n      pop\n        /* \"#utility.yul\":1491:1608   */\n      pop\n        /* \"#utility.yul\":1647:1649   */\n      0x20\n        /* \"#utility.yul\":1673:1726   */\n      tag_189\n        /* \"#utility.yul\":1718:1725   */\n      dup6\n        /* \"#utility.yul\":1709:1715   */\n      dup3\n        /* \"#utility.yul\":1698:1707   */\n      dup7\n        /* \"#utility.yul\":1694:1716   */\n      add\n        /* \"#utility.yul\":1673:1726   */\n      tag_160\n      jump\t// in\n    tag_189:\n        /* \"#utility.yul\":1663:1726   */\n      swap2\n      pop\n        /* \"#utility.yul\":1618:1736   */\n      pop\n        /* \"#utility.yul\":1269:1743   */\n      swap3\n      pop\n      swap3\n      swap1\n      pop\n      jump\t// out\n        /* \"#utility.yul\":1749:2223   */\n    tag_39:\n        /* \"#utility.yul\":1817:1823   */\n      0x00\n        /* \"#utility.yul\":1825:1831   */\n      dup1\n        /* \"#utility.yul\":1874:1876   */\n      0x40\n        /* \"#utility.yul\":1862:1871   */\n      dup4\n        /* \"#utility.yul\":1853:1860   */\n      dup6\n        /* \"#utility.yul\":1849:1872   */\n      sub\n        /* \"#utility.yul\":1845:1877   */\n      slt\n        /* \"#utility.yul\":1842:1961   */\n      iszero\n      tag_191\n      jumpi\n        /* \"#utility.yul\":1880:1959   */\n      tag_192\n      tag_179\n      jump\t// in\n    tag_192:\n        /* \"#utility.yul\":1842:1961   */\n    tag_191:\n        /* \"#utility.yul\":2000:2001   */\n      0x00\n        /* \"#utility.yul\":2025:2078   */\n      tag_193\n        /* \"#utility.yul\":2070:2077   */\n      dup6\n        /* \"#utility.yul\":2061:2067   */\n      dup3\n        /* \"#utility.yul\":2050:2059   */\n      dup7\n        /* \"#utility.yul\":2046:2068   */\n      add\n        /* \"#utility.yul\":2025:2078   */\n      tag_168\n      jump\t// in\n    tag_193:\n        /* \"#utility.yul\":2015:2078   */\n      swap3\n      pop\n        /* \"#utility.yul\":1971:2088   */\n      pop\n        /* \"#utility.yul\":2127:2129   */\n      0x20\n        /* \"#utility.yul\":2153:2206   */\n      tag_194\n        /* \"#utility.yul\":2198:2205   */\n      dup6\n        /* \"#utility.yul\":2189:2195   */\n      dup3\n        /* \"#utility.yul\":2178:2187   */\n      dup7\n        /* \"#utility.yul\":2174:2196   */\n      add\n        /* \"#utility.yul\":2153:2206   */\n      tag_168\n      jump\t// in\n    tag_194:\n        /* \"#utility.yul\":2143:2206   */\n      swap2\n      pop\n        /* \"#utility.yul\":2098:2216   */\n      pop\n        /* \"#utility.yul\":1749:2223   */\n      swap3\n      pop\n      swap3\n      swap1\n      pop\n      jump\t// out\n        /* \"#utility.yul\":2229:2844   */\n    tag_25:\n        /* \"#utility.yul\":2304:2310   */\n      0x00\n        /* \"#utility.yul\":2312:2318   */\n      dup1\n        /* \"#utility.yul\":2320:2326   */\n      0x00\n        /* \"#utility.yul\":2369:2371   */\n      0x60\n        /* \"#utility.yul\":2357:2366   */\n      dup5\n        /* \"#utility.yul\":2348:2355   */\n      dup7\n        /* \"#utility.yul\":2344:2367   */\n      sub\n        /* \"#utility.yul\":2340:2372   */\n      slt\n        /* \"#utility.yul\":2337:2456   */\n      iszero\n      tag_196\n      jumpi\n        /* \"#utility.yul\":2375:2454   */\n      tag_197\n      tag_179\n      jump\t// in\n    tag_197:\n        /* \"#utility.yul\":2337:2456   */\n    tag_196:\n        /* \"#utility.yul\":2495:2496   */\n      0x00\n        /* \"#utility.yul\":2520:2573   */\n      tag_198\n        /* \"#utility.yul\":2565:2572   */\n      dup7\n        /* \"#utility.yul\":2556:2562   */\n      dup3\n        /* \"#utility.yul\":2545:2554   */\n      dup8\n        /* \"#utility.yul\":2541:2563   */\n      add\n        /* \"#utility.yul\":2520:2573   */\n      tag_168\n      jump\t// in\n    tag_198:\n        /* \"#utility.yul\":2510:2573   */\n      swap4\n      pop\n        /* \"#utility.yul\":2466:2583   */\n      pop\n        /* \"#utility.yul\":2622:2624   */\n      0x20\n        /* \"#utility.yul\":2648:2700   */\n      tag_199\n        /* \"#utility.yul\":2692:2699   */\n      dup7\n        /* \"#utility.yul\":2683:2689   */\n      dup3\n        /* \"#utility.yul\":2672:2681   */\n      dup8\n        /* \"#utility.yul\":2668:2690   */\n      add\n        /* \"#utility.yul\":2648:2700   */\n      tag_172\n      jump\t// in\n    tag_199:\n        /* \"#utility.yul\":2638:2700   */\n      swap3\n      pop\n        /* \"#utility.yul\":2593:2710   */\n      pop\n        /* \"#utility.yul\":2749:2751   */\n      0x40\n        /* \"#utility.yul\":2775:2827   */\n      tag_200\n        /* \"#utility.yul\":2819:2826   */\n      dup7\n        /* \"#utility.yul\":2810:2816   */\n      dup3\n        /* \"#utility.yul\":2799:2808   */\n      dup8\n        /* \"#utility.yul\":2795:2817   */\n      add\n        /* \"#utility.yul\":2775:2827   */\n      tag_172\n      jump\t// in\n    tag_200:\n        /* \"#utility.yul\":2765:2827   */\n      swap2\n      pop\n        /* \"#utility.yul\":2720:2837   */\n      pop\n        /* \"#utility.yul\":2229:2844   */\n      swap3\n      pop\n      swap3\n      pop\n      swap3\n      jump\t// out\n        /* \"#utility.yul\":2850:2968   */\n    tag_201:\n        /* \"#utility.yul\":2937:2961   */\n      tag_203\n        /* \"#utility.yul\":2955:2960   */\n      dup2\n        /* \"#utility.yul\":2937:2961   */\n      tag_204\n      jump\t// in\n    tag_203:\n        /* \"#utility.yul\":2932:2935   */\n      dup3\n        /* \"#utility.yul\":2925:2962   */\n      mstore\n        /* \"#utility.yul\":2850:2968   */\n      pop\n      pop\n      jump\t// out\n        /* \"#utility.yul\":2974:3083   */\n    tag_205:\n        /* \"#utility.yul\":3055:3076   */\n      tag_207\n        /* \"#utility.yul\":3070:3075   */\n      dup2\n        /* \"#utility.yul\":3055:3076   */\n      tag_208\n      jump\t// in\n    tag_207:\n        /* \"#utility.yul\":3050:3053   */\n      dup3\n        /* \"#utility.yul\":3043:3077   */\n      mstore\n        /* \"#utility.yul\":2974:3083   */\n      pop\n      pop\n      jump\t// out\n        /* \"#utility.yul\":3089:3246   */\n    tag_209:\n        /* \"#utility.yul\":3189:3239   */\n      tag_211\n        /* \"#utility.yul\":3233:3238   */\n      dup2\n        /* \"#utility.yul\":3189:3239   */\n      tag_212\n      jump\t// in\n    tag_211:\n        /* \"#utility.yul\":3184:3187   */\n      dup3\n        /* \"#utility.yul\":3177:3240   */\n      mstore\n        /* \"#utility.yul\":3089:3246   */\n      pop\n      pop\n      jump\t// out\n        /* \"#utility.yul\":3252:3618   */\n    tag_213:\n        /* \"#utility.yul\":3394:3397   */\n      0x00\n        /* \"#utility.yul\":3415:3482   */\n      tag_215\n        /* \"#utility.yul\":3479:3481   */\n      0x1c\n        /* \"#utility.yul\":3474:3477   */\n      dup4\n        /* \"#utility.yul\":3415:3482   */\n      tag_216\n      jump\t// in\n    tag_215:\n        /* \"#utility.yul\":3408:3482   */\n      swap2\n      pop\n        /* \"#utility.yul\":3491:3584   */\n      tag_217\n        /* \"#utility.yul\":3580:3583   */\n      dup3\n        /* \"#utility.yul\":3491:3584   */\n      tag_218\n      jump\t// in\n    tag_217:\n        /* \"#utility.yul\":3609:3611   */\n      0x20\n        /* \"#utility.yul\":3604:3607   */\n      dup3\n        /* \"#utility.yul\":3600:3612   */\n      add\n        /* \"#utility.yul\":3593:3612   */\n      swap1\n      pop\n        /* \"#utility.yul\":3252:3618   */\n      swap2\n      swap1\n      pop\n      jump\t// out\n        /* \"#utility.yul\":3624:3990   */\n    tag_219:\n        /* \"#utility.yul\":3766:3769   */\n      0x00\n        /* \"#utility.yul\":3787:3854   */\n      tag_221\n        /* \"#utility.yul\":3851:3853   */\n      0x0f\n        /* \"#utility.yul\":3846:3849   */\n      dup4\n        /* \"#utility.yul\":3787:3854   */\n      tag_216\n      jump\t// in\n    tag_221:\n        /* \"#utility.yul\":3780:3854   */\n      swap2\n      pop\n        /* \"#utility.yul\":3863:3956   */\n      tag_222\n        /* \"#utility.yul\":3952:3955   */\n      dup3\n        /* \"#utility.yul\":3863:3956   */\n      tag_223\n      jump\t// in\n    tag_222:\n        /* \"#utility.yul\":3981:3983   */\n      0x20\n        /* \"#utility.yul\":3976:3979   */\n      dup3\n        /* \"#utility.yul\":3972:3984   */\n      add\n        /* \"#utility.yul\":3965:3984   */\n      swap1\n      pop\n        /* \"#utility.yul\":3624:3990   */\n      swap2\n      swap1\n      pop\n      jump\t// out\n        /* \"#utility.yul\":3996:4362   */\n    tag_224:\n        /* \"#utility.yul\":4138:4141   */\n      0x00\n        /* \"#utility.yul\":4159:4226   */\n      tag_226\n        /* \"#utility.yul\":4223:4225   */\n      0x16\n        /* \"#utility.yul\":4218:4221   */\n      dup4\n        /* \"#utility.yul\":4159:4226   */\n      tag_216\n      jump\t// in\n    tag_226:\n        /* \"#utility.yul\":4152:4226   */\n      swap2\n      pop\n        /* \"#utility.yul\":4235:4328   */\n      tag_227\n        /* \"#utility.yul\":4324:4327   */\n      dup3\n        /* \"#utility.yul\":4235:4328   */\n      tag_228\n      jump\t// in\n    tag_227:\n        /* \"#utility.yul\":4353:4355   */\n      0x20\n        /* \"#utility.yul\":4348:4351   */\n      dup3\n        /* \"#utility.yul\":4344:4356   */\n      add\n        /* \"#utility.yul\":4337:4356   */\n      swap1\n      pop\n        /* \"#utility.yul\":3996:4362   */\n      swap2\n      swap1\n      pop\n      jump\t// out\n        /* \"#utility.yul\":4368:4734   */\n    tag_229:\n        /* \"#utility.yul\":4510:4513   */\n      0x00\n        /* \"#utility.yul\":4531:4598   */\n      tag_231\n        /* \"#utility.yul\":4595:4597   */\n      0x1e\n        /* \"#utility.yul\":4590:4593   */\n      dup4\n        /* \"#utility.yul\":4531:4598   */\n      tag_216\n      jump\t// in\n    tag_231:\n        /* \"#utility.yul\":4524:4598   */\n      swap2\n      pop\n        /* \"#utility.yul\":4607:4700   */\n      tag_232\n        /* \"#utility.yul\":4696:4699   */\n      dup3\n        /* \"#utility.yul\":4607:4700   */\n      tag_233\n      jump\t// in\n    tag_232:\n        /* \"#utility.yul\":4725:4727   */\n      0x20\n        /* \"#utility.yul\":4720:4723   */\n      dup3\n        /* \"#utility.yul\":4716:4728   */\n      add\n        /* \"#utility.yul\":4709:4728   */\n      swap1\n      pop\n        /* \"#utility.yul\":4368:4734   */\n      swap2\n      swap1\n      pop\n      jump\t// out\n        /* \"#utility.yul\":4740:5106   */\n    tag_234:\n        /* \"#utility.yul\":4882:4885   */\n      0x00\n        /* \"#utility.yul\":4903:4970   */\n      tag_236\n        /* \"#utility.yul\":4967:4969   */\n      0x1a\n        /* \"#utility.yul\":4962:4965   */\n      dup4\n        /* \"#utility.yul\":4903:4970   */\n      tag_216\n      jump\t// in\n    tag_236:\n        /* \"#utility.yul\":4896:4970   */\n      swap2\n      pop\n        /* \"#utility.yul\":4979:5072   */\n      tag_237\n        /* \"#utility.yul\":5068:5071   */\n      dup3\n        /* \"#utility.yul\":4979:5072   */\n      tag_238\n      jump\t// in\n    tag_237:\n        /* \"#utility.yul\":5097:5099   */\n      0x20\n        /* \"#utility.yul\":5092:5095   */\n      dup3\n        /* \"#utility.yul\":5088:5100   */\n      add\n        /* \"#utility.yul\":5081:5100   */\n      swap1\n      pop\n        /* \"#utility.yul\":4740:5106   */\n      swap2\n      swap1\n      pop\n      jump\t// out\n        /* \"#utility.yul\":5112:5478   */\n    tag_239:\n        /* \"#utility.yul\":5254:5257   */\n      0x00\n        /* \"#utility.yul\":5275:5342   */\n      tag_241\n        /* \"#utility.yul\":5339:5341   */\n      0x20\n        /* \"#utility.yul\":5334:5337   */\n      dup4\n        /* \"#utility.yul\":5275:5342   */\n      tag_216\n      jump\t// in\n    tag_241:\n        /* \"#utility.yul\":5268:5342   */\n      swap2\n      pop\n        /* \"#utility.yul\":5351:5444   */\n      tag_242\n        /* \"#utility.yul\":5440:5443   */\n      dup3\n        /* \"#utility.yul\":5351:5444   */\n      tag_243\n      jump\t// in\n    tag_242:\n        /* \"#utility.yul\":5469:5471   */\n      0x20\n        /* \"#utility.yul\":5464:5467   */\n      dup3\n        /* \"#utility.yul\":5460:5472   */\n      add\n        /* \"#utility.yul\":5453:5472   */\n      swap1\n      pop\n        /* \"#utility.yul\":5112:5478   */\n      swap2\n      swap1\n      pop\n      jump\t// out\n        /* \"#utility.yul\":5484:5850   */\n    tag_244:\n        /* \"#utility.yul\":5626:5629   */\n      0x00\n        /* \"#utility.yul\":5647:5714   */\n      tag_246\n        /* \"#utility.yul\":5711:5713   */\n      0x1e\n        /* \"#utility.yul\":5706:5709   */\n      dup4\n        /* \"#utility.yul\":5647:5714   */\n      tag_216\n      jump\t// in\n    tag_246:\n        /* \"#utility.yul\":5640:5714   */\n      swap2\n      pop\n        /* \"#utility.yul\":5723:5816   */\n      tag_247\n        /* \"#utility.yul\":5812:5815   */\n      dup3\n        /* \"#utility.yul\":5723:5816   */\n      tag_248\n      jump\t// in\n    tag_247:\n        /* \"#utility.yul\":5841:5843   */\n      0x20\n        /* \"#utility.yul\":5836:5839   */\n      dup3\n        /* \"#utility.yul\":5832:5844   */\n      add\n        /* \"#utility.yul\":5825:5844   */\n      swap1\n      pop\n        /* \"#utility.yul\":5484:5850   */\n      swap2\n      swap1\n      pop\n      jump\t// out\n        /* \"#utility.yul\":5856:6222   */\n    tag_249:\n        /* \"#utility.yul\":5998:6001   */\n      0x00\n        /* \"#utility.yul\":6019:6086   */\n      tag_251\n        /* \"#utility.yul\":6083:6085   */\n      0x1c\n        /* \"#utility.yul\":6078:6081   */\n      dup4\n        /* \"#utility.yul\":6019:6086   */\n      tag_216\n      jump\t// in\n    tag_251:\n        /* \"#utility.yul\":6012:6086   */\n      swap2\n      pop\n        /* \"#utility.yul\":6095:6188   */\n      tag_252\n        /* \"#utility.yul\":6184:6187   */\n      dup3\n        /* \"#utility.yul\":6095:6188   */\n      tag_253\n      jump\t// in\n    tag_252:\n        /* \"#utility.yul\":6213:6215   */\n      0x20\n        /* \"#utility.yul\":6208:6211   */\n      dup3\n        /* \"#utility.yul\":6204:6216   */\n      add\n        /* \"#utility.yul\":6197:6216   */\n      swap1\n      pop\n        /* \"#utility.yul\":5856:6222   */\n      swap2\n      swap1\n      pop\n      jump\t// out\n        /* \"#utility.yul\":6228:6594   */\n    tag_254:\n        /* \"#utility.yul\":6370:6373   */\n      0x00\n        /* \"#utility.yul\":6391:6458   */\n      tag_256\n        /* \"#utility.yul\":6455:6457   */\n      0x30\n        /* \"#utility.yul\":6450:6453   */\n      dup4\n        /* \"#utility.yul\":6391:6458   */\n      tag_216\n      jump\t// in\n    tag_256:\n        /* \"#utility.yul\":6384:6458   */\n      swap2\n      pop\n        /* \"#utility.yul\":6467:6560   */\n      tag_257\n        /* \"#utility.yul\":6556:6559   */\n      dup3\n        /* \"#utility.yul\":6467:6560   */\n      tag_258\n      jump\t// in\n    tag_257:\n        /* \"#utility.yul\":6585:6587   */\n      0x40\n        /* \"#utility.yul\":6580:6583   */\n      dup3\n        /* \"#utility.yul\":6576:6588   */\n      add\n        /* \"#utility.yul\":6569:6588   */\n      swap1\n      pop\n        /* \"#utility.yul\":6228:6594   */\n      swap2\n      swap1\n      pop\n      jump\t// out\n        /* \"#utility.yul\":6600:6966   */\n    tag_259:\n        /* \"#utility.yul\":6742:6745   */\n      0x00\n        /* \"#utility.yul\":6763:6830   */\n      tag_261\n        /* \"#utility.yul\":6827:6829   */\n      0x1a\n        /* \"#utility.yul\":6822:6825   */\n      dup4\n        /* \"#utility.yul\":6763:6830   */\n      tag_216\n      jump\t// in\n    tag_261:\n        /* \"#utility.yul\":6756:6830   */\n      swap2\n      pop\n        /* \"#utility.yul\":6839:6932   */\n      tag_262\n        /* \"#utility.yul\":6928:6931   */\n      dup3\n        /* \"#utility.yul\":6839:6932   */\n      tag_263\n      jump\t// in\n    tag_262:\n        /* \"#utility.yul\":6957:6959   */\n      0x20\n        /* \"#utility.yul\":6952:6955   */\n      dup3\n        /* \"#utility.yul\":6948:6960   */\n      add\n        /* \"#utility.yul\":6941:6960   */\n      swap1\n      pop\n        /* \"#utility.yul\":6600:6966   */\n      swap2\n      swap1\n      pop\n      jump\t// out\n        /* \"#utility.yul\":6972:7090   */\n    tag_264:\n        /* \"#utility.yul\":7059:7083   */\n      tag_266\n        /* \"#utility.yul\":7077:7082   */\n      dup2\n        /* \"#utility.yul\":7059:7083   */\n      tag_267\n      jump\t// in\n    tag_266:\n        /* \"#utility.yul\":7054:7057   */\n      dup3\n        /* \"#utility.yul\":7047:7084   */\n      mstore\n        /* \"#utility.yul\":6972:7090   */\n      pop\n      pop\n      jump\t// out\n        /* \"#utility.yul\":7096:7211   */\n    tag_268:\n        /* \"#utility.yul\":7181:7204   */\n      tag_270\n        /* \"#utility.yul\":7198:7203   */\n      dup2\n        /* \"#utility.yul\":7181:7204   */\n      tag_271\n      jump\t// in\n    tag_270:\n        /* \"#utility.yul\":7176:7179   */\n      dup3\n        /* \"#utility.yul\":7169:7205   */\n      mstore\n        /* \"#utility.yul\":7096:7211   */\n      pop\n      pop\n      jump\t// out\n        /* \"#utility.yul\":7217:7659   */\n    tag_153:\n        /* \"#utility.yul\":7366:7370   */\n      0x00\n        /* \"#utility.yul\":7404:7406   */\n      0x60\n        /* \"#utility.yul\":7393:7402   */\n      dup3\n        /* \"#utility.yul\":7389:7407   */\n      add\n        /* \"#utility.yul\":7381:7407   */\n      swap1\n      pop\n        /* \"#utility.yul\":7417:7488   */\n      tag_273\n        /* \"#utility.yul\":7485:7486   */\n      0x00\n        /* \"#utility.yul\":7474:7483   */\n      dup4\n        /* \"#utility.yul\":7470:7487   */\n      add\n        /* \"#utility.yul\":7461:7467   */\n      dup7\n        /* \"#utility.yul\":7417:7488   */\n      tag_201\n      jump\t// in\n    tag_273:\n        /* \"#utility.yul\":7498:7570   */\n      tag_274\n        /* \"#utility.yul\":7566:7568   */\n      0x20\n        /* \"#utility.yul\":7555:7564   */\n      dup4\n        /* \"#utility.yul\":7551:7569   */\n      add\n        /* \"#utility.yul\":7542:7548   */\n      dup6\n        /* \"#utility.yul\":7498:7570   */\n      tag_201\n      jump\t// in\n    tag_274:\n        /* \"#utility.yul\":7580:7652   */\n      tag_275\n        /* \"#utility.yul\":7648:7650   */\n      0x40\n        /* \"#utility.yul\":7637:7646   */\n      dup4\n        /* \"#utility.yul\":7633:7651   */\n      add\n        /* \"#utility.yul\":7624:7630   */\n      dup5\n        /* \"#utility.yul\":7580:7652   */\n      tag_264\n      jump\t// in\n    tag_275:\n        /* \"#utility.yul\":7217:7659   */\n      swap5\n      swap4\n      pop\n      pop\n      pop\n      pop\n      jump\t// out\n        /* \"#utility.yul\":7665:7997   */\n    tag_67:\n        /* \"#utility.yul\":7786:7790   */\n      0x00\n        /* \"#utility.yul\":7824:7826   */\n      0x40\n        /* \"#utility.yul\":7813:7822   */\n      dup3\n        /* \"#utility.yul\":7809:7827   */\n      add\n        /* \"#utility.yul\":7801:7827   */\n      swap1\n      pop\n        /* \"#utility.yul\":7837:7908   */\n      tag_277\n        /* \"#utility.yul\":7905:7906   */\n      0x00\n        /* \"#utility.yul\":7894:7903   */\n      dup4\n        /* \"#utility.yul\":7890:7907   */\n      add\n        /* \"#utility.yul\":7881:7887   */\n      dup6\n        /* \"#utility.yul\":7837:7908   */\n      tag_201\n      jump\t// in\n    tag_277:\n        /* \"#utility.yul\":7918:7990   */\n      tag_278\n        /* \"#utility.yul\":7986:7988   */\n      0x20\n        /* \"#utility.yul\":7975:7984   */\n      dup4\n        /* \"#utility.yul\":7971:7989   */\n      add\n        /* \"#utility.yul\":7962:7968   */\n      dup5\n        /* \"#utility.yul\":7918:7990   */\n      tag_264\n      jump\t// in\n    tag_278:\n        /* \"#utility.yul\":7665:7997   */\n      swap4\n      swap3\n      pop\n      pop\n      pop\n      jump\t// out\n        /* \"#utility.yul\":8003:8758   */\n    tag_19:\n        /* \"#utility.yul\":8226:8230   */\n      0x00\n        /* \"#utility.yul\":8264:8267   */\n      0xc0\n        /* \"#utility.yul\":8253:8262   */\n      dup3\n        /* \"#utility.yul\":8249:8268   */\n      add\n        /* \"#utility.yul\":8241:8268   */\n      swap1\n      pop\n        /* \"#utility.yul\":8278:8349   */\n      tag_280\n        /* \"#utility.yul\":8346:8347   */\n      0x00\n        /* \"#utility.yul\":8335:8344   */\n      dup4\n        /* \"#utility.yul\":8331:8348   */\n      add\n        /* \"#utility.yul\":8322:8328   */\n      dup10\n        /* \"#utility.yul\":8278:8349   */\n      tag_201\n      jump\t// in\n    tag_280:\n        /* \"#utility.yul\":8359:8431   */\n      tag_281\n        /* \"#utility.yul\":8427:8429   */\n      0x20\n        /* \"#utility.yul\":8416:8425   */\n      dup4\n        /* \"#utility.yul\":8412:8430   */\n      add\n        /* \"#utility.yul\":8403:8409   */\n      dup9\n        /* \"#utility.yul\":8359:8431   */\n      tag_264\n      jump\t// in\n    tag_281:\n        /* \"#utility.yul\":8441:8513   */\n      tag_282\n        /* \"#utility.yul\":8509:8511   */\n      0x40\n        /* \"#utility.yul\":8498:8507   */\n      dup4\n        /* \"#utility.yul\":8494:8512   */\n      add\n        /* \"#utility.yul\":8485:8491   */\n      dup8\n        /* \"#utility.yul\":8441:8513   */\n      tag_264\n      jump\t// in\n    tag_282:\n        /* \"#utility.yul\":8523:8593   */\n      tag_283\n        /* \"#utility.yul\":8589:8591   */\n      0x60\n        /* \"#utility.yul\":8578:8587   */\n      dup4\n        /* \"#utility.yul\":8574:8592   */\n      add\n        /* \"#utility.yul\":8565:8571   */\n      dup7\n        /* \"#utility.yul\":8523:8593   */\n      tag_268\n      jump\t// in\n    tag_283:\n        /* \"#utility.yul\":8603:8674   */\n      tag_284\n        /* \"#utility.yul\":8669:8672   */\n      0x80\n        /* \"#utility.yul\":8658:8667   */\n      dup4\n        /* \"#utility.yul\":8654:8673   */\n      add\n        /* \"#utility.yul\":8645:8651   */\n      dup6\n        /* \"#utility.yul\":8603:8674   */\n      tag_268\n      jump\t// in\n    tag_284:\n        /* \"#utility.yul\":8684:8751   */\n      tag_285\n        /* \"#utility.yul\":8746:8749   */\n      0xa0\n        /* \"#utility.yul\":8735:8744   */\n      dup4\n        /* \"#utility.yul\":8731:8750   */\n      add\n        /* \"#utility.yul\":8722:8728   */\n      dup5\n        /* \"#utility.yul\":8684:8751   */\n      tag_205\n      jump\t// in\n    tag_285:\n        /* \"#utility.yul\":8003:8758   */\n      swap8\n      swap7\n      pop\n      pop\n      pop\n      pop\n      pop\n      pop\n      pop\n      jump\t// out\n        /* \"#utility.yul\":8764:9012   */\n    tag_49:\n        /* \"#utility.yul\":8870:8874   */\n      0x00\n        /* \"#utility.yul\":8908:8910   */\n      0x20\n        /* \"#utility.yul\":8897:8906   */\n      dup3\n        /* \"#utility.yul\":8893:8911   */\n      add\n        /* \"#utility.yul\":8885:8911   */\n      swap1\n      pop\n        /* \"#utility.yul\":8921:9005   */\n      tag_287\n        /* \"#utility.yul\":9002:9003   */\n      0x00\n        /* \"#utility.yul\":8991:9000   */\n      dup4\n        /* \"#utility.yul\":8987:9004   */\n      add\n        /* \"#utility.yul\":8978:8984   */\n      dup5\n        /* \"#utility.yul\":8921:9005   */\n      tag_209\n      jump\t// in\n    tag_287:\n        /* \"#utility.yul\":8764:9012   */\n      swap3\n      swap2\n      pop\n      pop\n      jump\t// out\n        /* \"#utility.yul\":9018:9437   */\n    tag_78:\n        /* \"#utility.yul\":9184:9188   */\n      0x00\n        /* \"#utility.yul\":9222:9224   */\n      0x20\n        /* \"#utility.yul\":9211:9220   */\n      dup3\n        /* \"#utility.yul\":9207:9225   */\n      add\n        /* \"#utility.yul\":9199:9225   */\n      swap1\n      pop\n        /* \"#utility.yul\":9271:9280   */\n      dup2\n        /* \"#utility.yul\":9265:9269   */\n      dup2\n        /* \"#utility.yul\":9261:9281   */\n      sub\n        /* \"#utility.yul\":9257:9258   */\n      0x00\n        /* \"#utility.yul\":9246:9255   */\n      dup4\n        /* \"#utility.yul\":9242:9259   */\n      add\n        /* \"#utility.yul\":9235:9282   */\n      mstore\n        /* \"#utility.yul\":9299:9430   */\n      tag_289\n        /* \"#utility.yul\":9425:9429   */\n      dup2\n        /* \"#utility.yul\":9299:9430   */\n      tag_213\n      jump\t// in\n    tag_289:\n        /* \"#utility.yul\":9291:9430   */\n      swap1\n      pop\n        /* \"#utility.yul\":9018:9437   */\n      swap2\n      swap1\n      pop\n      jump\t// out\n        /* \"#utility.yul\":9443:9862   */\n    tag_106:\n        /* \"#utility.yul\":9609:9613   */\n      0x00\n        /* \"#utility.yul\":9647:9649   */\n      0x20\n        /* \"#utility.yul\":9636:9645   */\n      dup3\n        /* \"#utility.yul\":9632:9650   */\n      add\n        /* \"#utility.yul\":9624:9650   */\n      swap1\n      pop\n        /* \"#utility.yul\":9696:9705   */\n      dup2\n        /* \"#utility.yul\":9690:9694   */\n      dup2\n        /* \"#utility.yul\":9686:9706   */\n      sub\n        /* \"#utility.yul\":9682:9683   */\n      0x00\n        /* \"#utility.yul\":9671:9680   */\n      dup4\n        /* \"#utility.yul\":9667:9684   */\n      add\n        /* \"#utility.yul\":9660:9707   */\n      mstore\n        /* \"#utility.yul\":9724:9855   */\n      tag_291\n        /* \"#utility.yul\":9850:9854   */\n      dup2\n        /* \"#utility.yul\":9724:9855   */\n      tag_219\n      jump\t// in\n    tag_291:\n        /* \"#utility.yul\":9716:9855   */\n      swap1\n      pop\n        /* \"#utility.yul\":9443:9862   */\n      swap2\n      swap1\n      pop\n      jump\t// out\n        /* \"#utility.yul\":9868:10287   */\n    tag_98:\n        /* \"#utility.yul\":10034:10038   */\n      0x00\n        /* \"#utility.yul\":10072:10074   */\n      0x20\n        /* \"#utility.yul\":10061:10070   */\n      dup3\n        /* \"#utility.yul\":10057:10075   */\n      add\n        /* \"#utility.yul\":10049:10075   */\n      swap1\n      pop\n        /* \"#utility.yul\":10121:10130   */\n      dup2\n        /* \"#utility.yul\":10115:10119   */\n      dup2\n        /* \"#utility.yul\":10111:10131   */\n      sub\n        /* \"#utility.yul\":10107:10108   */\n      0x00\n        /* \"#utility.yul\":10096:10105   */\n      dup4\n        /* \"#utility.yul\":10092:10109   */\n      add\n        /* \"#utility.yul\":10085:10132   */\n      mstore\n        /* \"#utility.yul\":10149:10280   */\n      tag_293\n        /* \"#utility.yul\":10275:10279   */\n      dup2\n        /* \"#utility.yul\":10149:10280   */\n      tag_224\n      jump\t// in\n    tag_293:\n        /* \"#utility.yul\":10141:10280   */\n      swap1\n      pop\n        /* \"#utility.yul\":9868:10287   */\n      swap2\n      swap1\n      pop\n      jump\t// out\n        /* \"#utility.yul\":10293:10712   */\n    tag_84:\n        /* \"#utility.yul\":10459:10463   */\n      0x00\n        /* \"#utility.yul\":10497:10499   */\n      0x20\n        /* \"#utility.yul\":10486:10495   */\n      dup3\n        /* \"#utility.yul\":10482:10500   */\n      add\n        /* \"#utility.yul\":10474:10500   */\n      swap1\n      pop\n        /* \"#utility.yul\":10546:10555   */\n      dup2\n        /* \"#utility.yul\":10540:10544   */\n      dup2\n        /* \"#utility.yul\":10536:10556   */\n      sub\n        /* \"#utility.yul\":10532:10533   */\n      0x00\n        /* \"#utility.yul\":10521:10530   */\n      dup4\n        /* \"#utility.yul\":10517:10534   */\n      add\n        /* \"#utility.yul\":10510:10557   */\n      mstore\n        /* \"#utility.yul\":10574:10705   */\n      tag_295\n        /* \"#utility.yul\":10700:10704   */\n      dup2\n        /* \"#utility.yul\":10574:10705   */\n      tag_229\n      jump\t// in\n    tag_295:\n        /* \"#utility.yul\":10566:10705   */\n      swap1\n      pop\n        /* \"#utility.yul\":10293:10712   */\n      swap2\n      swap1\n      pop\n      jump\t// out\n        /* \"#utility.yul\":10718:11137   */\n    tag_132:\n        /* \"#utility.yul\":10884:10888   */\n      0x00\n        /* \"#utility.yul\":10922:10924   */\n      0x20\n        /* \"#utility.yul\":10911:10920   */\n      dup3\n        /* \"#utility.yul\":10907:10925   */\n      add\n        /* \"#utility.yul\":10899:10925   */\n      swap1\n      pop\n        /* \"#utility.yul\":10971:10980   */\n      dup2\n        /* \"#utility.yul\":10965:10969   */\n      dup2\n        /* \"#utility.yul\":10961:10981   */\n      sub\n        /* \"#utility.yul\":10957:10958   */\n      0x00\n        /* \"#utility.yul\":10946:10955   */\n      dup4\n        /* \"#utility.yul\":10942:10959   */\n      add\n        /* \"#utility.yul\":10935:10982   */\n      mstore\n        /* \"#utility.yul\":10999:11130   */\n      tag_297\n        /* \"#utility.yul\":11125:11129   */\n      dup2\n        /* \"#utility.yul\":10999:11130   */\n      tag_234\n      jump\t// in\n    tag_297:\n        /* \"#utility.yul\":10991:11130   */\n      swap1\n      pop\n        /* \"#utility.yul\":10718:11137   */\n      swap2\n      swap1\n      pop\n      jump\t// out\n        /* \"#utility.yul\":11143:11562   */\n    tag_65:\n        /* \"#utility.yul\":11309:11313   */\n      0x00\n        /* \"#utility.yul\":11347:11349   */\n      0x20\n        /* \"#utility.yul\":11336:11345   */\n      dup3\n        /* \"#utility.yul\":11332:11350   */\n      add\n        /* \"#utility.yul\":11324:11350   */\n      swap1\n      pop\n        /* \"#utility.yul\":11396:11405   */\n      dup2\n        /* \"#utility.yul\":11390:11394   */\n      dup2\n        /* \"#utility.yul\":11386:11406   */\n      sub\n        /* \"#utility.yul\":11382:11383   */\n      0x00\n        /* \"#utility.yul\":11371:11380   */\n      dup4\n        /* \"#utility.yul\":11367:11384   */\n      add\n        /* \"#utility.yul\":11360:11407   */\n      mstore\n        /* \"#utility.yul\":11424:11555   */\n      tag_299\n        /* \"#utility.yul\":11550:11554   */\n      dup2\n        /* \"#utility.yul\":11424:11555   */\n      tag_239\n      jump\t// in\n    tag_299:\n        /* \"#utility.yul\":11416:11555   */\n      swap1\n      pop\n        /* \"#utility.yul\":11143:11562   */\n      swap2\n      swap1\n      pop\n      jump\t// out\n        /* \"#utility.yul\":11568:11987   */\n    tag_103:\n        /* \"#utility.yul\":11734:11738   */\n      0x00\n        /* \"#utility.yul\":11772:11774   */\n      0x20\n        /* \"#utility.yul\":11761:11770   */\n      dup3\n        /* \"#utility.yul\":11757:11775   */\n      add\n        /* \"#utility.yul\":11749:11775   */\n      swap1\n      pop\n        /* \"#utility.yul\":11821:11830   */\n      dup2\n        /* \"#utility.yul\":11815:11819   */\n      dup2\n        /* \"#utility.yul\":11811:11831   */\n      sub\n        /* \"#utility.yul\":11807:11808   */\n      0x00\n        /* \"#utility.yul\":11796:11805   */\n      dup4\n        /* \"#utility.yul\":11792:11809   */\n      add\n        /* \"#utility.yul\":11785:11832   */\n      mstore\n        /* \"#utility.yul\":11849:11980   */\n      tag_301\n        /* \"#utility.yul\":11975:11979   */\n      dup2\n        /* \"#utility.yul\":11849:11980   */\n      tag_244\n      jump\t// in\n    tag_301:\n        /* \"#utility.yul\":11841:11980   */\n      swap1\n      pop\n        /* \"#utility.yul\":11568:11987   */\n      swap2\n      swap1\n      pop\n      jump\t// out\n        /* \"#utility.yul\":11993:12412   */\n    tag_121:\n        /* \"#utility.yul\":12159:12163   */\n      0x00\n        /* \"#utility.yul\":12197:12199   */\n      0x20\n        /* \"#utility.yul\":12186:12195   */\n      dup3\n        /* \"#utility.yul\":12182:12200   */\n      add\n        /* \"#utility.yul\":12174:12200   */\n      swap1\n      pop\n        /* \"#utility.yul\":12246:12255   */\n      dup2\n        /* \"#utility.yul\":12240:12244   */\n      dup2\n        /* \"#utility.yul\":12236:12256   */\n      sub\n        /* \"#utility.yul\":12232:12233   */\n      0x00\n        /* \"#utility.yul\":12221:12230   */\n      dup4\n        /* \"#utility.yul\":12217:12234   */\n      add\n        /* \"#utility.yul\":12210:12257   */\n      mstore\n        /* \"#utility.yul\":12274:12405   */\n      tag_303\n        /* \"#utility.yul\":12400:12404   */\n      dup2\n        /* \"#utility.yul\":12274:12405   */\n      tag_249\n      jump\t// in\n    tag_303:\n        /* \"#utility.yul\":12266:12405   */\n      swap1\n      pop\n        /* \"#utility.yul\":11993:12412   */\n      swap2\n      swap1\n      pop\n      jump\t// out\n        /* \"#utility.yul\":12418:12837   */\n    tag_81:\n        /* \"#utility.yul\":12584:12588   */\n      0x00\n        /* \"#utility.yul\":12622:12624   */\n      0x20\n        /* \"#utility.yul\":12611:12620   */\n      dup3\n        /* \"#utility.yul\":12607:12625   */\n      add\n        /* \"#utility.yul\":12599:12625   */\n      swap1\n      pop\n        /* \"#utility.yul\":12671:12680   */\n      dup2\n        /* \"#utility.yul\":12665:12669   */\n      dup2\n        /* \"#utility.yul\":12661:12681   */\n      sub\n        /* \"#utility.yul\":12657:12658   */\n      0x00\n        /* \"#utility.yul\":12646:12655   */\n      dup4\n        /* \"#utility.yul\":12642:12659   */\n      add\n        /* \"#utility.yul\":12635:12682   */\n      mstore\n        /* \"#utility.yul\":12699:12830   */\n      tag_305\n        /* \"#utility.yul\":12825:12829   */\n      dup2\n        /* \"#utility.yul\":12699:12830   */\n      tag_254\n      jump\t// in\n    tag_305:\n        /* \"#utility.yul\":12691:12830   */\n      swap1\n      pop\n        /* \"#utility.yul\":12418:12837   */\n      swap2\n      swap1\n      pop\n      jump\t// out\n        /* \"#utility.yul\":12843:13262   */\n    tag_62:\n        /* \"#utility.yul\":13009:13013   */\n      0x00\n        /* \"#utility.yul\":13047:13049   */\n      0x20\n        /* \"#utility.yul\":13036:13045   */\n      dup3\n        /* \"#utility.yul\":13032:13050   */\n      add\n        /* \"#utility.yul\":13024:13050   */\n      swap1\n      pop\n        /* \"#utility.yul\":13096:13105   */\n      dup2\n        /* \"#utility.yul\":13090:13094   */\n      dup2\n        /* \"#utility.yul\":13086:13106   */\n      sub\n        /* \"#utility.yul\":13082:13083   */\n      0x00\n        /* \"#utility.yul\":13071:13080   */\n      dup4\n        /* \"#utility.yul\":13067:13084   */\n      add\n        /* \"#utility.yul\":13060:13107   */\n      mstore\n        /* \"#utility.yul\":13124:13255   */\n      tag_307\n        /* \"#utility.yul\":13250:13254   */\n      dup2\n        /* \"#utility.yul\":13124:13255   */\n      tag_259\n      jump\t// in\n    tag_307:\n        /* \"#utility.yul\":13116:13255   */\n      swap1\n      pop\n        /* \"#utility.yul\":12843:13262   */\n      swap2\n      swap1\n      pop\n      jump\t// out\n        /* \"#utility.yul\":13268:13490   */\n    tag_30:\n        /* \"#utility.yul\":13361:13365   */\n      0x00\n        /* \"#utility.yul\":13399:13401   */\n      0x20\n        /* \"#utility.yul\":13388:13397   */\n      dup3\n        /* \"#utility.yul\":13384:13402   */\n      add\n        /* \"#utility.yul\":13376:13402   */\n      swap1\n      pop\n        /* \"#utility.yul\":13412:13483   */\n      tag_309\n        /* \"#utility.yul\":13480:13481   */\n      0x00\n        /* \"#utility.yul\":13469:13478   */\n      dup4\n        /* \"#utility.yul\":13465:13482   */\n      add\n        /* \"#utility.yul\":13456:13462   */\n      dup5\n        /* \"#utility.yul\":13412:13483   */\n      tag_264\n      jump\t// in\n    tag_309:\n        /* \"#utility.yul\":13268:13490   */\n      swap3\n      swap2\n      pop\n      pop\n      jump\t// out\n        /* \"#utility.yul\":13496:13828   */\n    tag_74:\n        /* \"#utility.yul\":13617:13621   */\n      0x00\n        /* \"#utility.yul\":13655:13657   */\n      0x40\n        /* \"#utility.yul\":13644:13653   */\n      dup3\n        /* \"#utility.yul\":13640:13658   */\n      add\n        /* \"#utility.yul\":13632:13658   */\n      swap1\n      pop\n        /* \"#utility.yul\":13668:13739   */\n      tag_311\n        /* \"#utility.yul\":13736:13737   */\n      0x00\n        /* \"#utility.yul\":13725:13734   */\n      dup4\n        /* \"#utility.yul\":13721:13738   */\n      add\n        /* \"#utility.yul\":13712:13718   */\n      dup6\n        /* \"#utility.yul\":13668:13739   */\n      tag_264\n      jump\t// in\n    tag_311:\n        /* \"#utility.yul\":13749:13821   */\n      tag_312\n        /* \"#utility.yul\":13817:13819   */\n      0x20\n        /* \"#utility.yul\":13806:13815   */\n      dup4\n        /* \"#utility.yul\":13802:13820   */\n      add\n        /* \"#utility.yul\":13793:13799   */\n      dup5\n        /* \"#utility.yul\":13749:13821   */\n      tag_264\n      jump\t// in\n    tag_312:\n        /* \"#utility.yul\":13496:13828   */\n      swap4\n      swap3\n      pop\n      pop\n      pop\n      jump\t// out\n        /* \"#utility.yul\":13834:14379   */\n    tag_91:\n        /* \"#utility.yul\":14007:14011   */\n      0x00\n        /* \"#utility.yul\":14045:14048   */\n      0x80\n        /* \"#utility.yul\":14034:14043   */\n      dup3\n        /* \"#utility.yul\":14030:14049   */\n      add\n        /* \"#utility.yul\":14022:14049   */\n      swap1\n      pop\n        /* \"#utility.yul\":14059:14130   */\n      tag_314\n        /* \"#utility.yul\":14127:14128   */\n      0x00\n        /* \"#utility.yul\":14116:14125   */\n      dup4\n        /* \"#utility.yul\":14112:14129   */\n      add\n        /* \"#utility.yul\":14103:14109   */\n      dup8\n        /* \"#utility.yul\":14059:14130   */\n      tag_264\n      jump\t// in\n    tag_314:\n        /* \"#utility.yul\":14140:14212   */\n      tag_315\n        /* \"#utility.yul\":14208:14210   */\n      0x20\n        /* \"#utility.yul\":14197:14206   */\n      dup4\n        /* \"#utility.yul\":14193:14211   */\n      add\n        /* \"#utility.yul\":14184:14190   */\n      dup7\n        /* \"#utility.yul\":14140:14212   */\n      tag_264\n      jump\t// in\n    tag_315:\n        /* \"#utility.yul\":14222:14292   */\n      tag_316\n        /* \"#utility.yul\":14288:14290   */\n      0x40\n        /* \"#utility.yul\":14277:14286   */\n      dup4\n        /* \"#utility.yul\":14273:14291   */\n      add\n        /* \"#utility.yul\":14264:14270   */\n      dup6\n        /* \"#utility.yul\":14222:14292   */\n      tag_268\n      jump\t// in\n    tag_316:\n        /* \"#utility.yul\":14302:14372   */\n      tag_317\n        /* \"#utility.yul\":14368:14370   */\n      0x60\n        /* \"#utility.yul\":14357:14366   */\n      dup4\n        /* \"#utility.yul\":14353:14371   */\n      add\n        /* \"#utility.yul\":14344:14350   */\n      dup5\n        /* \"#utility.yul\":14302:14372   */\n      tag_268\n      jump\t// in\n    tag_317:\n        /* \"#utility.yul\":13834:14379   */\n      swap6\n      swap5\n      pop\n      pop\n      pop\n      pop\n      pop\n      jump\t// out\n        /* \"#utility.yul\":14466:14635   */\n    tag_216:\n        /* \"#utility.yul\":14550:14561   */\n      0x00\n        /* \"#utility.yul\":14584:14590   */\n      dup3\n        /* \"#utility.yul\":14579:14582   */\n      dup3\n        /* \"#utility.yul\":14572:14591   */\n      mstore\n        /* \"#utility.yul\":14624:14628   */\n      0x20\n        /* \"#utility.yul\":14619:14622   */\n      dup3\n        /* \"#utility.yul\":14615:14629   */\n      add\n        /* \"#utility.yul\":14600:14629   */\n      swap1\n      pop\n        /* \"#utility.yul\":14466:14635   */\n      swap3\n      swap2\n      pop\n      pop\n      jump\t// out\n        /* \"#utility.yul\":14641:14946   */\n    tag_86:\n        /* \"#utility.yul\":14681:14684   */\n      0x00\n        /* \"#utility.yul\":14700:14720   */\n      tag_322\n        /* \"#utility.yul\":14718:14719   */\n      dup3\n        /* \"#utility.yul\":14700:14720   */\n      tag_267\n      jump\t// in\n    tag_322:\n        /* \"#utility.yul\":14695:14720   */\n      swap2\n      pop\n        /* \"#utility.yul\":14734:14754   */\n      tag_323\n        /* \"#utility.yul\":14752:14753   */\n      dup4\n        /* \"#utility.yul\":14734:14754   */\n      tag_267\n      jump\t// in\n    tag_323:\n        /* \"#utility.yul\":14729:14754   */\n      swap3\n      pop\n        /* \"#utility.yul\":14888:14889   */\n      dup3\n        /* \"#utility.yul\":14820:14886   */\n      0xffffffffffffffffffffffffffffffffffffffffffffffffffffffffffffffff\n        /* \"#utility.yul\":14816:14890   */\n      sub\n        /* \"#utility.yul\":14813:14814   */\n      dup3\n        /* \"#utility.yul\":14810:14891   */\n      gt\n        /* \"#utility.yul\":14807:14914   */\n      iszero\n      tag_324\n      jumpi\n        /* \"#utility.yul\":14894:14912   */\n      tag_325\n      tag_326\n      jump\t// in\n    tag_325:\n        /* \"#utility.yul\":14807:14914   */\n    tag_324:\n        /* \"#utility.yul\":14938:14939   */\n      dup3\n        /* \"#utility.yul\":14935:14936   */\n      dup3\n        /* \"#utility.yul\":14931:14940   */\n      add\n        /* \"#utility.yul\":14924:14940   */\n      swap1\n      pop\n        /* \"#utility.yul\":14641:14946   */\n      swap3\n      swap2\n      pop\n      pop\n      jump\t// out\n        /* \"#utility.yul\":14952:15143   */\n    tag_134:\n        /* \"#utility.yul\":14992:14996   */\n      0x00\n        /* \"#utility.yul\":15012:15032   */\n      tag_328\n        /* \"#utility.yul\":15030:15031   */\n      dup3\n        /* \"#utility.yul\":15012:15032   */\n      tag_267\n      jump\t// in\n    tag_328:\n        /* \"#utility.yul\":15007:15032   */\n      swap2\n      pop\n        /* \"#utility.yul\":15046:15066   */\n      tag_329\n        /* \"#utility.yul\":15064:15065   */\n      dup4\n        /* \"#utility.yul\":15046:15066   */\n      tag_267\n      jump\t// in\n    tag_329:\n        /* \"#utility.yul\":15041:15066   */\n      swap3\n      pop\n        /* \"#utility.yul\":15085:15086   */\n      dup3\n        /* \"#utility.yul\":15082:15083   */\n      dup3\n        /* \"#utility.yul\":15079:15087   */\n      lt\n        /* \"#utility.yul\":15076:15110   */\n      iszero\n      tag_330\n      jumpi\n        /* \"#utility.yul\":15090:15108   */\n      tag_331\n      tag_326\n      jump\t// in\n    tag_331:\n        /* \"#utility.yul\":15076:15110   */\n    tag_330:\n        /* \"#utility.yul\":15135:15136   */\n      dup3\n        /* \"#utility.yul\":15132:15133   */\n      dup3\n        /* \"#utility.yul\":15128:15137   */\n      sub\n        /* \"#utility.yul\":15120:15137   */\n      swap1\n      pop\n        /* \"#utility.yul\":14952:15143   */\n      swap3\n      swap2\n      pop\n      pop\n      jump\t// out\n        /* \"#utility.yul\":15149:15245   */\n    tag_204:\n        /* \"#utility.yul\":15186:15193   */\n      0x00\n        /* \"#utility.yul\":15215:15239   */\n      tag_333\n        /* \"#utility.yul\":15233:15238   */\n      dup3\n        /* \"#utility.yul\":15215:15239   */\n      tag_334\n      jump\t// in\n    tag_333:\n        /* \"#utility.yul\":15204:15239   */\n      swap1\n      pop\n        /* \"#utility.yul\":15149:15245   */\n      swap2\n      swap1\n      pop\n      jump\t// out\n        /* \"#utility.yul\":15251:15341   */\n    tag_208:\n        /* \"#utility.yul\":15285:15292   */\n      0x00\n        /* \"#utility.yul\":15328:15333   */\n      dup2\n        /* \"#utility.yul\":15321:15334   */\n      iszero\n        /* \"#utility.yul\":15314:15335   */\n      iszero\n        /* \"#utility.yul\":15303:15335   */\n      swap1\n      pop\n        /* \"#utility.yul\":15251:15341   */\n      swap2\n      swap1\n      pop\n      jump\t// out\n        /* \"#utility.yul\":15347:15473   */\n    tag_334:\n        /* \"#utility.yul\":15384:15391   */\n      0x00\n        /* \"#utility.yul\":15424:15466   */\n      0xffffffffffffffffffffffffffffffffffffffff\n        /* \"#utility.yul\":15417:15422   */\n      dup3\n        /* \"#utility.yul\":15413:15467   */\n      and\n        /* \"#utility.yul\":15402:15467   */\n      swap1\n      pop\n        /* \"#utility.yul\":15347:15473   */\n      swap2\n      swap1\n      pop\n      jump\t// out\n        /* \"#utility.yul\":15479:15556   */\n    tag_267:\n        /* \"#utility.yul\":15516:15523   */\n      0x00\n        /* \"#utility.yul\":15545:15550   */\n      dup2\n        /* \"#utility.yul\":15534:15550   */\n      swap1\n      pop\n        /* \"#utility.yul\":15479:15556   */\n      swap2\n      swap1\n      pop\n      jump\t// out\n        /* \"#utility.yul\":15562:15655   */\n    tag_271:\n        /* \"#utility.yul\":15598:15605   */\n      0x00\n        /* \"#utility.yul\":15638:15648   */\n      0xffffffff\n        /* \"#utility.yul\":15631:15636   */\n      dup3\n        /* \"#utility.yul\":15627:15649   */\n      and\n        /* \"#utility.yul\":15616:15649   */\n      swap1\n      pop\n        /* \"#utility.yul\":15562:15655   */\n      swap2\n      swap1\n      pop\n      jump\t// out\n        /* \"#utility.yul\":15661:15800   */\n    tag_212:\n        /* \"#utility.yul\":15724:15733   */\n      0x00\n        /* \"#utility.yul\":15757:15794   */\n      tag_340\n        /* \"#utility.yul\":15788:15793   */\n      dup3\n        /* \"#utility.yul\":15757:15794   */\n      tag_341\n      jump\t// in\n    tag_340:\n        /* \"#utility.yul\":15744:15794   */\n      swap1\n      pop\n        /* \"#utility.yul\":15661:15800   */\n      swap2\n      swap1\n      pop\n      jump\t// out\n        /* \"#utility.yul\":15806:15932   */\n    tag_341:\n        /* \"#utility.yul\":15856:15865   */\n      0x00\n        /* \"#utility.yul\":15889:15926   */\n      tag_343\n        /* \"#utility.yul\":15920:15925   */\n      dup3\n        /* \"#utility.yul\":15889:15926   */\n      tag_344\n      jump\t// in\n    tag_343:\n        /* \"#utility.yul\":15876:15926   */\n      swap1\n      pop\n        /* \"#utility.yul\":15806:15932   */\n      swap2\n      swap1\n      pop\n      jump\t// out\n        /* \"#utility.yul\":15938:16051   */\n    tag_344:\n        /* \"#utility.yul\":15988:15997   */\n      0x00\n        /* \"#utility.yul\":16021:16045   */\n      tag_346\n        /* \"#utility.yul\":16039:16044   */\n      dup3\n        /* \"#utility.yul\":16021:16045   */\n      tag_334\n      jump\t// in\n    tag_346:\n        /* \"#utility.yul\":16008:16045   */\n      swap1\n      pop\n        /* \"#utility.yul\":15938:16051   */\n      swap2\n      swap1\n      pop\n      jump\t// out\n        /* \"#utility.yul\":16057:16237   */\n    tag_326:\n        /* \"#utility.yul\":16105:16182   */\n      0x4e487b7100000000000000000000000000000000000000000000000000000000\n        /* \"#utility.yul\":16102:16103   */\n      0x00\n        /* \"#utility.yul\":16095:16183   */\n      mstore\n        /* \"#utility.yul\":16202:16206   */\n      0x11\n        /* \"#utility.yul\":16199:16200   */\n      0x04\n        /* \"#utility.yul\":16192:16207   */\n      mstore\n        /* \"#utility.yul\":16226:16230   */\n      0x24\n        /* \"#utility.yul\":16223:16224   */\n      0x00\n        /* \"#utility.yul\":16216:16231   */\n      revert\n        /* \"#utility.yul\":16243:16423   */\n    tag_58:\n        /* \"#utility.yul\":16291:16368   */\n      0x4e487b7100000000000000000000000000000000000000000000000000000000\n        /* \"#utility.yul\":16288:16289   */\n      0x00\n        /* \"#utility.yul\":16281:16369   */\n      mstore\n        /* \"#utility.yul\":16388:16392   */\n      0x32\n        /* \"#utility.yul\":16385:16386   */\n      0x04\n        /* \"#utility.yul\":16378:16393   */\n      mstore\n        /* \"#utility.yul\":16412:16416   */\n      0x24\n        /* \"#utility.yul\":16409:16410   */\n      0x00\n        /* \"#utility.yul\":16402:16417   */\n      revert\n        /* \"#utility.yul\":16552:16669   */\n    tag_179:\n        /* \"#utility.yul\":16661:16662   */\n      0x00\n        /* \"#utility.yul\":16658:16659   */\n      dup1\n        /* \"#utility.yul\":16651:16663   */\n      revert\n        /* \"#utility.yul\":16675:16853   */\n    tag_218:\n        /* \"#utility.yul\":16815:16845   */\n      0x43616d7061696e672063616e607420737461727420696e207061737400000000\n        /* \"#utility.yul\":16811:16812   */\n      0x00\n        /* \"#utility.yul\":16803:16809   */\n      dup3\n        /* \"#utility.yul\":16799:16813   */\n      add\n        /* \"#utility.yul\":16792:16846   */\n      mstore\n        /* \"#utility.yul\":16675:16853   */\n      pop\n      jump\t// out\n        /* \"#utility.yul\":16859:17024   */\n    tag_223:\n        /* \"#utility.yul\":16999:17016   */\n      0x616c726561647920636c61696d65640000000000000000000000000000000000\n        /* \"#utility.yul\":16995:16996   */\n      0x00\n        /* \"#utility.yul\":16987:16993   */\n      dup3\n        /* \"#utility.yul\":16983:16997   */\n      add\n        /* \"#utility.yul\":16976:17017   */\n      mstore\n        /* \"#utility.yul\":16859:17024   */\n      pop\n      jump\t// out\n        /* \"#utility.yul\":17030:17202   */\n    tag_228:\n        /* \"#utility.yul\":17170:17194   */\n      0x596f7520617265206e6f7420617574686f726973656400000000000000000000\n        /* \"#utility.yul\":17166:17167   */\n      0x00\n        /* \"#utility.yul\":17158:17164   */\n      dup3\n        /* \"#utility.yul\":17154:17168   */\n      add\n        /* \"#utility.yul\":17147:17195   */\n      mstore\n        /* \"#utility.yul\":17030:17202   */\n      pop\n      jump\t// out\n        /* \"#utility.yul\":17208:17388   */\n    tag_233:\n        /* \"#utility.yul\":17348:17380   */\n      0x43616d7061696e672073686f756c6420656e6420696e20393020646179730000\n        /* \"#utility.yul\":17344:17345   */\n      0x00\n        /* \"#utility.yul\":17336:17342   */\n      dup3\n        /* \"#utility.yul\":17332:17346   */\n      add\n        /* \"#utility.yul\":17325:17381   */\n      mstore\n        /* \"#utility.yul\":17208:17388   */\n      pop\n      jump\t// out\n        /* \"#utility.yul\":17394:17570   */\n    tag_238:\n        /* \"#utility.yul\":17534:17562   */\n      0x43616d706169676e2068617320616c726561647920656e646564000000000000\n        /* \"#utility.yul\":17530:17531   */\n      0x00\n        /* \"#utility.yul\":17522:17528   */\n      dup3\n        /* \"#utility.yul\":17518:17532   */\n      add\n        /* \"#utility.yul\":17511:17563   */\n      mstore\n        /* \"#utility.yul\":17394:17570   */\n      pop\n      jump\t// out\n        /* \"#utility.yul\":17576:17758   */\n    tag_243:\n        /* \"#utility.yul\":17716:17750   */\n      0x43616d706169676e20686173207265616368656420746f2074686520676f616c\n        /* \"#utility.yul\":17712:17713   */\n      0x00\n        /* \"#utility.yul\":17704:17710   */\n      dup3\n        /* \"#utility.yul\":17700:17714   */\n      add\n        /* \"#utility.yul\":17693:17751   */\n      mstore\n        /* \"#utility.yul\":17576:17758   */\n      pop\n      jump\t// out\n        /* \"#utility.yul\":17764:17944   */\n    tag_248:\n        /* \"#utility.yul\":17904:17936   */\n      0x43616d7069676e206d75737420726561636820746f2074686520676f616c0000\n        /* \"#utility.yul\":17900:17901   */\n      0x00\n        /* \"#utility.yul\":17892:17898   */\n      dup3\n        /* \"#utility.yul\":17888:17902   */\n      add\n        /* \"#utility.yul\":17881:17937   */\n      mstore\n        /* \"#utility.yul\":17764:17944   */\n      pop\n      jump\t// out\n        /* \"#utility.yul\":17950:18128   */\n    tag_253:\n        /* \"#utility.yul\":18090:18120   */\n      0x43616d706169676e20686173206e6f7420737461727465642079657400000000\n        /* \"#utility.yul\":18086:18087   */\n      0x00\n        /* \"#utility.yul\":18078:18084   */\n      dup3\n        /* \"#utility.yul\":18074:18088   */\n      add\n        /* \"#utility.yul\":18067:18121   */\n      mstore\n        /* \"#utility.yul\":17950:18128   */\n      pop\n      jump\t// out\n        /* \"#utility.yul\":18134:18369   */\n    tag_258:\n        /* \"#utility.yul\":18274:18308   */\n      0x43616d7061696e67607320656e642074696d652073686f756c64206265206772\n        /* \"#utility.yul\":18270:18271   */\n      0x00\n        /* \"#utility.yul\":18262:18268   */\n      dup3\n        /* \"#utility.yul\":18258:18272   */\n      add\n        /* \"#utility.yul\":18251:18309   */\n      mstore\n        /* \"#utility.yul\":18343:18361   */\n      0x6561746572207468656e20737461727400000000000000000000000000000000\n        /* \"#utility.yul\":18338:18340   */\n      0x20\n        /* \"#utility.yul\":18330:18336   */\n      dup3\n        /* \"#utility.yul\":18326:18341   */\n      add\n        /* \"#utility.yul\":18319:18362   */\n      mstore\n        /* \"#utility.yul\":18134:18369   */\n      pop\n      jump\t// out\n        /* \"#utility.yul\":18375:18551   */\n    tag_263:\n        /* \"#utility.yul\":18515:18543   */\n      0x43616d706169676e206973207374696c6c20676f696e67206f6e000000000000\n        /* \"#utility.yul\":18511:18512   */\n      0x00\n        /* \"#utility.yul\":18503:18509   */\n      dup3\n        /* \"#utility.yul\":18499:18513   */\n      add\n        /* \"#utility.yul\":18492:18544   */\n      mstore\n        /* \"#utility.yul\":18375:18551   */\n      pop\n      jump\t// out\n        /* \"#utility.yul\":18557:18679   */\n    tag_163:\n        /* \"#utility.yul\":18630:18654   */\n      tag_363\n        /* \"#utility.yul\":18648:18653   */\n      dup2\n        /* \"#utility.yul\":18630:18654   */\n      tag_204\n      jump\t// in\n    tag_363:\n        /* \"#utility.yul\":18623:18628   */\n      dup2\n        /* \"#utility.yul\":18620:18655   */\n      eq\n        /* \"#utility.yul\":18610:18673   */\n      tag_364\n      jumpi\n        /* \"#utility.yul\":18669:18670   */\n      0x00\n        /* \"#utility.yul\":18666:18667   */\n      dup1\n        /* \"#utility.yul\":18659:18671   */\n      revert\n        /* \"#utility.yul\":18610:18673   */\n    tag_364:\n        /* \"#utility.yul\":18557:18679   */\n      pop\n      jump\t// out\n        /* \"#utility.yul\":18685:18801   */\n    tag_167:\n        /* \"#utility.yul\":18755:18776   */\n      tag_366\n        /* \"#utility.yul\":18770:18775   */\n      dup2\n        /* \"#utility.yul\":18755:18776   */\n      tag_208\n      jump\t// in\n    tag_366:\n        /* \"#utility.yul\":18748:18753   */\n      dup2\n        /* \"#utility.yul\":18745:18777   */\n      eq\n        /* \"#utility.yul\":18735:18795   */\n      tag_367\n      jumpi\n        /* \"#utility.yul\":18791:18792   */\n      0x00\n        /* \"#utility.yul\":18788:18789   */\n      dup1\n        /* \"#utility.yul\":18781:18793   */\n      revert\n        /* \"#utility.yul\":18735:18795   */\n    tag_367:\n        /* \"#utility.yul\":18685:18801   */\n      pop\n      jump\t// out\n        /* \"#utility.yul\":18807:18929   */\n    tag_171:\n        /* \"#utility.yul\":18880:18904   */\n      tag_369\n        /* \"#utility.yul\":18898:18903   */\n      dup2\n        /* \"#utility.yul\":18880:18904   */\n      tag_267\n      jump\t// in\n    tag_369:\n        /* \"#utility.yul\":18873:18878   */\n      dup2\n        /* \"#utility.yul\":18870:18905   */\n      eq\n        /* \"#utility.yul\":18860:18923   */\n      tag_370\n      jumpi\n        /* \"#utility.yul\":18919:18920   */\n      0x00\n        /* \"#utility.yul\":18916:18917   */\n      dup1\n        /* \"#utility.yul\":18909:18921   */\n      revert\n        /* \"#utility.yul\":18860:18923   */\n    tag_370:\n        /* \"#utility.yul\":18807:18929   */\n      pop\n      jump\t// out\n        /* \"#utility.yul\":18935:19055   */\n    tag_175:\n        /* \"#utility.yul\":19007:19030   */\n      tag_372\n        /* \"#utility.yul\":19024:19029   */\n      dup2\n        /* \"#utility.yul\":19007:19030   */\n      tag_271\n      jump\t// in\n    tag_372:\n        /* \"#utility.yul\":19000:19005   */\n      dup2\n        /* \"#utility.yul\":18997:19031   */\n      eq\n        /* \"#utility.yul\":18987:19049   */\n      tag_373\n      jumpi\n        /* \"#utility.yul\":19045:19046   */\n      0x00\n        /* \"#utility.yul\":19042:19043   */\n      dup1\n        /* \"#utility.yul\":19035:19047   */\n      revert\n        /* \"#utility.yul\":18987:19049   */\n    tag_373:\n        /* \"#utility.yul\":18935:19055   */\n      pop\n      jump\t// out\n\n    auxdata: 0xa264697066735822122085a545575def045938a885d25dc32b77940cd4f45a44774072cccd560ff49cd964736f6c63430008070033\n}\n",
				"bytecode": {
					"linkReferences": {},
					"object": "60a06040523480156200001157600080fd5b5060405162001d9038038062001d9083398181016040528101906200003791906200008c565b8073ffffffffffffffffffffffffffffffffffffffff1660808173ffffffffffffffffffffffffffffffffffffffff1660601b815250505062000111565b6000815190506200008681620000f7565b92915050565b600060208284031215620000a557620000a4620000f2565b5b6000620000b58482850162000075565b91505092915050565b6000620000cb82620000d2565b9050919050565b600073ffffffffffffffffffffffffffffffffffffffff82169050919050565b600080fd5b6200010281620000be565b81146200010e57600080fd5b50565b60805160601c611c446200014c600039600081816104ca01528181610a3901528181610ee80152818161100f01526111950152611c446000f3fe608060405234801561001057600080fd5b506004361061009e5760003560e01c806340e58ee51161006657806340e58ee51461014a578063711853ab14610166578063eaf65e0814610182578063fc0c546a146101b2578063fde327be146101d05761009e565b8063141961bc146100a3578063278ecde1146100d85780632c63f146146100f45780632ddbd13a14610110578063379607f51461012e575b600080fd5b6100bd60048036038101906100b89190611318565b6101ec565b6040516100cf96959493929190611621565b60405180910390f35b6100f260048036038101906100ed9190611318565b610285565b005b61010e600480360381019061010991906113c5565b6105cb565b005b610118610863565b60405161012591906117dd565b60405180910390f35b61014860048036038101906101439190611318565b610869565b005b610164600480360381019061015f9190611318565b610b48565b005b610180600480360381019061017b9190611385565b610de1565b005b61019c60048036038101906101979190611345565b610fe8565b6040516101a991906117dd565b60405180910390f35b6101ba61100d565b6040516101c79190611682565b60405180910390f35b6101ea60048036038101906101e59190611385565b611031565b005b600181815481106101fc57600080fd5b90600052602060002090600402016000915090508060000160009054906101000a900473ffffffffffffffffffffffffffffffffffffffff16908060010154908060020154908060030160009054906101000a900463ffffffff16908060030160049054906101000a900463ffffffff16908060030160089054906101000a900460ff16905086565b60006001828154811061029b5761029a6119be565b5b90600052602060002090600402016040518060c00160405290816000820160009054906101000a900473ffffffffffffffffffffffffffffffffffffffff1673ffffffffffffffffffffffffffffffffffffffff1673ffffffffffffffffffffffffffffffffffffffff16815260200160018201548152602001600282015481526020016003820160009054906101000a900463ffffffff1663ffffffff1663ffffffff1681526020016003820160049054906101000a900463ffffffff1663ffffffff1663ffffffff1681526020016003820160089054906101000a900460ff1615151515815250509050806080015163ffffffff1642116103d3576040517f08c379a00000000000000000000000000000000000000000000000000000000081526004016103ca906117bd565b60405180910390fd5b806020015181604001511061041d576040517f08c379a00000000000000000000000000000000000000000000000000000000081526004016104149061173d565b60405180910390fd5b60006002600084815260200190815260200160002060003373ffffffffffffffffffffffffffffffffffffffff1673ffffffffffffffffffffffffffffffffffffffff16815260200190815260200160002054905060006002600085815260200190815260200160002060003373ffffffffffffffffffffffffffffffffffffffff1673ffffffffffffffffffffffffffffffffffffffff168152602001908152602001600020819055507f000000000000000000000000000000000000000000000000000000000000000073ffffffffffffffffffffffffffffffffffffffff1663a9059cbb33836040518363ffffffff1660e01b81526004016105239291906115f8565b602060405180830381600087803b15801561053d57600080fd5b505af1158015610551573d6000803e3d6000fd5b505050506040513d601f19601f8201168201806040525081019061057591906112eb565b503373ffffffffffffffffffffffffffffffffffffffff167f21e12a7cad0da5928167e1084ea4d5fdf8d9af66657a2543a9ac76a0ca08147784836040516105be9291906117f8565b60405180910390a2505050565b428263ffffffff161015610614576040517f08c379a000000000000000000000000000000000000000000000000000000000815260040161060b9061169d565b60405180910390fd5b8163ffffffff168163ffffffff161015610663576040517f08c379a000000000000000000000000000000000000000000000000000000000815260040161065a9061179d565b60405180910390fd5b428163ffffffff1611156106ac576040517f08c379a00000000000000000000000000000000000000000000000000000000081526004016106a3906116fd565b60405180910390fd5b60016000808282546106be9190611877565b925050819055506040518060c001604052803373ffffffffffffffffffffffffffffffffffffffff168152602001848152602001600081526020018363ffffffff1681526020018263ffffffff1681526020016000151581525060016000548154811061072e5761072d6119be565b5b906000526020600020906004020160008201518160000160006101000a81548173ffffffffffffffffffffffffffffffffffffffff021916908373ffffffffffffffffffffffffffffffffffffffff160217905550602082015181600101556040820151816002015560608201518160030160006101000a81548163ffffffff021916908363ffffffff16021790555060808201518160030160046101000a81548163ffffffff021916908363ffffffff16021790555060a08201518160030160086101000a81548160ff0219169083151502179055509050503373ffffffffffffffffffffffffffffffffffffffff167f0601cd0d650b473037e838a2696d41e654433d065b3f56b28d1d3302e44a304f6000548585856040516108569493929190611821565b60405180910390a2505050565b60005481565b60006001828154811061087f5761087e6119be565b5b906000526020600020906004020190503373ffffffffffffffffffffffffffffffffffffffff168160000160009054906101000a900473ffffffffffffffffffffffffffffffffffffffff1673ffffffffffffffffffffffffffffffffffffffff1614610921576040517f08c379a0000000000000000000000000000000000000000000000000000000008152600401610918906116dd565b60405180910390fd5b8060030160049054906101000a900463ffffffff1663ffffffff16421161097d576040517f08c379a0000000000000000000000000000000000000000000000000000000008152600401610974906117bd565b60405180910390fd5b8060010154816002015410156109c8576040517f08c379a00000000000000000000000000000000000000000000000000000000081526004016109bf9061175d565b60405180910390fd5b8060030160089054906101000a900460ff1615610a1a576040517f08c379a0000000000000000000000000000000000000000000000000000000008152600401610a11906116bd565b60405180910390fd5b60018160030160086101000a81548160ff0219169083151502179055507f000000000000000000000000000000000000000000000000000000000000000073ffffffffffffffffffffffffffffffffffffffff1663a9059cbb8260000160009054906101000a900473ffffffffffffffffffffffffffffffffffffffff1683600201546040518363ffffffff1660e01b8152600401610aba9291906115f8565b602060405180830381600087803b158015610ad457600080fd5b505af1158015610ae8573d6000803e3d6000fd5b505050506040513d601f19601f82011682018060405250810190610b0c91906112eb565b507f7bb2b3c10797baccb6f8c4791f1edd6ca2f0d028ee0eda64b01a9a57e3a653f782604051610b3c91906117dd565b60405180910390a15050565b600060018281548110610b5e57610b5d6119be565b5b90600052602060002090600402016040518060c00160405290816000820160009054906101000a900473ffffffffffffffffffffffffffffffffffffffff1673ffffffffffffffffffffffffffffffffffffffff1673ffffffffffffffffffffffffffffffffffffffff16815260200160018201548152602001600282015481526020016003820160009054906101000a900463ffffffff1663ffffffff1663ffffffff1681526020016003820160049054906101000a900463ffffffff1663ffffffff1663ffffffff1681526020016003820160089054906101000a900460ff16151515158152505090503373ffffffffffffffffffffffffffffffffffffffff16816000015173ffffffffffffffffffffffffffffffffffffffff1614610cbc576040517f08c379a0000000000000000000000000000000000000000000000000000000008152600401610cb3906116dd565b60405180910390fd5b806060015163ffffffff164210610d08576040517f08c379a0000000000000000000000000000000000000000000000000000000008152600401610cff9061177d565b60405180910390fd5b60018281548110610d1c57610d1b6119be565b5b9060005260206000209060040201600080820160006101000a81549073ffffffffffffffffffffffffffffffffffffffff0219169055600182016000905560028201600090556003820160006101000a81549063ffffffff02191690556003820160046101000a81549063ffffffff02191690556003820160086101000a81549060ff021916905550507f8bf30e7ff26833413be5f69e1d373744864d600b664204b4a2f9844a8eedb9ed82604051610dd591906117dd565b60405180910390a15050565b600060018381548110610df757610df66119be565b5b906000526020600020906004020190508060030160049054906101000a900463ffffffff1663ffffffff16421115610e64576040517f08c379a0000000000000000000000000000000000000000000000000000000008152600401610e5b9061171d565b60405180910390fd5b81816002016000828254610e7891906118cd565b92505081905550816002600085815260200190815260200160002060003373ffffffffffffffffffffffffffffffffffffffff1673ffffffffffffffffffffffffffffffffffffffff1681526020019081526020016000206000828254610edf91906118cd565b925050819055507f000000000000000000000000000000000000000000000000000000000000000073ffffffffffffffffffffffffffffffffffffffff1663a9059cbb33846040518363ffffffff1660e01b8152600401610f419291906115f8565b602060405180830381600087803b158015610f5b57600080fd5b505af1158015610f6f573d6000803e3d6000fd5b505050506040513d601f19601f82011682018060405250810190610f9391906112eb565b503373ffffffffffffffffffffffffffffffffffffffff16837f2eeeab891b26a214d1b25749f88a406bdea852bd8c9bfda977e0ef8114c180ba84604051610fdb91906117dd565b60405180910390a3505050565b6002602052816000526040600020602052806000526040600020600091509150505481565b7f000000000000000000000000000000000000000000000000000000000000000081565b600060018381548110611047576110466119be565b5b906000526020600020906004020190508060030160009054906101000a900463ffffffff1663ffffffff164210156110b4576040517f08c379a00000000000000000000000000000000000000000000000000000000081526004016110ab9061177d565b60405180910390fd5b8060030160049054906101000a900463ffffffff1663ffffffff16421115611111576040517f08c379a00000000000000000000000000000000000000000000000000000000081526004016111089061171d565b60405180910390fd5b818160020160008282546111259190611877565b92505081905550816002600085815260200190815260200160002060003373ffffffffffffffffffffffffffffffffffffffff1673ffffffffffffffffffffffffffffffffffffffff168152602001908152602001600020600082825461118c9190611877565b925050819055507f000000000000000000000000000000000000000000000000000000000000000073ffffffffffffffffffffffffffffffffffffffff166323b872dd3330856040518463ffffffff1660e01b81526004016111f0939291906115c1565b602060405180830381600087803b15801561120a57600080fd5b505af115801561121e573d6000803e3d6000fd5b505050506040513d601f19601f8201168201806040525081019061124291906112eb565b503373ffffffffffffffffffffffffffffffffffffffff16837f06bdb975df800a73232998e71ed585d536222f1dfeaa622d7f62a23ada686c828460405161128a91906117dd565b60405180910390a3505050565b6000813590506112a681611bb2565b92915050565b6000815190506112bb81611bc9565b92915050565b6000813590506112d081611be0565b92915050565b6000813590506112e581611bf7565b92915050565b600060208284031215611301576113006119ed565b5b600061130f848285016112ac565b91505092915050565b60006020828403121561132e5761132d6119ed565b5b600061133c848285016112c1565b91505092915050565b6000806040838503121561135c5761135b6119ed565b5b600061136a858286016112c1565b925050602061137b85828601611297565b9150509250929050565b6000806040838503121561139c5761139b6119ed565b5b60006113aa858286016112c1565b92505060206113bb858286016112c1565b9150509250929050565b6000806000606084860312156113de576113dd6119ed565b5b60006113ec868287016112c1565b93505060206113fd868287016112d6565b925050604061140e868287016112d6565b9150509250925092565b61142181611901565b82525050565b61143081611913565b82525050565b61143f81611959565b82525050565b6000611452601c83611866565b915061145d826119f2565b602082019050919050565b6000611475600f83611866565b915061148082611a1b565b602082019050919050565b6000611498601683611866565b91506114a382611a44565b602082019050919050565b60006114bb601e83611866565b91506114c682611a6d565b602082019050919050565b60006114de601a83611866565b91506114e982611a96565b602082019050919050565b6000611501602083611866565b915061150c82611abf565b602082019050919050565b6000611524601e83611866565b915061152f82611ae8565b602082019050919050565b6000611547601c83611866565b915061155282611b11565b602082019050919050565b600061156a603083611866565b915061157582611b3a565b604082019050919050565b600061158d601a83611866565b915061159882611b89565b602082019050919050565b6115ac8161193f565b82525050565b6115bb81611949565b82525050565b60006060820190506115d66000830186611418565b6115e36020830185611418565b6115f060408301846115a3565b949350505050565b600060408201905061160d6000830185611418565b61161a60208301846115a3565b9392505050565b600060c0820190506116366000830189611418565b61164360208301886115a3565b61165060408301876115a3565b61165d60608301866115b2565b61166a60808301856115b2565b61167760a0830184611427565b979650505050505050565b60006020820190506116976000830184611436565b92915050565b600060208201905081810360008301526116b681611445565b9050919050565b600060208201905081810360008301526116d681611468565b9050919050565b600060208201905081810360008301526116f68161148b565b9050919050565b60006020820190508181036000830152611716816114ae565b9050919050565b60006020820190508181036000830152611736816114d1565b9050919050565b60006020820190508181036000830152611756816114f4565b9050919050565b6000602082019050818103600083015261177681611517565b9050919050565b600060208201905081810360008301526117968161153a565b9050919050565b600060208201905081810360008301526117b68161155d565b9050919050565b600060208201905081810360008301526117d681611580565b9050919050565b60006020820190506117f260008301846115a3565b92915050565b600060408201905061180d60008301856115a3565b61181a60208301846115a3565b9392505050565b600060808201905061183660008301876115a3565b61184360208301866115a3565b61185060408301856115b2565b61185d60608301846115b2565b95945050505050565b600082825260208201905092915050565b60006118828261193f565b915061188d8361193f565b9250827fffffffffffffffffffffffffffffffffffffffffffffffffffffffffffffffff038211156118c2576118c161198f565b5b828201905092915050565b60006118d88261193f565b91506118e38361193f565b9250828210156118f6576118f561198f565b5b828203905092915050565b600061190c8261191f565b9050919050565b60008115159050919050565b600073ffffffffffffffffffffffffffffffffffffffff82169050919050565b6000819050919050565b600063ffffffff82169050919050565b60006119648261196b565b9050919050565b60006119768261197d565b9050919050565b60006119888261191f565b9050919050565b7f4e487b7100000000000000000000000000000000000000000000000000000000600052601160045260246000fd5b7f4e487b7100000000000000000000000000000000000000000000000000000000600052603260045260246000fd5b600080fd5b7f43616d7061696e672063616e607420737461727420696e207061737400000000600082015250565b7f616c726561647920636c61696d65640000000000000000000000000000000000600082015250565b7f596f7520617265206e6f7420617574686f726973656400000000000000000000600082015250565b7f43616d7061696e672073686f756c6420656e6420696e20393020646179730000600082015250565b7f43616d706169676e2068617320616c726561647920656e646564000000000000600082015250565b7f43616d706169676e20686173207265616368656420746f2074686520676f616c600082015250565b7f43616d7069676e206d75737420726561636820746f2074686520676f616c0000600082015250565b7f43616d706169676e20686173206e6f7420737461727465642079657400000000600082015250565b7f43616d7061696e67607320656e642074696d652073686f756c6420626520677260008201527f6561746572207468656e20737461727400000000000000000000000000000000602082015250565b7f43616d706169676e206973207374696c6c20676f696e67206f6e000000000000600082015250565b611bbb81611901565b8114611bc657600080fd5b50565b611bd281611913565b8114611bdd57600080fd5b50565b611be98161193f565b8114611bf457600080fd5b50565b611c0081611949565b8114611c0b57600080fd5b5056fea264697066735822122085a545575def045938a885d25dc32b77940cd4f45a44774072cccd560ff49cd964736f6c63430008070033",
					"opcodes": "PUSH1 0xA0 PUSH1 0x40 MSTORE CALLVALUE DUP1 ISZERO PUSH3 0x11 JUMPI PUSH1 0x0 DUP1 REVERT JUMPDEST POP PUSH1 0x40 MLOAD PUSH3 0x1D90 CODESIZE SUB DUP1 PUSH3 0x1D90 DUP4 CODECOPY DUP2 DUP2 ADD PUSH1 0x40 MSTORE DUP2 ADD SWAP1 PUSH3 0x37 SWAP2 SWAP1 PUSH3 0x8C JUMP JUMPDEST DUP1 PUSH20 0xFFFFFFFFFFFFFFFFFFFFFFFFFFFFFFFFFFFFFFFF AND PUSH1 0x80 DUP2 PUSH20 0xFFFFFFFFFFFFFFFFFFFFFFFFFFFFFFFFFFFFFFFF AND PUSH1 0x60 SHL DUP2 MSTORE POP POP POP PUSH3 0x111 JUMP JUMPDEST PUSH1 0x0 DUP2 MLOAD SWAP1 POP PUSH3 0x86 DUP2 PUSH3 0xF7 JUMP JUMPDEST SWAP3 SWAP2 POP POP JUMP JUMPDEST PUSH1 0x0 PUSH1 0x20 DUP3 DUP5 SUB SLT ISZERO PUSH3 0xA5 JUMPI PUSH3 0xA4 PUSH3 0xF2 JUMP JUMPDEST JUMPDEST PUSH1 0x0 PUSH3 0xB5 DUP5 DUP3 DUP6 ADD PUSH3 0x75 JUMP JUMPDEST SWAP2 POP POP SWAP3 SWAP2 POP POP JUMP JUMPDEST PUSH1 0x0 PUSH3 0xCB DUP3 PUSH3 0xD2 JUMP JUMPDEST SWAP1 POP SWAP2 SWAP1 POP JUMP JUMPDEST PUSH1 0x0 PUSH20 0xFFFFFFFFFFFFFFFFFFFFFFFFFFFFFFFFFFFFFFFF DUP3 AND SWAP1 POP SWAP2 SWAP1 POP JUMP JUMPDEST PUSH1 0x0 DUP1 REVERT JUMPDEST PUSH3 0x102 DUP2 PUSH3 0xBE JUMP JUMPDEST DUP2 EQ PUSH3 0x10E JUMPI PUSH1 0x0 DUP1 REVERT JUMPDEST POP JUMP JUMPDEST PUSH1 0x80 MLOAD PUSH1 0x60 SHR PUSH2 0x1C44 PUSH3 0x14C PUSH1 0x0 CODECOPY PUSH1 0x0 DUP2 DUP2 PUSH2 0x4CA ADD MSTORE DUP2 DUP2 PUSH2 0xA39 ADD MSTORE DUP2 DUP2 PUSH2 0xEE8 ADD MSTORE DUP2 DUP2 PUSH2 0x100F ADD MSTORE PUSH2 0x1195 ADD MSTORE PUSH2 0x1C44 PUSH1 0x0 RETURN INVALID PUSH1 0x80 PUSH1 0x40 MSTORE CALLVALUE DUP1 ISZERO PUSH2 0x10 JUMPI PUSH1 0x0 DUP1 REVERT JUMPDEST POP PUSH1 0x4 CALLDATASIZE LT PUSH2 0x9E JUMPI PUSH1 0x0 CALLDATALOAD PUSH1 0xE0 SHR DUP1 PUSH4 0x40E58EE5 GT PUSH2 0x66 JUMPI DUP1 PUSH4 0x40E58EE5 EQ PUSH2 0x14A JUMPI DUP1 PUSH4 0x711853AB EQ PUSH2 0x166 JUMPI DUP1 PUSH4 0xEAF65E08 EQ PUSH2 0x182 JUMPI DUP1 PUSH4 0xFC0C546A EQ PUSH2 0x1B2 JUMPI DUP1 PUSH4 0xFDE327BE EQ PUSH2 0x1D0 JUMPI PUSH2 0x9E JUMP JUMPDEST DUP1 PUSH4 0x141961BC EQ PUSH2 0xA3 JUMPI DUP1 PUSH4 0x278ECDE1 EQ PUSH2 0xD8 JUMPI DUP1 PUSH4 0x2C63F146 EQ PUSH2 0xF4 JUMPI DUP1 PUSH4 0x2DDBD13A EQ PUSH2 0x110 JUMPI DUP1 PUSH4 0x379607F5 EQ PUSH2 0x12E JUMPI JUMPDEST PUSH1 0x0 DUP1 REVERT JUMPDEST PUSH2 0xBD PUSH1 0x4 DUP1 CALLDATASIZE SUB DUP2 ADD SWAP1 PUSH2 0xB8 SWAP2 SWAP1 PUSH2 0x1318 JUMP JUMPDEST PUSH2 0x1EC JUMP JUMPDEST PUSH1 0x40 MLOAD PUSH2 0xCF SWAP7 SWAP6 SWAP5 SWAP4 SWAP3 SWAP2 SWAP1 PUSH2 0x1621 JUMP JUMPDEST PUSH1 0x40 MLOAD DUP1 SWAP2 SUB SWAP1 RETURN JUMPDEST PUSH2 0xF2 PUSH1 0x4 DUP1 CALLDATASIZE SUB DUP2 ADD SWAP1 PUSH2 0xED SWAP2 SWAP1 PUSH2 0x1318 JUMP JUMPDEST PUSH2 0x285 JUMP JUMPDEST STOP JUMPDEST PUSH2 0x10E PUSH1 0x4 DUP1 CALLDATASIZE SUB DUP2 ADD SWAP1 PUSH2 0x109 SWAP2 SWAP1 PUSH2 0x13C5 JUMP JUMPDEST PUSH2 0x5CB JUMP JUMPDEST STOP JUMPDEST PUSH2 0x118 PUSH2 0x863 JUMP JUMPDEST PUSH1 0x40 MLOAD PUSH2 0x125 SWAP2 SWAP1 PUSH2 0x17DD JUMP JUMPDEST PUSH1 0x40 MLOAD DUP1 SWAP2 SUB SWAP1 RETURN JUMPDEST PUSH2 0x148 PUSH1 0x4 DUP1 CALLDATASIZE SUB DUP2 ADD SWAP1 PUSH2 0x143 SWAP2 SWAP1 PUSH2 0x1318 JUMP JUMPDEST PUSH2 0x869 JUMP JUMPDEST STOP JUMPDEST PUSH2 0x164 PUSH1 0x4 DUP1 CALLDATASIZE SUB DUP2 ADD SWAP1 PUSH2 0x15F SWAP2 SWAP1 PUSH2 0x1318 JUMP JUMPDEST PUSH2 0xB48 JUMP JUMPDEST STOP JUMPDEST PUSH2 0x180 PUSH1 0x4 DUP1 CALLDATASIZE SUB DUP2 ADD SWAP1 PUSH2 0x17B SWAP2 SWAP1 PUSH2 0x1385 JUMP JUMPDEST PUSH2 0xDE1 JUMP JUMPDEST STOP JUMPDEST PUSH2 0x19C PUSH1 0x4 DUP1 CALLDATASIZE SUB DUP2 ADD SWAP1 PUSH2 0x197 SWAP2 SWAP1 PUSH2 0x1345 JUMP JUMPDEST PUSH2 0xFE8 JUMP JUMPDEST PUSH1 0x40 MLOAD PUSH2 0x1A9 SWAP2 SWAP1 PUSH2 0x17DD JUMP JUMPDEST PUSH1 0x40 MLOAD DUP1 SWAP2 SUB SWAP1 RETURN JUMPDEST PUSH2 0x1BA PUSH2 0x100D JUMP JUMPDEST PUSH1 0x40 MLOAD PUSH2 0x1C7 SWAP2 SWAP1 PUSH2 0x1682 JUMP JUMPDEST PUSH1 0x40 MLOAD DUP1 SWAP2 SUB SWAP1 RETURN JUMPDEST PUSH2 0x1EA PUSH1 0x4 DUP1 CALLDATASIZE SUB DUP2 ADD SWAP1 PUSH2 0x1E5 SWAP2 SWAP1 PUSH2 0x1385 JUMP JUMPDEST PUSH2 0x1031 JUMP JUMPDEST STOP JUMPDEST PUSH1 0x1 DUP2 DUP2 SLOAD DUP2 LT PUSH2 0x1FC JUMPI PUSH1 0x0 DUP1 REVERT JUMPDEST SWAP1 PUSH1 0x0 MSTORE PUSH1 0x20 PUSH1 0x0 KECCAK256 SWAP1 PUSH1 0x4 MUL ADD PUSH1 0x0 SWAP2 POP SWAP1 POP DUP1 PUSH1 0x0 ADD PUSH1 0x0 SWAP1 SLOAD SWAP1 PUSH2 0x100 EXP SWAP1 DIV PUSH20 0xFFFFFFFFFFFFFFFFFFFFFFFFFFFFFFFFFFFFFFFF AND SWAP1 DUP1 PUSH1 0x1 ADD SLOAD SWAP1 DUP1 PUSH1 0x2 ADD SLOAD SWAP1 DUP1 PUSH1 0x3 ADD PUSH1 0x0 SWAP1 SLOAD SWAP1 PUSH2 0x100 EXP SWAP1 DIV PUSH4 0xFFFFFFFF AND SWAP1 DUP1 PUSH1 0x3 ADD PUSH1 0x4 SWAP1 SLOAD SWAP1 PUSH2 0x100 EXP SWAP1 DIV PUSH4 0xFFFFFFFF AND SWAP1 DUP1 PUSH1 0x3 ADD PUSH1 0x8 SWAP1 SLOAD SWAP1 PUSH2 0x100 EXP SWAP1 DIV PUSH1 0xFF AND SWAP1 POP DUP7 JUMP JUMPDEST PUSH1 0x0 PUSH1 0x1 DUP3 DUP2 SLOAD DUP2 LT PUSH2 0x29B JUMPI PUSH2 0x29A PUSH2 0x19BE JUMP JUMPDEST JUMPDEST SWAP1 PUSH1 0x0 MSTORE PUSH1 0x20 PUSH1 0x0 KECCAK256 SWAP1 PUSH1 0x4 MUL ADD PUSH1 0x40 MLOAD DUP1 PUSH1 0xC0 ADD PUSH1 0x40 MSTORE SWAP1 DUP2 PUSH1 0x0 DUP3 ADD PUSH1 0x0 SWAP1 SLOAD SWAP1 PUSH2 0x100 EXP SWAP1 DIV PUSH20 0xFFFFFFFFFFFFFFFFFFFFFFFFFFFFFFFFFFFFFFFF AND PUSH20 0xFFFFFFFFFFFFFFFFFFFFFFFFFFFFFFFFFFFFFFFF AND PUSH20 0xFFFFFFFFFFFFFFFFFFFFFFFFFFFFFFFFFFFFFFFF AND DUP2 MSTORE PUSH1 0x20 ADD PUSH1 0x1 DUP3 ADD SLOAD DUP2 MSTORE PUSH1 0x20 ADD PUSH1 0x2 DUP3 ADD SLOAD DUP2 MSTORE PUSH1 0x20 ADD PUSH1 0x3 DUP3 ADD PUSH1 0x0 SWAP1 SLOAD SWAP1 PUSH2 0x100 EXP SWAP1 DIV PUSH4 0xFFFFFFFF AND PUSH4 0xFFFFFFFF AND PUSH4 0xFFFFFFFF AND DUP2 MSTORE PUSH1 0x20 ADD PUSH1 0x3 DUP3 ADD PUSH1 0x4 SWAP1 SLOAD SWAP1 PUSH2 0x100 EXP SWAP1 DIV PUSH4 0xFFFFFFFF AND PUSH4 0xFFFFFFFF AND PUSH4 0xFFFFFFFF AND DUP2 MSTORE PUSH1 0x20 ADD PUSH1 0x3 DUP3 ADD PUSH1 0x8 SWAP1 SLOAD SWAP1 PUSH2 0x100 EXP SWAP1 DIV PUSH1 0xFF AND ISZERO ISZERO ISZERO ISZERO DUP2 MSTORE POP POP SWAP1 POP DUP1 PUSH1 0x80 ADD MLOAD PUSH4 0xFFFFFFFF AND TIMESTAMP GT PUSH2 0x3D3 JUMPI PUSH1 0x40 MLOAD PUSH32 0x8C379A000000000000000000000000000000000000000000000000000000000 DUP2 MSTORE PUSH1 0x4 ADD PUSH2 0x3CA SWAP1 PUSH2 0x17BD JUMP JUMPDEST PUSH1 0x40 MLOAD DUP1 SWAP2 SUB SWAP1 REVERT JUMPDEST DUP1 PUSH1 0x20 ADD MLOAD DUP2 PUSH1 0x40 ADD MLOAD LT PUSH2 0x41D JUMPI PUSH1 0x40 MLOAD PUSH32 0x8C379A000000000000000000000000000000000000000000000000000000000 DUP2 MSTORE PUSH1 0x4 ADD PUSH2 0x414 SWAP1 PUSH2 0x173D JUMP JUMPDEST PUSH1 0x40 MLOAD DUP1 SWAP2 SUB SWAP1 REVERT JUMPDEST PUSH1 0x0 PUSH1 0x2 PUSH1 0x0 DUP5 DUP2 MSTORE PUSH1 0x20 ADD SWAP1 DUP2 MSTORE PUSH1 0x20 ADD PUSH1 0x0 KECCAK256 PUSH1 0x0 CALLER PUSH20 0xFFFFFFFFFFFFFFFFFFFFFFFFFFFFFFFFFFFFFFFF AND PUSH20 0xFFFFFFFFFFFFFFFFFFFFFFFFFFFFFFFFFFFFFFFF AND DUP2 MSTORE PUSH1 0x20 ADD SWAP1 DUP2 MSTORE PUSH1 0x20 ADD PUSH1 0x0 KECCAK256 SLOAD SWAP1 POP PUSH1 0x0 PUSH1 0x2 PUSH1 0x0 DUP6 DUP2 MSTORE PUSH1 0x20 ADD SWAP1 DUP2 MSTORE PUSH1 0x20 ADD PUSH1 0x0 KECCAK256 PUSH1 0x0 CALLER PUSH20 0xFFFFFFFFFFFFFFFFFFFFFFFFFFFFFFFFFFFFFFFF AND PUSH20 0xFFFFFFFFFFFFFFFFFFFFFFFFFFFFFFFFFFFFFFFF AND DUP2 MSTORE PUSH1 0x20 ADD SWAP1 DUP2 MSTORE PUSH1 0x20 ADD PUSH1 0x0 KECCAK256 DUP2 SWAP1 SSTORE POP PUSH32 0x0 PUSH20 0xFFFFFFFFFFFFFFFFFFFFFFFFFFFFFFFFFFFFFFFF AND PUSH4 0xA9059CBB CALLER DUP4 PUSH1 0x40 MLOAD DUP4 PUSH4 0xFFFFFFFF AND PUSH1 0xE0 SHL DUP2 MSTORE PUSH1 0x4 ADD PUSH2 0x523 SWAP3 SWAP2 SWAP1 PUSH2 0x15F8 JUMP JUMPDEST PUSH1 0x20 PUSH1 0x40 MLOAD DUP1 DUP4 SUB DUP2 PUSH1 0x0 DUP8 DUP1 EXTCODESIZE ISZERO DUP1 ISZERO PUSH2 0x53D JUMPI PUSH1 0x0 DUP1 REVERT JUMPDEST POP GAS CALL ISZERO DUP1 ISZERO PUSH2 0x551 JUMPI RETURNDATASIZE PUSH1 0x0 DUP1 RETURNDATACOPY RETURNDATASIZE PUSH1 0x0 REVERT JUMPDEST POP POP POP POP PUSH1 0x40 MLOAD RETURNDATASIZE PUSH1 0x1F NOT PUSH1 0x1F DUP3 ADD AND DUP3 ADD DUP1 PUSH1 0x40 MSTORE POP DUP2 ADD SWAP1 PUSH2 0x575 SWAP2 SWAP1 PUSH2 0x12EB JUMP JUMPDEST POP CALLER PUSH20 0xFFFFFFFFFFFFFFFFFFFFFFFFFFFFFFFFFFFFFFFF AND PUSH32 0x21E12A7CAD0DA5928167E1084EA4D5FDF8D9AF66657A2543A9AC76A0CA081477 DUP5 DUP4 PUSH1 0x40 MLOAD PUSH2 0x5BE SWAP3 SWAP2 SWAP1 PUSH2 0x17F8 JUMP JUMPDEST PUSH1 0x40 MLOAD DUP1 SWAP2 SUB SWAP1 LOG2 POP POP POP JUMP JUMPDEST TIMESTAMP DUP3 PUSH4 0xFFFFFFFF AND LT ISZERO PUSH2 0x614 JUMPI PUSH1 0x40 MLOAD PUSH32 0x8C379A000000000000000000000000000000000000000000000000000000000 DUP2 MSTORE PUSH1 0x4 ADD PUSH2 0x60B SWAP1 PUSH2 0x169D JUMP JUMPDEST PUSH1 0x40 MLOAD DUP1 SWAP2 SUB SWAP1 REVERT JUMPDEST DUP2 PUSH4 0xFFFFFFFF AND DUP2 PUSH4 0xFFFFFFFF AND LT ISZERO PUSH2 0x663 JUMPI PUSH1 0x40 MLOAD PUSH32 0x8C379A000000000000000000000000000000000000000000000000000000000 DUP2 MSTORE PUSH1 0x4 ADD PUSH2 0x65A SWAP1 PUSH2 0x179D JUMP JUMPDEST PUSH1 0x40 MLOAD DUP1 SWAP2 SUB SWAP1 REVERT JUMPDEST TIMESTAMP DUP2 PUSH4 0xFFFFFFFF AND GT ISZERO PUSH2 0x6AC JUMPI PUSH1 0x40 MLOAD PUSH32 0x8C379A000000000000000000000000000000000000000000000000000000000 DUP2 MSTORE PUSH1 0x4 ADD PUSH2 0x6A3 SWAP1 PUSH2 0x16FD JUMP JUMPDEST PUSH1 0x40 MLOAD DUP1 SWAP2 SUB SWAP1 REVERT JUMPDEST PUSH1 0x1 PUSH1 0x0 DUP1 DUP3 DUP3 SLOAD PUSH2 0x6BE SWAP2 SWAP1 PUSH2 0x1877 JUMP JUMPDEST SWAP3 POP POP DUP2 SWAP1 SSTORE POP PUSH1 0x40 MLOAD DUP1 PUSH1 0xC0 ADD PUSH1 0x40 MSTORE DUP1 CALLER PUSH20 0xFFFFFFFFFFFFFFFFFFFFFFFFFFFFFFFFFFFFFFFF AND DUP2 MSTORE PUSH1 0x20 ADD DUP5 DUP2 MSTORE PUSH1 0x20 ADD PUSH1 0x0 DUP2 MSTORE PUSH1 0x20 ADD DUP4 PUSH4 0xFFFFFFFF AND DUP2 MSTORE PUSH1 0x20 ADD DUP3 PUSH4 0xFFFFFFFF AND DUP2 MSTORE PUSH1 0x20 ADD PUSH1 0x0 ISZERO ISZERO DUP2 MSTORE POP PUSH1 0x1 PUSH1 0x0 SLOAD DUP2 SLOAD DUP2 LT PUSH2 0x72E JUMPI PUSH2 0x72D PUSH2 0x19BE JUMP JUMPDEST JUMPDEST SWAP1 PUSH1 0x0 MSTORE PUSH1 0x20 PUSH1 0x0 KECCAK256 SWAP1 PUSH1 0x4 MUL ADD PUSH1 0x0 DUP3 ADD MLOAD DUP2 PUSH1 0x0 ADD PUSH1 0x0 PUSH2 0x100 EXP DUP2 SLOAD DUP2 PUSH20 0xFFFFFFFFFFFFFFFFFFFFFFFFFFFFFFFFFFFFFFFF MUL NOT AND SWAP1 DUP4 PUSH20 0xFFFFFFFFFFFFFFFFFFFFFFFFFFFFFFFFFFFFFFFF AND MUL OR SWAP1 SSTORE POP PUSH1 0x20 DUP3 ADD MLOAD DUP2 PUSH1 0x1 ADD SSTORE PUSH1 0x40 DUP3 ADD MLOAD DUP2 PUSH1 0x2 ADD SSTORE PUSH1 0x60 DUP3 ADD MLOAD DUP2 PUSH1 0x3 ADD PUSH1 0x0 PUSH2 0x100 EXP DUP2 SLOAD DUP2 PUSH4 0xFFFFFFFF MUL NOT AND SWAP1 DUP4 PUSH4 0xFFFFFFFF AND MUL OR SWAP1 SSTORE POP PUSH1 0x80 DUP3 ADD MLOAD DUP2 PUSH1 0x3 ADD PUSH1 0x4 PUSH2 0x100 EXP DUP2 SLOAD DUP2 PUSH4 0xFFFFFFFF MUL NOT AND SWAP1 DUP4 PUSH4 0xFFFFFFFF AND MUL OR SWAP1 SSTORE POP PUSH1 0xA0 DUP3 ADD MLOAD DUP2 PUSH1 0x3 ADD PUSH1 0x8 PUSH2 0x100 EXP DUP2 SLOAD DUP2 PUSH1 0xFF MUL NOT AND SWAP1 DUP4 ISZERO ISZERO MUL OR SWAP1 SSTORE POP SWAP1 POP POP CALLER PUSH20 0xFFFFFFFFFFFFFFFFFFFFFFFFFFFFFFFFFFFFFFFF AND PUSH32 0x601CD0D650B473037E838A2696D41E654433D065B3F56B28D1D3302E44A304F PUSH1 0x0 SLOAD DUP6 DUP6 DUP6 PUSH1 0x40 MLOAD PUSH2 0x856 SWAP5 SWAP4 SWAP3 SWAP2 SWAP1 PUSH2 0x1821 JUMP JUMPDEST PUSH1 0x40 MLOAD DUP1 SWAP2 SUB SWAP1 LOG2 POP POP POP JUMP JUMPDEST PUSH1 0x0 SLOAD DUP2 JUMP JUMPDEST PUSH1 0x0 PUSH1 0x1 DUP3 DUP2 SLOAD DUP2 LT PUSH2 0x87F JUMPI PUSH2 0x87E PUSH2 0x19BE JUMP JUMPDEST JUMPDEST SWAP1 PUSH1 0x0 MSTORE PUSH1 0x20 PUSH1 0x0 KECCAK256 SWAP1 PUSH1 0x4 MUL ADD SWAP1 POP CALLER PUSH20 0xFFFFFFFFFFFFFFFFFFFFFFFFFFFFFFFFFFFFFFFF AND DUP2 PUSH1 0x0 ADD PUSH1 0x0 SWAP1 SLOAD SWAP1 PUSH2 0x100 EXP SWAP1 DIV PUSH20 0xFFFFFFFFFFFFFFFFFFFFFFFFFFFFFFFFFFFFFFFF AND PUSH20 0xFFFFFFFFFFFFFFFFFFFFFFFFFFFFFFFFFFFFFFFF AND EQ PUSH2 0x921 JUMPI PUSH1 0x40 MLOAD PUSH32 0x8C379A000000000000000000000000000000000000000000000000000000000 DUP2 MSTORE PUSH1 0x4 ADD PUSH2 0x918 SWAP1 PUSH2 0x16DD JUMP JUMPDEST PUSH1 0x40 MLOAD DUP1 SWAP2 SUB SWAP1 REVERT JUMPDEST DUP1 PUSH1 0x3 ADD PUSH1 0x4 SWAP1 SLOAD SWAP1 PUSH2 0x100 EXP SWAP1 DIV PUSH4 0xFFFFFFFF AND PUSH4 0xFFFFFFFF AND TIMESTAMP GT PUSH2 0x97D JUMPI PUSH1 0x40 MLOAD PUSH32 0x8C379A000000000000000000000000000000000000000000000000000000000 DUP2 MSTORE PUSH1 0x4 ADD PUSH2 0x974 SWAP1 PUSH2 0x17BD JUMP JUMPDEST PUSH1 0x40 MLOAD DUP1 SWAP2 SUB SWAP1 REVERT JUMPDEST DUP1 PUSH1 0x1 ADD SLOAD DUP2 PUSH1 0x2 ADD SLOAD LT ISZERO PUSH2 0x9C8 JUMPI PUSH1 0x40 MLOAD PUSH32 0x8C379A000000000000000000000000000000000000000000000000000000000 DUP2 MSTORE PUSH1 0x4 ADD PUSH2 0x9BF SWAP1 PUSH2 0x175D JUMP JUMPDEST PUSH1 0x40 MLOAD DUP1 SWAP2 SUB SWAP1 REVERT JUMPDEST DUP1 PUSH1 0x3 ADD PUSH1 0x8 SWAP1 SLOAD SWAP1 PUSH2 0x100 EXP SWAP1 DIV PUSH1 0xFF AND ISZERO PUSH2 0xA1A JUMPI PUSH1 0x40 MLOAD PUSH32 0x8C379A000000000000000000000000000000000000000000000000000000000 DUP2 MSTORE PUSH1 0x4 ADD PUSH2 0xA11 SWAP1 PUSH2 0x16BD JUMP JUMPDEST PUSH1 0x40 MLOAD DUP1 SWAP2 SUB SWAP1 REVERT JUMPDEST PUSH1 0x1 DUP2 PUSH1 0x3 ADD PUSH1 0x8 PUSH2 0x100 EXP DUP2 SLOAD DUP2 PUSH1 0xFF MUL NOT AND SWAP1 DUP4 ISZERO ISZERO MUL OR SWAP1 SSTORE POP PUSH32 0x0 PUSH20 0xFFFFFFFFFFFFFFFFFFFFFFFFFFFFFFFFFFFFFFFF AND PUSH4 0xA9059CBB DUP3 PUSH1 0x0 ADD PUSH1 0x0 SWAP1 SLOAD SWAP1 PUSH2 0x100 EXP SWAP1 DIV PUSH20 0xFFFFFFFFFFFFFFFFFFFFFFFFFFFFFFFFFFFFFFFF AND DUP4 PUSH1 0x2 ADD SLOAD PUSH1 0x40 MLOAD DUP4 PUSH4 0xFFFFFFFF AND PUSH1 0xE0 SHL DUP2 MSTORE PUSH1 0x4 ADD PUSH2 0xABA SWAP3 SWAP2 SWAP1 PUSH2 0x15F8 JUMP JUMPDEST PUSH1 0x20 PUSH1 0x40 MLOAD DUP1 DUP4 SUB DUP2 PUSH1 0x0 DUP8 DUP1 EXTCODESIZE ISZERO DUP1 ISZERO PUSH2 0xAD4 JUMPI PUSH1 0x0 DUP1 REVERT JUMPDEST POP GAS CALL ISZERO DUP1 ISZERO PUSH2 0xAE8 JUMPI RETURNDATASIZE PUSH1 0x0 DUP1 RETURNDATACOPY RETURNDATASIZE PUSH1 0x0 REVERT JUMPDEST POP POP POP POP PUSH1 0x40 MLOAD RETURNDATASIZE PUSH1 0x1F NOT PUSH1 0x1F DUP3 ADD AND DUP3 ADD DUP1 PUSH1 0x40 MSTORE POP DUP2 ADD SWAP1 PUSH2 0xB0C SWAP2 SWAP1 PUSH2 0x12EB JUMP JUMPDEST POP PUSH32 0x7BB2B3C10797BACCB6F8C4791F1EDD6CA2F0D028EE0EDA64B01A9A57E3A653F7 DUP3 PUSH1 0x40 MLOAD PUSH2 0xB3C SWAP2 SWAP1 PUSH2 0x17DD JUMP JUMPDEST PUSH1 0x40 MLOAD DUP1 SWAP2 SUB SWAP1 LOG1 POP POP JUMP JUMPDEST PUSH1 0x0 PUSH1 0x1 DUP3 DUP2 SLOAD DUP2 LT PUSH2 0xB5E JUMPI PUSH2 0xB5D PUSH2 0x19BE JUMP JUMPDEST JUMPDEST SWAP1 PUSH1 0x0 MSTORE PUSH1 0x20 PUSH1 0x0 KECCAK256 SWAP1 PUSH1 0x4 MUL ADD PUSH1 0x40 MLOAD DUP1 PUSH1 0xC0 ADD PUSH1 0x40 MSTORE SWAP1 DUP2 PUSH1 0x0 DUP3 ADD PUSH1 0x0 SWAP1 SLOAD SWAP1 PUSH2 0x100 EXP SWAP1 DIV PUSH20 0xFFFFFFFFFFFFFFFFFFFFFFFFFFFFFFFFFFFFFFFF AND PUSH20 0xFFFFFFFFFFFFFFFFFFFFFFFFFFFFFFFFFFFFFFFF AND PUSH20 0xFFFFFFFFFFFFFFFFFFFFFFFFFFFFFFFFFFFFFFFF AND DUP2 MSTORE PUSH1 0x20 ADD PUSH1 0x1 DUP3 ADD SLOAD DUP2 MSTORE PUSH1 0x20 ADD PUSH1 0x2 DUP3 ADD SLOAD DUP2 MSTORE PUSH1 0x20 ADD PUSH1 0x3 DUP3 ADD PUSH1 0x0 SWAP1 SLOAD SWAP1 PUSH2 0x100 EXP SWAP1 DIV PUSH4 0xFFFFFFFF AND PUSH4 0xFFFFFFFF AND PUSH4 0xFFFFFFFF AND DUP2 MSTORE PUSH1 0x20 ADD PUSH1 0x3 DUP3 ADD PUSH1 0x4 SWAP1 SLOAD SWAP1 PUSH2 0x100 EXP SWAP1 DIV PUSH4 0xFFFFFFFF AND PUSH4 0xFFFFFFFF AND PUSH4 0xFFFFFFFF AND DUP2 MSTORE PUSH1 0x20 ADD PUSH1 0x3 DUP3 ADD PUSH1 0x8 SWAP1 SLOAD SWAP1 PUSH2 0x100 EXP SWAP1 DIV PUSH1 0xFF AND ISZERO ISZERO ISZERO ISZERO DUP2 MSTORE POP POP SWAP1 POP CALLER PUSH20 0xFFFFFFFFFFFFFFFFFFFFFFFFFFFFFFFFFFFFFFFF AND DUP2 PUSH1 0x0 ADD MLOAD PUSH20 0xFFFFFFFFFFFFFFFFFFFFFFFFFFFFFFFFFFFFFFFF AND EQ PUSH2 0xCBC JUMPI PUSH1 0x40 MLOAD PUSH32 0x8C379A000000000000000000000000000000000000000000000000000000000 DUP2 MSTORE PUSH1 0x4 ADD PUSH2 0xCB3 SWAP1 PUSH2 0x16DD JUMP JUMPDEST PUSH1 0x40 MLOAD DUP1 SWAP2 SUB SWAP1 REVERT JUMPDEST DUP1 PUSH1 0x60 ADD MLOAD PUSH4 0xFFFFFFFF AND TIMESTAMP LT PUSH2 0xD08 JUMPI PUSH1 0x40 MLOAD PUSH32 0x8C379A000000000000000000000000000000000000000000000000000000000 DUP2 MSTORE PUSH1 0x4 ADD PUSH2 0xCFF SWAP1 PUSH2 0x177D JUMP JUMPDEST PUSH1 0x40 MLOAD DUP1 SWAP2 SUB SWAP1 REVERT JUMPDEST PUSH1 0x1 DUP3 DUP2 SLOAD DUP2 LT PUSH2 0xD1C JUMPI PUSH2 0xD1B PUSH2 0x19BE JUMP JUMPDEST JUMPDEST SWAP1 PUSH1 0x0 MSTORE PUSH1 0x20 PUSH1 0x0 KECCAK256 SWAP1 PUSH1 0x4 MUL ADD PUSH1 0x0 DUP1 DUP3 ADD PUSH1 0x0 PUSH2 0x100 EXP DUP2 SLOAD SWAP1 PUSH20 0xFFFFFFFFFFFFFFFFFFFFFFFFFFFFFFFFFFFFFFFF MUL NOT AND SWAP1 SSTORE PUSH1 0x1 DUP3 ADD PUSH1 0x0 SWAP1 SSTORE PUSH1 0x2 DUP3 ADD PUSH1 0x0 SWAP1 SSTORE PUSH1 0x3 DUP3 ADD PUSH1 0x0 PUSH2 0x100 EXP DUP2 SLOAD SWAP1 PUSH4 0xFFFFFFFF MUL NOT AND SWAP1 SSTORE PUSH1 0x3 DUP3 ADD PUSH1 0x4 PUSH2 0x100 EXP DUP2 SLOAD SWAP1 PUSH4 0xFFFFFFFF MUL NOT AND SWAP1 SSTORE PUSH1 0x3 DUP3 ADD PUSH1 0x8 PUSH2 0x100 EXP DUP2 SLOAD SWAP1 PUSH1 0xFF MUL NOT AND SWAP1 SSTORE POP POP PUSH32 0x8BF30E7FF26833413BE5F69E1D373744864D600B664204B4A2F9844A8EEDB9ED DUP3 PUSH1 0x40 MLOAD PUSH2 0xDD5 SWAP2 SWAP1 PUSH2 0x17DD JUMP JUMPDEST PUSH1 0x40 MLOAD DUP1 SWAP2 SUB SWAP1 LOG1 POP POP JUMP JUMPDEST PUSH1 0x0 PUSH1 0x1 DUP4 DUP2 SLOAD DUP2 LT PUSH2 0xDF7 JUMPI PUSH2 0xDF6 PUSH2 0x19BE JUMP JUMPDEST JUMPDEST SWAP1 PUSH1 0x0 MSTORE PUSH1 0x20 PUSH1 0x0 KECCAK256 SWAP1 PUSH1 0x4 MUL ADD SWAP1 POP DUP1 PUSH1 0x3 ADD PUSH1 0x4 SWAP1 SLOAD SWAP1 PUSH2 0x100 EXP SWAP1 DIV PUSH4 0xFFFFFFFF AND PUSH4 0xFFFFFFFF AND TIMESTAMP GT ISZERO PUSH2 0xE64 JUMPI PUSH1 0x40 MLOAD PUSH32 0x8C379A000000000000000000000000000000000000000000000000000000000 DUP2 MSTORE PUSH1 0x4 ADD PUSH2 0xE5B SWAP1 PUSH2 0x171D JUMP JUMPDEST PUSH1 0x40 MLOAD DUP1 SWAP2 SUB SWAP1 REVERT JUMPDEST DUP2 DUP2 PUSH1 0x2 ADD PUSH1 0x0 DUP3 DUP3 SLOAD PUSH2 0xE78 SWAP2 SWAP1 PUSH2 0x18CD JUMP JUMPDEST SWAP3 POP POP DUP2 SWAP1 SSTORE POP DUP2 PUSH1 0x2 PUSH1 0x0 DUP6 DUP2 MSTORE PUSH1 0x20 ADD SWAP1 DUP2 MSTORE PUSH1 0x20 ADD PUSH1 0x0 KECCAK256 PUSH1 0x0 CALLER PUSH20 0xFFFFFFFFFFFFFFFFFFFFFFFFFFFFFFFFFFFFFFFF AND PUSH20 0xFFFFFFFFFFFFFFFFFFFFFFFFFFFFFFFFFFFFFFFF AND DUP2 MSTORE PUSH1 0x20 ADD SWAP1 DUP2 MSTORE PUSH1 0x20 ADD PUSH1 0x0 KECCAK256 PUSH1 0x0 DUP3 DUP3 SLOAD PUSH2 0xEDF SWAP2 SWAP1 PUSH2 0x18CD JUMP JUMPDEST SWAP3 POP POP DUP2 SWAP1 SSTORE POP PUSH32 0x0 PUSH20 0xFFFFFFFFFFFFFFFFFFFFFFFFFFFFFFFFFFFFFFFF AND PUSH4 0xA9059CBB CALLER DUP5 PUSH1 0x40 MLOAD DUP4 PUSH4 0xFFFFFFFF AND PUSH1 0xE0 SHL DUP2 MSTORE PUSH1 0x4 ADD PUSH2 0xF41 SWAP3 SWAP2 SWAP1 PUSH2 0x15F8 JUMP JUMPDEST PUSH1 0x20 PUSH1 0x40 MLOAD DUP1 DUP4 SUB DUP2 PUSH1 0x0 DUP8 DUP1 EXTCODESIZE ISZERO DUP1 ISZERO PUSH2 0xF5B JUMPI PUSH1 0x0 DUP1 REVERT JUMPDEST POP GAS CALL ISZERO DUP1 ISZERO PUSH2 0xF6F JUMPI RETURNDATASIZE PUSH1 0x0 DUP1 RETURNDATACOPY RETURNDATASIZE PUSH1 0x0 REVERT JUMPDEST POP POP POP POP PUSH1 0x40 MLOAD RETURNDATASIZE PUSH1 0x1F NOT PUSH1 0x1F DUP3 ADD AND DUP3 ADD DUP1 PUSH1 0x40 MSTORE POP DUP2 ADD SWAP1 PUSH2 0xF93 SWAP2 SWAP1 PUSH2 0x12EB JUMP JUMPDEST POP CALLER PUSH20 0xFFFFFFFFFFFFFFFFFFFFFFFFFFFFFFFFFFFFFFFF AND DUP4 PUSH32 0x2EEEAB891B26A214D1B25749F88A406BDEA852BD8C9BFDA977E0EF8114C180BA DUP5 PUSH1 0x40 MLOAD PUSH2 0xFDB SWAP2 SWAP1 PUSH2 0x17DD JUMP JUMPDEST PUSH1 0x40 MLOAD DUP1 SWAP2 SUB SWAP1 LOG3 POP POP POP JUMP JUMPDEST PUSH1 0x2 PUSH1 0x20 MSTORE DUP2 PUSH1 0x0 MSTORE PUSH1 0x40 PUSH1 0x0 KECCAK256 PUSH1 0x20 MSTORE DUP1 PUSH1 0x0 MSTORE PUSH1 0x40 PUSH1 0x0 KECCAK256 PUSH1 0x0 SWAP2 POP SWAP2 POP POP SLOAD DUP2 JUMP JUMPDEST PUSH32 0x0 DUP2 JUMP JUMPDEST PUSH1 0x0 PUSH1 0x1 DUP4 DUP2 SLOAD DUP2 LT PUSH2 0x1047 JUMPI PUSH2 0x1046 PUSH2 0x19BE JUMP JUMPDEST JUMPDEST SWAP1 PUSH1 0x0 MSTORE PUSH1 0x20 PUSH1 0x0 KECCAK256 SWAP1 PUSH1 0x4 MUL ADD SWAP1 POP DUP1 PUSH1 0x3 ADD PUSH1 0x0 SWAP1 SLOAD SWAP1 PUSH2 0x100 EXP SWAP1 DIV PUSH4 0xFFFFFFFF AND PUSH4 0xFFFFFFFF AND TIMESTAMP LT ISZERO PUSH2 0x10B4 JUMPI PUSH1 0x40 MLOAD PUSH32 0x8C379A000000000000000000000000000000000000000000000000000000000 DUP2 MSTORE PUSH1 0x4 ADD PUSH2 0x10AB SWAP1 PUSH2 0x177D JUMP JUMPDEST PUSH1 0x40 MLOAD DUP1 SWAP2 SUB SWAP1 REVERT JUMPDEST DUP1 PUSH1 0x3 ADD PUSH1 0x4 SWAP1 SLOAD SWAP1 PUSH2 0x100 EXP SWAP1 DIV PUSH4 0xFFFFFFFF AND PUSH4 0xFFFFFFFF AND TIMESTAMP GT ISZERO PUSH2 0x1111 JUMPI PUSH1 0x40 MLOAD PUSH32 0x8C379A000000000000000000000000000000000000000000000000000000000 DUP2 MSTORE PUSH1 0x4 ADD PUSH2 0x1108 SWAP1 PUSH2 0x171D JUMP JUMPDEST PUSH1 0x40 MLOAD DUP1 SWAP2 SUB SWAP1 REVERT JUMPDEST DUP2 DUP2 PUSH1 0x2 ADD PUSH1 0x0 DUP3 DUP3 SLOAD PUSH2 0x1125 SWAP2 SWAP1 PUSH2 0x1877 JUMP JUMPDEST SWAP3 POP POP DUP2 SWAP1 SSTORE POP DUP2 PUSH1 0x2 PUSH1 0x0 DUP6 DUP2 MSTORE PUSH1 0x20 ADD SWAP1 DUP2 MSTORE PUSH1 0x20 ADD PUSH1 0x0 KECCAK256 PUSH1 0x0 CALLER PUSH20 0xFFFFFFFFFFFFFFFFFFFFFFFFFFFFFFFFFFFFFFFF AND PUSH20 0xFFFFFFFFFFFFFFFFFFFFFFFFFFFFFFFFFFFFFFFF AND DUP2 MSTORE PUSH1 0x20 ADD SWAP1 DUP2 MSTORE PUSH1 0x20 ADD PUSH1 0x0 KECCAK256 PUSH1 0x0 DUP3 DUP3 SLOAD PUSH2 0x118C SWAP2 SWAP1 PUSH2 0x1877 JUMP JUMPDEST SWAP3 POP POP DUP2 SWAP1 SSTORE POP PUSH32 0x0 PUSH20 0xFFFFFFFFFFFFFFFFFFFFFFFFFFFFFFFFFFFFFFFF AND PUSH4 0x23B872DD CALLER ADDRESS DUP6 PUSH1 0x40 MLOAD DUP5 PUSH4 0xFFFFFFFF AND PUSH1 0xE0 SHL DUP2 MSTORE PUSH1 0x4 ADD PUSH2 0x11F0 SWAP4 SWAP3 SWAP2 SWAP1 PUSH2 0x15C1 JUMP JUMPDEST PUSH1 0x20 PUSH1 0x40 MLOAD DUP1 DUP4 SUB DUP2 PUSH1 0x0 DUP8 DUP1 EXTCODESIZE ISZERO DUP1 ISZERO PUSH2 0x120A JUMPI PUSH1 0x0 DUP1 REVERT JUMPDEST POP GAS CALL ISZERO DUP1 ISZERO PUSH2 0x121E JUMPI RETURNDATASIZE PUSH1 0x0 DUP1 RETURNDATACOPY RETURNDATASIZE PUSH1 0x0 REVERT JUMPDEST POP POP POP POP PUSH1 0x40 MLOAD RETURNDATASIZE PUSH1 0x1F NOT PUSH1 0x1F DUP3 ADD AND DUP3 ADD DUP1 PUSH1 0x40 MSTORE POP DUP2 ADD SWAP1 PUSH2 0x1242 SWAP2 SWAP1 PUSH2 0x12EB JUMP JUMPDEST POP CALLER PUSH20 0xFFFFFFFFFFFFFFFFFFFFFFFFFFFFFFFFFFFFFFFF AND DUP4 PUSH32 0x6BDB975DF800A73232998E71ED585D536222F1DFEAA622D7F62A23ADA686C82 DUP5 PUSH1 0x40 MLOAD PUSH2 0x128A SWAP2 SWAP1 PUSH2 0x17DD JUMP JUMPDEST PUSH1 0x40 MLOAD DUP1 SWAP2 SUB SWAP1 LOG3 POP POP POP JUMP JUMPDEST PUSH1 0x0 DUP2 CALLDATALOAD SWAP1 POP PUSH2 0x12A6 DUP2 PUSH2 0x1BB2 JUMP JUMPDEST SWAP3 SWAP2 POP POP JUMP JUMPDEST PUSH1 0x0 DUP2 MLOAD SWAP1 POP PUSH2 0x12BB DUP2 PUSH2 0x1BC9 JUMP JUMPDEST SWAP3 SWAP2 POP POP JUMP JUMPDEST PUSH1 0x0 DUP2 CALLDATALOAD SWAP1 POP PUSH2 0x12D0 DUP2 PUSH2 0x1BE0 JUMP JUMPDEST SWAP3 SWAP2 POP POP JUMP JUMPDEST PUSH1 0x0 DUP2 CALLDATALOAD SWAP1 POP PUSH2 0x12E5 DUP2 PUSH2 0x1BF7 JUMP JUMPDEST SWAP3 SWAP2 POP POP JUMP JUMPDEST PUSH1 0x0 PUSH1 0x20 DUP3 DUP5 SUB SLT ISZERO PUSH2 0x1301 JUMPI PUSH2 0x1300 PUSH2 0x19ED JUMP JUMPDEST JUMPDEST PUSH1 0x0 PUSH2 0x130F DUP5 DUP3 DUP6 ADD PUSH2 0x12AC JUMP JUMPDEST SWAP2 POP POP SWAP3 SWAP2 POP POP JUMP JUMPDEST PUSH1 0x0 PUSH1 0x20 DUP3 DUP5 SUB SLT ISZERO PUSH2 0x132E JUMPI PUSH2 0x132D PUSH2 0x19ED JUMP JUMPDEST JUMPDEST PUSH1 0x0 PUSH2 0x133C DUP5 DUP3 DUP6 ADD PUSH2 0x12C1 JUMP JUMPDEST SWAP2 POP POP SWAP3 SWAP2 POP POP JUMP JUMPDEST PUSH1 0x0 DUP1 PUSH1 0x40 DUP4 DUP6 SUB SLT ISZERO PUSH2 0x135C JUMPI PUSH2 0x135B PUSH2 0x19ED JUMP JUMPDEST JUMPDEST PUSH1 0x0 PUSH2 0x136A DUP6 DUP3 DUP7 ADD PUSH2 0x12C1 JUMP JUMPDEST SWAP3 POP POP PUSH1 0x20 PUSH2 0x137B DUP6 DUP3 DUP7 ADD PUSH2 0x1297 JUMP JUMPDEST SWAP2 POP POP SWAP3 POP SWAP3 SWAP1 POP JUMP JUMPDEST PUSH1 0x0 DUP1 PUSH1 0x40 DUP4 DUP6 SUB SLT ISZERO PUSH2 0x139C JUMPI PUSH2 0x139B PUSH2 0x19ED JUMP JUMPDEST JUMPDEST PUSH1 0x0 PUSH2 0x13AA DUP6 DUP3 DUP7 ADD PUSH2 0x12C1 JUMP JUMPDEST SWAP3 POP POP PUSH1 0x20 PUSH2 0x13BB DUP6 DUP3 DUP7 ADD PUSH2 0x12C1 JUMP JUMPDEST SWAP2 POP POP SWAP3 POP SWAP3 SWAP1 POP JUMP JUMPDEST PUSH1 0x0 DUP1 PUSH1 0x0 PUSH1 0x60 DUP5 DUP7 SUB SLT ISZERO PUSH2 0x13DE JUMPI PUSH2 0x13DD PUSH2 0x19ED JUMP JUMPDEST JUMPDEST PUSH1 0x0 PUSH2 0x13EC DUP7 DUP3 DUP8 ADD PUSH2 0x12C1 JUMP JUMPDEST SWAP4 POP POP PUSH1 0x20 PUSH2 0x13FD DUP7 DUP3 DUP8 ADD PUSH2 0x12D6 JUMP JUMPDEST SWAP3 POP POP PUSH1 0x40 PUSH2 0x140E DUP7 DUP3 DUP8 ADD PUSH2 0x12D6 JUMP JUMPDEST SWAP2 POP POP SWAP3 POP SWAP3 POP SWAP3 JUMP JUMPDEST PUSH2 0x1421 DUP2 PUSH2 0x1901 JUMP JUMPDEST DUP3 MSTORE POP POP JUMP JUMPDEST PUSH2 0x1430 DUP2 PUSH2 0x1913 JUMP JUMPDEST DUP3 MSTORE POP POP JUMP JUMPDEST PUSH2 0x143F DUP2 PUSH2 0x1959 JUMP JUMPDEST DUP3 MSTORE POP POP JUMP JUMPDEST PUSH1 0x0 PUSH2 0x1452 PUSH1 0x1C DUP4 PUSH2 0x1866 JUMP JUMPDEST SWAP2 POP PUSH2 0x145D DUP3 PUSH2 0x19F2 JUMP JUMPDEST PUSH1 0x20 DUP3 ADD SWAP1 POP SWAP2 SWAP1 POP JUMP JUMPDEST PUSH1 0x0 PUSH2 0x1475 PUSH1 0xF DUP4 PUSH2 0x1866 JUMP JUMPDEST SWAP2 POP PUSH2 0x1480 DUP3 PUSH2 0x1A1B JUMP JUMPDEST PUSH1 0x20 DUP3 ADD SWAP1 POP SWAP2 SWAP1 POP JUMP JUMPDEST PUSH1 0x0 PUSH2 0x1498 PUSH1 0x16 DUP4 PUSH2 0x1866 JUMP JUMPDEST SWAP2 POP PUSH2 0x14A3 DUP3 PUSH2 0x1A44 JUMP JUMPDEST PUSH1 0x20 DUP3 ADD SWAP1 POP SWAP2 SWAP1 POP JUMP JUMPDEST PUSH1 0x0 PUSH2 0x14BB PUSH1 0x1E DUP4 PUSH2 0x1866 JUMP JUMPDEST SWAP2 POP PUSH2 0x14C6 DUP3 PUSH2 0x1A6D JUMP JUMPDEST PUSH1 0x20 DUP3 ADD SWAP1 POP SWAP2 SWAP1 POP JUMP JUMPDEST PUSH1 0x0 PUSH2 0x14DE PUSH1 0x1A DUP4 PUSH2 0x1866 JUMP JUMPDEST SWAP2 POP PUSH2 0x14E9 DUP3 PUSH2 0x1A96 JUMP JUMPDEST PUSH1 0x20 DUP3 ADD SWAP1 POP SWAP2 SWAP1 POP JUMP JUMPDEST PUSH1 0x0 PUSH2 0x1501 PUSH1 0x20 DUP4 PUSH2 0x1866 JUMP JUMPDEST SWAP2 POP PUSH2 0x150C DUP3 PUSH2 0x1ABF JUMP JUMPDEST PUSH1 0x20 DUP3 ADD SWAP1 POP SWAP2 SWAP1 POP JUMP JUMPDEST PUSH1 0x0 PUSH2 0x1524 PUSH1 0x1E DUP4 PUSH2 0x1866 JUMP JUMPDEST SWAP2 POP PUSH2 0x152F DUP3 PUSH2 0x1AE8 JUMP JUMPDEST PUSH1 0x20 DUP3 ADD SWAP1 POP SWAP2 SWAP1 POP JUMP JUMPDEST PUSH1 0x0 PUSH2 0x1547 PUSH1 0x1C DUP4 PUSH2 0x1866 JUMP JUMPDEST SWAP2 POP PUSH2 0x1552 DUP3 PUSH2 0x1B11 JUMP JUMPDEST PUSH1 0x20 DUP3 ADD SWAP1 POP SWAP2 SWAP1 POP JUMP JUMPDEST PUSH1 0x0 PUSH2 0x156A PUSH1 0x30 DUP4 PUSH2 0x1866 JUMP JUMPDEST SWAP2 POP PUSH2 0x1575 DUP3 PUSH2 0x1B3A JUMP JUMPDEST PUSH1 0x40 DUP3 ADD SWAP1 POP SWAP2 SWAP1 POP JUMP JUMPDEST PUSH1 0x0 PUSH2 0x158D PUSH1 0x1A DUP4 PUSH2 0x1866 JUMP JUMPDEST SWAP2 POP PUSH2 0x1598 DUP3 PUSH2 0x1B89 JUMP JUMPDEST PUSH1 0x20 DUP3 ADD SWAP1 POP SWAP2 SWAP1 POP JUMP JUMPDEST PUSH2 0x15AC DUP2 PUSH2 0x193F JUMP JUMPDEST DUP3 MSTORE POP POP JUMP JUMPDEST PUSH2 0x15BB DUP2 PUSH2 0x1949 JUMP JUMPDEST DUP3 MSTORE POP POP JUMP JUMPDEST PUSH1 0x0 PUSH1 0x60 DUP3 ADD SWAP1 POP PUSH2 0x15D6 PUSH1 0x0 DUP4 ADD DUP7 PUSH2 0x1418 JUMP JUMPDEST PUSH2 0x15E3 PUSH1 0x20 DUP4 ADD DUP6 PUSH2 0x1418 JUMP JUMPDEST PUSH2 0x15F0 PUSH1 0x40 DUP4 ADD DUP5 PUSH2 0x15A3 JUMP JUMPDEST SWAP5 SWAP4 POP POP POP POP JUMP JUMPDEST PUSH1 0x0 PUSH1 0x40 DUP3 ADD SWAP1 POP PUSH2 0x160D PUSH1 0x0 DUP4 ADD DUP6 PUSH2 0x1418 JUMP JUMPDEST PUSH2 0x161A PUSH1 0x20 DUP4 ADD DUP5 PUSH2 0x15A3 JUMP JUMPDEST SWAP4 SWAP3 POP POP POP JUMP JUMPDEST PUSH1 0x0 PUSH1 0xC0 DUP3 ADD SWAP1 POP PUSH2 0x1636 PUSH1 0x0 DUP4 ADD DUP10 PUSH2 0x1418 JUMP JUMPDEST PUSH2 0x1643 PUSH1 0x20 DUP4 ADD DUP9 PUSH2 0x15A3 JUMP JUMPDEST PUSH2 0x1650 PUSH1 0x40 DUP4 ADD DUP8 PUSH2 0x15A3 JUMP JUMPDEST PUSH2 0x165D PUSH1 0x60 DUP4 ADD DUP7 PUSH2 0x15B2 JUMP JUMPDEST PUSH2 0x166A PUSH1 0x80 DUP4 ADD DUP6 PUSH2 0x15B2 JUMP JUMPDEST PUSH2 0x1677 PUSH1 0xA0 DUP4 ADD DUP5 PUSH2 0x1427 JUMP JUMPDEST SWAP8 SWAP7 POP POP POP POP POP POP POP JUMP JUMPDEST PUSH1 0x0 PUSH1 0x20 DUP3 ADD SWAP1 POP PUSH2 0x1697 PUSH1 0x0 DUP4 ADD DUP5 PUSH2 0x1436 JUMP JUMPDEST SWAP3 SWAP2 POP POP JUMP JUMPDEST PUSH1 0x0 PUSH1 0x20 DUP3 ADD SWAP1 POP DUP2 DUP2 SUB PUSH1 0x0 DUP4 ADD MSTORE PUSH2 0x16B6 DUP2 PUSH2 0x1445 JUMP JUMPDEST SWAP1 POP SWAP2 SWAP1 POP JUMP JUMPDEST PUSH1 0x0 PUSH1 0x20 DUP3 ADD SWAP1 POP DUP2 DUP2 SUB PUSH1 0x0 DUP4 ADD MSTORE PUSH2 0x16D6 DUP2 PUSH2 0x1468 JUMP JUMPDEST SWAP1 POP SWAP2 SWAP1 POP JUMP JUMPDEST PUSH1 0x0 PUSH1 0x20 DUP3 ADD SWAP1 POP DUP2 DUP2 SUB PUSH1 0x0 DUP4 ADD MSTORE PUSH2 0x16F6 DUP2 PUSH2 0x148B JUMP JUMPDEST SWAP1 POP SWAP2 SWAP1 POP JUMP JUMPDEST PUSH1 0x0 PUSH1 0x20 DUP3 ADD SWAP1 POP DUP2 DUP2 SUB PUSH1 0x0 DUP4 ADD MSTORE PUSH2 0x1716 DUP2 PUSH2 0x14AE JUMP JUMPDEST SWAP1 POP SWAP2 SWAP1 POP JUMP JUMPDEST PUSH1 0x0 PUSH1 0x20 DUP3 ADD SWAP1 POP DUP2 DUP2 SUB PUSH1 0x0 DUP4 ADD MSTORE PUSH2 0x1736 DUP2 PUSH2 0x14D1 JUMP JUMPDEST SWAP1 POP SWAP2 SWAP1 POP JUMP JUMPDEST PUSH1 0x0 PUSH1 0x20 DUP3 ADD SWAP1 POP DUP2 DUP2 SUB PUSH1 0x0 DUP4 ADD MSTORE PUSH2 0x1756 DUP2 PUSH2 0x14F4 JUMP JUMPDEST SWAP1 POP SWAP2 SWAP1 POP JUMP JUMPDEST PUSH1 0x0 PUSH1 0x20 DUP3 ADD SWAP1 POP DUP2 DUP2 SUB PUSH1 0x0 DUP4 ADD MSTORE PUSH2 0x1776 DUP2 PUSH2 0x1517 JUMP JUMPDEST SWAP1 POP SWAP2 SWAP1 POP JUMP JUMPDEST PUSH1 0x0 PUSH1 0x20 DUP3 ADD SWAP1 POP DUP2 DUP2 SUB PUSH1 0x0 DUP4 ADD MSTORE PUSH2 0x1796 DUP2 PUSH2 0x153A JUMP JUMPDEST SWAP1 POP SWAP2 SWAP1 POP JUMP JUMPDEST PUSH1 0x0 PUSH1 0x20 DUP3 ADD SWAP1 POP DUP2 DUP2 SUB PUSH1 0x0 DUP4 ADD MSTORE PUSH2 0x17B6 DUP2 PUSH2 0x155D JUMP JUMPDEST SWAP1 POP SWAP2 SWAP1 POP JUMP JUMPDEST PUSH1 0x0 PUSH1 0x20 DUP3 ADD SWAP1 POP DUP2 DUP2 SUB PUSH1 0x0 DUP4 ADD MSTORE PUSH2 0x17D6 DUP2 PUSH2 0x1580 JUMP JUMPDEST SWAP1 POP SWAP2 SWAP1 POP JUMP JUMPDEST PUSH1 0x0 PUSH1 0x20 DUP3 ADD SWAP1 POP PUSH2 0x17F2 PUSH1 0x0 DUP4 ADD DUP5 PUSH2 0x15A3 JUMP JUMPDEST SWAP3 SWAP2 POP POP JUMP JUMPDEST PUSH1 0x0 PUSH1 0x40 DUP3 ADD SWAP1 POP PUSH2 0x180D PUSH1 0x0 DUP4 ADD DUP6 PUSH2 0x15A3 JUMP JUMPDEST PUSH2 0x181A PUSH1 0x20 DUP4 ADD DUP5 PUSH2 0x15A3 JUMP JUMPDEST SWAP4 SWAP3 POP POP POP JUMP JUMPDEST PUSH1 0x0 PUSH1 0x80 DUP3 ADD SWAP1 POP PUSH2 0x1836 PUSH1 0x0 DUP4 ADD DUP8 PUSH2 0x15A3 JUMP JUMPDEST PUSH2 0x1843 PUSH1 0x20 DUP4 ADD DUP7 PUSH2 0x15A3 JUMP JUMPDEST PUSH2 0x1850 PUSH1 0x40 DUP4 ADD DUP6 PUSH2 0x15B2 JUMP JUMPDEST PUSH2 0x185D PUSH1 0x60 DUP4 ADD DUP5 PUSH2 0x15B2 JUMP JUMPDEST SWAP6 SWAP5 POP POP POP POP POP JUMP JUMPDEST PUSH1 0x0 DUP3 DUP3 MSTORE PUSH1 0x20 DUP3 ADD SWAP1 POP SWAP3 SWAP2 POP POP JUMP JUMPDEST PUSH1 0x0 PUSH2 0x1882 DUP3 PUSH2 0x193F JUMP JUMPDEST SWAP2 POP PUSH2 0x188D DUP4 PUSH2 0x193F JUMP JUMPDEST SWAP3 POP DUP3 PUSH32 0xFFFFFFFFFFFFFFFFFFFFFFFFFFFFFFFFFFFFFFFFFFFFFFFFFFFFFFFFFFFFFFFF SUB DUP3 GT ISZERO PUSH2 0x18C2 JUMPI PUSH2 0x18C1 PUSH2 0x198F JUMP JUMPDEST JUMPDEST DUP3 DUP3 ADD SWAP1 POP SWAP3 SWAP2 POP POP JUMP JUMPDEST PUSH1 0x0 PUSH2 0x18D8 DUP3 PUSH2 0x193F JUMP JUMPDEST SWAP2 POP PUSH2 0x18E3 DUP4 PUSH2 0x193F JUMP JUMPDEST SWAP3 POP DUP3 DUP3 LT ISZERO PUSH2 0x18F6 JUMPI PUSH2 0x18F5 PUSH2 0x198F JUMP JUMPDEST JUMPDEST DUP3 DUP3 SUB SWAP1 POP SWAP3 SWAP2 POP POP JUMP JUMPDEST PUSH1 0x0 PUSH2 0x190C DUP3 PUSH2 0x191F JUMP JUMPDEST SWAP1 POP SWAP2 SWAP1 POP JUMP JUMPDEST PUSH1 0x0 DUP2 ISZERO ISZERO SWAP1 POP SWAP2 SWAP1 POP JUMP JUMPDEST PUSH1 0x0 PUSH20 0xFFFFFFFFFFFFFFFFFFFFFFFFFFFFFFFFFFFFFFFF DUP3 AND SWAP1 POP SWAP2 SWAP1 POP JUMP JUMPDEST PUSH1 0x0 DUP2 SWAP1 POP SWAP2 SWAP1 POP JUMP JUMPDEST PUSH1 0x0 PUSH4 0xFFFFFFFF DUP3 AND SWAP1 POP SWAP2 SWAP1 POP JUMP JUMPDEST PUSH1 0x0 PUSH2 0x1964 DUP3 PUSH2 0x196B JUMP JUMPDEST SWAP1 POP SWAP2 SWAP1 POP JUMP JUMPDEST PUSH1 0x0 PUSH2 0x1976 DUP3 PUSH2 0x197D JUMP JUMPDEST SWAP1 POP SWAP2 SWAP1 POP JUMP JUMPDEST PUSH1 0x0 PUSH2 0x1988 DUP3 PUSH2 0x191F JUMP JUMPDEST SWAP1 POP SWAP2 SWAP1 POP JUMP JUMPDEST PUSH32 0x4E487B7100000000000000000000000000000000000000000000000000000000 PUSH1 0x0 MSTORE PUSH1 0x11 PUSH1 0x4 MSTORE PUSH1 0x24 PUSH1 0x0 REVERT JUMPDEST PUSH32 0x4E487B7100000000000000000000000000000000000000000000000000000000 PUSH1 0x0 MSTORE PUSH1 0x32 PUSH1 0x4 MSTORE PUSH1 0x24 PUSH1 0x0 REVERT JUMPDEST PUSH1 0x0 DUP1 REVERT JUMPDEST PUSH32 0x43616D7061696E672063616E607420737461727420696E207061737400000000 PUSH1 0x0 DUP3 ADD MSTORE POP JUMP JUMPDEST PUSH32 0x616C726561647920636C61696D65640000000000000000000000000000000000 PUSH1 0x0 DUP3 ADD MSTORE POP JUMP JUMPDEST PUSH32 0x596F7520617265206E6F7420617574686F726973656400000000000000000000 PUSH1 0x0 DUP3 ADD MSTORE POP JUMP JUMPDEST PUSH32 0x43616D7061696E672073686F756C6420656E6420696E20393020646179730000 PUSH1 0x0 DUP3 ADD MSTORE POP JUMP JUMPDEST PUSH32 0x43616D706169676E2068617320616C726561647920656E646564000000000000 PUSH1 0x0 DUP3 ADD MSTORE POP JUMP JUMPDEST PUSH32 0x43616D706169676E20686173207265616368656420746F2074686520676F616C PUSH1 0x0 DUP3 ADD MSTORE POP JUMP JUMPDEST PUSH32 0x43616D7069676E206D75737420726561636820746F2074686520676F616C0000 PUSH1 0x0 DUP3 ADD MSTORE POP JUMP JUMPDEST PUSH32 0x43616D706169676E20686173206E6F7420737461727465642079657400000000 PUSH1 0x0 DUP3 ADD MSTORE POP JUMP JUMPDEST PUSH32 0x43616D7061696E67607320656E642074696D652073686F756C64206265206772 PUSH1 0x0 DUP3 ADD MSTORE PUSH32 0x6561746572207468656E20737461727400000000000000000000000000000000 PUSH1 0x20 DUP3 ADD MSTORE POP JUMP JUMPDEST PUSH32 0x43616D706169676E206973207374696C6C20676F696E67206F6E000000000000 PUSH1 0x0 DUP3 ADD MSTORE POP JUMP JUMPDEST PUSH2 0x1BBB DUP2 PUSH2 0x1901 JUMP JUMPDEST DUP2 EQ PUSH2 0x1BC6 JUMPI PUSH1 0x0 DUP1 REVERT JUMPDEST POP JUMP JUMPDEST PUSH2 0x1BD2 DUP2 PUSH2 0x1913 JUMP JUMPDEST DUP2 EQ PUSH2 0x1BDD JUMPI PUSH1 0x0 DUP1 REVERT JUMPDEST POP JUMP JUMPDEST PUSH2 0x1BE9 DUP2 PUSH2 0x193F JUMP JUMPDEST DUP2 EQ PUSH2 0x1BF4 JUMPI PUSH1 0x0 DUP1 REVERT JUMPDEST POP JUMP JUMPDEST PUSH2 0x1C00 DUP2 PUSH2 0x1949 JUMP JUMPDEST DUP2 EQ PUSH2 0x1C0B JUMPI PUSH1 0x0 DUP1 REVERT JUMPDEST POP JUMP INVALID LOG2 PUSH5 0x6970667358 0x22 SLT KECCAK256 DUP6 0xA5 GASLIMIT JUMPI 0x5D 0xEF DIV MSIZE CODESIZE 0xA8 DUP6 0xD2 0x5D 0xC3 0x2B PUSH24 0x940CD4F45A44774072CCCD560FF49CD964736F6C63430008 SMOD STOP CALLER "
				},
				"gasEstimates": {
					"creation": {
						"codeDepositCost": "1447200",
						"executionCost": "infinite",
						"totalCost": "infinite"
					},
					"external": {
						"campaigns(uint256)": "infinite",
						"cancel(uint256)": "infinite",
						"claim(uint256)": "infinite",
						"donatedAmount(uint256,address)": "infinite",
						"launch(uint256,uint32,uint32)": "infinite",
						"pledge(uint256,uint256)": "infinite",
						"refund(uint256)": "infinite",
						"token()": "infinite",
						"total()": "2496",
						"unpledge(uint256,uint256)": "infinite"
					}
				},
				"methodIdentifiers": {
					"campaigns(uint256)": "141961bc",
					"cancel(uint256)": "40e58ee5",
					"claim(uint256)": "379607f5",
					"donatedAmount(uint256,address)": "eaf65e08",
					"launch(uint256,uint32,uint32)": "2c63f146",
					"pledge(uint256,uint256)": "fde327be",
					"refund(uint256)": "278ecde1",
					"token()": "fc0c546a",
					"total()": "2ddbd13a",
					"unpledge(uint256,uint256)": "711853ab"
				}
			},
			"storageLayout": {
				"storage": [
					{
						"astId": 27,
						"contract": "contracts/CrowdFund/CrowdFund.sol:CrowdFund",
						"label": "total",
						"offset": 0,
						"slot": "0",
						"type": "t_uint256"
					},
					{
						"astId": 44,
						"contract": "contracts/CrowdFund/CrowdFund.sol:CrowdFund",
						"label": "campaigns",
						"offset": 0,
						"slot": "1",
						"type": "t_array(t_struct(Campaign)40_storage)dyn_storage"
					},
					{
						"astId": 50,
						"contract": "contracts/CrowdFund/CrowdFund.sol:CrowdFund",
						"label": "donatedAmount",
						"offset": 0,
						"slot": "2",
						"type": "t_mapping(t_uint256,t_mapping(t_address,t_uint256))"
					}
				],
				"types": {
					"t_address": {
						"encoding": "inplace",
						"label": "address",
						"numberOfBytes": "20"
					},
					"t_array(t_struct(Campaign)40_storage)dyn_storage": {
						"base": "t_struct(Campaign)40_storage",
						"encoding": "dynamic_array",
						"label": "struct CrowdFund.Campaign[]",
						"numberOfBytes": "32"
					},
					"t_bool": {
						"encoding": "inplace",
						"label": "bool",
						"numberOfBytes": "1"
					},
					"t_mapping(t_address,t_uint256)": {
						"encoding": "mapping",
						"key": "t_address",
						"label": "mapping(address => uint256)",
						"numberOfBytes": "32",
						"value": "t_uint256"
					},
					"t_mapping(t_uint256,t_mapping(t_address,t_uint256))": {
						"encoding": "mapping",
						"key": "t_uint256",
						"label": "mapping(uint256 => mapping(address => uint256))",
						"numberOfBytes": "32",
						"value": "t_mapping(t_address,t_uint256)"
					},
					"t_struct(Campaign)40_storage": {
						"encoding": "inplace",
						"label": "struct CrowdFund.Campaign",
						"members": [
							{
								"astId": 29,
								"contract": "contracts/CrowdFund/CrowdFund.sol:CrowdFund",
								"label": "creator",
								"offset": 0,
								"slot": "0",
								"type": "t_address"
							},
							{
								"astId": 31,
								"contract": "contracts/CrowdFund/CrowdFund.sol:CrowdFund",
								"label": "goal",
								"offset": 0,
								"slot": "1",
								"type": "t_uint256"
							},
							{
								"astId": 33,
								"contract": "contracts/CrowdFund/CrowdFund.sol:CrowdFund",
								"label": "donation",
								"offset": 0,
								"slot": "2",
								"type": "t_uint256"
							},
							{
								"astId": 35,
								"contract": "contracts/CrowdFund/CrowdFund.sol:CrowdFund",
								"label": "startAt",
								"offset": 0,
								"slot": "3",
								"type": "t_uint32"
							},
							{
								"astId": 37,
								"contract": "contracts/CrowdFund/CrowdFund.sol:CrowdFund",
								"label": "endAt",
								"offset": 4,
								"slot": "3",
								"type": "t_uint32"
							},
							{
								"astId": 39,
								"contract": "contracts/CrowdFund/CrowdFund.sol:CrowdFund",
								"label": "completed",
								"offset": 8,
								"slot": "3",
								"type": "t_bool"
							}
						],
						"numberOfBytes": "128"
					},
					"t_uint256": {
						"encoding": "inplace",
						"label": "uint256",
						"numberOfBytes": "32"
					},
					"t_uint32": {
						"encoding": "inplace",
						"label": "uint32",
						"numberOfBytes": "4"
					}
				}
			},
			"userdoc": {
				"kind": "user",
				"methods": {},
				"version": 1
			}
		}
	}
}