{
	"contracts/FinalCase/DonateStreamer.sol": {
		"DonateStreamer": {
			"abi": [
				{
					"inputs": [],
					"stateMutability": "nonpayable",
					"type": "constructor"
				},
				{
					"anonymous": false,
					"inputs": [
						{
							"indexed": false,
							"internalType": "uint256",
							"name": "donationsId",
							"type": "uint256"
						},
						{
							"indexed": false,
							"internalType": "uint256",
							"name": "amount",
							"type": "uint256"
						}
					],
					"name": "Donate",
					"type": "event"
				},
				{
					"inputs": [],
					"name": "admin",
					"outputs": [
						{
							"internalType": "address",
							"name": "",
							"type": "address"
						}
					],
					"stateMutability": "view",
					"type": "function"
				},
				{
					"inputs": [],
					"name": "balance",
					"outputs": [
						{
							"internalType": "uint256",
							"name": "",
							"type": "uint256"
						}
					],
					"stateMutability": "view",
					"type": "function"
				},
				{
					"inputs": [
						{
							"internalType": "string",
							"name": "_name",
							"type": "string"
						},
						{
							"internalType": "address payable",
							"name": "_streamer",
							"type": "address"
						},
						{
							"internalType": "uint256",
							"name": "_amount",
							"type": "uint256"
						}
					],
					"name": "createDonation",
					"outputs": [
						{
							"internalType": "uint256",
							"name": "donationsId",
							"type": "uint256"
						}
					],
					"stateMutability": "nonpayable",
					"type": "function"
				},
				{
					"inputs": [
						{
							"internalType": "uint256",
							"name": "id",
							"type": "uint256"
						}
					],
					"name": "donate",
					"outputs": [],
					"stateMutability": "nonpayable",
					"type": "function"
				},
				{
					"inputs": [
						{
							"internalType": "uint256",
							"name": "",
							"type": "uint256"
						}
					],
					"name": "donations",
					"outputs": [
						{
							"internalType": "address",
							"name": "creator",
							"type": "address"
						},
						{
							"internalType": "string",
							"name": "name",
							"type": "string"
						},
						{
							"internalType": "uint256",
							"name": "amount",
							"type": "uint256"
						},
						{
							"internalType": "address payable",
							"name": "streamer",
							"type": "address"
						}
					],
					"stateMutability": "view",
					"type": "function"
				},
				{
					"inputs": [],
					"name": "sendEtherToContract",
					"outputs": [],
					"stateMutability": "payable",
					"type": "function"
				}
			],
			"devdoc": {
				"kind": "dev",
				"methods": {},
				"version": 1
			},
			"evm": {
				"assembly": "    /* \"contracts/FinalCase/DonateStreamer.sol\":62:1703  contract DonateStreamer {\r... */\n  mstore(0x40, 0x80)\n    /* \"contracts/FinalCase/DonateStreamer.sol\":153:204  constructor() {\r... */\n  callvalue\n  dup1\n  iszero\n  tag_1\n  jumpi\n  0x00\n  dup1\n  revert\ntag_1:\n  pop\n    /* \"contracts/FinalCase/DonateStreamer.sol\":186:196  msg.sender */\n  caller\n    /* \"contracts/FinalCase/DonateStreamer.sol\":178:183  admin */\n  0x01\n  0x00\n    /* \"contracts/FinalCase/DonateStreamer.sol\":178:196  admin = msg.sender */\n  0x0100\n  exp\n  dup2\n  sload\n  dup2\n  0xffffffffffffffffffffffffffffffffffffffff\n  mul\n  not\n  and\n  swap1\n  dup4\n  0xffffffffffffffffffffffffffffffffffffffff\n  and\n  mul\n  or\n  swap1\n  sstore\n  pop\n    /* \"contracts/FinalCase/DonateStreamer.sol\":62:1703  contract DonateStreamer {\r... */\n  dataSize(sub_0)\n  dup1\n  dataOffset(sub_0)\n  0x00\n  codecopy\n  0x00\n  return\nstop\n\nsub_0: assembly {\n        /* \"contracts/FinalCase/DonateStreamer.sol\":62:1703  contract DonateStreamer {\r... */\n      mstore(0x40, 0x80)\n      jumpi(tag_1, lt(calldatasize, 0x04))\n      shr(0xe0, calldataload(0x00))\n      dup1\n      0x325ec768\n      eq\n      tag_2\n      jumpi\n      dup1\n      0xb5e051d9\n      eq\n      tag_3\n      jumpi\n      dup1\n      0xb69ef8a8\n      eq\n      tag_4\n      jumpi\n      dup1\n      0xf14faf6f\n      eq\n      tag_5\n      jumpi\n      dup1\n      0xf851a440\n      eq\n      tag_6\n      jumpi\n      dup1\n      0xf8626af8\n      eq\n      tag_7\n      jumpi\n    tag_1:\n      0x00\n      dup1\n      revert\n        /* \"contracts/FinalCase/DonateStreamer.sol\":1216:1363  function sendEtherToContract() payable external{\r... */\n    tag_2:\n      tag_8\n      tag_9\n      jump\t// in\n    tag_8:\n      stop\n        /* \"contracts/FinalCase/DonateStreamer.sol\":696:1208  function createDonation(\r... */\n    tag_3:\n      callvalue\n      dup1\n      iszero\n      tag_10\n      jumpi\n      0x00\n      dup1\n      revert\n    tag_10:\n      pop\n      tag_11\n      0x04\n      dup1\n      calldatasize\n      sub\n      dup2\n      add\n      swap1\n      tag_12\n      swap2\n      swap1\n      tag_13\n      jump\t// in\n    tag_12:\n      tag_14\n      jump\t// in\n    tag_11:\n      mload(0x40)\n      tag_15\n      swap2\n      swap1\n      tag_16\n      jump\t// in\n    tag_15:\n      mload(0x40)\n      dup1\n      swap2\n      sub\n      swap1\n      return\n        /* \"contracts/FinalCase/DonateStreamer.sol\":95:117  uint256 public balance */\n    tag_4:\n      callvalue\n      dup1\n      iszero\n      tag_17\n      jumpi\n      0x00\n      dup1\n      revert\n    tag_17:\n      pop\n      tag_18\n      tag_19\n      jump\t// in\n    tag_18:\n      mload(0x40)\n      tag_20\n      swap2\n      swap1\n      tag_16\n      jump\t// in\n    tag_20:\n      mload(0x40)\n      dup1\n      swap2\n      sub\n      swap1\n      return\n        /* \"contracts/FinalCase/DonateStreamer.sol\":1371:1700  function donate(uint256 id) external {\r... */\n    tag_5:\n      callvalue\n      dup1\n      iszero\n      tag_21\n      jumpi\n      0x00\n      dup1\n      revert\n    tag_21:\n      pop\n      tag_22\n      0x04\n      dup1\n      calldatasize\n      sub\n      dup2\n      add\n      swap1\n      tag_23\n      swap2\n      swap1\n      tag_24\n      jump\t// in\n    tag_23:\n      tag_25\n      jump\t// in\n    tag_22:\n      stop\n        /* \"contracts/FinalCase/DonateStreamer.sol\":124:144  address public admin */\n    tag_6:\n      callvalue\n      dup1\n      iszero\n      tag_26\n      jumpi\n      0x00\n      dup1\n      revert\n    tag_26:\n      pop\n      tag_27\n      tag_28\n      jump\t// in\n    tag_27:\n      mload(0x40)\n      tag_29\n      swap2\n      swap1\n      tag_30\n      jump\t// in\n    tag_29:\n      mload(0x40)\n      dup1\n      swap2\n      sub\n      swap1\n      return\n        /* \"contracts/FinalCase/DonateStreamer.sol\":460:505  mapping(uint256 => Donation) public donations */\n    tag_7:\n      callvalue\n      dup1\n      iszero\n      tag_31\n      jumpi\n      0x00\n      dup1\n      revert\n    tag_31:\n      pop\n      tag_32\n      0x04\n      dup1\n      calldatasize\n      sub\n      dup2\n      add\n      swap1\n      tag_33\n      swap2\n      swap1\n      tag_24\n      jump\t// in\n    tag_33:\n      tag_34\n      jump\t// in\n    tag_32:\n      mload(0x40)\n      tag_35\n      swap5\n      swap4\n      swap3\n      swap2\n      swap1\n      tag_36\n      jump\t// in\n    tag_35:\n      mload(0x40)\n      dup1\n      swap2\n      sub\n      swap1\n      return\n        /* \"contracts/FinalCase/DonateStreamer.sol\":1216:1363  function sendEtherToContract() payable external{\r... */\n    tag_9:\n        /* \"contracts/FinalCase/DonateStreamer.sol\":1293:1294  0 */\n      0x00\n        /* \"contracts/FinalCase/DonateStreamer.sol\":1282:1291  msg.value */\n      callvalue\n        /* \"contracts/FinalCase/DonateStreamer.sol\":1282:1294  msg.value >0 */\n      gt\n        /* \"contracts/FinalCase/DonateStreamer.sol\":1274:1324  require(msg.value >0, \"You should specify amount\") */\n      tag_38\n      jumpi\n      mload(0x40)\n      0x08c379a000000000000000000000000000000000000000000000000000000000\n      dup2\n      mstore\n      0x04\n      add\n      tag_39\n      swap1\n      tag_40\n      jump\t// in\n    tag_39:\n      mload(0x40)\n      dup1\n      swap2\n      sub\n      swap1\n      revert\n    tag_38:\n        /* \"contracts/FinalCase/DonateStreamer.sol\":1346:1355  msg.value */\n      callvalue\n        /* \"contracts/FinalCase/DonateStreamer.sol\":1335:1342  balance */\n      0x00\n      dup1\n        /* \"contracts/FinalCase/DonateStreamer.sol\":1335:1355  balance += msg.value */\n      dup3\n      dup3\n      sload\n      tag_41\n      swap2\n      swap1\n      tag_42\n      jump\t// in\n    tag_41:\n      swap3\n      pop\n      pop\n      dup2\n      swap1\n      sstore\n      pop\n        /* \"contracts/FinalCase/DonateStreamer.sol\":1216:1363  function sendEtherToContract() payable external{\r... */\n      jump\t// out\n        /* \"contracts/FinalCase/DonateStreamer.sol\":696:1208  function createDonation(\r... */\n    tag_14:\n        /* \"contracts/FinalCase/DonateStreamer.sol\":834:853  uint256 donationsId */\n      0x00\n        /* \"contracts/FinalCase/DonateStreamer.sol\":865:890  Donation storage donation */\n      dup1\n        /* \"contracts/FinalCase/DonateStreamer.sol\":893:902  donations */\n      0x03\n        /* \"contracts/FinalCase/DonateStreamer.sol\":893:918  donations[totalDonations] */\n      0x00\n        /* \"contracts/FinalCase/DonateStreamer.sol\":903:917  totalDonations */\n      sload(0x02)\n        /* \"contracts/FinalCase/DonateStreamer.sol\":893:918  donations[totalDonations] */\n      dup2\n      mstore\n      0x20\n      add\n      swap1\n      dup2\n      mstore\n      0x20\n      add\n      0x00\n      keccak256\n        /* \"contracts/FinalCase/DonateStreamer.sol\":865:918  Donation storage donation = donations[totalDonations] */\n      swap1\n      pop\n        /* \"contracts/FinalCase/DonateStreamer.sol\":950:960  msg.sender */\n      caller\n        /* \"contracts/FinalCase/DonateStreamer.sol\":931:939  donation */\n      dup2\n        /* \"contracts/FinalCase/DonateStreamer.sol\":931:947  donation.creator */\n      0x00\n      add\n      0x00\n        /* \"contracts/FinalCase/DonateStreamer.sol\":931:960  donation.creator = msg.sender */\n      0x0100\n      exp\n      dup2\n      sload\n      dup2\n      0xffffffffffffffffffffffffffffffffffffffff\n      mul\n      not\n      and\n      swap1\n      dup4\n      0xffffffffffffffffffffffffffffffffffffffff\n      and\n      mul\n      or\n      swap1\n      sstore\n      pop\n        /* \"contracts/FinalCase/DonateStreamer.sol\":987:992  _name */\n      dup5\n        /* \"contracts/FinalCase/DonateStreamer.sol\":971:979  donation */\n      dup2\n        /* \"contracts/FinalCase/DonateStreamer.sol\":971:984  donation.name */\n      0x01\n      add\n        /* \"contracts/FinalCase/DonateStreamer.sol\":971:992  donation.name = _name */\n      swap1\n      dup1\n      mload\n      swap1\n      0x20\n      add\n      swap1\n      tag_44\n      swap3\n      swap2\n      swap1\n      tag_45\n      jump\t// in\n    tag_44:\n      pop\n        /* \"contracts/FinalCase/DonateStreamer.sol\":1023:1032  _streamer */\n      dup4\n        /* \"contracts/FinalCase/DonateStreamer.sol\":1003:1011  donation */\n      dup2\n        /* \"contracts/FinalCase/DonateStreamer.sol\":1003:1020  donation.streamer */\n      0x03\n      add\n      0x00\n        /* \"contracts/FinalCase/DonateStreamer.sol\":1003:1032  donation.streamer = _streamer */\n      0x0100\n      exp\n      dup2\n      sload\n      dup2\n      0xffffffffffffffffffffffffffffffffffffffff\n      mul\n      not\n      and\n      swap1\n      dup4\n      0xffffffffffffffffffffffffffffffffffffffff\n      and\n      mul\n      or\n      swap1\n      sstore\n      pop\n        /* \"contracts/FinalCase/DonateStreamer.sol\":1061:1068  _amount */\n      dup3\n        /* \"contracts/FinalCase/DonateStreamer.sol\":1043:1051  donation */\n      dup2\n        /* \"contracts/FinalCase/DonateStreamer.sol\":1043:1058  donation.amount */\n      0x02\n      add\n        /* \"contracts/FinalCase/DonateStreamer.sol\":1043:1068  donation.amount = _amount */\n      dup2\n      swap1\n      sstore\n      pop\n        /* \"contracts/FinalCase/DonateStreamer.sol\":1097:1105  donation */\n      dup1\n        /* \"contracts/FinalCase/DonateStreamer.sol\":1097:1112  donation.amount */\n      0x02\n      add\n      sload\n        /* \"contracts/FinalCase/DonateStreamer.sol\":1089:1096  balance */\n      sload(0x00)\n        /* \"contracts/FinalCase/DonateStreamer.sol\":1089:1112  balance>donation.amount */\n      gt\n        /* \"contracts/FinalCase/DonateStreamer.sol\":1081:1135  require(balance>donation.amount, \"Not enough balance\") */\n      tag_46\n      jumpi\n      mload(0x40)\n      0x08c379a000000000000000000000000000000000000000000000000000000000\n      dup2\n      mstore\n      0x04\n      add\n      tag_47\n      swap1\n      tag_48\n      jump\t// in\n    tag_47:\n      mload(0x40)\n      dup1\n      swap2\n      sub\n      swap1\n      revert\n    tag_46:\n        /* \"contracts/FinalCase/DonateStreamer.sol\":1164:1165  1 */\n      0x01\n        /* \"contracts/FinalCase/DonateStreamer.sol\":1146:1160  totalDonations */\n      0x02\n      0x00\n        /* \"contracts/FinalCase/DonateStreamer.sol\":1146:1165  totalDonations += 1 */\n      dup3\n      dup3\n      sload\n      tag_49\n      swap2\n      swap1\n      tag_42\n      jump\t// in\n    tag_49:\n      swap3\n      pop\n      pop\n      dup2\n      swap1\n      sstore\n      pop\n        /* \"contracts/FinalCase/DonateStreamer.sol\":1199:1200  1 */\n      0x01\n        /* \"contracts/FinalCase/DonateStreamer.sol\":1183:1197  totalDonations */\n      sload(0x02)\n        /* \"contracts/FinalCase/DonateStreamer.sol\":1183:1200  totalDonations -1 */\n      tag_50\n      swap2\n      swap1\n      tag_51\n      jump\t// in\n    tag_50:\n        /* \"contracts/FinalCase/DonateStreamer.sol\":1176:1200  return totalDonations -1 */\n      swap2\n      pop\n      pop\n        /* \"contracts/FinalCase/DonateStreamer.sol\":696:1208  function createDonation(\r... */\n      swap4\n      swap3\n      pop\n      pop\n      pop\n      jump\t// out\n        /* \"contracts/FinalCase/DonateStreamer.sol\":95:117  uint256 public balance */\n    tag_19:\n      sload(0x00)\n      dup2\n      jump\t// out\n        /* \"contracts/FinalCase/DonateStreamer.sol\":1371:1700  function donate(uint256 id) external {\r... */\n    tag_25:\n        /* \"contracts/FinalCase/DonateStreamer.sol\":1419:1444  Donation storage donation */\n      0x00\n        /* \"contracts/FinalCase/DonateStreamer.sol\":1447:1456  donations */\n      0x03\n        /* \"contracts/FinalCase/DonateStreamer.sol\":1447:1460  donations[id] */\n      0x00\n        /* \"contracts/FinalCase/DonateStreamer.sol\":1457:1459  id */\n      dup4\n        /* \"contracts/FinalCase/DonateStreamer.sol\":1447:1460  donations[id] */\n      dup2\n      mstore\n      0x20\n      add\n      swap1\n      dup2\n      mstore\n      0x20\n      add\n      0x00\n      keccak256\n        /* \"contracts/FinalCase/DonateStreamer.sol\":1419:1460  Donation storage donation = donations[id] */\n      swap1\n      pop\n        /* \"contracts/FinalCase/DonateStreamer.sol\":1493:1501  donation */\n      dup1\n        /* \"contracts/FinalCase/DonateStreamer.sol\":1493:1509  donation.creator */\n      0x00\n      add\n      0x00\n      swap1\n      sload\n      swap1\n      0x0100\n      exp\n      swap1\n      div\n      0xffffffffffffffffffffffffffffffffffffffff\n      and\n        /* \"contracts/FinalCase/DonateStreamer.sol\":1479:1509  msg.sender == donation.creator */\n      0xffffffffffffffffffffffffffffffffffffffff\n      and\n        /* \"contracts/FinalCase/DonateStreamer.sol\":1479:1489  msg.sender */\n      caller\n        /* \"contracts/FinalCase/DonateStreamer.sol\":1479:1509  msg.sender == donation.creator */\n      0xffffffffffffffffffffffffffffffffffffffff\n      and\n      eq\n        /* \"contracts/FinalCase/DonateStreamer.sol\":1471:1556  require(msg.sender == donation.creator, \"You have to create donation for send ether\") */\n      tag_53\n      jumpi\n      mload(0x40)\n      0x08c379a000000000000000000000000000000000000000000000000000000000\n      dup2\n      mstore\n      0x04\n      add\n      tag_54\n      swap1\n      tag_55\n      jump\t// in\n    tag_54:\n      mload(0x40)\n      dup1\n      swap2\n      sub\n      swap1\n      revert\n    tag_53:\n        /* \"contracts/FinalCase/DonateStreamer.sol\":1567:1575  donation */\n      dup1\n        /* \"contracts/FinalCase/DonateStreamer.sol\":1567:1584  donation.streamer */\n      0x03\n      add\n      0x00\n      swap1\n      sload\n      swap1\n      0x0100\n      exp\n      swap1\n      div\n      0xffffffffffffffffffffffffffffffffffffffff\n      and\n        /* \"contracts/FinalCase/DonateStreamer.sol\":1567:1593  donation.streamer.transfer */\n      0xffffffffffffffffffffffffffffffffffffffff\n      and\n        /* \"contracts/FinalCase/DonateStreamer.sol\":1567:1610  donation.streamer.transfer(donation.amount) */\n      0x08fc\n        /* \"contracts/FinalCase/DonateStreamer.sol\":1594:1602  donation */\n      dup3\n        /* \"contracts/FinalCase/DonateStreamer.sol\":1594:1609  donation.amount */\n      0x02\n      add\n      sload\n        /* \"contracts/FinalCase/DonateStreamer.sol\":1567:1610  donation.streamer.transfer(donation.amount) */\n      swap1\n      dup2\n      iszero\n      mul\n      swap1\n      mload(0x40)\n      0x00\n      mload(0x40)\n      dup1\n      dup4\n      sub\n      dup2\n      dup6\n      dup9\n      dup9\n      call\n      swap4\n      pop\n      pop\n      pop\n      pop\n      iszero\n      dup1\n      iszero\n      tag_57\n      jumpi\n      returndatasize\n      0x00\n      dup1\n      returndatacopy\n      revert(0x00, returndatasize)\n    tag_57:\n      pop\n        /* \"contracts/FinalCase/DonateStreamer.sol\":1632:1640  donation */\n      dup1\n        /* \"contracts/FinalCase/DonateStreamer.sol\":1632:1647  donation.amount */\n      0x02\n      add\n      sload\n        /* \"contracts/FinalCase/DonateStreamer.sol\":1621:1628  balance */\n      0x00\n      dup1\n        /* \"contracts/FinalCase/DonateStreamer.sol\":1621:1647  balance -= donation.amount */\n      dup3\n      dup3\n      sload\n      tag_58\n      swap2\n      swap1\n      tag_51\n      jump\t// in\n    tag_58:\n      swap3\n      pop\n      pop\n      dup2\n      swap1\n      sstore\n      pop\n        /* \"contracts/FinalCase/DonateStreamer.sol\":1665:1692  Donate(id, donation.amount) */\n      0x489807a5fd45f95df5a4da56d2ec4a895cd239ac44d0d9703ac6d8f0c590549c\n        /* \"contracts/FinalCase/DonateStreamer.sol\":1672:1674  id */\n      dup3\n        /* \"contracts/FinalCase/DonateStreamer.sol\":1676:1684  donation */\n      dup3\n        /* \"contracts/FinalCase/DonateStreamer.sol\":1676:1691  donation.amount */\n      0x02\n      add\n      sload\n        /* \"contracts/FinalCase/DonateStreamer.sol\":1665:1692  Donate(id, donation.amount) */\n      mload(0x40)\n      tag_59\n      swap3\n      swap2\n      swap1\n      tag_60\n      jump\t// in\n    tag_59:\n      mload(0x40)\n      dup1\n      swap2\n      sub\n      swap1\n      log1\n        /* \"contracts/FinalCase/DonateStreamer.sol\":1408:1700  {\r... */\n      pop\n        /* \"contracts/FinalCase/DonateStreamer.sol\":1371:1700  function donate(uint256 id) external {\r... */\n      pop\n      jump\t// out\n        /* \"contracts/FinalCase/DonateStreamer.sol\":124:144  address public admin */\n    tag_28:\n      0x01\n      0x00\n      swap1\n      sload\n      swap1\n      0x0100\n      exp\n      swap1\n      div\n      0xffffffffffffffffffffffffffffffffffffffff\n      and\n      dup2\n      jump\t// out\n        /* \"contracts/FinalCase/DonateStreamer.sol\":460:505  mapping(uint256 => Donation) public donations */\n    tag_34:\n      mstore(0x20, 0x03)\n      dup1\n      0x00\n      mstore\n      keccak256(0x00, 0x40)\n      0x00\n      swap2\n      pop\n      swap1\n      pop\n      dup1\n      0x00\n      add\n      0x00\n      swap1\n      sload\n      swap1\n      0x0100\n      exp\n      swap1\n      div\n      0xffffffffffffffffffffffffffffffffffffffff\n      and\n      swap1\n      dup1\n      0x01\n      add\n      dup1\n      sload\n      tag_61\n      swap1\n      tag_62\n      jump\t// in\n    tag_61:\n      dup1\n      0x1f\n      add\n      0x20\n      dup1\n      swap2\n      div\n      mul\n      0x20\n      add\n      mload(0x40)\n      swap1\n      dup2\n      add\n      0x40\n      mstore\n      dup1\n      swap3\n      swap2\n      swap1\n      dup2\n      dup2\n      mstore\n      0x20\n      add\n      dup3\n      dup1\n      sload\n      tag_63\n      swap1\n      tag_62\n      jump\t// in\n    tag_63:\n      dup1\n      iszero\n      tag_64\n      jumpi\n      dup1\n      0x1f\n      lt\n      tag_65\n      jumpi\n      0x0100\n      dup1\n      dup4\n      sload\n      div\n      mul\n      dup4\n      mstore\n      swap2\n      0x20\n      add\n      swap2\n      jump(tag_64)\n    tag_65:\n      dup3\n      add\n      swap2\n      swap1\n      0x00\n      mstore\n      keccak256(0x00, 0x20)\n      swap1\n    tag_66:\n      dup2\n      sload\n      dup2\n      mstore\n      swap1\n      0x01\n      add\n      swap1\n      0x20\n      add\n      dup1\n      dup4\n      gt\n      tag_66\n      jumpi\n      dup3\n      swap1\n      sub\n      0x1f\n      and\n      dup3\n      add\n      swap2\n    tag_64:\n      pop\n      pop\n      pop\n      pop\n      pop\n      swap1\n      dup1\n      0x02\n      add\n      sload\n      swap1\n      dup1\n      0x03\n      add\n      0x00\n      swap1\n      sload\n      swap1\n      0x0100\n      exp\n      swap1\n      div\n      0xffffffffffffffffffffffffffffffffffffffff\n      and\n      swap1\n      pop\n      dup5\n      jump\t// out\n    tag_45:\n      dup3\n      dup1\n      sload\n      tag_67\n      swap1\n      tag_62\n      jump\t// in\n    tag_67:\n      swap1\n      0x00\n      mstore\n      keccak256(0x00, 0x20)\n      swap1\n      0x1f\n      add\n      0x20\n      swap1\n      div\n      dup2\n      add\n      swap3\n      dup3\n      tag_69\n      jumpi\n      0x00\n      dup6\n      sstore\n      jump(tag_68)\n    tag_69:\n      dup3\n      0x1f\n      lt\n      tag_70\n      jumpi\n      dup1\n      mload\n      not(0xff)\n      and\n      dup4\n      dup1\n      add\n      or\n      dup6\n      sstore\n      jump(tag_68)\n    tag_70:\n      dup3\n      dup1\n      add\n      0x01\n      add\n      dup6\n      sstore\n      dup3\n      iszero\n      tag_68\n      jumpi\n      swap2\n      dup3\n      add\n    tag_71:\n      dup3\n      dup2\n      gt\n      iszero\n      tag_72\n      jumpi\n      dup3\n      mload\n      dup3\n      sstore\n      swap2\n      0x20\n      add\n      swap2\n      swap1\n      0x01\n      add\n      swap1\n      jump(tag_71)\n    tag_72:\n    tag_68:\n      pop\n      swap1\n      pop\n      tag_73\n      swap2\n      swap1\n      tag_74\n      jump\t// in\n    tag_73:\n      pop\n      swap1\n      jump\t// out\n    tag_74:\n    tag_75:\n      dup1\n      dup3\n      gt\n      iszero\n      tag_76\n      jumpi\n      0x00\n      dup2\n      0x00\n      swap1\n      sstore\n      pop\n      0x01\n      add\n      jump(tag_75)\n    tag_76:\n      pop\n      swap1\n      jump\t// out\n        /* \"#utility.yul\":7:419   */\n    tag_78:\n        /* \"#utility.yul\":85:90   */\n      0x00\n        /* \"#utility.yul\":110:176   */\n      tag_80\n        /* \"#utility.yul\":126:175   */\n      tag_81\n        /* \"#utility.yul\":168:174   */\n      dup5\n        /* \"#utility.yul\":126:175   */\n      tag_82\n      jump\t// in\n    tag_81:\n        /* \"#utility.yul\":110:176   */\n      tag_83\n      jump\t// in\n    tag_80:\n        /* \"#utility.yul\":101:176   */\n      swap1\n      pop\n        /* \"#utility.yul\":199:205   */\n      dup3\n        /* \"#utility.yul\":192:197   */\n      dup2\n        /* \"#utility.yul\":185:206   */\n      mstore\n        /* \"#utility.yul\":237:241   */\n      0x20\n        /* \"#utility.yul\":230:235   */\n      dup2\n        /* \"#utility.yul\":226:242   */\n      add\n        /* \"#utility.yul\":275:278   */\n      dup5\n        /* \"#utility.yul\":266:272   */\n      dup5\n        /* \"#utility.yul\":261:264   */\n      dup5\n        /* \"#utility.yul\":257:273   */\n      add\n        /* \"#utility.yul\":254:279   */\n      gt\n        /* \"#utility.yul\":251:363   */\n      iszero\n      tag_84\n      jumpi\n        /* \"#utility.yul\":282:361   */\n      tag_85\n      tag_86\n      jump\t// in\n    tag_85:\n        /* \"#utility.yul\":251:363   */\n    tag_84:\n        /* \"#utility.yul\":372:413   */\n      tag_87\n        /* \"#utility.yul\":406:412   */\n      dup5\n        /* \"#utility.yul\":401:404   */\n      dup3\n        /* \"#utility.yul\":396:399   */\n      dup6\n        /* \"#utility.yul\":372:413   */\n      tag_88\n      jump\t// in\n    tag_87:\n        /* \"#utility.yul\":91:419   */\n      pop\n        /* \"#utility.yul\":7:419   */\n      swap4\n      swap3\n      pop\n      pop\n      pop\n      jump\t// out\n        /* \"#utility.yul\":425:580   */\n    tag_89:\n        /* \"#utility.yul\":479:484   */\n      0x00\n        /* \"#utility.yul\":517:523   */\n      dup2\n        /* \"#utility.yul\":504:524   */\n      calldataload\n        /* \"#utility.yul\":495:524   */\n      swap1\n      pop\n        /* \"#utility.yul\":533:574   */\n      tag_91\n        /* \"#utility.yul\":568:573   */\n      dup2\n        /* \"#utility.yul\":533:574   */\n      tag_92\n      jump\t// in\n    tag_91:\n        /* \"#utility.yul\":425:580   */\n      swap3\n      swap2\n      pop\n      pop\n      jump\t// out\n        /* \"#utility.yul\":600:940   */\n    tag_93:\n        /* \"#utility.yul\":656:661   */\n      0x00\n        /* \"#utility.yul\":705:708   */\n      dup3\n        /* \"#utility.yul\":698:702   */\n      0x1f\n        /* \"#utility.yul\":690:696   */\n      dup4\n        /* \"#utility.yul\":686:703   */\n      add\n        /* \"#utility.yul\":682:709   */\n      slt\n        /* \"#utility.yul\":672:794   */\n      tag_95\n      jumpi\n        /* \"#utility.yul\":713:792   */\n      tag_96\n      tag_97\n      jump\t// in\n    tag_96:\n        /* \"#utility.yul\":672:794   */\n    tag_95:\n        /* \"#utility.yul\":830:836   */\n      dup2\n        /* \"#utility.yul\":817:837   */\n      calldataload\n        /* \"#utility.yul\":855:934   */\n      tag_98\n        /* \"#utility.yul\":930:933   */\n      dup5\n        /* \"#utility.yul\":922:928   */\n      dup3\n        /* \"#utility.yul\":915:919   */\n      0x20\n        /* \"#utility.yul\":907:913   */\n      dup7\n        /* \"#utility.yul\":903:920   */\n      add\n        /* \"#utility.yul\":855:934   */\n      tag_78\n      jump\t// in\n    tag_98:\n        /* \"#utility.yul\":846:934   */\n      swap2\n      pop\n        /* \"#utility.yul\":662:940   */\n      pop\n        /* \"#utility.yul\":600:940   */\n      swap3\n      swap2\n      pop\n      pop\n      jump\t// out\n        /* \"#utility.yul\":946:1085   */\n    tag_99:\n        /* \"#utility.yul\":992:997   */\n      0x00\n        /* \"#utility.yul\":1030:1036   */\n      dup2\n        /* \"#utility.yul\":1017:1037   */\n      calldataload\n        /* \"#utility.yul\":1008:1037   */\n      swap1\n      pop\n        /* \"#utility.yul\":1046:1079   */\n      tag_101\n        /* \"#utility.yul\":1073:1078   */\n      dup2\n        /* \"#utility.yul\":1046:1079   */\n      tag_102\n      jump\t// in\n    tag_101:\n        /* \"#utility.yul\":946:1085   */\n      swap3\n      swap2\n      pop\n      pop\n      jump\t// out\n        /* \"#utility.yul\":1091:1906   */\n    tag_13:\n        /* \"#utility.yul\":1186:1192   */\n      0x00\n        /* \"#utility.yul\":1194:1200   */\n      dup1\n        /* \"#utility.yul\":1202:1208   */\n      0x00\n        /* \"#utility.yul\":1251:1253   */\n      0x60\n        /* \"#utility.yul\":1239:1248   */\n      dup5\n        /* \"#utility.yul\":1230:1237   */\n      dup7\n        /* \"#utility.yul\":1226:1249   */\n      sub\n        /* \"#utility.yul\":1222:1254   */\n      slt\n        /* \"#utility.yul\":1219:1338   */\n      iszero\n      tag_104\n      jumpi\n        /* \"#utility.yul\":1257:1336   */\n      tag_105\n      tag_106\n      jump\t// in\n    tag_105:\n        /* \"#utility.yul\":1219:1338   */\n    tag_104:\n        /* \"#utility.yul\":1405:1406   */\n      0x00\n        /* \"#utility.yul\":1394:1403   */\n      dup5\n        /* \"#utility.yul\":1390:1407   */\n      add\n        /* \"#utility.yul\":1377:1408   */\n      calldataload\n        /* \"#utility.yul\":1435:1453   */\n      0xffffffffffffffff\n        /* \"#utility.yul\":1427:1433   */\n      dup2\n        /* \"#utility.yul\":1424:1454   */\n      gt\n        /* \"#utility.yul\":1421:1538   */\n      iszero\n      tag_107\n      jumpi\n        /* \"#utility.yul\":1457:1536   */\n      tag_108\n      tag_109\n      jump\t// in\n    tag_108:\n        /* \"#utility.yul\":1421:1538   */\n    tag_107:\n        /* \"#utility.yul\":1562:1625   */\n      tag_110\n        /* \"#utility.yul\":1617:1624   */\n      dup7\n        /* \"#utility.yul\":1608:1614   */\n      dup3\n        /* \"#utility.yul\":1597:1606   */\n      dup8\n        /* \"#utility.yul\":1593:1615   */\n      add\n        /* \"#utility.yul\":1562:1625   */\n      tag_93\n      jump\t// in\n    tag_110:\n        /* \"#utility.yul\":1552:1625   */\n      swap4\n      pop\n        /* \"#utility.yul\":1348:1635   */\n      pop\n        /* \"#utility.yul\":1674:1676   */\n      0x20\n        /* \"#utility.yul\":1700:1761   */\n      tag_111\n        /* \"#utility.yul\":1753:1760   */\n      dup7\n        /* \"#utility.yul\":1744:1750   */\n      dup3\n        /* \"#utility.yul\":1733:1742   */\n      dup8\n        /* \"#utility.yul\":1729:1751   */\n      add\n        /* \"#utility.yul\":1700:1761   */\n      tag_89\n      jump\t// in\n    tag_111:\n        /* \"#utility.yul\":1690:1761   */\n      swap3\n      pop\n        /* \"#utility.yul\":1645:1771   */\n      pop\n        /* \"#utility.yul\":1810:1812   */\n      0x40\n        /* \"#utility.yul\":1836:1889   */\n      tag_112\n        /* \"#utility.yul\":1881:1888   */\n      dup7\n        /* \"#utility.yul\":1872:1878   */\n      dup3\n        /* \"#utility.yul\":1861:1870   */\n      dup8\n        /* \"#utility.yul\":1857:1879   */\n      add\n        /* \"#utility.yul\":1836:1889   */\n      tag_99\n      jump\t// in\n    tag_112:\n        /* \"#utility.yul\":1826:1889   */\n      swap2\n      pop\n        /* \"#utility.yul\":1781:1899   */\n      pop\n        /* \"#utility.yul\":1091:1906   */\n      swap3\n      pop\n      swap3\n      pop\n      swap3\n      jump\t// out\n        /* \"#utility.yul\":1912:2241   */\n    tag_24:\n        /* \"#utility.yul\":1971:1977   */\n      0x00\n        /* \"#utility.yul\":2020:2022   */\n      0x20\n        /* \"#utility.yul\":2008:2017   */\n      dup3\n        /* \"#utility.yul\":1999:2006   */\n      dup5\n        /* \"#utility.yul\":1995:2018   */\n      sub\n        /* \"#utility.yul\":1991:2023   */\n      slt\n        /* \"#utility.yul\":1988:2107   */\n      iszero\n      tag_114\n      jumpi\n        /* \"#utility.yul\":2026:2105   */\n      tag_115\n      tag_106\n      jump\t// in\n    tag_115:\n        /* \"#utility.yul\":1988:2107   */\n    tag_114:\n        /* \"#utility.yul\":2146:2147   */\n      0x00\n        /* \"#utility.yul\":2171:2224   */\n      tag_116\n        /* \"#utility.yul\":2216:2223   */\n      dup5\n        /* \"#utility.yul\":2207:2213   */\n      dup3\n        /* \"#utility.yul\":2196:2205   */\n      dup6\n        /* \"#utility.yul\":2192:2214   */\n      add\n        /* \"#utility.yul\":2171:2224   */\n      tag_99\n      jump\t// in\n    tag_116:\n        /* \"#utility.yul\":2161:2224   */\n      swap2\n      pop\n        /* \"#utility.yul\":2117:2234   */\n      pop\n        /* \"#utility.yul\":1912:2241   */\n      swap3\n      swap2\n      pop\n      pop\n      jump\t// out\n        /* \"#utility.yul\":2247:2389   */\n    tag_117:\n        /* \"#utility.yul\":2350:2382   */\n      tag_119\n        /* \"#utility.yul\":2376:2381   */\n      dup2\n        /* \"#utility.yul\":2350:2382   */\n      tag_120\n      jump\t// in\n    tag_119:\n        /* \"#utility.yul\":2345:2348   */\n      dup3\n        /* \"#utility.yul\":2338:2383   */\n      mstore\n        /* \"#utility.yul\":2247:2389   */\n      pop\n      pop\n      jump\t// out\n        /* \"#utility.yul\":2395:2513   */\n    tag_121:\n        /* \"#utility.yul\":2482:2506   */\n      tag_123\n        /* \"#utility.yul\":2500:2505   */\n      dup2\n        /* \"#utility.yul\":2482:2506   */\n      tag_124\n      jump\t// in\n    tag_123:\n        /* \"#utility.yul\":2477:2480   */\n      dup3\n        /* \"#utility.yul\":2470:2507   */\n      mstore\n        /* \"#utility.yul\":2395:2513   */\n      pop\n      pop\n      jump\t// out\n        /* \"#utility.yul\":2519:2883   */\n    tag_125:\n        /* \"#utility.yul\":2607:2610   */\n      0x00\n        /* \"#utility.yul\":2635:2674   */\n      tag_127\n        /* \"#utility.yul\":2668:2673   */\n      dup3\n        /* \"#utility.yul\":2635:2674   */\n      tag_128\n      jump\t// in\n    tag_127:\n        /* \"#utility.yul\":2690:2761   */\n      tag_129\n        /* \"#utility.yul\":2754:2760   */\n      dup2\n        /* \"#utility.yul\":2749:2752   */\n      dup6\n        /* \"#utility.yul\":2690:2761   */\n      tag_130\n      jump\t// in\n    tag_129:\n        /* \"#utility.yul\":2683:2761   */\n      swap4\n      pop\n        /* \"#utility.yul\":2770:2822   */\n      tag_131\n        /* \"#utility.yul\":2815:2821   */\n      dup2\n        /* \"#utility.yul\":2810:2813   */\n      dup6\n        /* \"#utility.yul\":2803:2807   */\n      0x20\n        /* \"#utility.yul\":2796:2801   */\n      dup7\n        /* \"#utility.yul\":2792:2808   */\n      add\n        /* \"#utility.yul\":2770:2822   */\n      tag_132\n      jump\t// in\n    tag_131:\n        /* \"#utility.yul\":2847:2876   */\n      tag_133\n        /* \"#utility.yul\":2869:2875   */\n      dup2\n        /* \"#utility.yul\":2847:2876   */\n      tag_134\n      jump\t// in\n    tag_133:\n        /* \"#utility.yul\":2842:2845   */\n      dup5\n        /* \"#utility.yul\":2838:2877   */\n      add\n        /* \"#utility.yul\":2831:2877   */\n      swap2\n      pop\n        /* \"#utility.yul\":2611:2883   */\n      pop\n        /* \"#utility.yul\":2519:2883   */\n      swap3\n      swap2\n      pop\n      pop\n      jump\t// out\n        /* \"#utility.yul\":2889:3255   */\n    tag_135:\n        /* \"#utility.yul\":3031:3034   */\n      0x00\n        /* \"#utility.yul\":3052:3119   */\n      tag_137\n        /* \"#utility.yul\":3116:3118   */\n      0x19\n        /* \"#utility.yul\":3111:3114   */\n      dup4\n        /* \"#utility.yul\":3052:3119   */\n      tag_130\n      jump\t// in\n    tag_137:\n        /* \"#utility.yul\":3045:3119   */\n      swap2\n      pop\n        /* \"#utility.yul\":3128:3221   */\n      tag_138\n        /* \"#utility.yul\":3217:3220   */\n      dup3\n        /* \"#utility.yul\":3128:3221   */\n      tag_139\n      jump\t// in\n    tag_138:\n        /* \"#utility.yul\":3246:3248   */\n      0x20\n        /* \"#utility.yul\":3241:3244   */\n      dup3\n        /* \"#utility.yul\":3237:3249   */\n      add\n        /* \"#utility.yul\":3230:3249   */\n      swap1\n      pop\n        /* \"#utility.yul\":2889:3255   */\n      swap2\n      swap1\n      pop\n      jump\t// out\n        /* \"#utility.yul\":3261:3627   */\n    tag_140:\n        /* \"#utility.yul\":3403:3406   */\n      0x00\n        /* \"#utility.yul\":3424:3491   */\n      tag_142\n        /* \"#utility.yul\":3488:3490   */\n      0x2a\n        /* \"#utility.yul\":3483:3486   */\n      dup4\n        /* \"#utility.yul\":3424:3491   */\n      tag_130\n      jump\t// in\n    tag_142:\n        /* \"#utility.yul\":3417:3491   */\n      swap2\n      pop\n        /* \"#utility.yul\":3500:3593   */\n      tag_143\n        /* \"#utility.yul\":3589:3592   */\n      dup3\n        /* \"#utility.yul\":3500:3593   */\n      tag_144\n      jump\t// in\n    tag_143:\n        /* \"#utility.yul\":3618:3620   */\n      0x40\n        /* \"#utility.yul\":3613:3616   */\n      dup3\n        /* \"#utility.yul\":3609:3621   */\n      add\n        /* \"#utility.yul\":3602:3621   */\n      swap1\n      pop\n        /* \"#utility.yul\":3261:3627   */\n      swap2\n      swap1\n      pop\n      jump\t// out\n        /* \"#utility.yul\":3633:3999   */\n    tag_145:\n        /* \"#utility.yul\":3775:3778   */\n      0x00\n        /* \"#utility.yul\":3796:3863   */\n      tag_147\n        /* \"#utility.yul\":3860:3862   */\n      0x12\n        /* \"#utility.yul\":3855:3858   */\n      dup4\n        /* \"#utility.yul\":3796:3863   */\n      tag_130\n      jump\t// in\n    tag_147:\n        /* \"#utility.yul\":3789:3863   */\n      swap2\n      pop\n        /* \"#utility.yul\":3872:3965   */\n      tag_148\n        /* \"#utility.yul\":3961:3964   */\n      dup3\n        /* \"#utility.yul\":3872:3965   */\n      tag_149\n      jump\t// in\n    tag_148:\n        /* \"#utility.yul\":3990:3992   */\n      0x20\n        /* \"#utility.yul\":3985:3988   */\n      dup3\n        /* \"#utility.yul\":3981:3993   */\n      add\n        /* \"#utility.yul\":3974:3993   */\n      swap1\n      pop\n        /* \"#utility.yul\":3633:3999   */\n      swap2\n      swap1\n      pop\n      jump\t// out\n        /* \"#utility.yul\":4005:4123   */\n    tag_150:\n        /* \"#utility.yul\":4092:4116   */\n      tag_152\n        /* \"#utility.yul\":4110:4115   */\n      dup2\n        /* \"#utility.yul\":4092:4116   */\n      tag_153\n      jump\t// in\n    tag_152:\n        /* \"#utility.yul\":4087:4090   */\n      dup3\n        /* \"#utility.yul\":4080:4117   */\n      mstore\n        /* \"#utility.yul\":4005:4123   */\n      pop\n      pop\n      jump\t// out\n        /* \"#utility.yul\":4129:4351   */\n    tag_30:\n        /* \"#utility.yul\":4222:4226   */\n      0x00\n        /* \"#utility.yul\":4260:4262   */\n      0x20\n        /* \"#utility.yul\":4249:4258   */\n      dup3\n        /* \"#utility.yul\":4245:4263   */\n      add\n        /* \"#utility.yul\":4237:4263   */\n      swap1\n      pop\n        /* \"#utility.yul\":4273:4344   */\n      tag_155\n        /* \"#utility.yul\":4341:4342   */\n      0x00\n        /* \"#utility.yul\":4330:4339   */\n      dup4\n        /* \"#utility.yul\":4326:4343   */\n      add\n        /* \"#utility.yul\":4317:4323   */\n      dup5\n        /* \"#utility.yul\":4273:4344   */\n      tag_121\n      jump\t// in\n    tag_155:\n        /* \"#utility.yul\":4129:4351   */\n      swap3\n      swap2\n      pop\n      pop\n      jump\t// out\n        /* \"#utility.yul\":4357:5033   */\n    tag_36:\n        /* \"#utility.yul\":4570:4574   */\n      0x00\n        /* \"#utility.yul\":4608:4611   */\n      0x80\n        /* \"#utility.yul\":4597:4606   */\n      dup3\n        /* \"#utility.yul\":4593:4612   */\n      add\n        /* \"#utility.yul\":4585:4612   */\n      swap1\n      pop\n        /* \"#utility.yul\":4622:4693   */\n      tag_157\n        /* \"#utility.yul\":4690:4691   */\n      0x00\n        /* \"#utility.yul\":4679:4688   */\n      dup4\n        /* \"#utility.yul\":4675:4692   */\n      add\n        /* \"#utility.yul\":4666:4672   */\n      dup8\n        /* \"#utility.yul\":4622:4693   */\n      tag_121\n      jump\t// in\n    tag_157:\n        /* \"#utility.yul\":4740:4749   */\n      dup2\n        /* \"#utility.yul\":4734:4738   */\n      dup2\n        /* \"#utility.yul\":4730:4750   */\n      sub\n        /* \"#utility.yul\":4725:4727   */\n      0x20\n        /* \"#utility.yul\":4714:4723   */\n      dup4\n        /* \"#utility.yul\":4710:4728   */\n      add\n        /* \"#utility.yul\":4703:4751   */\n      mstore\n        /* \"#utility.yul\":4768:4846   */\n      tag_158\n        /* \"#utility.yul\":4841:4845   */\n      dup2\n        /* \"#utility.yul\":4832:4838   */\n      dup7\n        /* \"#utility.yul\":4768:4846   */\n      tag_125\n      jump\t// in\n    tag_158:\n        /* \"#utility.yul\":4760:4846   */\n      swap1\n      pop\n        /* \"#utility.yul\":4856:4928   */\n      tag_159\n        /* \"#utility.yul\":4924:4926   */\n      0x40\n        /* \"#utility.yul\":4913:4922   */\n      dup4\n        /* \"#utility.yul\":4909:4927   */\n      add\n        /* \"#utility.yul\":4900:4906   */\n      dup6\n        /* \"#utility.yul\":4856:4928   */\n      tag_150\n      jump\t// in\n    tag_159:\n        /* \"#utility.yul\":4938:5026   */\n      tag_160\n        /* \"#utility.yul\":5022:5024   */\n      0x60\n        /* \"#utility.yul\":5011:5020   */\n      dup4\n        /* \"#utility.yul\":5007:5025   */\n      add\n        /* \"#utility.yul\":4998:5004   */\n      dup5\n        /* \"#utility.yul\":4938:5026   */\n      tag_117\n      jump\t// in\n    tag_160:\n        /* \"#utility.yul\":4357:5033   */\n      swap6\n      swap5\n      pop\n      pop\n      pop\n      pop\n      pop\n      jump\t// out\n        /* \"#utility.yul\":5039:5458   */\n    tag_40:\n        /* \"#utility.yul\":5205:5209   */\n      0x00\n        /* \"#utility.yul\":5243:5245   */\n      0x20\n        /* \"#utility.yul\":5232:5241   */\n      dup3\n        /* \"#utility.yul\":5228:5246   */\n      add\n        /* \"#utility.yul\":5220:5246   */\n      swap1\n      pop\n        /* \"#utility.yul\":5292:5301   */\n      dup2\n        /* \"#utility.yul\":5286:5290   */\n      dup2\n        /* \"#utility.yul\":5282:5302   */\n      sub\n        /* \"#utility.yul\":5278:5279   */\n      0x00\n        /* \"#utility.yul\":5267:5276   */\n      dup4\n        /* \"#utility.yul\":5263:5280   */\n      add\n        /* \"#utility.yul\":5256:5303   */\n      mstore\n        /* \"#utility.yul\":5320:5451   */\n      tag_162\n        /* \"#utility.yul\":5446:5450   */\n      dup2\n        /* \"#utility.yul\":5320:5451   */\n      tag_135\n      jump\t// in\n    tag_162:\n        /* \"#utility.yul\":5312:5451   */\n      swap1\n      pop\n        /* \"#utility.yul\":5039:5458   */\n      swap2\n      swap1\n      pop\n      jump\t// out\n        /* \"#utility.yul\":5464:5883   */\n    tag_55:\n        /* \"#utility.yul\":5630:5634   */\n      0x00\n        /* \"#utility.yul\":5668:5670   */\n      0x20\n        /* \"#utility.yul\":5657:5666   */\n      dup3\n        /* \"#utility.yul\":5653:5671   */\n      add\n        /* \"#utility.yul\":5645:5671   */\n      swap1\n      pop\n        /* \"#utility.yul\":5717:5726   */\n      dup2\n        /* \"#utility.yul\":5711:5715   */\n      dup2\n        /* \"#utility.yul\":5707:5727   */\n      sub\n        /* \"#utility.yul\":5703:5704   */\n      0x00\n        /* \"#utility.yul\":5692:5701   */\n      dup4\n        /* \"#utility.yul\":5688:5705   */\n      add\n        /* \"#utility.yul\":5681:5728   */\n      mstore\n        /* \"#utility.yul\":5745:5876   */\n      tag_164\n        /* \"#utility.yul\":5871:5875   */\n      dup2\n        /* \"#utility.yul\":5745:5876   */\n      tag_140\n      jump\t// in\n    tag_164:\n        /* \"#utility.yul\":5737:5876   */\n      swap1\n      pop\n        /* \"#utility.yul\":5464:5883   */\n      swap2\n      swap1\n      pop\n      jump\t// out\n        /* \"#utility.yul\":5889:6308   */\n    tag_48:\n        /* \"#utility.yul\":6055:6059   */\n      0x00\n        /* \"#utility.yul\":6093:6095   */\n      0x20\n        /* \"#utility.yul\":6082:6091   */\n      dup3\n        /* \"#utility.yul\":6078:6096   */\n      add\n        /* \"#utility.yul\":6070:6096   */\n      swap1\n      pop\n        /* \"#utility.yul\":6142:6151   */\n      dup2\n        /* \"#utility.yul\":6136:6140   */\n      dup2\n        /* \"#utility.yul\":6132:6152   */\n      sub\n        /* \"#utility.yul\":6128:6129   */\n      0x00\n        /* \"#utility.yul\":6117:6126   */\n      dup4\n        /* \"#utility.yul\":6113:6130   */\n      add\n        /* \"#utility.yul\":6106:6153   */\n      mstore\n        /* \"#utility.yul\":6170:6301   */\n      tag_166\n        /* \"#utility.yul\":6296:6300   */\n      dup2\n        /* \"#utility.yul\":6170:6301   */\n      tag_145\n      jump\t// in\n    tag_166:\n        /* \"#utility.yul\":6162:6301   */\n      swap1\n      pop\n        /* \"#utility.yul\":5889:6308   */\n      swap2\n      swap1\n      pop\n      jump\t// out\n        /* \"#utility.yul\":6314:6536   */\n    tag_16:\n        /* \"#utility.yul\":6407:6411   */\n      0x00\n        /* \"#utility.yul\":6445:6447   */\n      0x20\n        /* \"#utility.yul\":6434:6443   */\n      dup3\n        /* \"#utility.yul\":6430:6448   */\n      add\n        /* \"#utility.yul\":6422:6448   */\n      swap1\n      pop\n        /* \"#utility.yul\":6458:6529   */\n      tag_168\n        /* \"#utility.yul\":6526:6527   */\n      0x00\n        /* \"#utility.yul\":6515:6524   */\n      dup4\n        /* \"#utility.yul\":6511:6528   */\n      add\n        /* \"#utility.yul\":6502:6508   */\n      dup5\n        /* \"#utility.yul\":6458:6529   */\n      tag_150\n      jump\t// in\n    tag_168:\n        /* \"#utility.yul\":6314:6536   */\n      swap3\n      swap2\n      pop\n      pop\n      jump\t// out\n        /* \"#utility.yul\":6542:6874   */\n    tag_60:\n        /* \"#utility.yul\":6663:6667   */\n      0x00\n        /* \"#utility.yul\":6701:6703   */\n      0x40\n        /* \"#utility.yul\":6690:6699   */\n      dup3\n        /* \"#utility.yul\":6686:6704   */\n      add\n        /* \"#utility.yul\":6678:6704   */\n      swap1\n      pop\n        /* \"#utility.yul\":6714:6785   */\n      tag_170\n        /* \"#utility.yul\":6782:6783   */\n      0x00\n        /* \"#utility.yul\":6771:6780   */\n      dup4\n        /* \"#utility.yul\":6767:6784   */\n      add\n        /* \"#utility.yul\":6758:6764   */\n      dup6\n        /* \"#utility.yul\":6714:6785   */\n      tag_150\n      jump\t// in\n    tag_170:\n        /* \"#utility.yul\":6795:6867   */\n      tag_171\n        /* \"#utility.yul\":6863:6865   */\n      0x20\n        /* \"#utility.yul\":6852:6861   */\n      dup4\n        /* \"#utility.yul\":6848:6866   */\n      add\n        /* \"#utility.yul\":6839:6845   */\n      dup5\n        /* \"#utility.yul\":6795:6867   */\n      tag_150\n      jump\t// in\n    tag_171:\n        /* \"#utility.yul\":6542:6874   */\n      swap4\n      swap3\n      pop\n      pop\n      pop\n      jump\t// out\n        /* \"#utility.yul\":6880:7009   */\n    tag_83:\n        /* \"#utility.yul\":6914:6920   */\n      0x00\n        /* \"#utility.yul\":6941:6961   */\n      tag_173\n      tag_174\n      jump\t// in\n    tag_173:\n        /* \"#utility.yul\":6931:6961   */\n      swap1\n      pop\n        /* \"#utility.yul\":6970:7003   */\n      tag_175\n        /* \"#utility.yul\":6998:7002   */\n      dup3\n        /* \"#utility.yul\":6990:6996   */\n      dup3\n        /* \"#utility.yul\":6970:7003   */\n      tag_176\n      jump\t// in\n    tag_175:\n        /* \"#utility.yul\":6880:7009   */\n      swap2\n      swap1\n      pop\n      jump\t// out\n        /* \"#utility.yul\":7015:7090   */\n    tag_174:\n        /* \"#utility.yul\":7048:7054   */\n      0x00\n        /* \"#utility.yul\":7081:7083   */\n      0x40\n        /* \"#utility.yul\":7075:7084   */\n      mload\n        /* \"#utility.yul\":7065:7084   */\n      swap1\n      pop\n        /* \"#utility.yul\":7015:7090   */\n      swap1\n      jump\t// out\n        /* \"#utility.yul\":7096:7404   */\n    tag_82:\n        /* \"#utility.yul\":7158:7162   */\n      0x00\n        /* \"#utility.yul\":7248:7266   */\n      0xffffffffffffffff\n        /* \"#utility.yul\":7240:7246   */\n      dup3\n        /* \"#utility.yul\":7237:7267   */\n      gt\n        /* \"#utility.yul\":7234:7290   */\n      iszero\n      tag_179\n      jumpi\n        /* \"#utility.yul\":7270:7288   */\n      tag_180\n      tag_181\n      jump\t// in\n    tag_180:\n        /* \"#utility.yul\":7234:7290   */\n    tag_179:\n        /* \"#utility.yul\":7308:7337   */\n      tag_182\n        /* \"#utility.yul\":7330:7336   */\n      dup3\n        /* \"#utility.yul\":7308:7337   */\n      tag_134\n      jump\t// in\n    tag_182:\n        /* \"#utility.yul\":7300:7337   */\n      swap1\n      pop\n        /* \"#utility.yul\":7392:7396   */\n      0x20\n        /* \"#utility.yul\":7386:7390   */\n      dup2\n        /* \"#utility.yul\":7382:7397   */\n      add\n        /* \"#utility.yul\":7374:7397   */\n      swap1\n      pop\n        /* \"#utility.yul\":7096:7404   */\n      swap2\n      swap1\n      pop\n      jump\t// out\n        /* \"#utility.yul\":7410:7509   */\n    tag_128:\n        /* \"#utility.yul\":7462:7468   */\n      0x00\n        /* \"#utility.yul\":7496:7501   */\n      dup2\n        /* \"#utility.yul\":7490:7502   */\n      mload\n        /* \"#utility.yul\":7480:7502   */\n      swap1\n      pop\n        /* \"#utility.yul\":7410:7509   */\n      swap2\n      swap1\n      pop\n      jump\t// out\n        /* \"#utility.yul\":7515:7684   */\n    tag_130:\n        /* \"#utility.yul\":7599:7610   */\n      0x00\n        /* \"#utility.yul\":7633:7639   */\n      dup3\n        /* \"#utility.yul\":7628:7631   */\n      dup3\n        /* \"#utility.yul\":7621:7640   */\n      mstore\n        /* \"#utility.yul\":7673:7677   */\n      0x20\n        /* \"#utility.yul\":7668:7671   */\n      dup3\n        /* \"#utility.yul\":7664:7678   */\n      add\n        /* \"#utility.yul\":7649:7678   */\n      swap1\n      pop\n        /* \"#utility.yul\":7515:7684   */\n      swap3\n      swap2\n      pop\n      pop\n      jump\t// out\n        /* \"#utility.yul\":7690:7995   */\n    tag_42:\n        /* \"#utility.yul\":7730:7733   */\n      0x00\n        /* \"#utility.yul\":7749:7769   */\n      tag_186\n        /* \"#utility.yul\":7767:7768   */\n      dup3\n        /* \"#utility.yul\":7749:7769   */\n      tag_153\n      jump\t// in\n    tag_186:\n        /* \"#utility.yul\":7744:7769   */\n      swap2\n      pop\n        /* \"#utility.yul\":7783:7803   */\n      tag_187\n        /* \"#utility.yul\":7801:7802   */\n      dup4\n        /* \"#utility.yul\":7783:7803   */\n      tag_153\n      jump\t// in\n    tag_187:\n        /* \"#utility.yul\":7778:7803   */\n      swap3\n      pop\n        /* \"#utility.yul\":7937:7938   */\n      dup3\n        /* \"#utility.yul\":7869:7935   */\n      0xffffffffffffffffffffffffffffffffffffffffffffffffffffffffffffffff\n        /* \"#utility.yul\":7865:7939   */\n      sub\n        /* \"#utility.yul\":7862:7863   */\n      dup3\n        /* \"#utility.yul\":7859:7940   */\n      gt\n        /* \"#utility.yul\":7856:7963   */\n      iszero\n      tag_188\n      jumpi\n        /* \"#utility.yul\":7943:7961   */\n      tag_189\n      tag_190\n      jump\t// in\n    tag_189:\n        /* \"#utility.yul\":7856:7963   */\n    tag_188:\n        /* \"#utility.yul\":7987:7988   */\n      dup3\n        /* \"#utility.yul\":7984:7985   */\n      dup3\n        /* \"#utility.yul\":7980:7989   */\n      add\n        /* \"#utility.yul\":7973:7989   */\n      swap1\n      pop\n        /* \"#utility.yul\":7690:7995   */\n      swap3\n      swap2\n      pop\n      pop\n      jump\t// out\n        /* \"#utility.yul\":8001:8192   */\n    tag_51:\n        /* \"#utility.yul\":8041:8045   */\n      0x00\n        /* \"#utility.yul\":8061:8081   */\n      tag_192\n        /* \"#utility.yul\":8079:8080   */\n      dup3\n        /* \"#utility.yul\":8061:8081   */\n      tag_153\n      jump\t// in\n    tag_192:\n        /* \"#utility.yul\":8056:8081   */\n      swap2\n      pop\n        /* \"#utility.yul\":8095:8115   */\n      tag_193\n        /* \"#utility.yul\":8113:8114   */\n      dup4\n        /* \"#utility.yul\":8095:8115   */\n      tag_153\n      jump\t// in\n    tag_193:\n        /* \"#utility.yul\":8090:8115   */\n      swap3\n      pop\n        /* \"#utility.yul\":8134:8135   */\n      dup3\n        /* \"#utility.yul\":8131:8132   */\n      dup3\n        /* \"#utility.yul\":8128:8136   */\n      lt\n        /* \"#utility.yul\":8125:8159   */\n      iszero\n      tag_194\n      jumpi\n        /* \"#utility.yul\":8139:8157   */\n      tag_195\n      tag_190\n      jump\t// in\n    tag_195:\n        /* \"#utility.yul\":8125:8159   */\n    tag_194:\n        /* \"#utility.yul\":8184:8185   */\n      dup3\n        /* \"#utility.yul\":8181:8182   */\n      dup3\n        /* \"#utility.yul\":8177:8186   */\n      sub\n        /* \"#utility.yul\":8169:8186   */\n      swap1\n      pop\n        /* \"#utility.yul\":8001:8192   */\n      swap3\n      swap2\n      pop\n      pop\n      jump\t// out\n        /* \"#utility.yul\":8198:8294   */\n    tag_124:\n        /* \"#utility.yul\":8235:8242   */\n      0x00\n        /* \"#utility.yul\":8264:8288   */\n      tag_197\n        /* \"#utility.yul\":8282:8287   */\n      dup3\n        /* \"#utility.yul\":8264:8288   */\n      tag_198\n      jump\t// in\n    tag_197:\n        /* \"#utility.yul\":8253:8288   */\n      swap1\n      pop\n        /* \"#utility.yul\":8198:8294   */\n      swap2\n      swap1\n      pop\n      jump\t// out\n        /* \"#utility.yul\":8300:8404   */\n    tag_120:\n        /* \"#utility.yul\":8345:8352   */\n      0x00\n        /* \"#utility.yul\":8374:8398   */\n      tag_200\n        /* \"#utility.yul\":8392:8397   */\n      dup3\n        /* \"#utility.yul\":8374:8398   */\n      tag_198\n      jump\t// in\n    tag_200:\n        /* \"#utility.yul\":8363:8398   */\n      swap1\n      pop\n        /* \"#utility.yul\":8300:8404   */\n      swap2\n      swap1\n      pop\n      jump\t// out\n        /* \"#utility.yul\":8410:8536   */\n    tag_198:\n        /* \"#utility.yul\":8447:8454   */\n      0x00\n        /* \"#utility.yul\":8487:8529   */\n      0xffffffffffffffffffffffffffffffffffffffff\n        /* \"#utility.yul\":8480:8485   */\n      dup3\n        /* \"#utility.yul\":8476:8530   */\n      and\n        /* \"#utility.yul\":8465:8530   */\n      swap1\n      pop\n        /* \"#utility.yul\":8410:8536   */\n      swap2\n      swap1\n      pop\n      jump\t// out\n        /* \"#utility.yul\":8542:8619   */\n    tag_153:\n        /* \"#utility.yul\":8579:8586   */\n      0x00\n        /* \"#utility.yul\":8608:8613   */\n      dup2\n        /* \"#utility.yul\":8597:8613   */\n      swap1\n      pop\n        /* \"#utility.yul\":8542:8619   */\n      swap2\n      swap1\n      pop\n      jump\t// out\n        /* \"#utility.yul\":8625:8779   */\n    tag_88:\n        /* \"#utility.yul\":8709:8715   */\n      dup3\n        /* \"#utility.yul\":8704:8707   */\n      dup2\n        /* \"#utility.yul\":8699:8702   */\n      dup4\n        /* \"#utility.yul\":8686:8716   */\n      calldatacopy\n        /* \"#utility.yul\":8771:8772   */\n      0x00\n        /* \"#utility.yul\":8762:8768   */\n      dup4\n        /* \"#utility.yul\":8757:8760   */\n      dup4\n        /* \"#utility.yul\":8753:8769   */\n      add\n        /* \"#utility.yul\":8746:8773   */\n      mstore\n        /* \"#utility.yul\":8625:8779   */\n      pop\n      pop\n      pop\n      jump\t// out\n        /* \"#utility.yul\":8785:9092   */\n    tag_132:\n        /* \"#utility.yul\":8853:8854   */\n      0x00\n        /* \"#utility.yul\":8863:8976   */\n    tag_205:\n        /* \"#utility.yul\":8877:8883   */\n      dup4\n        /* \"#utility.yul\":8874:8875   */\n      dup2\n        /* \"#utility.yul\":8871:8884   */\n      lt\n        /* \"#utility.yul\":8863:8976   */\n      iszero\n      tag_207\n      jumpi\n        /* \"#utility.yul\":8962:8963   */\n      dup1\n        /* \"#utility.yul\":8957:8960   */\n      dup3\n        /* \"#utility.yul\":8953:8964   */\n      add\n        /* \"#utility.yul\":8947:8965   */\n      mload\n        /* \"#utility.yul\":8943:8944   */\n      dup2\n        /* \"#utility.yul\":8938:8941   */\n      dup5\n        /* \"#utility.yul\":8934:8945   */\n      add\n        /* \"#utility.yul\":8927:8966   */\n      mstore\n        /* \"#utility.yul\":8899:8901   */\n      0x20\n        /* \"#utility.yul\":8896:8897   */\n      dup2\n        /* \"#utility.yul\":8892:8902   */\n      add\n        /* \"#utility.yul\":8887:8902   */\n      swap1\n      pop\n        /* \"#utility.yul\":8863:8976   */\n      jump(tag_205)\n    tag_207:\n        /* \"#utility.yul\":8994:9000   */\n      dup4\n        /* \"#utility.yul\":8991:8992   */\n      dup2\n        /* \"#utility.yul\":8988:9001   */\n      gt\n        /* \"#utility.yul\":8985:9086   */\n      iszero\n      tag_208\n      jumpi\n        /* \"#utility.yul\":9074:9075   */\n      0x00\n        /* \"#utility.yul\":9065:9071   */\n      dup5\n        /* \"#utility.yul\":9060:9063   */\n      dup5\n        /* \"#utility.yul\":9056:9072   */\n      add\n        /* \"#utility.yul\":9049:9076   */\n      mstore\n        /* \"#utility.yul\":8985:9086   */\n    tag_208:\n        /* \"#utility.yul\":8834:9092   */\n      pop\n        /* \"#utility.yul\":8785:9092   */\n      pop\n      pop\n      pop\n      jump\t// out\n        /* \"#utility.yul\":9098:9418   */\n    tag_62:\n        /* \"#utility.yul\":9142:9148   */\n      0x00\n        /* \"#utility.yul\":9179:9180   */\n      0x02\n        /* \"#utility.yul\":9173:9177   */\n      dup3\n        /* \"#utility.yul\":9169:9181   */\n      div\n        /* \"#utility.yul\":9159:9181   */\n      swap1\n      pop\n        /* \"#utility.yul\":9226:9227   */\n      0x01\n        /* \"#utility.yul\":9220:9224   */\n      dup3\n        /* \"#utility.yul\":9216:9228   */\n      and\n        /* \"#utility.yul\":9247:9265   */\n      dup1\n        /* \"#utility.yul\":9237:9318   */\n      tag_210\n      jumpi\n        /* \"#utility.yul\":9303:9307   */\n      0x7f\n        /* \"#utility.yul\":9295:9301   */\n      dup3\n        /* \"#utility.yul\":9291:9308   */\n      and\n        /* \"#utility.yul\":9281:9308   */\n      swap2\n      pop\n        /* \"#utility.yul\":9237:9318   */\n    tag_210:\n        /* \"#utility.yul\":9365:9367   */\n      0x20\n        /* \"#utility.yul\":9357:9363   */\n      dup3\n        /* \"#utility.yul\":9354:9368   */\n      lt\n        /* \"#utility.yul\":9334:9352   */\n      dup2\n        /* \"#utility.yul\":9331:9369   */\n      eq\n        /* \"#utility.yul\":9328:9412   */\n      iszero\n      tag_211\n      jumpi\n        /* \"#utility.yul\":9384:9402   */\n      tag_212\n      tag_213\n      jump\t// in\n    tag_212:\n        /* \"#utility.yul\":9328:9412   */\n    tag_211:\n        /* \"#utility.yul\":9149:9418   */\n      pop\n        /* \"#utility.yul\":9098:9418   */\n      swap2\n      swap1\n      pop\n      jump\t// out\n        /* \"#utility.yul\":9424:9705   */\n    tag_176:\n        /* \"#utility.yul\":9507:9534   */\n      tag_215\n        /* \"#utility.yul\":9529:9533   */\n      dup3\n        /* \"#utility.yul\":9507:9534   */\n      tag_134\n      jump\t// in\n    tag_215:\n        /* \"#utility.yul\":9499:9505   */\n      dup2\n        /* \"#utility.yul\":9495:9535   */\n      add\n        /* \"#utility.yul\":9637:9643   */\n      dup2\n        /* \"#utility.yul\":9625:9635   */\n      dup2\n        /* \"#utility.yul\":9622:9644   */\n      lt\n        /* \"#utility.yul\":9601:9619   */\n      0xffffffffffffffff\n        /* \"#utility.yul\":9589:9599   */\n      dup3\n        /* \"#utility.yul\":9586:9620   */\n      gt\n        /* \"#utility.yul\":9583:9645   */\n      or\n        /* \"#utility.yul\":9580:9668   */\n      iszero\n      tag_216\n      jumpi\n        /* \"#utility.yul\":9648:9666   */\n      tag_217\n      tag_181\n      jump\t// in\n    tag_217:\n        /* \"#utility.yul\":9580:9668   */\n    tag_216:\n        /* \"#utility.yul\":9688:9698   */\n      dup1\n        /* \"#utility.yul\":9684:9686   */\n      0x40\n        /* \"#utility.yul\":9677:9699   */\n      mstore\n        /* \"#utility.yul\":9467:9705   */\n      pop\n        /* \"#utility.yul\":9424:9705   */\n      pop\n      pop\n      jump\t// out\n        /* \"#utility.yul\":9711:9891   */\n    tag_190:\n        /* \"#utility.yul\":9759:9836   */\n      0x4e487b7100000000000000000000000000000000000000000000000000000000\n        /* \"#utility.yul\":9756:9757   */\n      0x00\n        /* \"#utility.yul\":9749:9837   */\n      mstore\n        /* \"#utility.yul\":9856:9860   */\n      0x11\n        /* \"#utility.yul\":9853:9854   */\n      0x04\n        /* \"#utility.yul\":9846:9861   */\n      mstore\n        /* \"#utility.yul\":9880:9884   */\n      0x24\n        /* \"#utility.yul\":9877:9878   */\n      0x00\n        /* \"#utility.yul\":9870:9885   */\n      revert\n        /* \"#utility.yul\":9897:10077   */\n    tag_213:\n        /* \"#utility.yul\":9945:10022   */\n      0x4e487b7100000000000000000000000000000000000000000000000000000000\n        /* \"#utility.yul\":9942:9943   */\n      0x00\n        /* \"#utility.yul\":9935:10023   */\n      mstore\n        /* \"#utility.yul\":10042:10046   */\n      0x22\n        /* \"#utility.yul\":10039:10040   */\n      0x04\n        /* \"#utility.yul\":10032:10047   */\n      mstore\n        /* \"#utility.yul\":10066:10070   */\n      0x24\n        /* \"#utility.yul\":10063:10064   */\n      0x00\n        /* \"#utility.yul\":10056:10071   */\n      revert\n        /* \"#utility.yul\":10083:10263   */\n    tag_181:\n        /* \"#utility.yul\":10131:10208   */\n      0x4e487b7100000000000000000000000000000000000000000000000000000000\n        /* \"#utility.yul\":10128:10129   */\n      0x00\n        /* \"#utility.yul\":10121:10209   */\n      mstore\n        /* \"#utility.yul\":10228:10232   */\n      0x41\n        /* \"#utility.yul\":10225:10226   */\n      0x04\n        /* \"#utility.yul\":10218:10233   */\n      mstore\n        /* \"#utility.yul\":10252:10256   */\n      0x24\n        /* \"#utility.yul\":10249:10250   */\n      0x00\n        /* \"#utility.yul\":10242:10257   */\n      revert\n        /* \"#utility.yul\":10269:10386   */\n    tag_97:\n        /* \"#utility.yul\":10378:10379   */\n      0x00\n        /* \"#utility.yul\":10375:10376   */\n      dup1\n        /* \"#utility.yul\":10368:10380   */\n      revert\n        /* \"#utility.yul\":10392:10509   */\n    tag_86:\n        /* \"#utility.yul\":10501:10502   */\n      0x00\n        /* \"#utility.yul\":10498:10499   */\n      dup1\n        /* \"#utility.yul\":10491:10503   */\n      revert\n        /* \"#utility.yul\":10515:10632   */\n    tag_109:\n        /* \"#utility.yul\":10624:10625   */\n      0x00\n        /* \"#utility.yul\":10621:10622   */\n      dup1\n        /* \"#utility.yul\":10614:10626   */\n      revert\n        /* \"#utility.yul\":10638:10755   */\n    tag_106:\n        /* \"#utility.yul\":10747:10748   */\n      0x00\n        /* \"#utility.yul\":10744:10745   */\n      dup1\n        /* \"#utility.yul\":10737:10749   */\n      revert\n        /* \"#utility.yul\":10761:10863   */\n    tag_134:\n        /* \"#utility.yul\":10802:10808   */\n      0x00\n        /* \"#utility.yul\":10853:10855   */\n      0x1f\n        /* \"#utility.yul\":10849:10856   */\n      not\n        /* \"#utility.yul\":10844:10846   */\n      0x1f\n        /* \"#utility.yul\":10837:10842   */\n      dup4\n        /* \"#utility.yul\":10833:10847   */\n      add\n        /* \"#utility.yul\":10829:10857   */\n      and\n        /* \"#utility.yul\":10819:10857   */\n      swap1\n      pop\n        /* \"#utility.yul\":10761:10863   */\n      swap2\n      swap1\n      pop\n      jump\t// out\n        /* \"#utility.yul\":10869:11044   */\n    tag_139:\n        /* \"#utility.yul\":11009:11036   */\n      0x596f752073686f756c64207370656369667920616d6f756e7400000000000000\n        /* \"#utility.yul\":11005:11006   */\n      0x00\n        /* \"#utility.yul\":10997:11003   */\n      dup3\n        /* \"#utility.yul\":10993:11007   */\n      add\n        /* \"#utility.yul\":10986:11037   */\n      mstore\n        /* \"#utility.yul\":10869:11044   */\n      pop\n      jump\t// out\n        /* \"#utility.yul\":11050:11279   */\n    tag_144:\n        /* \"#utility.yul\":11190:11224   */\n      0x596f75206861766520746f2063726561746520646f6e6174696f6e20666f7220\n        /* \"#utility.yul\":11186:11187   */\n      0x00\n        /* \"#utility.yul\":11178:11184   */\n      dup3\n        /* \"#utility.yul\":11174:11188   */\n      add\n        /* \"#utility.yul\":11167:11225   */\n      mstore\n        /* \"#utility.yul\":11259:11271   */\n      0x73656e6420657468657200000000000000000000000000000000000000000000\n        /* \"#utility.yul\":11254:11256   */\n      0x20\n        /* \"#utility.yul\":11246:11252   */\n      dup3\n        /* \"#utility.yul\":11242:11257   */\n      add\n        /* \"#utility.yul\":11235:11272   */\n      mstore\n        /* \"#utility.yul\":11050:11279   */\n      pop\n      jump\t// out\n        /* \"#utility.yul\":11285:11453   */\n    tag_149:\n        /* \"#utility.yul\":11425:11445   */\n      0x4e6f7420656e6f7567682062616c616e63650000000000000000000000000000\n        /* \"#utility.yul\":11421:11422   */\n      0x00\n        /* \"#utility.yul\":11413:11419   */\n      dup3\n        /* \"#utility.yul\":11409:11423   */\n      add\n        /* \"#utility.yul\":11402:11446   */\n      mstore\n        /* \"#utility.yul\":11285:11453   */\n      pop\n      jump\t// out\n        /* \"#utility.yul\":11459:11597   */\n    tag_92:\n        /* \"#utility.yul\":11540:11572   */\n      tag_230\n        /* \"#utility.yul\":11566:11571   */\n      dup2\n        /* \"#utility.yul\":11540:11572   */\n      tag_120\n      jump\t// in\n    tag_230:\n        /* \"#utility.yul\":11533:11538   */\n      dup2\n        /* \"#utility.yul\":11530:11573   */\n      eq\n        /* \"#utility.yul\":11520:11591   */\n      tag_231\n      jumpi\n        /* \"#utility.yul\":11587:11588   */\n      0x00\n        /* \"#utility.yul\":11584:11585   */\n      dup1\n        /* \"#utility.yul\":11577:11589   */\n      revert\n        /* \"#utility.yul\":11520:11591   */\n    tag_231:\n        /* \"#utility.yul\":11459:11597   */\n      pop\n      jump\t// out\n        /* \"#utility.yul\":11603:11725   */\n    tag_102:\n        /* \"#utility.yul\":11676:11700   */\n      tag_233\n        /* \"#utility.yul\":11694:11699   */\n      dup2\n        /* \"#utility.yul\":11676:11700   */\n      tag_153\n      jump\t// in\n    tag_233:\n        /* \"#utility.yul\":11669:11674   */\n      dup2\n        /* \"#utility.yul\":11666:11701   */\n      eq\n        /* \"#utility.yul\":11656:11719   */\n      tag_234\n      jumpi\n        /* \"#utility.yul\":11715:11716   */\n      0x00\n        /* \"#utility.yul\":11712:11713   */\n      dup1\n        /* \"#utility.yul\":11705:11717   */\n      revert\n        /* \"#utility.yul\":11656:11719   */\n    tag_234:\n        /* \"#utility.yul\":11603:11725   */\n      pop\n      jump\t// out\n\n    auxdata: 0xa2646970667358221220ea350f7d30ecffae32897fcf71ad8f2414e4142f8e19c61bc51d9e859d45d37164736f6c63430008070033\n}\n",
				"bytecode": {
					"linkReferences": {},
					"object": "608060405234801561001057600080fd5b5033600160006101000a81548173ffffffffffffffffffffffffffffffffffffffff021916908373ffffffffffffffffffffffffffffffffffffffff160217905550610cec806100616000396000f3fe6080604052600436106100555760003560e01c8063325ec7681461005a578063b5e051d914610064578063b69ef8a8146100a1578063f14faf6f146100cc578063f851a440146100f5578063f8626af814610120575b600080fd5b610062610160565b005b34801561007057600080fd5b5061008b600480360381019061008691906106d0565b6101bd565b6040516100989190610902565b60405180910390f35b3480156100ad57600080fd5b506100b66102fa565b6040516100c39190610902565b60405180910390f35b3480156100d857600080fd5b506100f360048036038101906100ee919061073f565b610300565b005b34801561010157600080fd5b5061010a610475565b604051610117919061083b565b60405180910390f35b34801561012c57600080fd5b506101476004803603810190610142919061073f565b61049b565b6040516101579493929190610856565b60405180910390f35b600034116101a3576040517f08c379a000000000000000000000000000000000000000000000000000000000815260040161019a906108a2565b60405180910390fd5b346000808282546101b491906109b8565b92505081905550565b6000806003600060025481526020019081526020016000209050338160000160006101000a81548173ffffffffffffffffffffffffffffffffffffffff021916908373ffffffffffffffffffffffffffffffffffffffff16021790555084816001019080519060200190610232929190610593565b50838160030160006101000a81548173ffffffffffffffffffffffffffffffffffffffff021916908373ffffffffffffffffffffffffffffffffffffffff1602179055508281600201819055508060020154600054116102c7576040517f08c379a00000000000000000000000000000000000000000000000000000000081526004016102be906108e2565b60405180910390fd5b6001600260008282546102da91906109b8565b9250508190555060016002546102f09190610a0e565b9150509392505050565b60005481565b60006003600083815260200190815260200160002090508060000160009054906101000a900473ffffffffffffffffffffffffffffffffffffffff1673ffffffffffffffffffffffffffffffffffffffff163373ffffffffffffffffffffffffffffffffffffffff16146103a9576040517f08c379a00000000000000000000000000000000000000000000000000000000081526004016103a0906108c2565b60405180910390fd5b8060030160009054906101000a900473ffffffffffffffffffffffffffffffffffffffff1673ffffffffffffffffffffffffffffffffffffffff166108fc82600201549081150290604051600060405180830381858888f19350505050158015610417573d6000803e3d6000fd5b50806002015460008082825461042d9190610a0e565b925050819055507f489807a5fd45f95df5a4da56d2ec4a895cd239ac44d0d9703ac6d8f0c590549c82826002015460405161046992919061091d565b60405180910390a15050565b600160009054906101000a900473ffffffffffffffffffffffffffffffffffffffff1681565b60036020528060005260406000206000915090508060000160009054906101000a900473ffffffffffffffffffffffffffffffffffffffff16908060010180546104e490610ad2565b80601f016020809104026020016040519081016040528092919081815260200182805461051090610ad2565b801561055d5780601f106105325761010080835404028352916020019161055d565b820191906000526020600020905b81548152906001019060200180831161054057829003601f168201915b5050505050908060020154908060030160009054906101000a900473ffffffffffffffffffffffffffffffffffffffff16905084565b82805461059f90610ad2565b90600052602060002090601f0160209004810192826105c15760008555610608565b82601f106105da57805160ff1916838001178555610608565b82800160010185558215610608579182015b828111156106075782518255916020019190600101906105ec565b5b5090506106159190610619565b5090565b5b8082111561063257600081600090555060010161061a565b5090565b60006106496106448461096b565b610946565b90508281526020810184848401111561066557610664610bc7565b5b610670848285610a90565b509392505050565b60008135905061068781610c88565b92915050565b600082601f8301126106a2576106a1610bc2565b5b81356106b2848260208601610636565b91505092915050565b6000813590506106ca81610c9f565b92915050565b6000806000606084860312156106e9576106e8610bd1565b5b600084013567ffffffffffffffff81111561070757610706610bcc565b5b6107138682870161068d565b935050602061072486828701610678565b9250506040610735868287016106bb565b9150509250925092565b60006020828403121561075557610754610bd1565b5b6000610763848285016106bb565b91505092915050565b61077581610a54565b82525050565b61078481610a42565b82525050565b60006107958261099c565b61079f81856109a7565b93506107af818560208601610a9f565b6107b881610bd6565b840191505092915050565b60006107d06019836109a7565b91506107db82610be7565b602082019050919050565b60006107f3602a836109a7565b91506107fe82610c10565b604082019050919050565b60006108166012836109a7565b915061082182610c5f565b602082019050919050565b61083581610a86565b82525050565b6000602082019050610850600083018461077b565b92915050565b600060808201905061086b600083018761077b565b818103602083015261087d818661078a565b905061088c604083018561082c565b610899606083018461076c565b95945050505050565b600060208201905081810360008301526108bb816107c3565b9050919050565b600060208201905081810360008301526108db816107e6565b9050919050565b600060208201905081810360008301526108fb81610809565b9050919050565b6000602082019050610917600083018461082c565b92915050565b6000604082019050610932600083018561082c565b61093f602083018461082c565b9392505050565b6000610950610961565b905061095c8282610b04565b919050565b6000604051905090565b600067ffffffffffffffff82111561098657610985610b93565b5b61098f82610bd6565b9050602081019050919050565b600081519050919050565b600082825260208201905092915050565b60006109c382610a86565b91506109ce83610a86565b9250827fffffffffffffffffffffffffffffffffffffffffffffffffffffffffffffffff03821115610a0357610a02610b35565b5b828201905092915050565b6000610a1982610a86565b9150610a2483610a86565b925082821015610a3757610a36610b35565b5b828203905092915050565b6000610a4d82610a66565b9050919050565b6000610a5f82610a66565b9050919050565b600073ffffffffffffffffffffffffffffffffffffffff82169050919050565b6000819050919050565b82818337600083830152505050565b60005b83811015610abd578082015181840152602081019050610aa2565b83811115610acc576000848401525b50505050565b60006002820490506001821680610aea57607f821691505b60208210811415610afe57610afd610b64565b5b50919050565b610b0d82610bd6565b810181811067ffffffffffffffff82111715610b2c57610b2b610b93565b5b80604052505050565b7f4e487b7100000000000000000000000000000000000000000000000000000000600052601160045260246000fd5b7f4e487b7100000000000000000000000000000000000000000000000000000000600052602260045260246000fd5b7f4e487b7100000000000000000000000000000000000000000000000000000000600052604160045260246000fd5b600080fd5b600080fd5b600080fd5b600080fd5b6000601f19601f8301169050919050565b7f596f752073686f756c64207370656369667920616d6f756e7400000000000000600082015250565b7f596f75206861766520746f2063726561746520646f6e6174696f6e20666f722060008201527f73656e6420657468657200000000000000000000000000000000000000000000602082015250565b7f4e6f7420656e6f7567682062616c616e63650000000000000000000000000000600082015250565b610c9181610a54565b8114610c9c57600080fd5b50565b610ca881610a86565b8114610cb357600080fd5b5056fea2646970667358221220ea350f7d30ecffae32897fcf71ad8f2414e4142f8e19c61bc51d9e859d45d37164736f6c63430008070033",
					"opcodes": "PUSH1 0x80 PUSH1 0x40 MSTORE CALLVALUE DUP1 ISZERO PUSH2 0x10 JUMPI PUSH1 0x0 DUP1 REVERT JUMPDEST POP CALLER PUSH1 0x1 PUSH1 0x0 PUSH2 0x100 EXP DUP2 SLOAD DUP2 PUSH20 0xFFFFFFFFFFFFFFFFFFFFFFFFFFFFFFFFFFFFFFFF MUL NOT AND SWAP1 DUP4 PUSH20 0xFFFFFFFFFFFFFFFFFFFFFFFFFFFFFFFFFFFFFFFF AND MUL OR SWAP1 SSTORE POP PUSH2 0xCEC DUP1 PUSH2 0x61 PUSH1 0x0 CODECOPY PUSH1 0x0 RETURN INVALID PUSH1 0x80 PUSH1 0x40 MSTORE PUSH1 0x4 CALLDATASIZE LT PUSH2 0x55 JUMPI PUSH1 0x0 CALLDATALOAD PUSH1 0xE0 SHR DUP1 PUSH4 0x325EC768 EQ PUSH2 0x5A JUMPI DUP1 PUSH4 0xB5E051D9 EQ PUSH2 0x64 JUMPI DUP1 PUSH4 0xB69EF8A8 EQ PUSH2 0xA1 JUMPI DUP1 PUSH4 0xF14FAF6F EQ PUSH2 0xCC JUMPI DUP1 PUSH4 0xF851A440 EQ PUSH2 0xF5 JUMPI DUP1 PUSH4 0xF8626AF8 EQ PUSH2 0x120 JUMPI JUMPDEST PUSH1 0x0 DUP1 REVERT JUMPDEST PUSH2 0x62 PUSH2 0x160 JUMP JUMPDEST STOP JUMPDEST CALLVALUE DUP1 ISZERO PUSH2 0x70 JUMPI PUSH1 0x0 DUP1 REVERT JUMPDEST POP PUSH2 0x8B PUSH1 0x4 DUP1 CALLDATASIZE SUB DUP2 ADD SWAP1 PUSH2 0x86 SWAP2 SWAP1 PUSH2 0x6D0 JUMP JUMPDEST PUSH2 0x1BD JUMP JUMPDEST PUSH1 0x40 MLOAD PUSH2 0x98 SWAP2 SWAP1 PUSH2 0x902 JUMP JUMPDEST PUSH1 0x40 MLOAD DUP1 SWAP2 SUB SWAP1 RETURN JUMPDEST CALLVALUE DUP1 ISZERO PUSH2 0xAD JUMPI PUSH1 0x0 DUP1 REVERT JUMPDEST POP PUSH2 0xB6 PUSH2 0x2FA JUMP JUMPDEST PUSH1 0x40 MLOAD PUSH2 0xC3 SWAP2 SWAP1 PUSH2 0x902 JUMP JUMPDEST PUSH1 0x40 MLOAD DUP1 SWAP2 SUB SWAP1 RETURN JUMPDEST CALLVALUE DUP1 ISZERO PUSH2 0xD8 JUMPI PUSH1 0x0 DUP1 REVERT JUMPDEST POP PUSH2 0xF3 PUSH1 0x4 DUP1 CALLDATASIZE SUB DUP2 ADD SWAP1 PUSH2 0xEE SWAP2 SWAP1 PUSH2 0x73F JUMP JUMPDEST PUSH2 0x300 JUMP JUMPDEST STOP JUMPDEST CALLVALUE DUP1 ISZERO PUSH2 0x101 JUMPI PUSH1 0x0 DUP1 REVERT JUMPDEST POP PUSH2 0x10A PUSH2 0x475 JUMP JUMPDEST PUSH1 0x40 MLOAD PUSH2 0x117 SWAP2 SWAP1 PUSH2 0x83B JUMP JUMPDEST PUSH1 0x40 MLOAD DUP1 SWAP2 SUB SWAP1 RETURN JUMPDEST CALLVALUE DUP1 ISZERO PUSH2 0x12C JUMPI PUSH1 0x0 DUP1 REVERT JUMPDEST POP PUSH2 0x147 PUSH1 0x4 DUP1 CALLDATASIZE SUB DUP2 ADD SWAP1 PUSH2 0x142 SWAP2 SWAP1 PUSH2 0x73F JUMP JUMPDEST PUSH2 0x49B JUMP JUMPDEST PUSH1 0x40 MLOAD PUSH2 0x157 SWAP5 SWAP4 SWAP3 SWAP2 SWAP1 PUSH2 0x856 JUMP JUMPDEST PUSH1 0x40 MLOAD DUP1 SWAP2 SUB SWAP1 RETURN JUMPDEST PUSH1 0x0 CALLVALUE GT PUSH2 0x1A3 JUMPI PUSH1 0x40 MLOAD PUSH32 0x8C379A000000000000000000000000000000000000000000000000000000000 DUP2 MSTORE PUSH1 0x4 ADD PUSH2 0x19A SWAP1 PUSH2 0x8A2 JUMP JUMPDEST PUSH1 0x40 MLOAD DUP1 SWAP2 SUB SWAP1 REVERT JUMPDEST CALLVALUE PUSH1 0x0 DUP1 DUP3 DUP3 SLOAD PUSH2 0x1B4 SWAP2 SWAP1 PUSH2 0x9B8 JUMP JUMPDEST SWAP3 POP POP DUP2 SWAP1 SSTORE POP JUMP JUMPDEST PUSH1 0x0 DUP1 PUSH1 0x3 PUSH1 0x0 PUSH1 0x2 SLOAD DUP2 MSTORE PUSH1 0x20 ADD SWAP1 DUP2 MSTORE PUSH1 0x20 ADD PUSH1 0x0 KECCAK256 SWAP1 POP CALLER DUP2 PUSH1 0x0 ADD PUSH1 0x0 PUSH2 0x100 EXP DUP2 SLOAD DUP2 PUSH20 0xFFFFFFFFFFFFFFFFFFFFFFFFFFFFFFFFFFFFFFFF MUL NOT AND SWAP1 DUP4 PUSH20 0xFFFFFFFFFFFFFFFFFFFFFFFFFFFFFFFFFFFFFFFF AND MUL OR SWAP1 SSTORE POP DUP5 DUP2 PUSH1 0x1 ADD SWAP1 DUP1 MLOAD SWAP1 PUSH1 0x20 ADD SWAP1 PUSH2 0x232 SWAP3 SWAP2 SWAP1 PUSH2 0x593 JUMP JUMPDEST POP DUP4 DUP2 PUSH1 0x3 ADD PUSH1 0x0 PUSH2 0x100 EXP DUP2 SLOAD DUP2 PUSH20 0xFFFFFFFFFFFFFFFFFFFFFFFFFFFFFFFFFFFFFFFF MUL NOT AND SWAP1 DUP4 PUSH20 0xFFFFFFFFFFFFFFFFFFFFFFFFFFFFFFFFFFFFFFFF AND MUL OR SWAP1 SSTORE POP DUP3 DUP2 PUSH1 0x2 ADD DUP2 SWAP1 SSTORE POP DUP1 PUSH1 0x2 ADD SLOAD PUSH1 0x0 SLOAD GT PUSH2 0x2C7 JUMPI PUSH1 0x40 MLOAD PUSH32 0x8C379A000000000000000000000000000000000000000000000000000000000 DUP2 MSTORE PUSH1 0x4 ADD PUSH2 0x2BE SWAP1 PUSH2 0x8E2 JUMP JUMPDEST PUSH1 0x40 MLOAD DUP1 SWAP2 SUB SWAP1 REVERT JUMPDEST PUSH1 0x1 PUSH1 0x2 PUSH1 0x0 DUP3 DUP3 SLOAD PUSH2 0x2DA SWAP2 SWAP1 PUSH2 0x9B8 JUMP JUMPDEST SWAP3 POP POP DUP2 SWAP1 SSTORE POP PUSH1 0x1 PUSH1 0x2 SLOAD PUSH2 0x2F0 SWAP2 SWAP1 PUSH2 0xA0E JUMP JUMPDEST SWAP2 POP POP SWAP4 SWAP3 POP POP POP JUMP JUMPDEST PUSH1 0x0 SLOAD DUP2 JUMP JUMPDEST PUSH1 0x0 PUSH1 0x3 PUSH1 0x0 DUP4 DUP2 MSTORE PUSH1 0x20 ADD SWAP1 DUP2 MSTORE PUSH1 0x20 ADD PUSH1 0x0 KECCAK256 SWAP1 POP DUP1 PUSH1 0x0 ADD PUSH1 0x0 SWAP1 SLOAD SWAP1 PUSH2 0x100 EXP SWAP1 DIV PUSH20 0xFFFFFFFFFFFFFFFFFFFFFFFFFFFFFFFFFFFFFFFF AND PUSH20 0xFFFFFFFFFFFFFFFFFFFFFFFFFFFFFFFFFFFFFFFF AND CALLER PUSH20 0xFFFFFFFFFFFFFFFFFFFFFFFFFFFFFFFFFFFFFFFF AND EQ PUSH2 0x3A9 JUMPI PUSH1 0x40 MLOAD PUSH32 0x8C379A000000000000000000000000000000000000000000000000000000000 DUP2 MSTORE PUSH1 0x4 ADD PUSH2 0x3A0 SWAP1 PUSH2 0x8C2 JUMP JUMPDEST PUSH1 0x40 MLOAD DUP1 SWAP2 SUB SWAP1 REVERT JUMPDEST DUP1 PUSH1 0x3 ADD PUSH1 0x0 SWAP1 SLOAD SWAP1 PUSH2 0x100 EXP SWAP1 DIV PUSH20 0xFFFFFFFFFFFFFFFFFFFFFFFFFFFFFFFFFFFFFFFF AND PUSH20 0xFFFFFFFFFFFFFFFFFFFFFFFFFFFFFFFFFFFFFFFF AND PUSH2 0x8FC DUP3 PUSH1 0x2 ADD SLOAD SWAP1 DUP2 ISZERO MUL SWAP1 PUSH1 0x40 MLOAD PUSH1 0x0 PUSH1 0x40 MLOAD DUP1 DUP4 SUB DUP2 DUP6 DUP9 DUP9 CALL SWAP4 POP POP POP POP ISZERO DUP1 ISZERO PUSH2 0x417 JUMPI RETURNDATASIZE PUSH1 0x0 DUP1 RETURNDATACOPY RETURNDATASIZE PUSH1 0x0 REVERT JUMPDEST POP DUP1 PUSH1 0x2 ADD SLOAD PUSH1 0x0 DUP1 DUP3 DUP3 SLOAD PUSH2 0x42D SWAP2 SWAP1 PUSH2 0xA0E JUMP JUMPDEST SWAP3 POP POP DUP2 SWAP1 SSTORE POP PUSH32 0x489807A5FD45F95DF5A4DA56D2EC4A895CD239AC44D0D9703AC6D8F0C590549C DUP3 DUP3 PUSH1 0x2 ADD SLOAD PUSH1 0x40 MLOAD PUSH2 0x469 SWAP3 SWAP2 SWAP1 PUSH2 0x91D JUMP JUMPDEST PUSH1 0x40 MLOAD DUP1 SWAP2 SUB SWAP1 LOG1 POP POP JUMP JUMPDEST PUSH1 0x1 PUSH1 0x0 SWAP1 SLOAD SWAP1 PUSH2 0x100 EXP SWAP1 DIV PUSH20 0xFFFFFFFFFFFFFFFFFFFFFFFFFFFFFFFFFFFFFFFF AND DUP2 JUMP JUMPDEST PUSH1 0x3 PUSH1 0x20 MSTORE DUP1 PUSH1 0x0 MSTORE PUSH1 0x40 PUSH1 0x0 KECCAK256 PUSH1 0x0 SWAP2 POP SWAP1 POP DUP1 PUSH1 0x0 ADD PUSH1 0x0 SWAP1 SLOAD SWAP1 PUSH2 0x100 EXP SWAP1 DIV PUSH20 0xFFFFFFFFFFFFFFFFFFFFFFFFFFFFFFFFFFFFFFFF AND SWAP1 DUP1 PUSH1 0x1 ADD DUP1 SLOAD PUSH2 0x4E4 SWAP1 PUSH2 0xAD2 JUMP JUMPDEST DUP1 PUSH1 0x1F ADD PUSH1 0x20 DUP1 SWAP2 DIV MUL PUSH1 0x20 ADD PUSH1 0x40 MLOAD SWAP1 DUP2 ADD PUSH1 0x40 MSTORE DUP1 SWAP3 SWAP2 SWAP1 DUP2 DUP2 MSTORE PUSH1 0x20 ADD DUP3 DUP1 SLOAD PUSH2 0x510 SWAP1 PUSH2 0xAD2 JUMP JUMPDEST DUP1 ISZERO PUSH2 0x55D JUMPI DUP1 PUSH1 0x1F LT PUSH2 0x532 JUMPI PUSH2 0x100 DUP1 DUP4 SLOAD DIV MUL DUP4 MSTORE SWAP2 PUSH1 0x20 ADD SWAP2 PUSH2 0x55D JUMP JUMPDEST DUP3 ADD SWAP2 SWAP1 PUSH1 0x0 MSTORE PUSH1 0x20 PUSH1 0x0 KECCAK256 SWAP1 JUMPDEST DUP2 SLOAD DUP2 MSTORE SWAP1 PUSH1 0x1 ADD SWAP1 PUSH1 0x20 ADD DUP1 DUP4 GT PUSH2 0x540 JUMPI DUP3 SWAP1 SUB PUSH1 0x1F AND DUP3 ADD SWAP2 JUMPDEST POP POP POP POP POP SWAP1 DUP1 PUSH1 0x2 ADD SLOAD SWAP1 DUP1 PUSH1 0x3 ADD PUSH1 0x0 SWAP1 SLOAD SWAP1 PUSH2 0x100 EXP SWAP1 DIV PUSH20 0xFFFFFFFFFFFFFFFFFFFFFFFFFFFFFFFFFFFFFFFF AND SWAP1 POP DUP5 JUMP JUMPDEST DUP3 DUP1 SLOAD PUSH2 0x59F SWAP1 PUSH2 0xAD2 JUMP JUMPDEST SWAP1 PUSH1 0x0 MSTORE PUSH1 0x20 PUSH1 0x0 KECCAK256 SWAP1 PUSH1 0x1F ADD PUSH1 0x20 SWAP1 DIV DUP2 ADD SWAP3 DUP3 PUSH2 0x5C1 JUMPI PUSH1 0x0 DUP6 SSTORE PUSH2 0x608 JUMP JUMPDEST DUP3 PUSH1 0x1F LT PUSH2 0x5DA JUMPI DUP1 MLOAD PUSH1 0xFF NOT AND DUP4 DUP1 ADD OR DUP6 SSTORE PUSH2 0x608 JUMP JUMPDEST DUP3 DUP1 ADD PUSH1 0x1 ADD DUP6 SSTORE DUP3 ISZERO PUSH2 0x608 JUMPI SWAP2 DUP3 ADD JUMPDEST DUP3 DUP2 GT ISZERO PUSH2 0x607 JUMPI DUP3 MLOAD DUP3 SSTORE SWAP2 PUSH1 0x20 ADD SWAP2 SWAP1 PUSH1 0x1 ADD SWAP1 PUSH2 0x5EC JUMP JUMPDEST JUMPDEST POP SWAP1 POP PUSH2 0x615 SWAP2 SWAP1 PUSH2 0x619 JUMP JUMPDEST POP SWAP1 JUMP JUMPDEST JUMPDEST DUP1 DUP3 GT ISZERO PUSH2 0x632 JUMPI PUSH1 0x0 DUP2 PUSH1 0x0 SWAP1 SSTORE POP PUSH1 0x1 ADD PUSH2 0x61A JUMP JUMPDEST POP SWAP1 JUMP JUMPDEST PUSH1 0x0 PUSH2 0x649 PUSH2 0x644 DUP5 PUSH2 0x96B JUMP JUMPDEST PUSH2 0x946 JUMP JUMPDEST SWAP1 POP DUP3 DUP2 MSTORE PUSH1 0x20 DUP2 ADD DUP5 DUP5 DUP5 ADD GT ISZERO PUSH2 0x665 JUMPI PUSH2 0x664 PUSH2 0xBC7 JUMP JUMPDEST JUMPDEST PUSH2 0x670 DUP5 DUP3 DUP6 PUSH2 0xA90 JUMP JUMPDEST POP SWAP4 SWAP3 POP POP POP JUMP JUMPDEST PUSH1 0x0 DUP2 CALLDATALOAD SWAP1 POP PUSH2 0x687 DUP2 PUSH2 0xC88 JUMP JUMPDEST SWAP3 SWAP2 POP POP JUMP JUMPDEST PUSH1 0x0 DUP3 PUSH1 0x1F DUP4 ADD SLT PUSH2 0x6A2 JUMPI PUSH2 0x6A1 PUSH2 0xBC2 JUMP JUMPDEST JUMPDEST DUP2 CALLDATALOAD PUSH2 0x6B2 DUP5 DUP3 PUSH1 0x20 DUP7 ADD PUSH2 0x636 JUMP JUMPDEST SWAP2 POP POP SWAP3 SWAP2 POP POP JUMP JUMPDEST PUSH1 0x0 DUP2 CALLDATALOAD SWAP1 POP PUSH2 0x6CA DUP2 PUSH2 0xC9F JUMP JUMPDEST SWAP3 SWAP2 POP POP JUMP JUMPDEST PUSH1 0x0 DUP1 PUSH1 0x0 PUSH1 0x60 DUP5 DUP7 SUB SLT ISZERO PUSH2 0x6E9 JUMPI PUSH2 0x6E8 PUSH2 0xBD1 JUMP JUMPDEST JUMPDEST PUSH1 0x0 DUP5 ADD CALLDATALOAD PUSH8 0xFFFFFFFFFFFFFFFF DUP2 GT ISZERO PUSH2 0x707 JUMPI PUSH2 0x706 PUSH2 0xBCC JUMP JUMPDEST JUMPDEST PUSH2 0x713 DUP7 DUP3 DUP8 ADD PUSH2 0x68D JUMP JUMPDEST SWAP4 POP POP PUSH1 0x20 PUSH2 0x724 DUP7 DUP3 DUP8 ADD PUSH2 0x678 JUMP JUMPDEST SWAP3 POP POP PUSH1 0x40 PUSH2 0x735 DUP7 DUP3 DUP8 ADD PUSH2 0x6BB JUMP JUMPDEST SWAP2 POP POP SWAP3 POP SWAP3 POP SWAP3 JUMP JUMPDEST PUSH1 0x0 PUSH1 0x20 DUP3 DUP5 SUB SLT ISZERO PUSH2 0x755 JUMPI PUSH2 0x754 PUSH2 0xBD1 JUMP JUMPDEST JUMPDEST PUSH1 0x0 PUSH2 0x763 DUP5 DUP3 DUP6 ADD PUSH2 0x6BB JUMP JUMPDEST SWAP2 POP POP SWAP3 SWAP2 POP POP JUMP JUMPDEST PUSH2 0x775 DUP2 PUSH2 0xA54 JUMP JUMPDEST DUP3 MSTORE POP POP JUMP JUMPDEST PUSH2 0x784 DUP2 PUSH2 0xA42 JUMP JUMPDEST DUP3 MSTORE POP POP JUMP JUMPDEST PUSH1 0x0 PUSH2 0x795 DUP3 PUSH2 0x99C JUMP JUMPDEST PUSH2 0x79F DUP2 DUP6 PUSH2 0x9A7 JUMP JUMPDEST SWAP4 POP PUSH2 0x7AF DUP2 DUP6 PUSH1 0x20 DUP7 ADD PUSH2 0xA9F JUMP JUMPDEST PUSH2 0x7B8 DUP2 PUSH2 0xBD6 JUMP JUMPDEST DUP5 ADD SWAP2 POP POP SWAP3 SWAP2 POP POP JUMP JUMPDEST PUSH1 0x0 PUSH2 0x7D0 PUSH1 0x19 DUP4 PUSH2 0x9A7 JUMP JUMPDEST SWAP2 POP PUSH2 0x7DB DUP3 PUSH2 0xBE7 JUMP JUMPDEST PUSH1 0x20 DUP3 ADD SWAP1 POP SWAP2 SWAP1 POP JUMP JUMPDEST PUSH1 0x0 PUSH2 0x7F3 PUSH1 0x2A DUP4 PUSH2 0x9A7 JUMP JUMPDEST SWAP2 POP PUSH2 0x7FE DUP3 PUSH2 0xC10 JUMP JUMPDEST PUSH1 0x40 DUP3 ADD SWAP1 POP SWAP2 SWAP1 POP JUMP JUMPDEST PUSH1 0x0 PUSH2 0x816 PUSH1 0x12 DUP4 PUSH2 0x9A7 JUMP JUMPDEST SWAP2 POP PUSH2 0x821 DUP3 PUSH2 0xC5F JUMP JUMPDEST PUSH1 0x20 DUP3 ADD SWAP1 POP SWAP2 SWAP1 POP JUMP JUMPDEST PUSH2 0x835 DUP2 PUSH2 0xA86 JUMP JUMPDEST DUP3 MSTORE POP POP JUMP JUMPDEST PUSH1 0x0 PUSH1 0x20 DUP3 ADD SWAP1 POP PUSH2 0x850 PUSH1 0x0 DUP4 ADD DUP5 PUSH2 0x77B JUMP JUMPDEST SWAP3 SWAP2 POP POP JUMP JUMPDEST PUSH1 0x0 PUSH1 0x80 DUP3 ADD SWAP1 POP PUSH2 0x86B PUSH1 0x0 DUP4 ADD DUP8 PUSH2 0x77B JUMP JUMPDEST DUP2 DUP2 SUB PUSH1 0x20 DUP4 ADD MSTORE PUSH2 0x87D DUP2 DUP7 PUSH2 0x78A JUMP JUMPDEST SWAP1 POP PUSH2 0x88C PUSH1 0x40 DUP4 ADD DUP6 PUSH2 0x82C JUMP JUMPDEST PUSH2 0x899 PUSH1 0x60 DUP4 ADD DUP5 PUSH2 0x76C JUMP JUMPDEST SWAP6 SWAP5 POP POP POP POP POP JUMP JUMPDEST PUSH1 0x0 PUSH1 0x20 DUP3 ADD SWAP1 POP DUP2 DUP2 SUB PUSH1 0x0 DUP4 ADD MSTORE PUSH2 0x8BB DUP2 PUSH2 0x7C3 JUMP JUMPDEST SWAP1 POP SWAP2 SWAP1 POP JUMP JUMPDEST PUSH1 0x0 PUSH1 0x20 DUP3 ADD SWAP1 POP DUP2 DUP2 SUB PUSH1 0x0 DUP4 ADD MSTORE PUSH2 0x8DB DUP2 PUSH2 0x7E6 JUMP JUMPDEST SWAP1 POP SWAP2 SWAP1 POP JUMP JUMPDEST PUSH1 0x0 PUSH1 0x20 DUP3 ADD SWAP1 POP DUP2 DUP2 SUB PUSH1 0x0 DUP4 ADD MSTORE PUSH2 0x8FB DUP2 PUSH2 0x809 JUMP JUMPDEST SWAP1 POP SWAP2 SWAP1 POP JUMP JUMPDEST PUSH1 0x0 PUSH1 0x20 DUP3 ADD SWAP1 POP PUSH2 0x917 PUSH1 0x0 DUP4 ADD DUP5 PUSH2 0x82C JUMP JUMPDEST SWAP3 SWAP2 POP POP JUMP JUMPDEST PUSH1 0x0 PUSH1 0x40 DUP3 ADD SWAP1 POP PUSH2 0x932 PUSH1 0x0 DUP4 ADD DUP6 PUSH2 0x82C JUMP JUMPDEST PUSH2 0x93F PUSH1 0x20 DUP4 ADD DUP5 PUSH2 0x82C JUMP JUMPDEST SWAP4 SWAP3 POP POP POP JUMP JUMPDEST PUSH1 0x0 PUSH2 0x950 PUSH2 0x961 JUMP JUMPDEST SWAP1 POP PUSH2 0x95C DUP3 DUP3 PUSH2 0xB04 JUMP JUMPDEST SWAP2 SWAP1 POP JUMP JUMPDEST PUSH1 0x0 PUSH1 0x40 MLOAD SWAP1 POP SWAP1 JUMP JUMPDEST PUSH1 0x0 PUSH8 0xFFFFFFFFFFFFFFFF DUP3 GT ISZERO PUSH2 0x986 JUMPI PUSH2 0x985 PUSH2 0xB93 JUMP JUMPDEST JUMPDEST PUSH2 0x98F DUP3 PUSH2 0xBD6 JUMP JUMPDEST SWAP1 POP PUSH1 0x20 DUP2 ADD SWAP1 POP SWAP2 SWAP1 POP JUMP JUMPDEST PUSH1 0x0 DUP2 MLOAD SWAP1 POP SWAP2 SWAP1 POP JUMP JUMPDEST PUSH1 0x0 DUP3 DUP3 MSTORE PUSH1 0x20 DUP3 ADD SWAP1 POP SWAP3 SWAP2 POP POP JUMP JUMPDEST PUSH1 0x0 PUSH2 0x9C3 DUP3 PUSH2 0xA86 JUMP JUMPDEST SWAP2 POP PUSH2 0x9CE DUP4 PUSH2 0xA86 JUMP JUMPDEST SWAP3 POP DUP3 PUSH32 0xFFFFFFFFFFFFFFFFFFFFFFFFFFFFFFFFFFFFFFFFFFFFFFFFFFFFFFFFFFFFFFFF SUB DUP3 GT ISZERO PUSH2 0xA03 JUMPI PUSH2 0xA02 PUSH2 0xB35 JUMP JUMPDEST JUMPDEST DUP3 DUP3 ADD SWAP1 POP SWAP3 SWAP2 POP POP JUMP JUMPDEST PUSH1 0x0 PUSH2 0xA19 DUP3 PUSH2 0xA86 JUMP JUMPDEST SWAP2 POP PUSH2 0xA24 DUP4 PUSH2 0xA86 JUMP JUMPDEST SWAP3 POP DUP3 DUP3 LT ISZERO PUSH2 0xA37 JUMPI PUSH2 0xA36 PUSH2 0xB35 JUMP JUMPDEST JUMPDEST DUP3 DUP3 SUB SWAP1 POP SWAP3 SWAP2 POP POP JUMP JUMPDEST PUSH1 0x0 PUSH2 0xA4D DUP3 PUSH2 0xA66 JUMP JUMPDEST SWAP1 POP SWAP2 SWAP1 POP JUMP JUMPDEST PUSH1 0x0 PUSH2 0xA5F DUP3 PUSH2 0xA66 JUMP JUMPDEST SWAP1 POP SWAP2 SWAP1 POP JUMP JUMPDEST PUSH1 0x0 PUSH20 0xFFFFFFFFFFFFFFFFFFFFFFFFFFFFFFFFFFFFFFFF DUP3 AND SWAP1 POP SWAP2 SWAP1 POP JUMP JUMPDEST PUSH1 0x0 DUP2 SWAP1 POP SWAP2 SWAP1 POP JUMP JUMPDEST DUP3 DUP2 DUP4 CALLDATACOPY PUSH1 0x0 DUP4 DUP4 ADD MSTORE POP POP POP JUMP JUMPDEST PUSH1 0x0 JUMPDEST DUP4 DUP2 LT ISZERO PUSH2 0xABD JUMPI DUP1 DUP3 ADD MLOAD DUP2 DUP5 ADD MSTORE PUSH1 0x20 DUP2 ADD SWAP1 POP PUSH2 0xAA2 JUMP JUMPDEST DUP4 DUP2 GT ISZERO PUSH2 0xACC JUMPI PUSH1 0x0 DUP5 DUP5 ADD MSTORE JUMPDEST POP POP POP POP JUMP JUMPDEST PUSH1 0x0 PUSH1 0x2 DUP3 DIV SWAP1 POP PUSH1 0x1 DUP3 AND DUP1 PUSH2 0xAEA JUMPI PUSH1 0x7F DUP3 AND SWAP2 POP JUMPDEST PUSH1 0x20 DUP3 LT DUP2 EQ ISZERO PUSH2 0xAFE JUMPI PUSH2 0xAFD PUSH2 0xB64 JUMP JUMPDEST JUMPDEST POP SWAP2 SWAP1 POP JUMP JUMPDEST PUSH2 0xB0D DUP3 PUSH2 0xBD6 JUMP JUMPDEST DUP2 ADD DUP2 DUP2 LT PUSH8 0xFFFFFFFFFFFFFFFF DUP3 GT OR ISZERO PUSH2 0xB2C JUMPI PUSH2 0xB2B PUSH2 0xB93 JUMP JUMPDEST JUMPDEST DUP1 PUSH1 0x40 MSTORE POP POP POP JUMP JUMPDEST PUSH32 0x4E487B7100000000000000000000000000000000000000000000000000000000 PUSH1 0x0 MSTORE PUSH1 0x11 PUSH1 0x4 MSTORE PUSH1 0x24 PUSH1 0x0 REVERT JUMPDEST PUSH32 0x4E487B7100000000000000000000000000000000000000000000000000000000 PUSH1 0x0 MSTORE PUSH1 0x22 PUSH1 0x4 MSTORE PUSH1 0x24 PUSH1 0x0 REVERT JUMPDEST PUSH32 0x4E487B7100000000000000000000000000000000000000000000000000000000 PUSH1 0x0 MSTORE PUSH1 0x41 PUSH1 0x4 MSTORE PUSH1 0x24 PUSH1 0x0 REVERT JUMPDEST PUSH1 0x0 DUP1 REVERT JUMPDEST PUSH1 0x0 DUP1 REVERT JUMPDEST PUSH1 0x0 DUP1 REVERT JUMPDEST PUSH1 0x0 DUP1 REVERT JUMPDEST PUSH1 0x0 PUSH1 0x1F NOT PUSH1 0x1F DUP4 ADD AND SWAP1 POP SWAP2 SWAP1 POP JUMP JUMPDEST PUSH32 0x596F752073686F756C64207370656369667920616D6F756E7400000000000000 PUSH1 0x0 DUP3 ADD MSTORE POP JUMP JUMPDEST PUSH32 0x596F75206861766520746F2063726561746520646F6E6174696F6E20666F7220 PUSH1 0x0 DUP3 ADD MSTORE PUSH32 0x73656E6420657468657200000000000000000000000000000000000000000000 PUSH1 0x20 DUP3 ADD MSTORE POP JUMP JUMPDEST PUSH32 0x4E6F7420656E6F7567682062616C616E63650000000000000000000000000000 PUSH1 0x0 DUP3 ADD MSTORE POP JUMP JUMPDEST PUSH2 0xC91 DUP2 PUSH2 0xA54 JUMP JUMPDEST DUP2 EQ PUSH2 0xC9C JUMPI PUSH1 0x0 DUP1 REVERT JUMPDEST POP JUMP JUMPDEST PUSH2 0xCA8 DUP2 PUSH2 0xA86 JUMP JUMPDEST DUP2 EQ PUSH2 0xCB3 JUMPI PUSH1 0x0 DUP1 REVERT JUMPDEST POP JUMP INVALID LOG2 PUSH5 0x6970667358 0x22 SLT KECCAK256 0xEA CALLDATALOAD 0xF PUSH30 0x30ECFFAE32897FCF71AD8F2414E4142F8E19C61BC51D9E859D45D3716473 PUSH16 0x6C634300080700330000000000000000 "
				},
				"gasEstimates": {
					"creation": {
						"codeDepositCost": "661600",
						"executionCost": "24962",
						"totalCost": "686562"
					},
					"external": {
						"admin()": "2580",
						"balance()": "2451",
						"createDonation(string,address,uint256)": "infinite",
						"donate(uint256)": "infinite",
						"donations(uint256)": "infinite",
						"sendEtherToContract()": "infinite"
					}
				},
				"methodIdentifiers": {
					"admin()": "f851a440",
					"balance()": "b69ef8a8",
					"createDonation(string,address,uint256)": "b5e051d9",
					"donate(uint256)": "f14faf6f",
					"donations(uint256)": "f8626af8",
					"sendEtherToContract()": "325ec768"
				}
			},
			"storageLayout": {
				"storage": [
					{
						"astId": 3,
						"contract": "contracts/FinalCase/DonateStreamer.sol:DonateStreamer",
						"label": "balance",
						"offset": 0,
						"slot": "0",
						"type": "t_uint256"
					},
					{
						"astId": 5,
						"contract": "contracts/FinalCase/DonateStreamer.sol:DonateStreamer",
						"label": "admin",
						"offset": 0,
						"slot": "1",
						"type": "t_address"
					},
					{
						"astId": 25,
						"contract": "contracts/FinalCase/DonateStreamer.sol:DonateStreamer",
						"label": "totalDonations",
						"offset": 0,
						"slot": "2",
						"type": "t_uint256"
					},
					{
						"astId": 30,
						"contract": "contracts/FinalCase/DonateStreamer.sol:DonateStreamer",
						"label": "donations",
						"offset": 0,
						"slot": "3",
						"type": "t_mapping(t_uint256,t_struct(Donation)23_storage)"
					}
				],
				"types": {
					"t_address": {
						"encoding": "inplace",
						"label": "address",
						"numberOfBytes": "20"
					},
					"t_address_payable": {
						"encoding": "inplace",
						"label": "address payable",
						"numberOfBytes": "20"
					},
					"t_mapping(t_uint256,t_struct(Donation)23_storage)": {
						"encoding": "mapping",
						"key": "t_uint256",
						"label": "mapping(uint256 => struct DonateStreamer.Donation)",
						"numberOfBytes": "32",
						"value": "t_struct(Donation)23_storage"
					},
					"t_string_storage": {
						"encoding": "bytes",
						"label": "string",
						"numberOfBytes": "32"
					},
					"t_struct(Donation)23_storage": {
						"encoding": "inplace",
						"label": "struct DonateStreamer.Donation",
						"members": [
							{
								"astId": 16,
								"contract": "contracts/FinalCase/DonateStreamer.sol:DonateStreamer",
								"label": "creator",
								"offset": 0,
								"slot": "0",
								"type": "t_address"
							},
							{
								"astId": 18,
								"contract": "contracts/FinalCase/DonateStreamer.sol:DonateStreamer",
								"label": "name",
								"offset": 0,
								"slot": "1",
								"type": "t_string_storage"
							},
							{
								"astId": 20,
								"contract": "contracts/FinalCase/DonateStreamer.sol:DonateStreamer",
								"label": "amount",
								"offset": 0,
								"slot": "2",
								"type": "t_uint256"
							},
							{
								"astId": 22,
								"contract": "contracts/FinalCase/DonateStreamer.sol:DonateStreamer",
								"label": "streamer",
								"offset": 0,
								"slot": "3",
								"type": "t_address_payable"
							}
						],
						"numberOfBytes": "128"
					},
					"t_uint256": {
						"encoding": "inplace",
						"label": "uint256",
						"numberOfBytes": "32"
					}
				}
			},
			"userdoc": {
				"kind": "user",
				"methods": {},
				"version": 1
			}
		}
	}
}