{
	"contracts/FinalCase/DonateStreamer.sol": {
		"DonateStreamer": {
			"abi": [
				{
					"anonymous": false,
					"inputs": [
						{
							"indexed": false,
							"internalType": "uint256",
							"name": "donationsId",
							"type": "uint256"
						},
						{
							"indexed": false,
							"internalType": "uint256",
							"name": "amount",
							"type": "uint256"
						}
					],
					"name": "Donate",
					"type": "event"
				},
				{
					"inputs": [],
					"name": "balance",
					"outputs": [
						{
							"internalType": "uint256",
							"name": "",
							"type": "uint256"
						}
					],
					"stateMutability": "view",
					"type": "function"
				},
				{
					"inputs": [],
					"name": "balanceOf",
					"outputs": [
						{
							"internalType": "uint256",
							"name": "",
							"type": "uint256"
						}
					],
					"stateMutability": "view",
					"type": "function"
				},
				{
					"inputs": [
						{
							"internalType": "string",
							"name": "_name",
							"type": "string"
						},
						{
							"internalType": "address payable",
							"name": "_streamer",
							"type": "address"
						},
						{
							"internalType": "uint256",
							"name": "_amount",
							"type": "uint256"
						}
					],
					"name": "createDonation",
					"outputs": [
						{
							"internalType": "uint256",
							"name": "donationsId",
							"type": "uint256"
						}
					],
					"stateMutability": "nonpayable",
					"type": "function"
				},
				{
					"inputs": [
						{
							"internalType": "uint256",
							"name": "id",
							"type": "uint256"
						}
					],
					"name": "donate",
					"outputs": [],
					"stateMutability": "nonpayable",
					"type": "function"
				},
				{
					"inputs": [
						{
							"internalType": "uint256",
							"name": "",
							"type": "uint256"
						}
					],
					"name": "donations",
					"outputs": [
						{
							"internalType": "address",
							"name": "creator",
							"type": "address"
						},
						{
							"internalType": "string",
							"name": "name",
							"type": "string"
						},
						{
							"internalType": "uint256",
							"name": "amount",
							"type": "uint256"
						},
						{
							"internalType": "address payable",
							"name": "streamer",
							"type": "address"
						}
					],
					"stateMutability": "view",
					"type": "function"
				},
				{
					"inputs": [],
					"name": "sendEtherToContract",
					"outputs": [],
					"stateMutability": "payable",
					"type": "function"
				}
			],
			"devdoc": {
				"kind": "dev",
				"methods": {},
				"version": 1
			},
			"evm": {
				"assembly": "    /* \"contracts/FinalCase/DonateStreamer.sol\":62:1539  contract DonateStreamer {\r... */\n  mstore(0x40, 0x80)\n  callvalue\n  dup1\n  iszero\n  tag_1\n  jumpi\n  0x00\n  dup1\n  revert\ntag_1:\n  pop\n  dataSize(sub_0)\n  dup1\n  dataOffset(sub_0)\n  0x00\n  codecopy\n  0x00\n  return\nstop\n\nsub_0: assembly {\n        /* \"contracts/FinalCase/DonateStreamer.sol\":62:1539  contract DonateStreamer {\r... */\n      mstore(0x40, 0x80)\n      jumpi(tag_1, lt(calldatasize, 0x04))\n      shr(0xe0, calldataload(0x00))\n      dup1\n      0x325ec768\n      eq\n      tag_2\n      jumpi\n      dup1\n      0x722713f7\n      eq\n      tag_3\n      jumpi\n      dup1\n      0xb5e051d9\n      eq\n      tag_4\n      jumpi\n      dup1\n      0xb69ef8a8\n      eq\n      tag_5\n      jumpi\n      dup1\n      0xf14faf6f\n      eq\n      tag_6\n      jumpi\n      dup1\n      0xf8626af8\n      eq\n      tag_7\n      jumpi\n    tag_1:\n      0x00\n      dup1\n      revert\n        /* \"contracts/FinalCase/DonateStreamer.sol\":1065:1130  function sendEtherToContract() payable external{\r... */\n    tag_2:\n      tag_8\n      tag_9\n      jump\t// in\n    tag_8:\n      stop\n        /* \"contracts/FinalCase/DonateStreamer.sol\":1138:1236  function balanceOf() external view returns(uint256){\r... */\n    tag_3:\n      callvalue\n      dup1\n      iszero\n      tag_10\n      jumpi\n      0x00\n      dup1\n      revert\n    tag_10:\n      pop\n      tag_11\n      tag_12\n      jump\t// in\n    tag_11:\n      mload(0x40)\n      tag_13\n      swap2\n      swap1\n      tag_14\n      jump\t// in\n    tag_13:\n      mload(0x40)\n      dup1\n      swap2\n      sub\n      swap1\n      return\n        /* \"contracts/FinalCase/DonateStreamer.sol\":610:1057  function createDonation(\r... */\n    tag_4:\n      callvalue\n      dup1\n      iszero\n      tag_15\n      jumpi\n      0x00\n      dup1\n      revert\n    tag_15:\n      pop\n      tag_16\n      0x04\n      dup1\n      calldatasize\n      sub\n      dup2\n      add\n      swap1\n      tag_17\n      swap2\n      swap1\n      tag_18\n      jump\t// in\n    tag_17:\n      tag_19\n      jump\t// in\n    tag_16:\n      mload(0x40)\n      tag_20\n      swap2\n      swap1\n      tag_14\n      jump\t// in\n    tag_20:\n      mload(0x40)\n      dup1\n      swap2\n      sub\n      swap1\n      return\n        /* \"contracts/FinalCase/DonateStreamer.sol\":95:117  uint256 public balance */\n    tag_5:\n      callvalue\n      dup1\n      iszero\n      tag_21\n      jumpi\n      0x00\n      dup1\n      revert\n    tag_21:\n      pop\n      tag_22\n      tag_23\n      jump\t// in\n    tag_22:\n      mload(0x40)\n      tag_24\n      swap2\n      swap1\n      tag_14\n      jump\t// in\n    tag_24:\n      mload(0x40)\n      dup1\n      swap2\n      sub\n      swap1\n      return\n        /* \"contracts/FinalCase/DonateStreamer.sol\":1244:1536  function donate(uint256 id) external {\r... */\n    tag_6:\n      callvalue\n      dup1\n      iszero\n      tag_25\n      jumpi\n      0x00\n      dup1\n      revert\n    tag_25:\n      pop\n      tag_26\n      0x04\n      dup1\n      calldatasize\n      sub\n      dup2\n      add\n      swap1\n      tag_27\n      swap2\n      swap1\n      tag_28\n      jump\t// in\n    tag_27:\n      tag_29\n      jump\t// in\n    tag_26:\n      stop\n        /* \"contracts/FinalCase/DonateStreamer.sol\":374:419  mapping(uint256 => Donation) public donations */\n    tag_7:\n      callvalue\n      dup1\n      iszero\n      tag_30\n      jumpi\n      0x00\n      dup1\n      revert\n    tag_30:\n      pop\n      tag_31\n      0x04\n      dup1\n      calldatasize\n      sub\n      dup2\n      add\n      swap1\n      tag_32\n      swap2\n      swap1\n      tag_28\n      jump\t// in\n    tag_32:\n      tag_33\n      jump\t// in\n    tag_31:\n      mload(0x40)\n      tag_34\n      swap5\n      swap4\n      swap3\n      swap2\n      swap1\n      tag_35\n      jump\t// in\n    tag_34:\n      mload(0x40)\n      dup1\n      swap2\n      sub\n      swap1\n      return\n        /* \"contracts/FinalCase/DonateStreamer.sol\":1065:1130  function sendEtherToContract() payable external{\r... */\n    tag_9:\n      jump\t// out\n        /* \"contracts/FinalCase/DonateStreamer.sol\":1138:1236  function balanceOf() external view returns(uint256){\r... */\n    tag_12:\n        /* \"contracts/FinalCase/DonateStreamer.sol\":1181:1188  uint256 */\n      0x00\n        /* \"contracts/FinalCase/DonateStreamer.sol\":1207:1228  address(this).balance */\n      selfbalance\n        /* \"contracts/FinalCase/DonateStreamer.sol\":1200:1228  return address(this).balance */\n      swap1\n      pop\n        /* \"contracts/FinalCase/DonateStreamer.sol\":1138:1236  function balanceOf() external view returns(uint256){\r... */\n      swap1\n      jump\t// out\n        /* \"contracts/FinalCase/DonateStreamer.sol\":610:1057  function createDonation(\r... */\n    tag_19:\n        /* \"contracts/FinalCase/DonateStreamer.sol\":748:767  uint256 donationsId */\n      0x00\n        /* \"contracts/FinalCase/DonateStreamer.sol\":779:804  Donation storage donation */\n      dup1\n        /* \"contracts/FinalCase/DonateStreamer.sol\":807:816  donations */\n      0x02\n        /* \"contracts/FinalCase/DonateStreamer.sol\":807:832  donations[totalDonations] */\n      0x00\n        /* \"contracts/FinalCase/DonateStreamer.sol\":817:831  totalDonations */\n      sload(0x01)\n        /* \"contracts/FinalCase/DonateStreamer.sol\":807:832  donations[totalDonations] */\n      dup2\n      mstore\n      0x20\n      add\n      swap1\n      dup2\n      mstore\n      0x20\n      add\n      0x00\n      keccak256\n        /* \"contracts/FinalCase/DonateStreamer.sol\":779:832  Donation storage donation = donations[totalDonations] */\n      swap1\n      pop\n        /* \"contracts/FinalCase/DonateStreamer.sol\":864:874  msg.sender */\n      caller\n        /* \"contracts/FinalCase/DonateStreamer.sol\":845:853  donation */\n      dup2\n        /* \"contracts/FinalCase/DonateStreamer.sol\":845:861  donation.creator */\n      0x00\n      add\n      0x00\n        /* \"contracts/FinalCase/DonateStreamer.sol\":845:874  donation.creator = msg.sender */\n      0x0100\n      exp\n      dup2\n      sload\n      dup2\n      0xffffffffffffffffffffffffffffffffffffffff\n      mul\n      not\n      and\n      swap1\n      dup4\n      0xffffffffffffffffffffffffffffffffffffffff\n      and\n      mul\n      or\n      swap1\n      sstore\n      pop\n        /* \"contracts/FinalCase/DonateStreamer.sol\":901:906  _name */\n      dup5\n        /* \"contracts/FinalCase/DonateStreamer.sol\":885:893  donation */\n      dup2\n        /* \"contracts/FinalCase/DonateStreamer.sol\":885:898  donation.name */\n      0x01\n      add\n        /* \"contracts/FinalCase/DonateStreamer.sol\":885:906  donation.name = _name */\n      swap1\n      dup1\n      mload\n      swap1\n      0x20\n      add\n      swap1\n      tag_39\n      swap3\n      swap2\n      swap1\n      tag_40\n      jump\t// in\n    tag_39:\n      pop\n        /* \"contracts/FinalCase/DonateStreamer.sol\":937:946  _streamer */\n      dup4\n        /* \"contracts/FinalCase/DonateStreamer.sol\":917:925  donation */\n      dup2\n        /* \"contracts/FinalCase/DonateStreamer.sol\":917:934  donation.streamer */\n      0x03\n      add\n      0x00\n        /* \"contracts/FinalCase/DonateStreamer.sol\":917:946  donation.streamer = _streamer */\n      0x0100\n      exp\n      dup2\n      sload\n      dup2\n      0xffffffffffffffffffffffffffffffffffffffff\n      mul\n      not\n      and\n      swap1\n      dup4\n      0xffffffffffffffffffffffffffffffffffffffff\n      and\n      mul\n      or\n      swap1\n      sstore\n      pop\n        /* \"contracts/FinalCase/DonateStreamer.sol\":975:982  _amount */\n      dup3\n        /* \"contracts/FinalCase/DonateStreamer.sol\":957:965  donation */\n      dup2\n        /* \"contracts/FinalCase/DonateStreamer.sol\":957:972  donation.amount */\n      0x02\n      add\n        /* \"contracts/FinalCase/DonateStreamer.sol\":957:982  donation.amount = _amount */\n      dup2\n      swap1\n      sstore\n      pop\n        /* \"contracts/FinalCase/DonateStreamer.sol\":1013:1014  1 */\n      0x01\n        /* \"contracts/FinalCase/DonateStreamer.sol\":995:1009  totalDonations */\n      dup1\n      0x00\n        /* \"contracts/FinalCase/DonateStreamer.sol\":995:1014  totalDonations += 1 */\n      dup3\n      dup3\n      sload\n      tag_41\n      swap2\n      swap1\n      tag_42\n      jump\t// in\n    tag_41:\n      swap3\n      pop\n      pop\n      dup2\n      swap1\n      sstore\n      pop\n        /* \"contracts/FinalCase/DonateStreamer.sol\":1048:1049  1 */\n      0x01\n        /* \"contracts/FinalCase/DonateStreamer.sol\":1032:1046  totalDonations */\n      dup1\n      sload\n        /* \"contracts/FinalCase/DonateStreamer.sol\":1032:1049  totalDonations -1 */\n      tag_43\n      swap2\n      swap1\n      tag_44\n      jump\t// in\n    tag_43:\n        /* \"contracts/FinalCase/DonateStreamer.sol\":1025:1049  return totalDonations -1 */\n      swap2\n      pop\n      pop\n        /* \"contracts/FinalCase/DonateStreamer.sol\":610:1057  function createDonation(\r... */\n      swap4\n      swap3\n      pop\n      pop\n      pop\n      jump\t// out\n        /* \"contracts/FinalCase/DonateStreamer.sol\":95:117  uint256 public balance */\n    tag_23:\n      sload(0x00)\n      dup2\n      jump\t// out\n        /* \"contracts/FinalCase/DonateStreamer.sol\":1244:1536  function donate(uint256 id) external {\r... */\n    tag_29:\n        /* \"contracts/FinalCase/DonateStreamer.sol\":1292:1317  Donation storage donation */\n      0x00\n        /* \"contracts/FinalCase/DonateStreamer.sol\":1320:1329  donations */\n      0x02\n        /* \"contracts/FinalCase/DonateStreamer.sol\":1320:1333  donations[id] */\n      0x00\n        /* \"contracts/FinalCase/DonateStreamer.sol\":1330:1332  id */\n      dup4\n        /* \"contracts/FinalCase/DonateStreamer.sol\":1320:1333  donations[id] */\n      dup2\n      mstore\n      0x20\n      add\n      swap1\n      dup2\n      mstore\n      0x20\n      add\n      0x00\n      keccak256\n        /* \"contracts/FinalCase/DonateStreamer.sol\":1292:1333  Donation storage donation = donations[id] */\n      swap1\n      pop\n        /* \"contracts/FinalCase/DonateStreamer.sol\":1366:1374  donation */\n      dup1\n        /* \"contracts/FinalCase/DonateStreamer.sol\":1366:1382  donation.creator */\n      0x00\n      add\n      0x00\n      swap1\n      sload\n      swap1\n      0x0100\n      exp\n      swap1\n      div\n      0xffffffffffffffffffffffffffffffffffffffff\n      and\n        /* \"contracts/FinalCase/DonateStreamer.sol\":1352:1382  msg.sender == donation.creator */\n      0xffffffffffffffffffffffffffffffffffffffff\n      and\n        /* \"contracts/FinalCase/DonateStreamer.sol\":1352:1362  msg.sender */\n      caller\n        /* \"contracts/FinalCase/DonateStreamer.sol\":1352:1382  msg.sender == donation.creator */\n      0xffffffffffffffffffffffffffffffffffffffff\n      and\n      eq\n        /* \"contracts/FinalCase/DonateStreamer.sol\":1344:1429  require(msg.sender == donation.creator, \"You have to create donation for send ether\") */\n      tag_46\n      jumpi\n      mload(0x40)\n      0x08c379a000000000000000000000000000000000000000000000000000000000\n      dup2\n      mstore\n      0x04\n      add\n      tag_47\n      swap1\n      tag_48\n      jump\t// in\n    tag_47:\n      mload(0x40)\n      dup1\n      swap2\n      sub\n      swap1\n      revert\n    tag_46:\n        /* \"contracts/FinalCase/DonateStreamer.sol\":1440:1448  donation */\n      dup1\n        /* \"contracts/FinalCase/DonateStreamer.sol\":1440:1457  donation.streamer */\n      0x03\n      add\n      0x00\n      swap1\n      sload\n      swap1\n      0x0100\n      exp\n      swap1\n      div\n      0xffffffffffffffffffffffffffffffffffffffff\n      and\n        /* \"contracts/FinalCase/DonateStreamer.sol\":1440:1466  donation.streamer.transfer */\n      0xffffffffffffffffffffffffffffffffffffffff\n      and\n        /* \"contracts/FinalCase/DonateStreamer.sol\":1440:1483  donation.streamer.transfer(donation.amount) */\n      0x08fc\n        /* \"contracts/FinalCase/DonateStreamer.sol\":1467:1475  donation */\n      dup3\n        /* \"contracts/FinalCase/DonateStreamer.sol\":1467:1482  donation.amount */\n      0x02\n      add\n      sload\n        /* \"contracts/FinalCase/DonateStreamer.sol\":1440:1483  donation.streamer.transfer(donation.amount) */\n      swap1\n      dup2\n      iszero\n      mul\n      swap1\n      mload(0x40)\n      0x00\n      mload(0x40)\n      dup1\n      dup4\n      sub\n      dup2\n      dup6\n      dup9\n      dup9\n      call\n      swap4\n      pop\n      pop\n      pop\n      pop\n      iszero\n      dup1\n      iszero\n      tag_50\n      jumpi\n      returndatasize\n      0x00\n      dup1\n      returndatacopy\n      revert(0x00, returndatasize)\n    tag_50:\n      pop\n        /* \"contracts/FinalCase/DonateStreamer.sol\":1501:1528  Donate(id, donation.amount) */\n      0x489807a5fd45f95df5a4da56d2ec4a895cd239ac44d0d9703ac6d8f0c590549c\n        /* \"contracts/FinalCase/DonateStreamer.sol\":1508:1510  id */\n      dup3\n        /* \"contracts/FinalCase/DonateStreamer.sol\":1512:1520  donation */\n      dup3\n        /* \"contracts/FinalCase/DonateStreamer.sol\":1512:1527  donation.amount */\n      0x02\n      add\n      sload\n        /* \"contracts/FinalCase/DonateStreamer.sol\":1501:1528  Donate(id, donation.amount) */\n      mload(0x40)\n      tag_51\n      swap3\n      swap2\n      swap1\n      tag_52\n      jump\t// in\n    tag_51:\n      mload(0x40)\n      dup1\n      swap2\n      sub\n      swap1\n      log1\n        /* \"contracts/FinalCase/DonateStreamer.sol\":1281:1536  {\r... */\n      pop\n        /* \"contracts/FinalCase/DonateStreamer.sol\":1244:1536  function donate(uint256 id) external {\r... */\n      pop\n      jump\t// out\n        /* \"contracts/FinalCase/DonateStreamer.sol\":374:419  mapping(uint256 => Donation) public donations */\n    tag_33:\n      mstore(0x20, 0x02)\n      dup1\n      0x00\n      mstore\n      keccak256(0x00, 0x40)\n      0x00\n      swap2\n      pop\n      swap1\n      pop\n      dup1\n      0x00\n      add\n      0x00\n      swap1\n      sload\n      swap1\n      0x0100\n      exp\n      swap1\n      div\n      0xffffffffffffffffffffffffffffffffffffffff\n      and\n      swap1\n      dup1\n      0x01\n      add\n      dup1\n      sload\n      tag_53\n      swap1\n      tag_54\n      jump\t// in\n    tag_53:\n      dup1\n      0x1f\n      add\n      0x20\n      dup1\n      swap2\n      div\n      mul\n      0x20\n      add\n      mload(0x40)\n      swap1\n      dup2\n      add\n      0x40\n      mstore\n      dup1\n      swap3\n      swap2\n      swap1\n      dup2\n      dup2\n      mstore\n      0x20\n      add\n      dup3\n      dup1\n      sload\n      tag_55\n      swap1\n      tag_54\n      jump\t// in\n    tag_55:\n      dup1\n      iszero\n      tag_56\n      jumpi\n      dup1\n      0x1f\n      lt\n      tag_57\n      jumpi\n      0x0100\n      dup1\n      dup4\n      sload\n      div\n      mul\n      dup4\n      mstore\n      swap2\n      0x20\n      add\n      swap2\n      jump(tag_56)\n    tag_57:\n      dup3\n      add\n      swap2\n      swap1\n      0x00\n      mstore\n      keccak256(0x00, 0x20)\n      swap1\n    tag_58:\n      dup2\n      sload\n      dup2\n      mstore\n      swap1\n      0x01\n      add\n      swap1\n      0x20\n      add\n      dup1\n      dup4\n      gt\n      tag_58\n      jumpi\n      dup3\n      swap1\n      sub\n      0x1f\n      and\n      dup3\n      add\n      swap2\n    tag_56:\n      pop\n      pop\n      pop\n      pop\n      pop\n      swap1\n      dup1\n      0x02\n      add\n      sload\n      swap1\n      dup1\n      0x03\n      add\n      0x00\n      swap1\n      sload\n      swap1\n      0x0100\n      exp\n      swap1\n      div\n      0xffffffffffffffffffffffffffffffffffffffff\n      and\n      swap1\n      pop\n      dup5\n      jump\t// out\n    tag_40:\n      dup3\n      dup1\n      sload\n      tag_59\n      swap1\n      tag_54\n      jump\t// in\n    tag_59:\n      swap1\n      0x00\n      mstore\n      keccak256(0x00, 0x20)\n      swap1\n      0x1f\n      add\n      0x20\n      swap1\n      div\n      dup2\n      add\n      swap3\n      dup3\n      tag_61\n      jumpi\n      0x00\n      dup6\n      sstore\n      jump(tag_60)\n    tag_61:\n      dup3\n      0x1f\n      lt\n      tag_62\n      jumpi\n      dup1\n      mload\n      not(0xff)\n      and\n      dup4\n      dup1\n      add\n      or\n      dup6\n      sstore\n      jump(tag_60)\n    tag_62:\n      dup3\n      dup1\n      add\n      0x01\n      add\n      dup6\n      sstore\n      dup3\n      iszero\n      tag_60\n      jumpi\n      swap2\n      dup3\n      add\n    tag_63:\n      dup3\n      dup2\n      gt\n      iszero\n      tag_64\n      jumpi\n      dup3\n      mload\n      dup3\n      sstore\n      swap2\n      0x20\n      add\n      swap2\n      swap1\n      0x01\n      add\n      swap1\n      jump(tag_63)\n    tag_64:\n    tag_60:\n      pop\n      swap1\n      pop\n      tag_65\n      swap2\n      swap1\n      tag_66\n      jump\t// in\n    tag_65:\n      pop\n      swap1\n      jump\t// out\n    tag_66:\n    tag_67:\n      dup1\n      dup3\n      gt\n      iszero\n      tag_68\n      jumpi\n      0x00\n      dup2\n      0x00\n      swap1\n      sstore\n      pop\n      0x01\n      add\n      jump(tag_67)\n    tag_68:\n      pop\n      swap1\n      jump\t// out\n        /* \"#utility.yul\":7:419   */\n    tag_70:\n        /* \"#utility.yul\":85:90   */\n      0x00\n        /* \"#utility.yul\":110:176   */\n      tag_72\n        /* \"#utility.yul\":126:175   */\n      tag_73\n        /* \"#utility.yul\":168:174   */\n      dup5\n        /* \"#utility.yul\":126:175   */\n      tag_74\n      jump\t// in\n    tag_73:\n        /* \"#utility.yul\":110:176   */\n      tag_75\n      jump\t// in\n    tag_72:\n        /* \"#utility.yul\":101:176   */\n      swap1\n      pop\n        /* \"#utility.yul\":199:205   */\n      dup3\n        /* \"#utility.yul\":192:197   */\n      dup2\n        /* \"#utility.yul\":185:206   */\n      mstore\n        /* \"#utility.yul\":237:241   */\n      0x20\n        /* \"#utility.yul\":230:235   */\n      dup2\n        /* \"#utility.yul\":226:242   */\n      add\n        /* \"#utility.yul\":275:278   */\n      dup5\n        /* \"#utility.yul\":266:272   */\n      dup5\n        /* \"#utility.yul\":261:264   */\n      dup5\n        /* \"#utility.yul\":257:273   */\n      add\n        /* \"#utility.yul\":254:279   */\n      gt\n        /* \"#utility.yul\":251:363   */\n      iszero\n      tag_76\n      jumpi\n        /* \"#utility.yul\":282:361   */\n      tag_77\n      tag_78\n      jump\t// in\n    tag_77:\n        /* \"#utility.yul\":251:363   */\n    tag_76:\n        /* \"#utility.yul\":372:413   */\n      tag_79\n        /* \"#utility.yul\":406:412   */\n      dup5\n        /* \"#utility.yul\":401:404   */\n      dup3\n        /* \"#utility.yul\":396:399   */\n      dup6\n        /* \"#utility.yul\":372:413   */\n      tag_80\n      jump\t// in\n    tag_79:\n        /* \"#utility.yul\":91:419   */\n      pop\n        /* \"#utility.yul\":7:419   */\n      swap4\n      swap3\n      pop\n      pop\n      pop\n      jump\t// out\n        /* \"#utility.yul\":425:580   */\n    tag_81:\n        /* \"#utility.yul\":479:484   */\n      0x00\n        /* \"#utility.yul\":517:523   */\n      dup2\n        /* \"#utility.yul\":504:524   */\n      calldataload\n        /* \"#utility.yul\":495:524   */\n      swap1\n      pop\n        /* \"#utility.yul\":533:574   */\n      tag_83\n        /* \"#utility.yul\":568:573   */\n      dup2\n        /* \"#utility.yul\":533:574   */\n      tag_84\n      jump\t// in\n    tag_83:\n        /* \"#utility.yul\":425:580   */\n      swap3\n      swap2\n      pop\n      pop\n      jump\t// out\n        /* \"#utility.yul\":600:940   */\n    tag_85:\n        /* \"#utility.yul\":656:661   */\n      0x00\n        /* \"#utility.yul\":705:708   */\n      dup3\n        /* \"#utility.yul\":698:702   */\n      0x1f\n        /* \"#utility.yul\":690:696   */\n      dup4\n        /* \"#utility.yul\":686:703   */\n      add\n        /* \"#utility.yul\":682:709   */\n      slt\n        /* \"#utility.yul\":672:794   */\n      tag_87\n      jumpi\n        /* \"#utility.yul\":713:792   */\n      tag_88\n      tag_89\n      jump\t// in\n    tag_88:\n        /* \"#utility.yul\":672:794   */\n    tag_87:\n        /* \"#utility.yul\":830:836   */\n      dup2\n        /* \"#utility.yul\":817:837   */\n      calldataload\n        /* \"#utility.yul\":855:934   */\n      tag_90\n        /* \"#utility.yul\":930:933   */\n      dup5\n        /* \"#utility.yul\":922:928   */\n      dup3\n        /* \"#utility.yul\":915:919   */\n      0x20\n        /* \"#utility.yul\":907:913   */\n      dup7\n        /* \"#utility.yul\":903:920   */\n      add\n        /* \"#utility.yul\":855:934   */\n      tag_70\n      jump\t// in\n    tag_90:\n        /* \"#utility.yul\":846:934   */\n      swap2\n      pop\n        /* \"#utility.yul\":662:940   */\n      pop\n        /* \"#utility.yul\":600:940   */\n      swap3\n      swap2\n      pop\n      pop\n      jump\t// out\n        /* \"#utility.yul\":946:1085   */\n    tag_91:\n        /* \"#utility.yul\":992:997   */\n      0x00\n        /* \"#utility.yul\":1030:1036   */\n      dup2\n        /* \"#utility.yul\":1017:1037   */\n      calldataload\n        /* \"#utility.yul\":1008:1037   */\n      swap1\n      pop\n        /* \"#utility.yul\":1046:1079   */\n      tag_93\n        /* \"#utility.yul\":1073:1078   */\n      dup2\n        /* \"#utility.yul\":1046:1079   */\n      tag_94\n      jump\t// in\n    tag_93:\n        /* \"#utility.yul\":946:1085   */\n      swap3\n      swap2\n      pop\n      pop\n      jump\t// out\n        /* \"#utility.yul\":1091:1906   */\n    tag_18:\n        /* \"#utility.yul\":1186:1192   */\n      0x00\n        /* \"#utility.yul\":1194:1200   */\n      dup1\n        /* \"#utility.yul\":1202:1208   */\n      0x00\n        /* \"#utility.yul\":1251:1253   */\n      0x60\n        /* \"#utility.yul\":1239:1248   */\n      dup5\n        /* \"#utility.yul\":1230:1237   */\n      dup7\n        /* \"#utility.yul\":1226:1249   */\n      sub\n        /* \"#utility.yul\":1222:1254   */\n      slt\n        /* \"#utility.yul\":1219:1338   */\n      iszero\n      tag_96\n      jumpi\n        /* \"#utility.yul\":1257:1336   */\n      tag_97\n      tag_98\n      jump\t// in\n    tag_97:\n        /* \"#utility.yul\":1219:1338   */\n    tag_96:\n        /* \"#utility.yul\":1405:1406   */\n      0x00\n        /* \"#utility.yul\":1394:1403   */\n      dup5\n        /* \"#utility.yul\":1390:1407   */\n      add\n        /* \"#utility.yul\":1377:1408   */\n      calldataload\n        /* \"#utility.yul\":1435:1453   */\n      0xffffffffffffffff\n        /* \"#utility.yul\":1427:1433   */\n      dup2\n        /* \"#utility.yul\":1424:1454   */\n      gt\n        /* \"#utility.yul\":1421:1538   */\n      iszero\n      tag_99\n      jumpi\n        /* \"#utility.yul\":1457:1536   */\n      tag_100\n      tag_101\n      jump\t// in\n    tag_100:\n        /* \"#utility.yul\":1421:1538   */\n    tag_99:\n        /* \"#utility.yul\":1562:1625   */\n      tag_102\n        /* \"#utility.yul\":1617:1624   */\n      dup7\n        /* \"#utility.yul\":1608:1614   */\n      dup3\n        /* \"#utility.yul\":1597:1606   */\n      dup8\n        /* \"#utility.yul\":1593:1615   */\n      add\n        /* \"#utility.yul\":1562:1625   */\n      tag_85\n      jump\t// in\n    tag_102:\n        /* \"#utility.yul\":1552:1625   */\n      swap4\n      pop\n        /* \"#utility.yul\":1348:1635   */\n      pop\n        /* \"#utility.yul\":1674:1676   */\n      0x20\n        /* \"#utility.yul\":1700:1761   */\n      tag_103\n        /* \"#utility.yul\":1753:1760   */\n      dup7\n        /* \"#utility.yul\":1744:1750   */\n      dup3\n        /* \"#utility.yul\":1733:1742   */\n      dup8\n        /* \"#utility.yul\":1729:1751   */\n      add\n        /* \"#utility.yul\":1700:1761   */\n      tag_81\n      jump\t// in\n    tag_103:\n        /* \"#utility.yul\":1690:1761   */\n      swap3\n      pop\n        /* \"#utility.yul\":1645:1771   */\n      pop\n        /* \"#utility.yul\":1810:1812   */\n      0x40\n        /* \"#utility.yul\":1836:1889   */\n      tag_104\n        /* \"#utility.yul\":1881:1888   */\n      dup7\n        /* \"#utility.yul\":1872:1878   */\n      dup3\n        /* \"#utility.yul\":1861:1870   */\n      dup8\n        /* \"#utility.yul\":1857:1879   */\n      add\n        /* \"#utility.yul\":1836:1889   */\n      tag_91\n      jump\t// in\n    tag_104:\n        /* \"#utility.yul\":1826:1889   */\n      swap2\n      pop\n        /* \"#utility.yul\":1781:1899   */\n      pop\n        /* \"#utility.yul\":1091:1906   */\n      swap3\n      pop\n      swap3\n      pop\n      swap3\n      jump\t// out\n        /* \"#utility.yul\":1912:2241   */\n    tag_28:\n        /* \"#utility.yul\":1971:1977   */\n      0x00\n        /* \"#utility.yul\":2020:2022   */\n      0x20\n        /* \"#utility.yul\":2008:2017   */\n      dup3\n        /* \"#utility.yul\":1999:2006   */\n      dup5\n        /* \"#utility.yul\":1995:2018   */\n      sub\n        /* \"#utility.yul\":1991:2023   */\n      slt\n        /* \"#utility.yul\":1988:2107   */\n      iszero\n      tag_106\n      jumpi\n        /* \"#utility.yul\":2026:2105   */\n      tag_107\n      tag_98\n      jump\t// in\n    tag_107:\n        /* \"#utility.yul\":1988:2107   */\n    tag_106:\n        /* \"#utility.yul\":2146:2147   */\n      0x00\n        /* \"#utility.yul\":2171:2224   */\n      tag_108\n        /* \"#utility.yul\":2216:2223   */\n      dup5\n        /* \"#utility.yul\":2207:2213   */\n      dup3\n        /* \"#utility.yul\":2196:2205   */\n      dup6\n        /* \"#utility.yul\":2192:2214   */\n      add\n        /* \"#utility.yul\":2171:2224   */\n      tag_91\n      jump\t// in\n    tag_108:\n        /* \"#utility.yul\":2161:2224   */\n      swap2\n      pop\n        /* \"#utility.yul\":2117:2234   */\n      pop\n        /* \"#utility.yul\":1912:2241   */\n      swap3\n      swap2\n      pop\n      pop\n      jump\t// out\n        /* \"#utility.yul\":2247:2389   */\n    tag_109:\n        /* \"#utility.yul\":2350:2382   */\n      tag_111\n        /* \"#utility.yul\":2376:2381   */\n      dup2\n        /* \"#utility.yul\":2350:2382   */\n      tag_112\n      jump\t// in\n    tag_111:\n        /* \"#utility.yul\":2345:2348   */\n      dup3\n        /* \"#utility.yul\":2338:2383   */\n      mstore\n        /* \"#utility.yul\":2247:2389   */\n      pop\n      pop\n      jump\t// out\n        /* \"#utility.yul\":2395:2513   */\n    tag_113:\n        /* \"#utility.yul\":2482:2506   */\n      tag_115\n        /* \"#utility.yul\":2500:2505   */\n      dup2\n        /* \"#utility.yul\":2482:2506   */\n      tag_116\n      jump\t// in\n    tag_115:\n        /* \"#utility.yul\":2477:2480   */\n      dup3\n        /* \"#utility.yul\":2470:2507   */\n      mstore\n        /* \"#utility.yul\":2395:2513   */\n      pop\n      pop\n      jump\t// out\n        /* \"#utility.yul\":2519:2883   */\n    tag_117:\n        /* \"#utility.yul\":2607:2610   */\n      0x00\n        /* \"#utility.yul\":2635:2674   */\n      tag_119\n        /* \"#utility.yul\":2668:2673   */\n      dup3\n        /* \"#utility.yul\":2635:2674   */\n      tag_120\n      jump\t// in\n    tag_119:\n        /* \"#utility.yul\":2690:2761   */\n      tag_121\n        /* \"#utility.yul\":2754:2760   */\n      dup2\n        /* \"#utility.yul\":2749:2752   */\n      dup6\n        /* \"#utility.yul\":2690:2761   */\n      tag_122\n      jump\t// in\n    tag_121:\n        /* \"#utility.yul\":2683:2761   */\n      swap4\n      pop\n        /* \"#utility.yul\":2770:2822   */\n      tag_123\n        /* \"#utility.yul\":2815:2821   */\n      dup2\n        /* \"#utility.yul\":2810:2813   */\n      dup6\n        /* \"#utility.yul\":2803:2807   */\n      0x20\n        /* \"#utility.yul\":2796:2801   */\n      dup7\n        /* \"#utility.yul\":2792:2808   */\n      add\n        /* \"#utility.yul\":2770:2822   */\n      tag_124\n      jump\t// in\n    tag_123:\n        /* \"#utility.yul\":2847:2876   */\n      tag_125\n        /* \"#utility.yul\":2869:2875   */\n      dup2\n        /* \"#utility.yul\":2847:2876   */\n      tag_126\n      jump\t// in\n    tag_125:\n        /* \"#utility.yul\":2842:2845   */\n      dup5\n        /* \"#utility.yul\":2838:2877   */\n      add\n        /* \"#utility.yul\":2831:2877   */\n      swap2\n      pop\n        /* \"#utility.yul\":2611:2883   */\n      pop\n        /* \"#utility.yul\":2519:2883   */\n      swap3\n      swap2\n      pop\n      pop\n      jump\t// out\n        /* \"#utility.yul\":2889:3255   */\n    tag_127:\n        /* \"#utility.yul\":3031:3034   */\n      0x00\n        /* \"#utility.yul\":3052:3119   */\n      tag_129\n        /* \"#utility.yul\":3116:3118   */\n      0x2a\n        /* \"#utility.yul\":3111:3114   */\n      dup4\n        /* \"#utility.yul\":3052:3119   */\n      tag_122\n      jump\t// in\n    tag_129:\n        /* \"#utility.yul\":3045:3119   */\n      swap2\n      pop\n        /* \"#utility.yul\":3128:3221   */\n      tag_130\n        /* \"#utility.yul\":3217:3220   */\n      dup3\n        /* \"#utility.yul\":3128:3221   */\n      tag_131\n      jump\t// in\n    tag_130:\n        /* \"#utility.yul\":3246:3248   */\n      0x40\n        /* \"#utility.yul\":3241:3244   */\n      dup3\n        /* \"#utility.yul\":3237:3249   */\n      add\n        /* \"#utility.yul\":3230:3249   */\n      swap1\n      pop\n        /* \"#utility.yul\":2889:3255   */\n      swap2\n      swap1\n      pop\n      jump\t// out\n        /* \"#utility.yul\":3261:3379   */\n    tag_132:\n        /* \"#utility.yul\":3348:3372   */\n      tag_134\n        /* \"#utility.yul\":3366:3371   */\n      dup2\n        /* \"#utility.yul\":3348:3372   */\n      tag_135\n      jump\t// in\n    tag_134:\n        /* \"#utility.yul\":3343:3346   */\n      dup3\n        /* \"#utility.yul\":3336:3373   */\n      mstore\n        /* \"#utility.yul\":3261:3379   */\n      pop\n      pop\n      jump\t// out\n        /* \"#utility.yul\":3385:4061   */\n    tag_35:\n        /* \"#utility.yul\":3598:3602   */\n      0x00\n        /* \"#utility.yul\":3636:3639   */\n      0x80\n        /* \"#utility.yul\":3625:3634   */\n      dup3\n        /* \"#utility.yul\":3621:3640   */\n      add\n        /* \"#utility.yul\":3613:3640   */\n      swap1\n      pop\n        /* \"#utility.yul\":3650:3721   */\n      tag_137\n        /* \"#utility.yul\":3718:3719   */\n      0x00\n        /* \"#utility.yul\":3707:3716   */\n      dup4\n        /* \"#utility.yul\":3703:3720   */\n      add\n        /* \"#utility.yul\":3694:3700   */\n      dup8\n        /* \"#utility.yul\":3650:3721   */\n      tag_113\n      jump\t// in\n    tag_137:\n        /* \"#utility.yul\":3768:3777   */\n      dup2\n        /* \"#utility.yul\":3762:3766   */\n      dup2\n        /* \"#utility.yul\":3758:3778   */\n      sub\n        /* \"#utility.yul\":3753:3755   */\n      0x20\n        /* \"#utility.yul\":3742:3751   */\n      dup4\n        /* \"#utility.yul\":3738:3756   */\n      add\n        /* \"#utility.yul\":3731:3779   */\n      mstore\n        /* \"#utility.yul\":3796:3874   */\n      tag_138\n        /* \"#utility.yul\":3869:3873   */\n      dup2\n        /* \"#utility.yul\":3860:3866   */\n      dup7\n        /* \"#utility.yul\":3796:3874   */\n      tag_117\n      jump\t// in\n    tag_138:\n        /* \"#utility.yul\":3788:3874   */\n      swap1\n      pop\n        /* \"#utility.yul\":3884:3956   */\n      tag_139\n        /* \"#utility.yul\":3952:3954   */\n      0x40\n        /* \"#utility.yul\":3941:3950   */\n      dup4\n        /* \"#utility.yul\":3937:3955   */\n      add\n        /* \"#utility.yul\":3928:3934   */\n      dup6\n        /* \"#utility.yul\":3884:3956   */\n      tag_132\n      jump\t// in\n    tag_139:\n        /* \"#utility.yul\":3966:4054   */\n      tag_140\n        /* \"#utility.yul\":4050:4052   */\n      0x60\n        /* \"#utility.yul\":4039:4048   */\n      dup4\n        /* \"#utility.yul\":4035:4053   */\n      add\n        /* \"#utility.yul\":4026:4032   */\n      dup5\n        /* \"#utility.yul\":3966:4054   */\n      tag_109\n      jump\t// in\n    tag_140:\n        /* \"#utility.yul\":3385:4061   */\n      swap6\n      swap5\n      pop\n      pop\n      pop\n      pop\n      pop\n      jump\t// out\n        /* \"#utility.yul\":4067:4486   */\n    tag_48:\n        /* \"#utility.yul\":4233:4237   */\n      0x00\n        /* \"#utility.yul\":4271:4273   */\n      0x20\n        /* \"#utility.yul\":4260:4269   */\n      dup3\n        /* \"#utility.yul\":4256:4274   */\n      add\n        /* \"#utility.yul\":4248:4274   */\n      swap1\n      pop\n        /* \"#utility.yul\":4320:4329   */\n      dup2\n        /* \"#utility.yul\":4314:4318   */\n      dup2\n        /* \"#utility.yul\":4310:4330   */\n      sub\n        /* \"#utility.yul\":4306:4307   */\n      0x00\n        /* \"#utility.yul\":4295:4304   */\n      dup4\n        /* \"#utility.yul\":4291:4308   */\n      add\n        /* \"#utility.yul\":4284:4331   */\n      mstore\n        /* \"#utility.yul\":4348:4479   */\n      tag_142\n        /* \"#utility.yul\":4474:4478   */\n      dup2\n        /* \"#utility.yul\":4348:4479   */\n      tag_127\n      jump\t// in\n    tag_142:\n        /* \"#utility.yul\":4340:4479   */\n      swap1\n      pop\n        /* \"#utility.yul\":4067:4486   */\n      swap2\n      swap1\n      pop\n      jump\t// out\n        /* \"#utility.yul\":4492:4714   */\n    tag_14:\n        /* \"#utility.yul\":4585:4589   */\n      0x00\n        /* \"#utility.yul\":4623:4625   */\n      0x20\n        /* \"#utility.yul\":4612:4621   */\n      dup3\n        /* \"#utility.yul\":4608:4626   */\n      add\n        /* \"#utility.yul\":4600:4626   */\n      swap1\n      pop\n        /* \"#utility.yul\":4636:4707   */\n      tag_144\n        /* \"#utility.yul\":4704:4705   */\n      0x00\n        /* \"#utility.yul\":4693:4702   */\n      dup4\n        /* \"#utility.yul\":4689:4706   */\n      add\n        /* \"#utility.yul\":4680:4686   */\n      dup5\n        /* \"#utility.yul\":4636:4707   */\n      tag_132\n      jump\t// in\n    tag_144:\n        /* \"#utility.yul\":4492:4714   */\n      swap3\n      swap2\n      pop\n      pop\n      jump\t// out\n        /* \"#utility.yul\":4720:5052   */\n    tag_52:\n        /* \"#utility.yul\":4841:4845   */\n      0x00\n        /* \"#utility.yul\":4879:4881   */\n      0x40\n        /* \"#utility.yul\":4868:4877   */\n      dup3\n        /* \"#utility.yul\":4864:4882   */\n      add\n        /* \"#utility.yul\":4856:4882   */\n      swap1\n      pop\n        /* \"#utility.yul\":4892:4963   */\n      tag_146\n        /* \"#utility.yul\":4960:4961   */\n      0x00\n        /* \"#utility.yul\":4949:4958   */\n      dup4\n        /* \"#utility.yul\":4945:4962   */\n      add\n        /* \"#utility.yul\":4936:4942   */\n      dup6\n        /* \"#utility.yul\":4892:4963   */\n      tag_132\n      jump\t// in\n    tag_146:\n        /* \"#utility.yul\":4973:5045   */\n      tag_147\n        /* \"#utility.yul\":5041:5043   */\n      0x20\n        /* \"#utility.yul\":5030:5039   */\n      dup4\n        /* \"#utility.yul\":5026:5044   */\n      add\n        /* \"#utility.yul\":5017:5023   */\n      dup5\n        /* \"#utility.yul\":4973:5045   */\n      tag_132\n      jump\t// in\n    tag_147:\n        /* \"#utility.yul\":4720:5052   */\n      swap4\n      swap3\n      pop\n      pop\n      pop\n      jump\t// out\n        /* \"#utility.yul\":5058:5187   */\n    tag_75:\n        /* \"#utility.yul\":5092:5098   */\n      0x00\n        /* \"#utility.yul\":5119:5139   */\n      tag_149\n      tag_150\n      jump\t// in\n    tag_149:\n        /* \"#utility.yul\":5109:5139   */\n      swap1\n      pop\n        /* \"#utility.yul\":5148:5181   */\n      tag_151\n        /* \"#utility.yul\":5176:5180   */\n      dup3\n        /* \"#utility.yul\":5168:5174   */\n      dup3\n        /* \"#utility.yul\":5148:5181   */\n      tag_152\n      jump\t// in\n    tag_151:\n        /* \"#utility.yul\":5058:5187   */\n      swap2\n      swap1\n      pop\n      jump\t// out\n        /* \"#utility.yul\":5193:5268   */\n    tag_150:\n        /* \"#utility.yul\":5226:5232   */\n      0x00\n        /* \"#utility.yul\":5259:5261   */\n      0x40\n        /* \"#utility.yul\":5253:5262   */\n      mload\n        /* \"#utility.yul\":5243:5262   */\n      swap1\n      pop\n        /* \"#utility.yul\":5193:5268   */\n      swap1\n      jump\t// out\n        /* \"#utility.yul\":5274:5582   */\n    tag_74:\n        /* \"#utility.yul\":5336:5340   */\n      0x00\n        /* \"#utility.yul\":5426:5444   */\n      0xffffffffffffffff\n        /* \"#utility.yul\":5418:5424   */\n      dup3\n        /* \"#utility.yul\":5415:5445   */\n      gt\n        /* \"#utility.yul\":5412:5468   */\n      iszero\n      tag_155\n      jumpi\n        /* \"#utility.yul\":5448:5466   */\n      tag_156\n      tag_157\n      jump\t// in\n    tag_156:\n        /* \"#utility.yul\":5412:5468   */\n    tag_155:\n        /* \"#utility.yul\":5486:5515   */\n      tag_158\n        /* \"#utility.yul\":5508:5514   */\n      dup3\n        /* \"#utility.yul\":5486:5515   */\n      tag_126\n      jump\t// in\n    tag_158:\n        /* \"#utility.yul\":5478:5515   */\n      swap1\n      pop\n        /* \"#utility.yul\":5570:5574   */\n      0x20\n        /* \"#utility.yul\":5564:5568   */\n      dup2\n        /* \"#utility.yul\":5560:5575   */\n      add\n        /* \"#utility.yul\":5552:5575   */\n      swap1\n      pop\n        /* \"#utility.yul\":5274:5582   */\n      swap2\n      swap1\n      pop\n      jump\t// out\n        /* \"#utility.yul\":5588:5687   */\n    tag_120:\n        /* \"#utility.yul\":5640:5646   */\n      0x00\n        /* \"#utility.yul\":5674:5679   */\n      dup2\n        /* \"#utility.yul\":5668:5680   */\n      mload\n        /* \"#utility.yul\":5658:5680   */\n      swap1\n      pop\n        /* \"#utility.yul\":5588:5687   */\n      swap2\n      swap1\n      pop\n      jump\t// out\n        /* \"#utility.yul\":5693:5862   */\n    tag_122:\n        /* \"#utility.yul\":5777:5788   */\n      0x00\n        /* \"#utility.yul\":5811:5817   */\n      dup3\n        /* \"#utility.yul\":5806:5809   */\n      dup3\n        /* \"#utility.yul\":5799:5818   */\n      mstore\n        /* \"#utility.yul\":5851:5855   */\n      0x20\n        /* \"#utility.yul\":5846:5849   */\n      dup3\n        /* \"#utility.yul\":5842:5856   */\n      add\n        /* \"#utility.yul\":5827:5856   */\n      swap1\n      pop\n        /* \"#utility.yul\":5693:5862   */\n      swap3\n      swap2\n      pop\n      pop\n      jump\t// out\n        /* \"#utility.yul\":5868:6173   */\n    tag_42:\n        /* \"#utility.yul\":5908:5911   */\n      0x00\n        /* \"#utility.yul\":5927:5947   */\n      tag_162\n        /* \"#utility.yul\":5945:5946   */\n      dup3\n        /* \"#utility.yul\":5927:5947   */\n      tag_135\n      jump\t// in\n    tag_162:\n        /* \"#utility.yul\":5922:5947   */\n      swap2\n      pop\n        /* \"#utility.yul\":5961:5981   */\n      tag_163\n        /* \"#utility.yul\":5979:5980   */\n      dup4\n        /* \"#utility.yul\":5961:5981   */\n      tag_135\n      jump\t// in\n    tag_163:\n        /* \"#utility.yul\":5956:5981   */\n      swap3\n      pop\n        /* \"#utility.yul\":6115:6116   */\n      dup3\n        /* \"#utility.yul\":6047:6113   */\n      0xffffffffffffffffffffffffffffffffffffffffffffffffffffffffffffffff\n        /* \"#utility.yul\":6043:6117   */\n      sub\n        /* \"#utility.yul\":6040:6041   */\n      dup3\n        /* \"#utility.yul\":6037:6118   */\n      gt\n        /* \"#utility.yul\":6034:6141   */\n      iszero\n      tag_164\n      jumpi\n        /* \"#utility.yul\":6121:6139   */\n      tag_165\n      tag_166\n      jump\t// in\n    tag_165:\n        /* \"#utility.yul\":6034:6141   */\n    tag_164:\n        /* \"#utility.yul\":6165:6166   */\n      dup3\n        /* \"#utility.yul\":6162:6163   */\n      dup3\n        /* \"#utility.yul\":6158:6167   */\n      add\n        /* \"#utility.yul\":6151:6167   */\n      swap1\n      pop\n        /* \"#utility.yul\":5868:6173   */\n      swap3\n      swap2\n      pop\n      pop\n      jump\t// out\n        /* \"#utility.yul\":6179:6370   */\n    tag_44:\n        /* \"#utility.yul\":6219:6223   */\n      0x00\n        /* \"#utility.yul\":6239:6259   */\n      tag_168\n        /* \"#utility.yul\":6257:6258   */\n      dup3\n        /* \"#utility.yul\":6239:6259   */\n      tag_135\n      jump\t// in\n    tag_168:\n        /* \"#utility.yul\":6234:6259   */\n      swap2\n      pop\n        /* \"#utility.yul\":6273:6293   */\n      tag_169\n        /* \"#utility.yul\":6291:6292   */\n      dup4\n        /* \"#utility.yul\":6273:6293   */\n      tag_135\n      jump\t// in\n    tag_169:\n        /* \"#utility.yul\":6268:6293   */\n      swap3\n      pop\n        /* \"#utility.yul\":6312:6313   */\n      dup3\n        /* \"#utility.yul\":6309:6310   */\n      dup3\n        /* \"#utility.yul\":6306:6314   */\n      lt\n        /* \"#utility.yul\":6303:6337   */\n      iszero\n      tag_170\n      jumpi\n        /* \"#utility.yul\":6317:6335   */\n      tag_171\n      tag_166\n      jump\t// in\n    tag_171:\n        /* \"#utility.yul\":6303:6337   */\n    tag_170:\n        /* \"#utility.yul\":6362:6363   */\n      dup3\n        /* \"#utility.yul\":6359:6360   */\n      dup3\n        /* \"#utility.yul\":6355:6364   */\n      sub\n        /* \"#utility.yul\":6347:6364   */\n      swap1\n      pop\n        /* \"#utility.yul\":6179:6370   */\n      swap3\n      swap2\n      pop\n      pop\n      jump\t// out\n        /* \"#utility.yul\":6376:6472   */\n    tag_116:\n        /* \"#utility.yul\":6413:6420   */\n      0x00\n        /* \"#utility.yul\":6442:6466   */\n      tag_173\n        /* \"#utility.yul\":6460:6465   */\n      dup3\n        /* \"#utility.yul\":6442:6466   */\n      tag_174\n      jump\t// in\n    tag_173:\n        /* \"#utility.yul\":6431:6466   */\n      swap1\n      pop\n        /* \"#utility.yul\":6376:6472   */\n      swap2\n      swap1\n      pop\n      jump\t// out\n        /* \"#utility.yul\":6478:6582   */\n    tag_112:\n        /* \"#utility.yul\":6523:6530   */\n      0x00\n        /* \"#utility.yul\":6552:6576   */\n      tag_176\n        /* \"#utility.yul\":6570:6575   */\n      dup3\n        /* \"#utility.yul\":6552:6576   */\n      tag_174\n      jump\t// in\n    tag_176:\n        /* \"#utility.yul\":6541:6576   */\n      swap1\n      pop\n        /* \"#utility.yul\":6478:6582   */\n      swap2\n      swap1\n      pop\n      jump\t// out\n        /* \"#utility.yul\":6588:6714   */\n    tag_174:\n        /* \"#utility.yul\":6625:6632   */\n      0x00\n        /* \"#utility.yul\":6665:6707   */\n      0xffffffffffffffffffffffffffffffffffffffff\n        /* \"#utility.yul\":6658:6663   */\n      dup3\n        /* \"#utility.yul\":6654:6708   */\n      and\n        /* \"#utility.yul\":6643:6708   */\n      swap1\n      pop\n        /* \"#utility.yul\":6588:6714   */\n      swap2\n      swap1\n      pop\n      jump\t// out\n        /* \"#utility.yul\":6720:6797   */\n    tag_135:\n        /* \"#utility.yul\":6757:6764   */\n      0x00\n        /* \"#utility.yul\":6786:6791   */\n      dup2\n        /* \"#utility.yul\":6775:6791   */\n      swap1\n      pop\n        /* \"#utility.yul\":6720:6797   */\n      swap2\n      swap1\n      pop\n      jump\t// out\n        /* \"#utility.yul\":6803:6957   */\n    tag_80:\n        /* \"#utility.yul\":6887:6893   */\n      dup3\n        /* \"#utility.yul\":6882:6885   */\n      dup2\n        /* \"#utility.yul\":6877:6880   */\n      dup4\n        /* \"#utility.yul\":6864:6894   */\n      calldatacopy\n        /* \"#utility.yul\":6949:6950   */\n      0x00\n        /* \"#utility.yul\":6940:6946   */\n      dup4\n        /* \"#utility.yul\":6935:6938   */\n      dup4\n        /* \"#utility.yul\":6931:6947   */\n      add\n        /* \"#utility.yul\":6924:6951   */\n      mstore\n        /* \"#utility.yul\":6803:6957   */\n      pop\n      pop\n      pop\n      jump\t// out\n        /* \"#utility.yul\":6963:7270   */\n    tag_124:\n        /* \"#utility.yul\":7031:7032   */\n      0x00\n        /* \"#utility.yul\":7041:7154   */\n    tag_181:\n        /* \"#utility.yul\":7055:7061   */\n      dup4\n        /* \"#utility.yul\":7052:7053   */\n      dup2\n        /* \"#utility.yul\":7049:7062   */\n      lt\n        /* \"#utility.yul\":7041:7154   */\n      iszero\n      tag_183\n      jumpi\n        /* \"#utility.yul\":7140:7141   */\n      dup1\n        /* \"#utility.yul\":7135:7138   */\n      dup3\n        /* \"#utility.yul\":7131:7142   */\n      add\n        /* \"#utility.yul\":7125:7143   */\n      mload\n        /* \"#utility.yul\":7121:7122   */\n      dup2\n        /* \"#utility.yul\":7116:7119   */\n      dup5\n        /* \"#utility.yul\":7112:7123   */\n      add\n        /* \"#utility.yul\":7105:7144   */\n      mstore\n        /* \"#utility.yul\":7077:7079   */\n      0x20\n        /* \"#utility.yul\":7074:7075   */\n      dup2\n        /* \"#utility.yul\":7070:7080   */\n      add\n        /* \"#utility.yul\":7065:7080   */\n      swap1\n      pop\n        /* \"#utility.yul\":7041:7154   */\n      jump(tag_181)\n    tag_183:\n        /* \"#utility.yul\":7172:7178   */\n      dup4\n        /* \"#utility.yul\":7169:7170   */\n      dup2\n        /* \"#utility.yul\":7166:7179   */\n      gt\n        /* \"#utility.yul\":7163:7264   */\n      iszero\n      tag_184\n      jumpi\n        /* \"#utility.yul\":7252:7253   */\n      0x00\n        /* \"#utility.yul\":7243:7249   */\n      dup5\n        /* \"#utility.yul\":7238:7241   */\n      dup5\n        /* \"#utility.yul\":7234:7250   */\n      add\n        /* \"#utility.yul\":7227:7254   */\n      mstore\n        /* \"#utility.yul\":7163:7264   */\n    tag_184:\n        /* \"#utility.yul\":7012:7270   */\n      pop\n        /* \"#utility.yul\":6963:7270   */\n      pop\n      pop\n      pop\n      jump\t// out\n        /* \"#utility.yul\":7276:7596   */\n    tag_54:\n        /* \"#utility.yul\":7320:7326   */\n      0x00\n        /* \"#utility.yul\":7357:7358   */\n      0x02\n        /* \"#utility.yul\":7351:7355   */\n      dup3\n        /* \"#utility.yul\":7347:7359   */\n      div\n        /* \"#utility.yul\":7337:7359   */\n      swap1\n      pop\n        /* \"#utility.yul\":7404:7405   */\n      0x01\n        /* \"#utility.yul\":7398:7402   */\n      dup3\n        /* \"#utility.yul\":7394:7406   */\n      and\n        /* \"#utility.yul\":7425:7443   */\n      dup1\n        /* \"#utility.yul\":7415:7496   */\n      tag_186\n      jumpi\n        /* \"#utility.yul\":7481:7485   */\n      0x7f\n        /* \"#utility.yul\":7473:7479   */\n      dup3\n        /* \"#utility.yul\":7469:7486   */\n      and\n        /* \"#utility.yul\":7459:7486   */\n      swap2\n      pop\n        /* \"#utility.yul\":7415:7496   */\n    tag_186:\n        /* \"#utility.yul\":7543:7545   */\n      0x20\n        /* \"#utility.yul\":7535:7541   */\n      dup3\n        /* \"#utility.yul\":7532:7546   */\n      lt\n        /* \"#utility.yul\":7512:7530   */\n      dup2\n        /* \"#utility.yul\":7509:7547   */\n      eq\n        /* \"#utility.yul\":7506:7590   */\n      iszero\n      tag_187\n      jumpi\n        /* \"#utility.yul\":7562:7580   */\n      tag_188\n      tag_189\n      jump\t// in\n    tag_188:\n        /* \"#utility.yul\":7506:7590   */\n    tag_187:\n        /* \"#utility.yul\":7327:7596   */\n      pop\n        /* \"#utility.yul\":7276:7596   */\n      swap2\n      swap1\n      pop\n      jump\t// out\n        /* \"#utility.yul\":7602:7883   */\n    tag_152:\n        /* \"#utility.yul\":7685:7712   */\n      tag_191\n        /* \"#utility.yul\":7707:7711   */\n      dup3\n        /* \"#utility.yul\":7685:7712   */\n      tag_126\n      jump\t// in\n    tag_191:\n        /* \"#utility.yul\":7677:7683   */\n      dup2\n        /* \"#utility.yul\":7673:7713   */\n      add\n        /* \"#utility.yul\":7815:7821   */\n      dup2\n        /* \"#utility.yul\":7803:7813   */\n      dup2\n        /* \"#utility.yul\":7800:7822   */\n      lt\n        /* \"#utility.yul\":7779:7797   */\n      0xffffffffffffffff\n        /* \"#utility.yul\":7767:7777   */\n      dup3\n        /* \"#utility.yul\":7764:7798   */\n      gt\n        /* \"#utility.yul\":7761:7823   */\n      or\n        /* \"#utility.yul\":7758:7846   */\n      iszero\n      tag_192\n      jumpi\n        /* \"#utility.yul\":7826:7844   */\n      tag_193\n      tag_157\n      jump\t// in\n    tag_193:\n        /* \"#utility.yul\":7758:7846   */\n    tag_192:\n        /* \"#utility.yul\":7866:7876   */\n      dup1\n        /* \"#utility.yul\":7862:7864   */\n      0x40\n        /* \"#utility.yul\":7855:7877   */\n      mstore\n        /* \"#utility.yul\":7645:7883   */\n      pop\n        /* \"#utility.yul\":7602:7883   */\n      pop\n      pop\n      jump\t// out\n        /* \"#utility.yul\":7889:8069   */\n    tag_166:\n        /* \"#utility.yul\":7937:8014   */\n      0x4e487b7100000000000000000000000000000000000000000000000000000000\n        /* \"#utility.yul\":7934:7935   */\n      0x00\n        /* \"#utility.yul\":7927:8015   */\n      mstore\n        /* \"#utility.yul\":8034:8038   */\n      0x11\n        /* \"#utility.yul\":8031:8032   */\n      0x04\n        /* \"#utility.yul\":8024:8039   */\n      mstore\n        /* \"#utility.yul\":8058:8062   */\n      0x24\n        /* \"#utility.yul\":8055:8056   */\n      0x00\n        /* \"#utility.yul\":8048:8063   */\n      revert\n        /* \"#utility.yul\":8075:8255   */\n    tag_189:\n        /* \"#utility.yul\":8123:8200   */\n      0x4e487b7100000000000000000000000000000000000000000000000000000000\n        /* \"#utility.yul\":8120:8121   */\n      0x00\n        /* \"#utility.yul\":8113:8201   */\n      mstore\n        /* \"#utility.yul\":8220:8224   */\n      0x22\n        /* \"#utility.yul\":8217:8218   */\n      0x04\n        /* \"#utility.yul\":8210:8225   */\n      mstore\n        /* \"#utility.yul\":8244:8248   */\n      0x24\n        /* \"#utility.yul\":8241:8242   */\n      0x00\n        /* \"#utility.yul\":8234:8249   */\n      revert\n        /* \"#utility.yul\":8261:8441   */\n    tag_157:\n        /* \"#utility.yul\":8309:8386   */\n      0x4e487b7100000000000000000000000000000000000000000000000000000000\n        /* \"#utility.yul\":8306:8307   */\n      0x00\n        /* \"#utility.yul\":8299:8387   */\n      mstore\n        /* \"#utility.yul\":8406:8410   */\n      0x41\n        /* \"#utility.yul\":8403:8404   */\n      0x04\n        /* \"#utility.yul\":8396:8411   */\n      mstore\n        /* \"#utility.yul\":8430:8434   */\n      0x24\n        /* \"#utility.yul\":8427:8428   */\n      0x00\n        /* \"#utility.yul\":8420:8435   */\n      revert\n        /* \"#utility.yul\":8447:8564   */\n    tag_89:\n        /* \"#utility.yul\":8556:8557   */\n      0x00\n        /* \"#utility.yul\":8553:8554   */\n      dup1\n        /* \"#utility.yul\":8546:8558   */\n      revert\n        /* \"#utility.yul\":8570:8687   */\n    tag_78:\n        /* \"#utility.yul\":8679:8680   */\n      0x00\n        /* \"#utility.yul\":8676:8677   */\n      dup1\n        /* \"#utility.yul\":8669:8681   */\n      revert\n        /* \"#utility.yul\":8693:8810   */\n    tag_101:\n        /* \"#utility.yul\":8802:8803   */\n      0x00\n        /* \"#utility.yul\":8799:8800   */\n      dup1\n        /* \"#utility.yul\":8792:8804   */\n      revert\n        /* \"#utility.yul\":8816:8933   */\n    tag_98:\n        /* \"#utility.yul\":8925:8926   */\n      0x00\n        /* \"#utility.yul\":8922:8923   */\n      dup1\n        /* \"#utility.yul\":8915:8927   */\n      revert\n        /* \"#utility.yul\":8939:9041   */\n    tag_126:\n        /* \"#utility.yul\":8980:8986   */\n      0x00\n        /* \"#utility.yul\":9031:9033   */\n      0x1f\n        /* \"#utility.yul\":9027:9034   */\n      not\n        /* \"#utility.yul\":9022:9024   */\n      0x1f\n        /* \"#utility.yul\":9015:9020   */\n      dup4\n        /* \"#utility.yul\":9011:9025   */\n      add\n        /* \"#utility.yul\":9007:9035   */\n      and\n        /* \"#utility.yul\":8997:9035   */\n      swap1\n      pop\n        /* \"#utility.yul\":8939:9041   */\n      swap2\n      swap1\n      pop\n      jump\t// out\n        /* \"#utility.yul\":9047:9276   */\n    tag_131:\n        /* \"#utility.yul\":9187:9221   */\n      0x596f75206861766520746f2063726561746520646f6e6174696f6e20666f7220\n        /* \"#utility.yul\":9183:9184   */\n      0x00\n        /* \"#utility.yul\":9175:9181   */\n      dup3\n        /* \"#utility.yul\":9171:9185   */\n      add\n        /* \"#utility.yul\":9164:9222   */\n      mstore\n        /* \"#utility.yul\":9256:9268   */\n      0x73656e6420657468657200000000000000000000000000000000000000000000\n        /* \"#utility.yul\":9251:9253   */\n      0x20\n        /* \"#utility.yul\":9243:9249   */\n      dup3\n        /* \"#utility.yul\":9239:9254   */\n      add\n        /* \"#utility.yul\":9232:9269   */\n      mstore\n        /* \"#utility.yul\":9047:9276   */\n      pop\n      jump\t// out\n        /* \"#utility.yul\":9282:9420   */\n    tag_84:\n        /* \"#utility.yul\":9363:9395   */\n      tag_204\n        /* \"#utility.yul\":9389:9394   */\n      dup2\n        /* \"#utility.yul\":9363:9395   */\n      tag_112\n      jump\t// in\n    tag_204:\n        /* \"#utility.yul\":9356:9361   */\n      dup2\n        /* \"#utility.yul\":9353:9396   */\n      eq\n        /* \"#utility.yul\":9343:9414   */\n      tag_205\n      jumpi\n        /* \"#utility.yul\":9410:9411   */\n      0x00\n        /* \"#utility.yul\":9407:9408   */\n      dup1\n        /* \"#utility.yul\":9400:9412   */\n      revert\n        /* \"#utility.yul\":9343:9414   */\n    tag_205:\n        /* \"#utility.yul\":9282:9420   */\n      pop\n      jump\t// out\n        /* \"#utility.yul\":9426:9548   */\n    tag_94:\n        /* \"#utility.yul\":9499:9523   */\n      tag_207\n        /* \"#utility.yul\":9517:9522   */\n      dup2\n        /* \"#utility.yul\":9499:9523   */\n      tag_135\n      jump\t// in\n    tag_207:\n        /* \"#utility.yul\":9492:9497   */\n      dup2\n        /* \"#utility.yul\":9489:9524   */\n      eq\n        /* \"#utility.yul\":9479:9542   */\n      tag_208\n      jumpi\n        /* \"#utility.yul\":9538:9539   */\n      0x00\n        /* \"#utility.yul\":9535:9536   */\n      dup1\n        /* \"#utility.yul\":9528:9540   */\n      revert\n        /* \"#utility.yul\":9479:9542   */\n    tag_208:\n        /* \"#utility.yul\":9426:9548   */\n      pop\n      jump\t// out\n\n    auxdata: 0xa26469706673582212205227f815fa8504609223ffedf096ca97cd772d6a614c998b7aa2d78d72fbadf464736f6c63430008070033\n}\n",
				"bytecode": {
					"linkReferences": {},
					"object": "608060405234801561001057600080fd5b50610b1a806100206000396000f3fe6080604052600436106100555760003560e01c8063325ec7681461005a578063722713f714610064578063b5e051d91461008f578063b69ef8a8146100cc578063f14faf6f146100f7578063f8626af814610120575b600080fd5b610062610160565b005b34801561007057600080fd5b50610079610162565b6040516100869190610782565b60405180910390f35b34801561009b57600080fd5b506100b660048036038101906100b191906105f1565b61016a565b6040516100c39190610782565b60405180910390f35b3480156100d857600080fd5b506100e161025d565b6040516100ee9190610782565b60405180910390f35b34801561010357600080fd5b5061011e60048036038101906101199190610660565b610263565b005b34801561012c57600080fd5b5061014760048036038101906101429190610660565b6103bc565b6040516101579493929190610716565b60405180910390f35b565b600047905090565b6000806002600060015481526020019081526020016000209050338160000160006101000a81548173ffffffffffffffffffffffffffffffffffffffff021916908373ffffffffffffffffffffffffffffffffffffffff160217905550848160010190805190602001906101df9291906104b4565b50838160030160006101000a81548173ffffffffffffffffffffffffffffffffffffffff021916908373ffffffffffffffffffffffffffffffffffffffff160217905550828160020181905550600180600082825461023e9190610838565b9250508190555060018054610253919061088e565b9150509392505050565b60005481565b60006002600083815260200190815260200160002090508060000160009054906101000a900473ffffffffffffffffffffffffffffffffffffffff1673ffffffffffffffffffffffffffffffffffffffff163373ffffffffffffffffffffffffffffffffffffffff161461030c576040517f08c379a000000000000000000000000000000000000000000000000000000000815260040161030390610762565b60405180910390fd5b8060030160009054906101000a900473ffffffffffffffffffffffffffffffffffffffff1673ffffffffffffffffffffffffffffffffffffffff166108fc82600201549081150290604051600060405180830381858888f1935050505015801561037a573d6000803e3d6000fd5b507f489807a5fd45f95df5a4da56d2ec4a895cd239ac44d0d9703ac6d8f0c590549c8282600201546040516103b092919061079d565b60405180910390a15050565b60026020528060005260406000206000915090508060000160009054906101000a900473ffffffffffffffffffffffffffffffffffffffff169080600101805461040590610952565b80601f016020809104026020016040519081016040528092919081815260200182805461043190610952565b801561047e5780601f106104535761010080835404028352916020019161047e565b820191906000526020600020905b81548152906001019060200180831161046157829003601f168201915b5050505050908060020154908060030160009054906101000a900473ffffffffffffffffffffffffffffffffffffffff16905084565b8280546104c090610952565b90600052602060002090601f0160209004810192826104e25760008555610529565b82601f106104fb57805160ff1916838001178555610529565b82800160010185558215610529579182015b8281111561052857825182559160200191906001019061050d565b5b509050610536919061053a565b5090565b5b8082111561055357600081600090555060010161053b565b5090565b600061056a610565846107eb565b6107c6565b90508281526020810184848401111561058657610585610a47565b5b610591848285610910565b509392505050565b6000813590506105a881610ab6565b92915050565b600082601f8301126105c3576105c2610a42565b5b81356105d3848260208601610557565b91505092915050565b6000813590506105eb81610acd565b92915050565b60008060006060848603121561060a57610609610a51565b5b600084013567ffffffffffffffff81111561062857610627610a4c565b5b610634868287016105ae565b935050602061064586828701610599565b9250506040610656868287016105dc565b9150509250925092565b60006020828403121561067657610675610a51565b5b6000610684848285016105dc565b91505092915050565b610696816108d4565b82525050565b6106a5816108c2565b82525050565b60006106b68261081c565b6106c08185610827565b93506106d081856020860161091f565b6106d981610a56565b840191505092915050565b60006106f1602a83610827565b91506106fc82610a67565b604082019050919050565b61071081610906565b82525050565b600060808201905061072b600083018761069c565b818103602083015261073d81866106ab565b905061074c6040830185610707565b610759606083018461068d565b95945050505050565b6000602082019050818103600083015261077b816106e4565b9050919050565b60006020820190506107976000830184610707565b92915050565b60006040820190506107b26000830185610707565b6107bf6020830184610707565b9392505050565b60006107d06107e1565b90506107dc8282610984565b919050565b6000604051905090565b600067ffffffffffffffff82111561080657610805610a13565b5b61080f82610a56565b9050602081019050919050565b600081519050919050565b600082825260208201905092915050565b600061084382610906565b915061084e83610906565b9250827fffffffffffffffffffffffffffffffffffffffffffffffffffffffffffffffff03821115610883576108826109b5565b5b828201905092915050565b600061089982610906565b91506108a483610906565b9250828210156108b7576108b66109b5565b5b828203905092915050565b60006108cd826108e6565b9050919050565b60006108df826108e6565b9050919050565b600073ffffffffffffffffffffffffffffffffffffffff82169050919050565b6000819050919050565b82818337600083830152505050565b60005b8381101561093d578082015181840152602081019050610922565b8381111561094c576000848401525b50505050565b6000600282049050600182168061096a57607f821691505b6020821081141561097e5761097d6109e4565b5b50919050565b61098d82610a56565b810181811067ffffffffffffffff821117156109ac576109ab610a13565b5b80604052505050565b7f4e487b7100000000000000000000000000000000000000000000000000000000600052601160045260246000fd5b7f4e487b7100000000000000000000000000000000000000000000000000000000600052602260045260246000fd5b7f4e487b7100000000000000000000000000000000000000000000000000000000600052604160045260246000fd5b600080fd5b600080fd5b600080fd5b600080fd5b6000601f19601f8301169050919050565b7f596f75206861766520746f2063726561746520646f6e6174696f6e20666f722060008201527f73656e6420657468657200000000000000000000000000000000000000000000602082015250565b610abf816108d4565b8114610aca57600080fd5b50565b610ad681610906565b8114610ae157600080fd5b5056fea26469706673582212205227f815fa8504609223ffedf096ca97cd772d6a614c998b7aa2d78d72fbadf464736f6c63430008070033",
					"opcodes": "PUSH1 0x80 PUSH1 0x40 MSTORE CALLVALUE DUP1 ISZERO PUSH2 0x10 JUMPI PUSH1 0x0 DUP1 REVERT JUMPDEST POP PUSH2 0xB1A DUP1 PUSH2 0x20 PUSH1 0x0 CODECOPY PUSH1 0x0 RETURN INVALID PUSH1 0x80 PUSH1 0x40 MSTORE PUSH1 0x4 CALLDATASIZE LT PUSH2 0x55 JUMPI PUSH1 0x0 CALLDATALOAD PUSH1 0xE0 SHR DUP1 PUSH4 0x325EC768 EQ PUSH2 0x5A JUMPI DUP1 PUSH4 0x722713F7 EQ PUSH2 0x64 JUMPI DUP1 PUSH4 0xB5E051D9 EQ PUSH2 0x8F JUMPI DUP1 PUSH4 0xB69EF8A8 EQ PUSH2 0xCC JUMPI DUP1 PUSH4 0xF14FAF6F EQ PUSH2 0xF7 JUMPI DUP1 PUSH4 0xF8626AF8 EQ PUSH2 0x120 JUMPI JUMPDEST PUSH1 0x0 DUP1 REVERT JUMPDEST PUSH2 0x62 PUSH2 0x160 JUMP JUMPDEST STOP JUMPDEST CALLVALUE DUP1 ISZERO PUSH2 0x70 JUMPI PUSH1 0x0 DUP1 REVERT JUMPDEST POP PUSH2 0x79 PUSH2 0x162 JUMP JUMPDEST PUSH1 0x40 MLOAD PUSH2 0x86 SWAP2 SWAP1 PUSH2 0x782 JUMP JUMPDEST PUSH1 0x40 MLOAD DUP1 SWAP2 SUB SWAP1 RETURN JUMPDEST CALLVALUE DUP1 ISZERO PUSH2 0x9B JUMPI PUSH1 0x0 DUP1 REVERT JUMPDEST POP PUSH2 0xB6 PUSH1 0x4 DUP1 CALLDATASIZE SUB DUP2 ADD SWAP1 PUSH2 0xB1 SWAP2 SWAP1 PUSH2 0x5F1 JUMP JUMPDEST PUSH2 0x16A JUMP JUMPDEST PUSH1 0x40 MLOAD PUSH2 0xC3 SWAP2 SWAP1 PUSH2 0x782 JUMP JUMPDEST PUSH1 0x40 MLOAD DUP1 SWAP2 SUB SWAP1 RETURN JUMPDEST CALLVALUE DUP1 ISZERO PUSH2 0xD8 JUMPI PUSH1 0x0 DUP1 REVERT JUMPDEST POP PUSH2 0xE1 PUSH2 0x25D JUMP JUMPDEST PUSH1 0x40 MLOAD PUSH2 0xEE SWAP2 SWAP1 PUSH2 0x782 JUMP JUMPDEST PUSH1 0x40 MLOAD DUP1 SWAP2 SUB SWAP1 RETURN JUMPDEST CALLVALUE DUP1 ISZERO PUSH2 0x103 JUMPI PUSH1 0x0 DUP1 REVERT JUMPDEST POP PUSH2 0x11E PUSH1 0x4 DUP1 CALLDATASIZE SUB DUP2 ADD SWAP1 PUSH2 0x119 SWAP2 SWAP1 PUSH2 0x660 JUMP JUMPDEST PUSH2 0x263 JUMP JUMPDEST STOP JUMPDEST CALLVALUE DUP1 ISZERO PUSH2 0x12C JUMPI PUSH1 0x0 DUP1 REVERT JUMPDEST POP PUSH2 0x147 PUSH1 0x4 DUP1 CALLDATASIZE SUB DUP2 ADD SWAP1 PUSH2 0x142 SWAP2 SWAP1 PUSH2 0x660 JUMP JUMPDEST PUSH2 0x3BC JUMP JUMPDEST PUSH1 0x40 MLOAD PUSH2 0x157 SWAP5 SWAP4 SWAP3 SWAP2 SWAP1 PUSH2 0x716 JUMP JUMPDEST PUSH1 0x40 MLOAD DUP1 SWAP2 SUB SWAP1 RETURN JUMPDEST JUMP JUMPDEST PUSH1 0x0 SELFBALANCE SWAP1 POP SWAP1 JUMP JUMPDEST PUSH1 0x0 DUP1 PUSH1 0x2 PUSH1 0x0 PUSH1 0x1 SLOAD DUP2 MSTORE PUSH1 0x20 ADD SWAP1 DUP2 MSTORE PUSH1 0x20 ADD PUSH1 0x0 KECCAK256 SWAP1 POP CALLER DUP2 PUSH1 0x0 ADD PUSH1 0x0 PUSH2 0x100 EXP DUP2 SLOAD DUP2 PUSH20 0xFFFFFFFFFFFFFFFFFFFFFFFFFFFFFFFFFFFFFFFF MUL NOT AND SWAP1 DUP4 PUSH20 0xFFFFFFFFFFFFFFFFFFFFFFFFFFFFFFFFFFFFFFFF AND MUL OR SWAP1 SSTORE POP DUP5 DUP2 PUSH1 0x1 ADD SWAP1 DUP1 MLOAD SWAP1 PUSH1 0x20 ADD SWAP1 PUSH2 0x1DF SWAP3 SWAP2 SWAP1 PUSH2 0x4B4 JUMP JUMPDEST POP DUP4 DUP2 PUSH1 0x3 ADD PUSH1 0x0 PUSH2 0x100 EXP DUP2 SLOAD DUP2 PUSH20 0xFFFFFFFFFFFFFFFFFFFFFFFFFFFFFFFFFFFFFFFF MUL NOT AND SWAP1 DUP4 PUSH20 0xFFFFFFFFFFFFFFFFFFFFFFFFFFFFFFFFFFFFFFFF AND MUL OR SWAP1 SSTORE POP DUP3 DUP2 PUSH1 0x2 ADD DUP2 SWAP1 SSTORE POP PUSH1 0x1 DUP1 PUSH1 0x0 DUP3 DUP3 SLOAD PUSH2 0x23E SWAP2 SWAP1 PUSH2 0x838 JUMP JUMPDEST SWAP3 POP POP DUP2 SWAP1 SSTORE POP PUSH1 0x1 DUP1 SLOAD PUSH2 0x253 SWAP2 SWAP1 PUSH2 0x88E JUMP JUMPDEST SWAP2 POP POP SWAP4 SWAP3 POP POP POP JUMP JUMPDEST PUSH1 0x0 SLOAD DUP2 JUMP JUMPDEST PUSH1 0x0 PUSH1 0x2 PUSH1 0x0 DUP4 DUP2 MSTORE PUSH1 0x20 ADD SWAP1 DUP2 MSTORE PUSH1 0x20 ADD PUSH1 0x0 KECCAK256 SWAP1 POP DUP1 PUSH1 0x0 ADD PUSH1 0x0 SWAP1 SLOAD SWAP1 PUSH2 0x100 EXP SWAP1 DIV PUSH20 0xFFFFFFFFFFFFFFFFFFFFFFFFFFFFFFFFFFFFFFFF AND PUSH20 0xFFFFFFFFFFFFFFFFFFFFFFFFFFFFFFFFFFFFFFFF AND CALLER PUSH20 0xFFFFFFFFFFFFFFFFFFFFFFFFFFFFFFFFFFFFFFFF AND EQ PUSH2 0x30C JUMPI PUSH1 0x40 MLOAD PUSH32 0x8C379A000000000000000000000000000000000000000000000000000000000 DUP2 MSTORE PUSH1 0x4 ADD PUSH2 0x303 SWAP1 PUSH2 0x762 JUMP JUMPDEST PUSH1 0x40 MLOAD DUP1 SWAP2 SUB SWAP1 REVERT JUMPDEST DUP1 PUSH1 0x3 ADD PUSH1 0x0 SWAP1 SLOAD SWAP1 PUSH2 0x100 EXP SWAP1 DIV PUSH20 0xFFFFFFFFFFFFFFFFFFFFFFFFFFFFFFFFFFFFFFFF AND PUSH20 0xFFFFFFFFFFFFFFFFFFFFFFFFFFFFFFFFFFFFFFFF AND PUSH2 0x8FC DUP3 PUSH1 0x2 ADD SLOAD SWAP1 DUP2 ISZERO MUL SWAP1 PUSH1 0x40 MLOAD PUSH1 0x0 PUSH1 0x40 MLOAD DUP1 DUP4 SUB DUP2 DUP6 DUP9 DUP9 CALL SWAP4 POP POP POP POP ISZERO DUP1 ISZERO PUSH2 0x37A JUMPI RETURNDATASIZE PUSH1 0x0 DUP1 RETURNDATACOPY RETURNDATASIZE PUSH1 0x0 REVERT JUMPDEST POP PUSH32 0x489807A5FD45F95DF5A4DA56D2EC4A895CD239AC44D0D9703AC6D8F0C590549C DUP3 DUP3 PUSH1 0x2 ADD SLOAD PUSH1 0x40 MLOAD PUSH2 0x3B0 SWAP3 SWAP2 SWAP1 PUSH2 0x79D JUMP JUMPDEST PUSH1 0x40 MLOAD DUP1 SWAP2 SUB SWAP1 LOG1 POP POP JUMP JUMPDEST PUSH1 0x2 PUSH1 0x20 MSTORE DUP1 PUSH1 0x0 MSTORE PUSH1 0x40 PUSH1 0x0 KECCAK256 PUSH1 0x0 SWAP2 POP SWAP1 POP DUP1 PUSH1 0x0 ADD PUSH1 0x0 SWAP1 SLOAD SWAP1 PUSH2 0x100 EXP SWAP1 DIV PUSH20 0xFFFFFFFFFFFFFFFFFFFFFFFFFFFFFFFFFFFFFFFF AND SWAP1 DUP1 PUSH1 0x1 ADD DUP1 SLOAD PUSH2 0x405 SWAP1 PUSH2 0x952 JUMP JUMPDEST DUP1 PUSH1 0x1F ADD PUSH1 0x20 DUP1 SWAP2 DIV MUL PUSH1 0x20 ADD PUSH1 0x40 MLOAD SWAP1 DUP2 ADD PUSH1 0x40 MSTORE DUP1 SWAP3 SWAP2 SWAP1 DUP2 DUP2 MSTORE PUSH1 0x20 ADD DUP3 DUP1 SLOAD PUSH2 0x431 SWAP1 PUSH2 0x952 JUMP JUMPDEST DUP1 ISZERO PUSH2 0x47E JUMPI DUP1 PUSH1 0x1F LT PUSH2 0x453 JUMPI PUSH2 0x100 DUP1 DUP4 SLOAD DIV MUL DUP4 MSTORE SWAP2 PUSH1 0x20 ADD SWAP2 PUSH2 0x47E JUMP JUMPDEST DUP3 ADD SWAP2 SWAP1 PUSH1 0x0 MSTORE PUSH1 0x20 PUSH1 0x0 KECCAK256 SWAP1 JUMPDEST DUP2 SLOAD DUP2 MSTORE SWAP1 PUSH1 0x1 ADD SWAP1 PUSH1 0x20 ADD DUP1 DUP4 GT PUSH2 0x461 JUMPI DUP3 SWAP1 SUB PUSH1 0x1F AND DUP3 ADD SWAP2 JUMPDEST POP POP POP POP POP SWAP1 DUP1 PUSH1 0x2 ADD SLOAD SWAP1 DUP1 PUSH1 0x3 ADD PUSH1 0x0 SWAP1 SLOAD SWAP1 PUSH2 0x100 EXP SWAP1 DIV PUSH20 0xFFFFFFFFFFFFFFFFFFFFFFFFFFFFFFFFFFFFFFFF AND SWAP1 POP DUP5 JUMP JUMPDEST DUP3 DUP1 SLOAD PUSH2 0x4C0 SWAP1 PUSH2 0x952 JUMP JUMPDEST SWAP1 PUSH1 0x0 MSTORE PUSH1 0x20 PUSH1 0x0 KECCAK256 SWAP1 PUSH1 0x1F ADD PUSH1 0x20 SWAP1 DIV DUP2 ADD SWAP3 DUP3 PUSH2 0x4E2 JUMPI PUSH1 0x0 DUP6 SSTORE PUSH2 0x529 JUMP JUMPDEST DUP3 PUSH1 0x1F LT PUSH2 0x4FB JUMPI DUP1 MLOAD PUSH1 0xFF NOT AND DUP4 DUP1 ADD OR DUP6 SSTORE PUSH2 0x529 JUMP JUMPDEST DUP3 DUP1 ADD PUSH1 0x1 ADD DUP6 SSTORE DUP3 ISZERO PUSH2 0x529 JUMPI SWAP2 DUP3 ADD JUMPDEST DUP3 DUP2 GT ISZERO PUSH2 0x528 JUMPI DUP3 MLOAD DUP3 SSTORE SWAP2 PUSH1 0x20 ADD SWAP2 SWAP1 PUSH1 0x1 ADD SWAP1 PUSH2 0x50D JUMP JUMPDEST JUMPDEST POP SWAP1 POP PUSH2 0x536 SWAP2 SWAP1 PUSH2 0x53A JUMP JUMPDEST POP SWAP1 JUMP JUMPDEST JUMPDEST DUP1 DUP3 GT ISZERO PUSH2 0x553 JUMPI PUSH1 0x0 DUP2 PUSH1 0x0 SWAP1 SSTORE POP PUSH1 0x1 ADD PUSH2 0x53B JUMP JUMPDEST POP SWAP1 JUMP JUMPDEST PUSH1 0x0 PUSH2 0x56A PUSH2 0x565 DUP5 PUSH2 0x7EB JUMP JUMPDEST PUSH2 0x7C6 JUMP JUMPDEST SWAP1 POP DUP3 DUP2 MSTORE PUSH1 0x20 DUP2 ADD DUP5 DUP5 DUP5 ADD GT ISZERO PUSH2 0x586 JUMPI PUSH2 0x585 PUSH2 0xA47 JUMP JUMPDEST JUMPDEST PUSH2 0x591 DUP5 DUP3 DUP6 PUSH2 0x910 JUMP JUMPDEST POP SWAP4 SWAP3 POP POP POP JUMP JUMPDEST PUSH1 0x0 DUP2 CALLDATALOAD SWAP1 POP PUSH2 0x5A8 DUP2 PUSH2 0xAB6 JUMP JUMPDEST SWAP3 SWAP2 POP POP JUMP JUMPDEST PUSH1 0x0 DUP3 PUSH1 0x1F DUP4 ADD SLT PUSH2 0x5C3 JUMPI PUSH2 0x5C2 PUSH2 0xA42 JUMP JUMPDEST JUMPDEST DUP2 CALLDATALOAD PUSH2 0x5D3 DUP5 DUP3 PUSH1 0x20 DUP7 ADD PUSH2 0x557 JUMP JUMPDEST SWAP2 POP POP SWAP3 SWAP2 POP POP JUMP JUMPDEST PUSH1 0x0 DUP2 CALLDATALOAD SWAP1 POP PUSH2 0x5EB DUP2 PUSH2 0xACD JUMP JUMPDEST SWAP3 SWAP2 POP POP JUMP JUMPDEST PUSH1 0x0 DUP1 PUSH1 0x0 PUSH1 0x60 DUP5 DUP7 SUB SLT ISZERO PUSH2 0x60A JUMPI PUSH2 0x609 PUSH2 0xA51 JUMP JUMPDEST JUMPDEST PUSH1 0x0 DUP5 ADD CALLDATALOAD PUSH8 0xFFFFFFFFFFFFFFFF DUP2 GT ISZERO PUSH2 0x628 JUMPI PUSH2 0x627 PUSH2 0xA4C JUMP JUMPDEST JUMPDEST PUSH2 0x634 DUP7 DUP3 DUP8 ADD PUSH2 0x5AE JUMP JUMPDEST SWAP4 POP POP PUSH1 0x20 PUSH2 0x645 DUP7 DUP3 DUP8 ADD PUSH2 0x599 JUMP JUMPDEST SWAP3 POP POP PUSH1 0x40 PUSH2 0x656 DUP7 DUP3 DUP8 ADD PUSH2 0x5DC JUMP JUMPDEST SWAP2 POP POP SWAP3 POP SWAP3 POP SWAP3 JUMP JUMPDEST PUSH1 0x0 PUSH1 0x20 DUP3 DUP5 SUB SLT ISZERO PUSH2 0x676 JUMPI PUSH2 0x675 PUSH2 0xA51 JUMP JUMPDEST JUMPDEST PUSH1 0x0 PUSH2 0x684 DUP5 DUP3 DUP6 ADD PUSH2 0x5DC JUMP JUMPDEST SWAP2 POP POP SWAP3 SWAP2 POP POP JUMP JUMPDEST PUSH2 0x696 DUP2 PUSH2 0x8D4 JUMP JUMPDEST DUP3 MSTORE POP POP JUMP JUMPDEST PUSH2 0x6A5 DUP2 PUSH2 0x8C2 JUMP JUMPDEST DUP3 MSTORE POP POP JUMP JUMPDEST PUSH1 0x0 PUSH2 0x6B6 DUP3 PUSH2 0x81C JUMP JUMPDEST PUSH2 0x6C0 DUP2 DUP6 PUSH2 0x827 JUMP JUMPDEST SWAP4 POP PUSH2 0x6D0 DUP2 DUP6 PUSH1 0x20 DUP7 ADD PUSH2 0x91F JUMP JUMPDEST PUSH2 0x6D9 DUP2 PUSH2 0xA56 JUMP JUMPDEST DUP5 ADD SWAP2 POP POP SWAP3 SWAP2 POP POP JUMP JUMPDEST PUSH1 0x0 PUSH2 0x6F1 PUSH1 0x2A DUP4 PUSH2 0x827 JUMP JUMPDEST SWAP2 POP PUSH2 0x6FC DUP3 PUSH2 0xA67 JUMP JUMPDEST PUSH1 0x40 DUP3 ADD SWAP1 POP SWAP2 SWAP1 POP JUMP JUMPDEST PUSH2 0x710 DUP2 PUSH2 0x906 JUMP JUMPDEST DUP3 MSTORE POP POP JUMP JUMPDEST PUSH1 0x0 PUSH1 0x80 DUP3 ADD SWAP1 POP PUSH2 0x72B PUSH1 0x0 DUP4 ADD DUP8 PUSH2 0x69C JUMP JUMPDEST DUP2 DUP2 SUB PUSH1 0x20 DUP4 ADD MSTORE PUSH2 0x73D DUP2 DUP7 PUSH2 0x6AB JUMP JUMPDEST SWAP1 POP PUSH2 0x74C PUSH1 0x40 DUP4 ADD DUP6 PUSH2 0x707 JUMP JUMPDEST PUSH2 0x759 PUSH1 0x60 DUP4 ADD DUP5 PUSH2 0x68D JUMP JUMPDEST SWAP6 SWAP5 POP POP POP POP POP JUMP JUMPDEST PUSH1 0x0 PUSH1 0x20 DUP3 ADD SWAP1 POP DUP2 DUP2 SUB PUSH1 0x0 DUP4 ADD MSTORE PUSH2 0x77B DUP2 PUSH2 0x6E4 JUMP JUMPDEST SWAP1 POP SWAP2 SWAP1 POP JUMP JUMPDEST PUSH1 0x0 PUSH1 0x20 DUP3 ADD SWAP1 POP PUSH2 0x797 PUSH1 0x0 DUP4 ADD DUP5 PUSH2 0x707 JUMP JUMPDEST SWAP3 SWAP2 POP POP JUMP JUMPDEST PUSH1 0x0 PUSH1 0x40 DUP3 ADD SWAP1 POP PUSH2 0x7B2 PUSH1 0x0 DUP4 ADD DUP6 PUSH2 0x707 JUMP JUMPDEST PUSH2 0x7BF PUSH1 0x20 DUP4 ADD DUP5 PUSH2 0x707 JUMP JUMPDEST SWAP4 SWAP3 POP POP POP JUMP JUMPDEST PUSH1 0x0 PUSH2 0x7D0 PUSH2 0x7E1 JUMP JUMPDEST SWAP1 POP PUSH2 0x7DC DUP3 DUP3 PUSH2 0x984 JUMP JUMPDEST SWAP2 SWAP1 POP JUMP JUMPDEST PUSH1 0x0 PUSH1 0x40 MLOAD SWAP1 POP SWAP1 JUMP JUMPDEST PUSH1 0x0 PUSH8 0xFFFFFFFFFFFFFFFF DUP3 GT ISZERO PUSH2 0x806 JUMPI PUSH2 0x805 PUSH2 0xA13 JUMP JUMPDEST JUMPDEST PUSH2 0x80F DUP3 PUSH2 0xA56 JUMP JUMPDEST SWAP1 POP PUSH1 0x20 DUP2 ADD SWAP1 POP SWAP2 SWAP1 POP JUMP JUMPDEST PUSH1 0x0 DUP2 MLOAD SWAP1 POP SWAP2 SWAP1 POP JUMP JUMPDEST PUSH1 0x0 DUP3 DUP3 MSTORE PUSH1 0x20 DUP3 ADD SWAP1 POP SWAP3 SWAP2 POP POP JUMP JUMPDEST PUSH1 0x0 PUSH2 0x843 DUP3 PUSH2 0x906 JUMP JUMPDEST SWAP2 POP PUSH2 0x84E DUP4 PUSH2 0x906 JUMP JUMPDEST SWAP3 POP DUP3 PUSH32 0xFFFFFFFFFFFFFFFFFFFFFFFFFFFFFFFFFFFFFFFFFFFFFFFFFFFFFFFFFFFFFFFF SUB DUP3 GT ISZERO PUSH2 0x883 JUMPI PUSH2 0x882 PUSH2 0x9B5 JUMP JUMPDEST JUMPDEST DUP3 DUP3 ADD SWAP1 POP SWAP3 SWAP2 POP POP JUMP JUMPDEST PUSH1 0x0 PUSH2 0x899 DUP3 PUSH2 0x906 JUMP JUMPDEST SWAP2 POP PUSH2 0x8A4 DUP4 PUSH2 0x906 JUMP JUMPDEST SWAP3 POP DUP3 DUP3 LT ISZERO PUSH2 0x8B7 JUMPI PUSH2 0x8B6 PUSH2 0x9B5 JUMP JUMPDEST JUMPDEST DUP3 DUP3 SUB SWAP1 POP SWAP3 SWAP2 POP POP JUMP JUMPDEST PUSH1 0x0 PUSH2 0x8CD DUP3 PUSH2 0x8E6 JUMP JUMPDEST SWAP1 POP SWAP2 SWAP1 POP JUMP JUMPDEST PUSH1 0x0 PUSH2 0x8DF DUP3 PUSH2 0x8E6 JUMP JUMPDEST SWAP1 POP SWAP2 SWAP1 POP JUMP JUMPDEST PUSH1 0x0 PUSH20 0xFFFFFFFFFFFFFFFFFFFFFFFFFFFFFFFFFFFFFFFF DUP3 AND SWAP1 POP SWAP2 SWAP1 POP JUMP JUMPDEST PUSH1 0x0 DUP2 SWAP1 POP SWAP2 SWAP1 POP JUMP JUMPDEST DUP3 DUP2 DUP4 CALLDATACOPY PUSH1 0x0 DUP4 DUP4 ADD MSTORE POP POP POP JUMP JUMPDEST PUSH1 0x0 JUMPDEST DUP4 DUP2 LT ISZERO PUSH2 0x93D JUMPI DUP1 DUP3 ADD MLOAD DUP2 DUP5 ADD MSTORE PUSH1 0x20 DUP2 ADD SWAP1 POP PUSH2 0x922 JUMP JUMPDEST DUP4 DUP2 GT ISZERO PUSH2 0x94C JUMPI PUSH1 0x0 DUP5 DUP5 ADD MSTORE JUMPDEST POP POP POP POP JUMP JUMPDEST PUSH1 0x0 PUSH1 0x2 DUP3 DIV SWAP1 POP PUSH1 0x1 DUP3 AND DUP1 PUSH2 0x96A JUMPI PUSH1 0x7F DUP3 AND SWAP2 POP JUMPDEST PUSH1 0x20 DUP3 LT DUP2 EQ ISZERO PUSH2 0x97E JUMPI PUSH2 0x97D PUSH2 0x9E4 JUMP JUMPDEST JUMPDEST POP SWAP2 SWAP1 POP JUMP JUMPDEST PUSH2 0x98D DUP3 PUSH2 0xA56 JUMP JUMPDEST DUP2 ADD DUP2 DUP2 LT PUSH8 0xFFFFFFFFFFFFFFFF DUP3 GT OR ISZERO PUSH2 0x9AC JUMPI PUSH2 0x9AB PUSH2 0xA13 JUMP JUMPDEST JUMPDEST DUP1 PUSH1 0x40 MSTORE POP POP POP JUMP JUMPDEST PUSH32 0x4E487B7100000000000000000000000000000000000000000000000000000000 PUSH1 0x0 MSTORE PUSH1 0x11 PUSH1 0x4 MSTORE PUSH1 0x24 PUSH1 0x0 REVERT JUMPDEST PUSH32 0x4E487B7100000000000000000000000000000000000000000000000000000000 PUSH1 0x0 MSTORE PUSH1 0x22 PUSH1 0x4 MSTORE PUSH1 0x24 PUSH1 0x0 REVERT JUMPDEST PUSH32 0x4E487B7100000000000000000000000000000000000000000000000000000000 PUSH1 0x0 MSTORE PUSH1 0x41 PUSH1 0x4 MSTORE PUSH1 0x24 PUSH1 0x0 REVERT JUMPDEST PUSH1 0x0 DUP1 REVERT JUMPDEST PUSH1 0x0 DUP1 REVERT JUMPDEST PUSH1 0x0 DUP1 REVERT JUMPDEST PUSH1 0x0 DUP1 REVERT JUMPDEST PUSH1 0x0 PUSH1 0x1F NOT PUSH1 0x1F DUP4 ADD AND SWAP1 POP SWAP2 SWAP1 POP JUMP JUMPDEST PUSH32 0x596F75206861766520746F2063726561746520646F6E6174696F6E20666F7220 PUSH1 0x0 DUP3 ADD MSTORE PUSH32 0x73656E6420657468657200000000000000000000000000000000000000000000 PUSH1 0x20 DUP3 ADD MSTORE POP JUMP JUMPDEST PUSH2 0xABF DUP2 PUSH2 0x8D4 JUMP JUMPDEST DUP2 EQ PUSH2 0xACA JUMPI PUSH1 0x0 DUP1 REVERT JUMPDEST POP JUMP JUMPDEST PUSH2 0xAD6 DUP2 PUSH2 0x906 JUMP JUMPDEST DUP2 EQ PUSH2 0xAE1 JUMPI PUSH1 0x0 DUP1 REVERT JUMPDEST POP JUMP INVALID LOG2 PUSH5 0x6970667358 0x22 SLT KECCAK256 MSTORE 0x27 0xF8 ISZERO STATICCALL DUP6 DIV PUSH1 0x92 0x23 SELFDESTRUCT 0xED CREATE SWAP7 0xCA SWAP8 0xCD PUSH24 0x2D6A614C998B7AA2D78D72FBADF464736F6C634300080700 CALLER "
				},
				"gasEstimates": {
					"creation": {
						"codeDepositCost": "568400",
						"executionCost": "600",
						"totalCost": "569000"
					},
					"external": {
						"balance()": "2473",
						"balanceOf()": "339",
						"createDonation(string,address,uint256)": "infinite",
						"donate(uint256)": "infinite",
						"donations(uint256)": "infinite",
						"sendEtherToContract()": "98"
					}
				},
				"methodIdentifiers": {
					"balance()": "b69ef8a8",
					"balanceOf()": "722713f7",
					"createDonation(string,address,uint256)": "b5e051d9",
					"donate(uint256)": "f14faf6f",
					"donations(uint256)": "f8626af8",
					"sendEtherToContract()": "325ec768"
				}
			},
			"storageLayout": {
				"storage": [
					{
						"astId": 3,
						"contract": "contracts/FinalCase/DonateStreamer.sol:DonateStreamer",
						"label": "balance",
						"offset": 0,
						"slot": "0",
						"type": "t_uint256"
					},
					{
						"astId": 14,
						"contract": "contracts/FinalCase/DonateStreamer.sol:DonateStreamer",
						"label": "totalDonations",
						"offset": 0,
						"slot": "1",
						"type": "t_uint256"
					},
					{
						"astId": 19,
						"contract": "contracts/FinalCase/DonateStreamer.sol:DonateStreamer",
						"label": "donations",
						"offset": 0,
						"slot": "2",
						"type": "t_mapping(t_uint256,t_struct(Donation)12_storage)"
					}
				],
				"types": {
					"t_address": {
						"encoding": "inplace",
						"label": "address",
						"numberOfBytes": "20"
					},
					"t_address_payable": {
						"encoding": "inplace",
						"label": "address payable",
						"numberOfBytes": "20"
					},
					"t_mapping(t_uint256,t_struct(Donation)12_storage)": {
						"encoding": "mapping",
						"key": "t_uint256",
						"label": "mapping(uint256 => struct DonateStreamer.Donation)",
						"numberOfBytes": "32",
						"value": "t_struct(Donation)12_storage"
					},
					"t_string_storage": {
						"encoding": "bytes",
						"label": "string",
						"numberOfBytes": "32"
					},
					"t_struct(Donation)12_storage": {
						"encoding": "inplace",
						"label": "struct DonateStreamer.Donation",
						"members": [
							{
								"astId": 5,
								"contract": "contracts/FinalCase/DonateStreamer.sol:DonateStreamer",
								"label": "creator",
								"offset": 0,
								"slot": "0",
								"type": "t_address"
							},
							{
								"astId": 7,
								"contract": "contracts/FinalCase/DonateStreamer.sol:DonateStreamer",
								"label": "name",
								"offset": 0,
								"slot": "1",
								"type": "t_string_storage"
							},
							{
								"astId": 9,
								"contract": "contracts/FinalCase/DonateStreamer.sol:DonateStreamer",
								"label": "amount",
								"offset": 0,
								"slot": "2",
								"type": "t_uint256"
							},
							{
								"astId": 11,
								"contract": "contracts/FinalCase/DonateStreamer.sol:DonateStreamer",
								"label": "streamer",
								"offset": 0,
								"slot": "3",
								"type": "t_address_payable"
							}
						],
						"numberOfBytes": "128"
					},
					"t_uint256": {
						"encoding": "inplace",
						"label": "uint256",
						"numberOfBytes": "32"
					}
				}
			},
			"userdoc": {
				"kind": "user",
				"methods": {},
				"version": 1
			}
		}
	}
}