{
	"contracts/FinalCase/DonateStreamer.sol": {
		"DonateStreamer": {
			"abi": [
				{
					"anonymous": false,
					"inputs": [
						{
							"indexed": false,
							"internalType": "uint256",
							"name": "donationsId",
							"type": "uint256"
						},
						{
							"indexed": false,
							"internalType": "uint256",
							"name": "amount",
							"type": "uint256"
						}
					],
					"name": "Donate",
					"type": "event"
				},
				{
					"inputs": [
						{
							"internalType": "string",
							"name": "_name",
							"type": "string"
						},
						{
							"internalType": "address payable",
							"name": "_streamer",
							"type": "address"
						},
						{
							"internalType": "uint256",
							"name": "_amount",
							"type": "uint256"
						},
						{
							"internalType": "string",
							"name": "_message",
							"type": "string"
						}
					],
					"name": "createDonation",
					"outputs": [
						{
							"internalType": "uint256",
							"name": "donationsId",
							"type": "uint256"
						}
					],
					"stateMutability": "nonpayable",
					"type": "function"
				},
				{
					"inputs": [
						{
							"internalType": "uint256",
							"name": "id",
							"type": "uint256"
						}
					],
					"name": "donate",
					"outputs": [],
					"stateMutability": "nonpayable",
					"type": "function"
				},
				{
					"inputs": [
						{
							"internalType": "uint256",
							"name": "",
							"type": "uint256"
						}
					],
					"name": "donations",
					"outputs": [
						{
							"internalType": "address",
							"name": "creator",
							"type": "address"
						},
						{
							"internalType": "string",
							"name": "name",
							"type": "string"
						},
						{
							"internalType": "string",
							"name": "message",
							"type": "string"
						},
						{
							"internalType": "uint256",
							"name": "amount",
							"type": "uint256"
						},
						{
							"internalType": "address payable",
							"name": "streamer",
							"type": "address"
						}
					],
					"stateMutability": "view",
					"type": "function"
				},
				{
					"inputs": [],
					"name": "owner",
					"outputs": [
						{
							"internalType": "address",
							"name": "",
							"type": "address"
						}
					],
					"stateMutability": "view",
					"type": "function"
				}
			],
			"devdoc": {
				"kind": "dev",
				"methods": {},
				"version": 1
			},
			"evm": {
				"assembly": "    /* \"contracts/FinalCase/DonateStreamer.sol\":62:1423  contract DonateStreamer {\r... */\n  mstore(0x40, 0x80)\n  callvalue\n  dup1\n  iszero\n  tag_1\n  jumpi\n  0x00\n  dup1\n  revert\ntag_1:\n  pop\n  dataSize(sub_0)\n  dup1\n  dataOffset(sub_0)\n  0x00\n  codecopy\n  0x00\n  return\nstop\n\nsub_0: assembly {\n        /* \"contracts/FinalCase/DonateStreamer.sol\":62:1423  contract DonateStreamer {\r... */\n      mstore(0x40, 0x80)\n      callvalue\n      dup1\n      iszero\n      tag_1\n      jumpi\n      0x00\n      dup1\n      revert\n    tag_1:\n      pop\n      jumpi(tag_2, lt(calldatasize, 0x04))\n      shr(0xe0, calldataload(0x00))\n      dup1\n      0x8da5cb5b\n      eq\n      tag_3\n      jumpi\n      dup1\n      0xc3e00e6b\n      eq\n      tag_4\n      jumpi\n      dup1\n      0xf14faf6f\n      eq\n      tag_5\n      jumpi\n      dup1\n      0xf8626af8\n      eq\n      tag_6\n      jumpi\n    tag_2:\n      0x00\n      dup1\n      revert\n        /* \"contracts/FinalCase/DonateStreamer.sol\":95:115  address public owner */\n    tag_3:\n      tag_7\n      tag_8\n      jump\t// in\n    tag_7:\n      mload(0x40)\n      tag_9\n      swap2\n      swap1\n      tag_10\n      jump\t// in\n    tag_9:\n      mload(0x40)\n      dup1\n      swap2\n      sub\n      swap1\n      return\n        /* \"contracts/FinalCase/DonateStreamer.sol\":640:1120  function createDonation(\r... */\n    tag_4:\n      tag_11\n      0x04\n      dup1\n      calldatasize\n      sub\n      dup2\n      add\n      swap1\n      tag_12\n      swap2\n      swap1\n      tag_13\n      jump\t// in\n    tag_12:\n      tag_14\n      jump\t// in\n    tag_11:\n      mload(0x40)\n      tag_15\n      swap2\n      swap1\n      tag_16\n      jump\t// in\n    tag_15:\n      mload(0x40)\n      dup1\n      swap2\n      sub\n      swap1\n      return\n        /* \"contracts/FinalCase/DonateStreamer.sol\":1128:1420  function donate(uint256 id) external {\r... */\n    tag_5:\n      tag_17\n      0x04\n      dup1\n      calldatasize\n      sub\n      dup2\n      add\n      swap1\n      tag_18\n      swap2\n      swap1\n      tag_19\n      jump\t// in\n    tag_18:\n      tag_20\n      jump\t// in\n    tag_17:\n      stop\n        /* \"contracts/FinalCase/DonateStreamer.sol\":404:449  mapping(uint256 => Donation) public donations */\n    tag_6:\n      tag_21\n      0x04\n      dup1\n      calldatasize\n      sub\n      dup2\n      add\n      swap1\n      tag_22\n      swap2\n      swap1\n      tag_19\n      jump\t// in\n    tag_22:\n      tag_23\n      jump\t// in\n    tag_21:\n      mload(0x40)\n      tag_24\n      swap6\n      swap5\n      swap4\n      swap3\n      swap2\n      swap1\n      tag_25\n      jump\t// in\n    tag_24:\n      mload(0x40)\n      dup1\n      swap2\n      sub\n      swap1\n      return\n        /* \"contracts/FinalCase/DonateStreamer.sol\":95:115  address public owner */\n    tag_8:\n      0x00\n      dup1\n      sload\n      swap1\n      0x0100\n      exp\n      swap1\n      div\n      0xffffffffffffffffffffffffffffffffffffffff\n      and\n      dup2\n      jump\t// out\n        /* \"contracts/FinalCase/DonateStreamer.sol\":640:1120  function createDonation(\r... */\n    tag_14:\n        /* \"contracts/FinalCase/DonateStreamer.sol\":811:830  uint256 donationsId */\n      0x00\n        /* \"contracts/FinalCase/DonateStreamer.sol\":842:867  Donation storage donation */\n      dup1\n        /* \"contracts/FinalCase/DonateStreamer.sol\":870:879  donations */\n      0x02\n        /* \"contracts/FinalCase/DonateStreamer.sol\":870:895  donations[totalDonations] */\n      0x00\n        /* \"contracts/FinalCase/DonateStreamer.sol\":880:894  totalDonations */\n      sload(0x01)\n        /* \"contracts/FinalCase/DonateStreamer.sol\":870:895  donations[totalDonations] */\n      dup2\n      mstore\n      0x20\n      add\n      swap1\n      dup2\n      mstore\n      0x20\n      add\n      0x00\n      keccak256\n        /* \"contracts/FinalCase/DonateStreamer.sol\":842:895  Donation storage donation = donations[totalDonations] */\n      swap1\n      pop\n        /* \"contracts/FinalCase/DonateStreamer.sol\":927:937  msg.sender */\n      caller\n        /* \"contracts/FinalCase/DonateStreamer.sol\":908:916  donation */\n      dup2\n        /* \"contracts/FinalCase/DonateStreamer.sol\":908:924  donation.creator */\n      0x00\n      add\n      0x00\n        /* \"contracts/FinalCase/DonateStreamer.sol\":908:937  donation.creator = msg.sender */\n      0x0100\n      exp\n      dup2\n      sload\n      dup2\n      0xffffffffffffffffffffffffffffffffffffffff\n      mul\n      not\n      and\n      swap1\n      dup4\n      0xffffffffffffffffffffffffffffffffffffffff\n      and\n      mul\n      or\n      swap1\n      sstore\n      pop\n        /* \"contracts/FinalCase/DonateStreamer.sol\":964:969  _name */\n      dup6\n        /* \"contracts/FinalCase/DonateStreamer.sol\":948:956  donation */\n      dup2\n        /* \"contracts/FinalCase/DonateStreamer.sol\":948:961  donation.name */\n      0x01\n      add\n        /* \"contracts/FinalCase/DonateStreamer.sol\":948:969  donation.name = _name */\n      swap1\n      dup1\n      mload\n      swap1\n      0x20\n      add\n      swap1\n      tag_27\n      swap3\n      swap2\n      swap1\n      tag_28\n      jump\t// in\n    tag_27:\n      pop\n        /* \"contracts/FinalCase/DonateStreamer.sol\":1000:1009  _streamer */\n      dup5\n        /* \"contracts/FinalCase/DonateStreamer.sol\":980:988  donation */\n      dup2\n        /* \"contracts/FinalCase/DonateStreamer.sol\":980:997  donation.streamer */\n      0x04\n      add\n      0x00\n        /* \"contracts/FinalCase/DonateStreamer.sol\":980:1009  donation.streamer = _streamer */\n      0x0100\n      exp\n      dup2\n      sload\n      dup2\n      0xffffffffffffffffffffffffffffffffffffffff\n      mul\n      not\n      and\n      swap1\n      dup4\n      0xffffffffffffffffffffffffffffffffffffffff\n      and\n      mul\n      or\n      swap1\n      sstore\n      pop\n        /* \"contracts/FinalCase/DonateStreamer.sol\":1038:1045  _amount */\n      dup4\n        /* \"contracts/FinalCase/DonateStreamer.sol\":1020:1028  donation */\n      dup2\n        /* \"contracts/FinalCase/DonateStreamer.sol\":1020:1035  donation.amount */\n      0x03\n      add\n        /* \"contracts/FinalCase/DonateStreamer.sol\":1020:1045  donation.amount = _amount */\n      dup2\n      swap1\n      sstore\n      pop\n        /* \"contracts/FinalCase/DonateStreamer.sol\":1076:1077  1 */\n      0x01\n        /* \"contracts/FinalCase/DonateStreamer.sol\":1058:1072  totalDonations */\n      dup1\n      0x00\n        /* \"contracts/FinalCase/DonateStreamer.sol\":1058:1077  totalDonations += 1 */\n      dup3\n      dup3\n      sload\n      tag_29\n      swap2\n      swap1\n      tag_30\n      jump\t// in\n    tag_29:\n      swap3\n      pop\n      pop\n      dup2\n      swap1\n      sstore\n      pop\n        /* \"contracts/FinalCase/DonateStreamer.sol\":1111:1112  1 */\n      0x01\n        /* \"contracts/FinalCase/DonateStreamer.sol\":1095:1109  totalDonations */\n      dup1\n      sload\n        /* \"contracts/FinalCase/DonateStreamer.sol\":1095:1112  totalDonations -1 */\n      tag_31\n      swap2\n      swap1\n      tag_32\n      jump\t// in\n    tag_31:\n        /* \"contracts/FinalCase/DonateStreamer.sol\":1088:1112  return totalDonations -1 */\n      swap2\n      pop\n      pop\n        /* \"contracts/FinalCase/DonateStreamer.sol\":640:1120  function createDonation(\r... */\n      swap5\n      swap4\n      pop\n      pop\n      pop\n      pop\n      jump\t// out\n        /* \"contracts/FinalCase/DonateStreamer.sol\":1128:1420  function donate(uint256 id) external {\r... */\n    tag_20:\n        /* \"contracts/FinalCase/DonateStreamer.sol\":1176:1201  Donation storage donation */\n      0x00\n        /* \"contracts/FinalCase/DonateStreamer.sol\":1204:1213  donations */\n      0x02\n        /* \"contracts/FinalCase/DonateStreamer.sol\":1204:1217  donations[id] */\n      0x00\n        /* \"contracts/FinalCase/DonateStreamer.sol\":1214:1216  id */\n      dup4\n        /* \"contracts/FinalCase/DonateStreamer.sol\":1204:1217  donations[id] */\n      dup2\n      mstore\n      0x20\n      add\n      swap1\n      dup2\n      mstore\n      0x20\n      add\n      0x00\n      keccak256\n        /* \"contracts/FinalCase/DonateStreamer.sol\":1176:1217  Donation storage donation = donations[id] */\n      swap1\n      pop\n        /* \"contracts/FinalCase/DonateStreamer.sol\":1250:1258  donation */\n      dup1\n        /* \"contracts/FinalCase/DonateStreamer.sol\":1250:1266  donation.creator */\n      0x00\n      add\n      0x00\n      swap1\n      sload\n      swap1\n      0x0100\n      exp\n      swap1\n      div\n      0xffffffffffffffffffffffffffffffffffffffff\n      and\n        /* \"contracts/FinalCase/DonateStreamer.sol\":1236:1266  msg.sender == donation.creator */\n      0xffffffffffffffffffffffffffffffffffffffff\n      and\n        /* \"contracts/FinalCase/DonateStreamer.sol\":1236:1246  msg.sender */\n      caller\n        /* \"contracts/FinalCase/DonateStreamer.sol\":1236:1266  msg.sender == donation.creator */\n      0xffffffffffffffffffffffffffffffffffffffff\n      and\n      eq\n        /* \"contracts/FinalCase/DonateStreamer.sol\":1228:1313  require(msg.sender == donation.creator, \"You have to create donation for send ether\") */\n      tag_34\n      jumpi\n      mload(0x40)\n      0x08c379a000000000000000000000000000000000000000000000000000000000\n      dup2\n      mstore\n      0x04\n      add\n      tag_35\n      swap1\n      tag_36\n      jump\t// in\n    tag_35:\n      mload(0x40)\n      dup1\n      swap2\n      sub\n      swap1\n      revert\n    tag_34:\n        /* \"contracts/FinalCase/DonateStreamer.sol\":1324:1332  donation */\n      dup1\n        /* \"contracts/FinalCase/DonateStreamer.sol\":1324:1341  donation.streamer */\n      0x04\n      add\n      0x00\n      swap1\n      sload\n      swap1\n      0x0100\n      exp\n      swap1\n      div\n      0xffffffffffffffffffffffffffffffffffffffff\n      and\n        /* \"contracts/FinalCase/DonateStreamer.sol\":1324:1350  donation.streamer.transfer */\n      0xffffffffffffffffffffffffffffffffffffffff\n      and\n        /* \"contracts/FinalCase/DonateStreamer.sol\":1324:1367  donation.streamer.transfer(donation.amount) */\n      0x08fc\n        /* \"contracts/FinalCase/DonateStreamer.sol\":1351:1359  donation */\n      dup3\n        /* \"contracts/FinalCase/DonateStreamer.sol\":1351:1366  donation.amount */\n      0x03\n      add\n      sload\n        /* \"contracts/FinalCase/DonateStreamer.sol\":1324:1367  donation.streamer.transfer(donation.amount) */\n      swap1\n      dup2\n      iszero\n      mul\n      swap1\n      mload(0x40)\n      0x00\n      mload(0x40)\n      dup1\n      dup4\n      sub\n      dup2\n      dup6\n      dup9\n      dup9\n      call\n      swap4\n      pop\n      pop\n      pop\n      pop\n      iszero\n      dup1\n      iszero\n      tag_38\n      jumpi\n      returndatasize\n      0x00\n      dup1\n      returndatacopy\n      revert(0x00, returndatasize)\n    tag_38:\n      pop\n        /* \"contracts/FinalCase/DonateStreamer.sol\":1385:1412  Donate(id, donation.amount) */\n      0x489807a5fd45f95df5a4da56d2ec4a895cd239ac44d0d9703ac6d8f0c590549c\n        /* \"contracts/FinalCase/DonateStreamer.sol\":1392:1394  id */\n      dup3\n        /* \"contracts/FinalCase/DonateStreamer.sol\":1396:1404  donation */\n      dup3\n        /* \"contracts/FinalCase/DonateStreamer.sol\":1396:1411  donation.amount */\n      0x03\n      add\n      sload\n        /* \"contracts/FinalCase/DonateStreamer.sol\":1385:1412  Donate(id, donation.amount) */\n      mload(0x40)\n      tag_39\n      swap3\n      swap2\n      swap1\n      tag_40\n      jump\t// in\n    tag_39:\n      mload(0x40)\n      dup1\n      swap2\n      sub\n      swap1\n      log1\n        /* \"contracts/FinalCase/DonateStreamer.sol\":1165:1420  {\r... */\n      pop\n        /* \"contracts/FinalCase/DonateStreamer.sol\":1128:1420  function donate(uint256 id) external {\r... */\n      pop\n      jump\t// out\n        /* \"contracts/FinalCase/DonateStreamer.sol\":404:449  mapping(uint256 => Donation) public donations */\n    tag_23:\n      mstore(0x20, 0x02)\n      dup1\n      0x00\n      mstore\n      keccak256(0x00, 0x40)\n      0x00\n      swap2\n      pop\n      swap1\n      pop\n      dup1\n      0x00\n      add\n      0x00\n      swap1\n      sload\n      swap1\n      0x0100\n      exp\n      swap1\n      div\n      0xffffffffffffffffffffffffffffffffffffffff\n      and\n      swap1\n      dup1\n      0x01\n      add\n      dup1\n      sload\n      tag_41\n      swap1\n      tag_42\n      jump\t// in\n    tag_41:\n      dup1\n      0x1f\n      add\n      0x20\n      dup1\n      swap2\n      div\n      mul\n      0x20\n      add\n      mload(0x40)\n      swap1\n      dup2\n      add\n      0x40\n      mstore\n      dup1\n      swap3\n      swap2\n      swap1\n      dup2\n      dup2\n      mstore\n      0x20\n      add\n      dup3\n      dup1\n      sload\n      tag_43\n      swap1\n      tag_42\n      jump\t// in\n    tag_43:\n      dup1\n      iszero\n      tag_44\n      jumpi\n      dup1\n      0x1f\n      lt\n      tag_45\n      jumpi\n      0x0100\n      dup1\n      dup4\n      sload\n      div\n      mul\n      dup4\n      mstore\n      swap2\n      0x20\n      add\n      swap2\n      jump(tag_44)\n    tag_45:\n      dup3\n      add\n      swap2\n      swap1\n      0x00\n      mstore\n      keccak256(0x00, 0x20)\n      swap1\n    tag_46:\n      dup2\n      sload\n      dup2\n      mstore\n      swap1\n      0x01\n      add\n      swap1\n      0x20\n      add\n      dup1\n      dup4\n      gt\n      tag_46\n      jumpi\n      dup3\n      swap1\n      sub\n      0x1f\n      and\n      dup3\n      add\n      swap2\n    tag_44:\n      pop\n      pop\n      pop\n      pop\n      pop\n      swap1\n      dup1\n      0x02\n      add\n      dup1\n      sload\n      tag_47\n      swap1\n      tag_42\n      jump\t// in\n    tag_47:\n      dup1\n      0x1f\n      add\n      0x20\n      dup1\n      swap2\n      div\n      mul\n      0x20\n      add\n      mload(0x40)\n      swap1\n      dup2\n      add\n      0x40\n      mstore\n      dup1\n      swap3\n      swap2\n      swap1\n      dup2\n      dup2\n      mstore\n      0x20\n      add\n      dup3\n      dup1\n      sload\n      tag_48\n      swap1\n      tag_42\n      jump\t// in\n    tag_48:\n      dup1\n      iszero\n      tag_49\n      jumpi\n      dup1\n      0x1f\n      lt\n      tag_50\n      jumpi\n      0x0100\n      dup1\n      dup4\n      sload\n      div\n      mul\n      dup4\n      mstore\n      swap2\n      0x20\n      add\n      swap2\n      jump(tag_49)\n    tag_50:\n      dup3\n      add\n      swap2\n      swap1\n      0x00\n      mstore\n      keccak256(0x00, 0x20)\n      swap1\n    tag_51:\n      dup2\n      sload\n      dup2\n      mstore\n      swap1\n      0x01\n      add\n      swap1\n      0x20\n      add\n      dup1\n      dup4\n      gt\n      tag_51\n      jumpi\n      dup3\n      swap1\n      sub\n      0x1f\n      and\n      dup3\n      add\n      swap2\n    tag_49:\n      pop\n      pop\n      pop\n      pop\n      pop\n      swap1\n      dup1\n      0x03\n      add\n      sload\n      swap1\n      dup1\n      0x04\n      add\n      0x00\n      swap1\n      sload\n      swap1\n      0x0100\n      exp\n      swap1\n      div\n      0xffffffffffffffffffffffffffffffffffffffff\n      and\n      swap1\n      pop\n      dup6\n      jump\t// out\n    tag_28:\n      dup3\n      dup1\n      sload\n      tag_52\n      swap1\n      tag_42\n      jump\t// in\n    tag_52:\n      swap1\n      0x00\n      mstore\n      keccak256(0x00, 0x20)\n      swap1\n      0x1f\n      add\n      0x20\n      swap1\n      div\n      dup2\n      add\n      swap3\n      dup3\n      tag_54\n      jumpi\n      0x00\n      dup6\n      sstore\n      jump(tag_53)\n    tag_54:\n      dup3\n      0x1f\n      lt\n      tag_55\n      jumpi\n      dup1\n      mload\n      not(0xff)\n      and\n      dup4\n      dup1\n      add\n      or\n      dup6\n      sstore\n      jump(tag_53)\n    tag_55:\n      dup3\n      dup1\n      add\n      0x01\n      add\n      dup6\n      sstore\n      dup3\n      iszero\n      tag_53\n      jumpi\n      swap2\n      dup3\n      add\n    tag_56:\n      dup3\n      dup2\n      gt\n      iszero\n      tag_57\n      jumpi\n      dup3\n      mload\n      dup3\n      sstore\n      swap2\n      0x20\n      add\n      swap2\n      swap1\n      0x01\n      add\n      swap1\n      jump(tag_56)\n    tag_57:\n    tag_53:\n      pop\n      swap1\n      pop\n      tag_58\n      swap2\n      swap1\n      tag_59\n      jump\t// in\n    tag_58:\n      pop\n      swap1\n      jump\t// out\n    tag_59:\n    tag_60:\n      dup1\n      dup3\n      gt\n      iszero\n      tag_61\n      jumpi\n      0x00\n      dup2\n      0x00\n      swap1\n      sstore\n      pop\n      0x01\n      add\n      jump(tag_60)\n    tag_61:\n      pop\n      swap1\n      jump\t// out\n        /* \"#utility.yul\":7:419   */\n    tag_63:\n        /* \"#utility.yul\":85:90   */\n      0x00\n        /* \"#utility.yul\":110:176   */\n      tag_65\n        /* \"#utility.yul\":126:175   */\n      tag_66\n        /* \"#utility.yul\":168:174   */\n      dup5\n        /* \"#utility.yul\":126:175   */\n      tag_67\n      jump\t// in\n    tag_66:\n        /* \"#utility.yul\":110:176   */\n      tag_68\n      jump\t// in\n    tag_65:\n        /* \"#utility.yul\":101:176   */\n      swap1\n      pop\n        /* \"#utility.yul\":199:205   */\n      dup3\n        /* \"#utility.yul\":192:197   */\n      dup2\n        /* \"#utility.yul\":185:206   */\n      mstore\n        /* \"#utility.yul\":237:241   */\n      0x20\n        /* \"#utility.yul\":230:235   */\n      dup2\n        /* \"#utility.yul\":226:242   */\n      add\n        /* \"#utility.yul\":275:278   */\n      dup5\n        /* \"#utility.yul\":266:272   */\n      dup5\n        /* \"#utility.yul\":261:264   */\n      dup5\n        /* \"#utility.yul\":257:273   */\n      add\n        /* \"#utility.yul\":254:279   */\n      gt\n        /* \"#utility.yul\":251:363   */\n      iszero\n      tag_69\n      jumpi\n        /* \"#utility.yul\":282:361   */\n      tag_70\n      tag_71\n      jump\t// in\n    tag_70:\n        /* \"#utility.yul\":251:363   */\n    tag_69:\n        /* \"#utility.yul\":372:413   */\n      tag_72\n        /* \"#utility.yul\":406:412   */\n      dup5\n        /* \"#utility.yul\":401:404   */\n      dup3\n        /* \"#utility.yul\":396:399   */\n      dup6\n        /* \"#utility.yul\":372:413   */\n      tag_73\n      jump\t// in\n    tag_72:\n        /* \"#utility.yul\":91:419   */\n      pop\n        /* \"#utility.yul\":7:419   */\n      swap4\n      swap3\n      pop\n      pop\n      pop\n      jump\t// out\n        /* \"#utility.yul\":425:580   */\n    tag_74:\n        /* \"#utility.yul\":479:484   */\n      0x00\n        /* \"#utility.yul\":517:523   */\n      dup2\n        /* \"#utility.yul\":504:524   */\n      calldataload\n        /* \"#utility.yul\":495:524   */\n      swap1\n      pop\n        /* \"#utility.yul\":533:574   */\n      tag_76\n        /* \"#utility.yul\":568:573   */\n      dup2\n        /* \"#utility.yul\":533:574   */\n      tag_77\n      jump\t// in\n    tag_76:\n        /* \"#utility.yul\":425:580   */\n      swap3\n      swap2\n      pop\n      pop\n      jump\t// out\n        /* \"#utility.yul\":600:940   */\n    tag_78:\n        /* \"#utility.yul\":656:661   */\n      0x00\n        /* \"#utility.yul\":705:708   */\n      dup3\n        /* \"#utility.yul\":698:702   */\n      0x1f\n        /* \"#utility.yul\":690:696   */\n      dup4\n        /* \"#utility.yul\":686:703   */\n      add\n        /* \"#utility.yul\":682:709   */\n      slt\n        /* \"#utility.yul\":672:794   */\n      tag_80\n      jumpi\n        /* \"#utility.yul\":713:792   */\n      tag_81\n      tag_82\n      jump\t// in\n    tag_81:\n        /* \"#utility.yul\":672:794   */\n    tag_80:\n        /* \"#utility.yul\":830:836   */\n      dup2\n        /* \"#utility.yul\":817:837   */\n      calldataload\n        /* \"#utility.yul\":855:934   */\n      tag_83\n        /* \"#utility.yul\":930:933   */\n      dup5\n        /* \"#utility.yul\":922:928   */\n      dup3\n        /* \"#utility.yul\":915:919   */\n      0x20\n        /* \"#utility.yul\":907:913   */\n      dup7\n        /* \"#utility.yul\":903:920   */\n      add\n        /* \"#utility.yul\":855:934   */\n      tag_63\n      jump\t// in\n    tag_83:\n        /* \"#utility.yul\":846:934   */\n      swap2\n      pop\n        /* \"#utility.yul\":662:940   */\n      pop\n        /* \"#utility.yul\":600:940   */\n      swap3\n      swap2\n      pop\n      pop\n      jump\t// out\n        /* \"#utility.yul\":946:1085   */\n    tag_84:\n        /* \"#utility.yul\":992:997   */\n      0x00\n        /* \"#utility.yul\":1030:1036   */\n      dup2\n        /* \"#utility.yul\":1017:1037   */\n      calldataload\n        /* \"#utility.yul\":1008:1037   */\n      swap1\n      pop\n        /* \"#utility.yul\":1046:1079   */\n      tag_86\n        /* \"#utility.yul\":1073:1078   */\n      dup2\n        /* \"#utility.yul\":1046:1079   */\n      tag_87\n      jump\t// in\n    tag_86:\n        /* \"#utility.yul\":946:1085   */\n      swap3\n      swap2\n      pop\n      pop\n      jump\t// out\n        /* \"#utility.yul\":1091:2232   */\n    tag_13:\n        /* \"#utility.yul\":1205:1211   */\n      0x00\n        /* \"#utility.yul\":1213:1219   */\n      dup1\n        /* \"#utility.yul\":1221:1227   */\n      0x00\n        /* \"#utility.yul\":1229:1235   */\n      dup1\n        /* \"#utility.yul\":1278:1281   */\n      0x80\n        /* \"#utility.yul\":1266:1275   */\n      dup6\n        /* \"#utility.yul\":1257:1264   */\n      dup8\n        /* \"#utility.yul\":1253:1276   */\n      sub\n        /* \"#utility.yul\":1249:1282   */\n      slt\n        /* \"#utility.yul\":1246:1366   */\n      iszero\n      tag_89\n      jumpi\n        /* \"#utility.yul\":1285:1364   */\n      tag_90\n      tag_91\n      jump\t// in\n    tag_90:\n        /* \"#utility.yul\":1246:1366   */\n    tag_89:\n        /* \"#utility.yul\":1433:1434   */\n      0x00\n        /* \"#utility.yul\":1422:1431   */\n      dup6\n        /* \"#utility.yul\":1418:1435   */\n      add\n        /* \"#utility.yul\":1405:1436   */\n      calldataload\n        /* \"#utility.yul\":1463:1481   */\n      0xffffffffffffffff\n        /* \"#utility.yul\":1455:1461   */\n      dup2\n        /* \"#utility.yul\":1452:1482   */\n      gt\n        /* \"#utility.yul\":1449:1566   */\n      iszero\n      tag_92\n      jumpi\n        /* \"#utility.yul\":1485:1564   */\n      tag_93\n      tag_94\n      jump\t// in\n    tag_93:\n        /* \"#utility.yul\":1449:1566   */\n    tag_92:\n        /* \"#utility.yul\":1590:1653   */\n      tag_95\n        /* \"#utility.yul\":1645:1652   */\n      dup8\n        /* \"#utility.yul\":1636:1642   */\n      dup3\n        /* \"#utility.yul\":1625:1634   */\n      dup9\n        /* \"#utility.yul\":1621:1643   */\n      add\n        /* \"#utility.yul\":1590:1653   */\n      tag_78\n      jump\t// in\n    tag_95:\n        /* \"#utility.yul\":1580:1653   */\n      swap5\n      pop\n        /* \"#utility.yul\":1376:1663   */\n      pop\n        /* \"#utility.yul\":1702:1704   */\n      0x20\n        /* \"#utility.yul\":1728:1789   */\n      tag_96\n        /* \"#utility.yul\":1781:1788   */\n      dup8\n        /* \"#utility.yul\":1772:1778   */\n      dup3\n        /* \"#utility.yul\":1761:1770   */\n      dup9\n        /* \"#utility.yul\":1757:1779   */\n      add\n        /* \"#utility.yul\":1728:1789   */\n      tag_74\n      jump\t// in\n    tag_96:\n        /* \"#utility.yul\":1718:1789   */\n      swap4\n      pop\n        /* \"#utility.yul\":1673:1799   */\n      pop\n        /* \"#utility.yul\":1838:1840   */\n      0x40\n        /* \"#utility.yul\":1864:1917   */\n      tag_97\n        /* \"#utility.yul\":1909:1916   */\n      dup8\n        /* \"#utility.yul\":1900:1906   */\n      dup3\n        /* \"#utility.yul\":1889:1898   */\n      dup9\n        /* \"#utility.yul\":1885:1907   */\n      add\n        /* \"#utility.yul\":1864:1917   */\n      tag_84\n      jump\t// in\n    tag_97:\n        /* \"#utility.yul\":1854:1917   */\n      swap3\n      pop\n        /* \"#utility.yul\":1809:1927   */\n      pop\n        /* \"#utility.yul\":1994:1996   */\n      0x60\n        /* \"#utility.yul\":1983:1992   */\n      dup6\n        /* \"#utility.yul\":1979:1997   */\n      add\n        /* \"#utility.yul\":1966:1998   */\n      calldataload\n        /* \"#utility.yul\":2025:2043   */\n      0xffffffffffffffff\n        /* \"#utility.yul\":2017:2023   */\n      dup2\n        /* \"#utility.yul\":2014:2044   */\n      gt\n        /* \"#utility.yul\":2011:2128   */\n      iszero\n      tag_98\n      jumpi\n        /* \"#utility.yul\":2047:2126   */\n      tag_99\n      tag_94\n      jump\t// in\n    tag_99:\n        /* \"#utility.yul\":2011:2128   */\n    tag_98:\n        /* \"#utility.yul\":2152:2215   */\n      tag_100\n        /* \"#utility.yul\":2207:2214   */\n      dup8\n        /* \"#utility.yul\":2198:2204   */\n      dup3\n        /* \"#utility.yul\":2187:2196   */\n      dup9\n        /* \"#utility.yul\":2183:2205   */\n      add\n        /* \"#utility.yul\":2152:2215   */\n      tag_78\n      jump\t// in\n    tag_100:\n        /* \"#utility.yul\":2142:2215   */\n      swap2\n      pop\n        /* \"#utility.yul\":1937:2225   */\n      pop\n        /* \"#utility.yul\":1091:2232   */\n      swap3\n      swap6\n      swap2\n      swap5\n      pop\n      swap3\n      pop\n      jump\t// out\n        /* \"#utility.yul\":2238:2567   */\n    tag_19:\n        /* \"#utility.yul\":2297:2303   */\n      0x00\n        /* \"#utility.yul\":2346:2348   */\n      0x20\n        /* \"#utility.yul\":2334:2343   */\n      dup3\n        /* \"#utility.yul\":2325:2332   */\n      dup5\n        /* \"#utility.yul\":2321:2344   */\n      sub\n        /* \"#utility.yul\":2317:2349   */\n      slt\n        /* \"#utility.yul\":2314:2433   */\n      iszero\n      tag_102\n      jumpi\n        /* \"#utility.yul\":2352:2431   */\n      tag_103\n      tag_91\n      jump\t// in\n    tag_103:\n        /* \"#utility.yul\":2314:2433   */\n    tag_102:\n        /* \"#utility.yul\":2472:2473   */\n      0x00\n        /* \"#utility.yul\":2497:2550   */\n      tag_104\n        /* \"#utility.yul\":2542:2549   */\n      dup5\n        /* \"#utility.yul\":2533:2539   */\n      dup3\n        /* \"#utility.yul\":2522:2531   */\n      dup6\n        /* \"#utility.yul\":2518:2540   */\n      add\n        /* \"#utility.yul\":2497:2550   */\n      tag_84\n      jump\t// in\n    tag_104:\n        /* \"#utility.yul\":2487:2550   */\n      swap2\n      pop\n        /* \"#utility.yul\":2443:2560   */\n      pop\n        /* \"#utility.yul\":2238:2567   */\n      swap3\n      swap2\n      pop\n      pop\n      jump\t// out\n        /* \"#utility.yul\":2573:2715   */\n    tag_105:\n        /* \"#utility.yul\":2676:2708   */\n      tag_107\n        /* \"#utility.yul\":2702:2707   */\n      dup2\n        /* \"#utility.yul\":2676:2708   */\n      tag_108\n      jump\t// in\n    tag_107:\n        /* \"#utility.yul\":2671:2674   */\n      dup3\n        /* \"#utility.yul\":2664:2709   */\n      mstore\n        /* \"#utility.yul\":2573:2715   */\n      pop\n      pop\n      jump\t// out\n        /* \"#utility.yul\":2721:2839   */\n    tag_109:\n        /* \"#utility.yul\":2808:2832   */\n      tag_111\n        /* \"#utility.yul\":2826:2831   */\n      dup2\n        /* \"#utility.yul\":2808:2832   */\n      tag_112\n      jump\t// in\n    tag_111:\n        /* \"#utility.yul\":2803:2806   */\n      dup3\n        /* \"#utility.yul\":2796:2833   */\n      mstore\n        /* \"#utility.yul\":2721:2839   */\n      pop\n      pop\n      jump\t// out\n        /* \"#utility.yul\":2845:3209   */\n    tag_113:\n        /* \"#utility.yul\":2933:2936   */\n      0x00\n        /* \"#utility.yul\":2961:3000   */\n      tag_115\n        /* \"#utility.yul\":2994:2999   */\n      dup3\n        /* \"#utility.yul\":2961:3000   */\n      tag_116\n      jump\t// in\n    tag_115:\n        /* \"#utility.yul\":3016:3087   */\n      tag_117\n        /* \"#utility.yul\":3080:3086   */\n      dup2\n        /* \"#utility.yul\":3075:3078   */\n      dup6\n        /* \"#utility.yul\":3016:3087   */\n      tag_118\n      jump\t// in\n    tag_117:\n        /* \"#utility.yul\":3009:3087   */\n      swap4\n      pop\n        /* \"#utility.yul\":3096:3148   */\n      tag_119\n        /* \"#utility.yul\":3141:3147   */\n      dup2\n        /* \"#utility.yul\":3136:3139   */\n      dup6\n        /* \"#utility.yul\":3129:3133   */\n      0x20\n        /* \"#utility.yul\":3122:3127   */\n      dup7\n        /* \"#utility.yul\":3118:3134   */\n      add\n        /* \"#utility.yul\":3096:3148   */\n      tag_120\n      jump\t// in\n    tag_119:\n        /* \"#utility.yul\":3173:3202   */\n      tag_121\n        /* \"#utility.yul\":3195:3201   */\n      dup2\n        /* \"#utility.yul\":3173:3202   */\n      tag_122\n      jump\t// in\n    tag_121:\n        /* \"#utility.yul\":3168:3171   */\n      dup5\n        /* \"#utility.yul\":3164:3203   */\n      add\n        /* \"#utility.yul\":3157:3203   */\n      swap2\n      pop\n        /* \"#utility.yul\":2937:3209   */\n      pop\n        /* \"#utility.yul\":2845:3209   */\n      swap3\n      swap2\n      pop\n      pop\n      jump\t// out\n        /* \"#utility.yul\":3215:3581   */\n    tag_123:\n        /* \"#utility.yul\":3357:3360   */\n      0x00\n        /* \"#utility.yul\":3378:3445   */\n      tag_125\n        /* \"#utility.yul\":3442:3444   */\n      0x2a\n        /* \"#utility.yul\":3437:3440   */\n      dup4\n        /* \"#utility.yul\":3378:3445   */\n      tag_118\n      jump\t// in\n    tag_125:\n        /* \"#utility.yul\":3371:3445   */\n      swap2\n      pop\n        /* \"#utility.yul\":3454:3547   */\n      tag_126\n        /* \"#utility.yul\":3543:3546   */\n      dup3\n        /* \"#utility.yul\":3454:3547   */\n      tag_127\n      jump\t// in\n    tag_126:\n        /* \"#utility.yul\":3572:3574   */\n      0x40\n        /* \"#utility.yul\":3567:3570   */\n      dup3\n        /* \"#utility.yul\":3563:3575   */\n      add\n        /* \"#utility.yul\":3556:3575   */\n      swap1\n      pop\n        /* \"#utility.yul\":3215:3581   */\n      swap2\n      swap1\n      pop\n      jump\t// out\n        /* \"#utility.yul\":3587:3705   */\n    tag_128:\n        /* \"#utility.yul\":3674:3698   */\n      tag_130\n        /* \"#utility.yul\":3692:3697   */\n      dup2\n        /* \"#utility.yul\":3674:3698   */\n      tag_131\n      jump\t// in\n    tag_130:\n        /* \"#utility.yul\":3669:3672   */\n      dup3\n        /* \"#utility.yul\":3662:3699   */\n      mstore\n        /* \"#utility.yul\":3587:3705   */\n      pop\n      pop\n      jump\t// out\n        /* \"#utility.yul\":3711:3933   */\n    tag_10:\n        /* \"#utility.yul\":3804:3808   */\n      0x00\n        /* \"#utility.yul\":3842:3844   */\n      0x20\n        /* \"#utility.yul\":3831:3840   */\n      dup3\n        /* \"#utility.yul\":3827:3845   */\n      add\n        /* \"#utility.yul\":3819:3845   */\n      swap1\n      pop\n        /* \"#utility.yul\":3855:3926   */\n      tag_133\n        /* \"#utility.yul\":3923:3924   */\n      0x00\n        /* \"#utility.yul\":3912:3921   */\n      dup4\n        /* \"#utility.yul\":3908:3925   */\n      add\n        /* \"#utility.yul\":3899:3905   */\n      dup5\n        /* \"#utility.yul\":3855:3926   */\n      tag_109\n      jump\t// in\n    tag_133:\n        /* \"#utility.yul\":3711:3933   */\n      swap3\n      swap2\n      pop\n      pop\n      jump\t// out\n        /* \"#utility.yul\":3939:4817   */\n    tag_25:\n        /* \"#utility.yul\":4200:4204   */\n      0x00\n        /* \"#utility.yul\":4238:4241   */\n      0xa0\n        /* \"#utility.yul\":4227:4236   */\n      dup3\n        /* \"#utility.yul\":4223:4242   */\n      add\n        /* \"#utility.yul\":4215:4242   */\n      swap1\n      pop\n        /* \"#utility.yul\":4252:4323   */\n      tag_135\n        /* \"#utility.yul\":4320:4321   */\n      0x00\n        /* \"#utility.yul\":4309:4318   */\n      dup4\n        /* \"#utility.yul\":4305:4322   */\n      add\n        /* \"#utility.yul\":4296:4302   */\n      dup9\n        /* \"#utility.yul\":4252:4323   */\n      tag_109\n      jump\t// in\n    tag_135:\n        /* \"#utility.yul\":4370:4379   */\n      dup2\n        /* \"#utility.yul\":4364:4368   */\n      dup2\n        /* \"#utility.yul\":4360:4380   */\n      sub\n        /* \"#utility.yul\":4355:4357   */\n      0x20\n        /* \"#utility.yul\":4344:4353   */\n      dup4\n        /* \"#utility.yul\":4340:4358   */\n      add\n        /* \"#utility.yul\":4333:4381   */\n      mstore\n        /* \"#utility.yul\":4398:4476   */\n      tag_136\n        /* \"#utility.yul\":4471:4475   */\n      dup2\n        /* \"#utility.yul\":4462:4468   */\n      dup8\n        /* \"#utility.yul\":4398:4476   */\n      tag_113\n      jump\t// in\n    tag_136:\n        /* \"#utility.yul\":4390:4476   */\n      swap1\n      pop\n        /* \"#utility.yul\":4523:4532   */\n      dup2\n        /* \"#utility.yul\":4517:4521   */\n      dup2\n        /* \"#utility.yul\":4513:4533   */\n      sub\n        /* \"#utility.yul\":4508:4510   */\n      0x40\n        /* \"#utility.yul\":4497:4506   */\n      dup4\n        /* \"#utility.yul\":4493:4511   */\n      add\n        /* \"#utility.yul\":4486:4534   */\n      mstore\n        /* \"#utility.yul\":4551:4629   */\n      tag_137\n        /* \"#utility.yul\":4624:4628   */\n      dup2\n        /* \"#utility.yul\":4615:4621   */\n      dup7\n        /* \"#utility.yul\":4551:4629   */\n      tag_113\n      jump\t// in\n    tag_137:\n        /* \"#utility.yul\":4543:4629   */\n      swap1\n      pop\n        /* \"#utility.yul\":4639:4711   */\n      tag_138\n        /* \"#utility.yul\":4707:4709   */\n      0x60\n        /* \"#utility.yul\":4696:4705   */\n      dup4\n        /* \"#utility.yul\":4692:4710   */\n      add\n        /* \"#utility.yul\":4683:4689   */\n      dup6\n        /* \"#utility.yul\":4639:4711   */\n      tag_128\n      jump\t// in\n    tag_138:\n        /* \"#utility.yul\":4721:4810   */\n      tag_139\n        /* \"#utility.yul\":4805:4808   */\n      0x80\n        /* \"#utility.yul\":4794:4803   */\n      dup4\n        /* \"#utility.yul\":4790:4809   */\n      add\n        /* \"#utility.yul\":4781:4787   */\n      dup5\n        /* \"#utility.yul\":4721:4810   */\n      tag_105\n      jump\t// in\n    tag_139:\n        /* \"#utility.yul\":3939:4817   */\n      swap7\n      swap6\n      pop\n      pop\n      pop\n      pop\n      pop\n      pop\n      jump\t// out\n        /* \"#utility.yul\":4823:5242   */\n    tag_36:\n        /* \"#utility.yul\":4989:4993   */\n      0x00\n        /* \"#utility.yul\":5027:5029   */\n      0x20\n        /* \"#utility.yul\":5016:5025   */\n      dup3\n        /* \"#utility.yul\":5012:5030   */\n      add\n        /* \"#utility.yul\":5004:5030   */\n      swap1\n      pop\n        /* \"#utility.yul\":5076:5085   */\n      dup2\n        /* \"#utility.yul\":5070:5074   */\n      dup2\n        /* \"#utility.yul\":5066:5086   */\n      sub\n        /* \"#utility.yul\":5062:5063   */\n      0x00\n        /* \"#utility.yul\":5051:5060   */\n      dup4\n        /* \"#utility.yul\":5047:5064   */\n      add\n        /* \"#utility.yul\":5040:5087   */\n      mstore\n        /* \"#utility.yul\":5104:5235   */\n      tag_141\n        /* \"#utility.yul\":5230:5234   */\n      dup2\n        /* \"#utility.yul\":5104:5235   */\n      tag_123\n      jump\t// in\n    tag_141:\n        /* \"#utility.yul\":5096:5235   */\n      swap1\n      pop\n        /* \"#utility.yul\":4823:5242   */\n      swap2\n      swap1\n      pop\n      jump\t// out\n        /* \"#utility.yul\":5248:5470   */\n    tag_16:\n        /* \"#utility.yul\":5341:5345   */\n      0x00\n        /* \"#utility.yul\":5379:5381   */\n      0x20\n        /* \"#utility.yul\":5368:5377   */\n      dup3\n        /* \"#utility.yul\":5364:5382   */\n      add\n        /* \"#utility.yul\":5356:5382   */\n      swap1\n      pop\n        /* \"#utility.yul\":5392:5463   */\n      tag_143\n        /* \"#utility.yul\":5460:5461   */\n      0x00\n        /* \"#utility.yul\":5449:5458   */\n      dup4\n        /* \"#utility.yul\":5445:5462   */\n      add\n        /* \"#utility.yul\":5436:5442   */\n      dup5\n        /* \"#utility.yul\":5392:5463   */\n      tag_128\n      jump\t// in\n    tag_143:\n        /* \"#utility.yul\":5248:5470   */\n      swap3\n      swap2\n      pop\n      pop\n      jump\t// out\n        /* \"#utility.yul\":5476:5808   */\n    tag_40:\n        /* \"#utility.yul\":5597:5601   */\n      0x00\n        /* \"#utility.yul\":5635:5637   */\n      0x40\n        /* \"#utility.yul\":5624:5633   */\n      dup3\n        /* \"#utility.yul\":5620:5638   */\n      add\n        /* \"#utility.yul\":5612:5638   */\n      swap1\n      pop\n        /* \"#utility.yul\":5648:5719   */\n      tag_145\n        /* \"#utility.yul\":5716:5717   */\n      0x00\n        /* \"#utility.yul\":5705:5714   */\n      dup4\n        /* \"#utility.yul\":5701:5718   */\n      add\n        /* \"#utility.yul\":5692:5698   */\n      dup6\n        /* \"#utility.yul\":5648:5719   */\n      tag_128\n      jump\t// in\n    tag_145:\n        /* \"#utility.yul\":5729:5801   */\n      tag_146\n        /* \"#utility.yul\":5797:5799   */\n      0x20\n        /* \"#utility.yul\":5786:5795   */\n      dup4\n        /* \"#utility.yul\":5782:5800   */\n      add\n        /* \"#utility.yul\":5773:5779   */\n      dup5\n        /* \"#utility.yul\":5729:5801   */\n      tag_128\n      jump\t// in\n    tag_146:\n        /* \"#utility.yul\":5476:5808   */\n      swap4\n      swap3\n      pop\n      pop\n      pop\n      jump\t// out\n        /* \"#utility.yul\":5814:5943   */\n    tag_68:\n        /* \"#utility.yul\":5848:5854   */\n      0x00\n        /* \"#utility.yul\":5875:5895   */\n      tag_148\n      tag_149\n      jump\t// in\n    tag_148:\n        /* \"#utility.yul\":5865:5895   */\n      swap1\n      pop\n        /* \"#utility.yul\":5904:5937   */\n      tag_150\n        /* \"#utility.yul\":5932:5936   */\n      dup3\n        /* \"#utility.yul\":5924:5930   */\n      dup3\n        /* \"#utility.yul\":5904:5937   */\n      tag_151\n      jump\t// in\n    tag_150:\n        /* \"#utility.yul\":5814:5943   */\n      swap2\n      swap1\n      pop\n      jump\t// out\n        /* \"#utility.yul\":5949:6024   */\n    tag_149:\n        /* \"#utility.yul\":5982:5988   */\n      0x00\n        /* \"#utility.yul\":6015:6017   */\n      0x40\n        /* \"#utility.yul\":6009:6018   */\n      mload\n        /* \"#utility.yul\":5999:6018   */\n      swap1\n      pop\n        /* \"#utility.yul\":5949:6024   */\n      swap1\n      jump\t// out\n        /* \"#utility.yul\":6030:6338   */\n    tag_67:\n        /* \"#utility.yul\":6092:6096   */\n      0x00\n        /* \"#utility.yul\":6182:6200   */\n      0xffffffffffffffff\n        /* \"#utility.yul\":6174:6180   */\n      dup3\n        /* \"#utility.yul\":6171:6201   */\n      gt\n        /* \"#utility.yul\":6168:6224   */\n      iszero\n      tag_154\n      jumpi\n        /* \"#utility.yul\":6204:6222   */\n      tag_155\n      tag_156\n      jump\t// in\n    tag_155:\n        /* \"#utility.yul\":6168:6224   */\n    tag_154:\n        /* \"#utility.yul\":6242:6271   */\n      tag_157\n        /* \"#utility.yul\":6264:6270   */\n      dup3\n        /* \"#utility.yul\":6242:6271   */\n      tag_122\n      jump\t// in\n    tag_157:\n        /* \"#utility.yul\":6234:6271   */\n      swap1\n      pop\n        /* \"#utility.yul\":6326:6330   */\n      0x20\n        /* \"#utility.yul\":6320:6324   */\n      dup2\n        /* \"#utility.yul\":6316:6331   */\n      add\n        /* \"#utility.yul\":6308:6331   */\n      swap1\n      pop\n        /* \"#utility.yul\":6030:6338   */\n      swap2\n      swap1\n      pop\n      jump\t// out\n        /* \"#utility.yul\":6344:6443   */\n    tag_116:\n        /* \"#utility.yul\":6396:6402   */\n      0x00\n        /* \"#utility.yul\":6430:6435   */\n      dup2\n        /* \"#utility.yul\":6424:6436   */\n      mload\n        /* \"#utility.yul\":6414:6436   */\n      swap1\n      pop\n        /* \"#utility.yul\":6344:6443   */\n      swap2\n      swap1\n      pop\n      jump\t// out\n        /* \"#utility.yul\":6449:6618   */\n    tag_118:\n        /* \"#utility.yul\":6533:6544   */\n      0x00\n        /* \"#utility.yul\":6567:6573   */\n      dup3\n        /* \"#utility.yul\":6562:6565   */\n      dup3\n        /* \"#utility.yul\":6555:6574   */\n      mstore\n        /* \"#utility.yul\":6607:6611   */\n      0x20\n        /* \"#utility.yul\":6602:6605   */\n      dup3\n        /* \"#utility.yul\":6598:6612   */\n      add\n        /* \"#utility.yul\":6583:6612   */\n      swap1\n      pop\n        /* \"#utility.yul\":6449:6618   */\n      swap3\n      swap2\n      pop\n      pop\n      jump\t// out\n        /* \"#utility.yul\":6624:6929   */\n    tag_30:\n        /* \"#utility.yul\":6664:6667   */\n      0x00\n        /* \"#utility.yul\":6683:6703   */\n      tag_161\n        /* \"#utility.yul\":6701:6702   */\n      dup3\n        /* \"#utility.yul\":6683:6703   */\n      tag_131\n      jump\t// in\n    tag_161:\n        /* \"#utility.yul\":6678:6703   */\n      swap2\n      pop\n        /* \"#utility.yul\":6717:6737   */\n      tag_162\n        /* \"#utility.yul\":6735:6736   */\n      dup4\n        /* \"#utility.yul\":6717:6737   */\n      tag_131\n      jump\t// in\n    tag_162:\n        /* \"#utility.yul\":6712:6737   */\n      swap3\n      pop\n        /* \"#utility.yul\":6871:6872   */\n      dup3\n        /* \"#utility.yul\":6803:6869   */\n      0xffffffffffffffffffffffffffffffffffffffffffffffffffffffffffffffff\n        /* \"#utility.yul\":6799:6873   */\n      sub\n        /* \"#utility.yul\":6796:6797   */\n      dup3\n        /* \"#utility.yul\":6793:6874   */\n      gt\n        /* \"#utility.yul\":6790:6897   */\n      iszero\n      tag_163\n      jumpi\n        /* \"#utility.yul\":6877:6895   */\n      tag_164\n      tag_165\n      jump\t// in\n    tag_164:\n        /* \"#utility.yul\":6790:6897   */\n    tag_163:\n        /* \"#utility.yul\":6921:6922   */\n      dup3\n        /* \"#utility.yul\":6918:6919   */\n      dup3\n        /* \"#utility.yul\":6914:6923   */\n      add\n        /* \"#utility.yul\":6907:6923   */\n      swap1\n      pop\n        /* \"#utility.yul\":6624:6929   */\n      swap3\n      swap2\n      pop\n      pop\n      jump\t// out\n        /* \"#utility.yul\":6935:7126   */\n    tag_32:\n        /* \"#utility.yul\":6975:6979   */\n      0x00\n        /* \"#utility.yul\":6995:7015   */\n      tag_167\n        /* \"#utility.yul\":7013:7014   */\n      dup3\n        /* \"#utility.yul\":6995:7015   */\n      tag_131\n      jump\t// in\n    tag_167:\n        /* \"#utility.yul\":6990:7015   */\n      swap2\n      pop\n        /* \"#utility.yul\":7029:7049   */\n      tag_168\n        /* \"#utility.yul\":7047:7048   */\n      dup4\n        /* \"#utility.yul\":7029:7049   */\n      tag_131\n      jump\t// in\n    tag_168:\n        /* \"#utility.yul\":7024:7049   */\n      swap3\n      pop\n        /* \"#utility.yul\":7068:7069   */\n      dup3\n        /* \"#utility.yul\":7065:7066   */\n      dup3\n        /* \"#utility.yul\":7062:7070   */\n      lt\n        /* \"#utility.yul\":7059:7093   */\n      iszero\n      tag_169\n      jumpi\n        /* \"#utility.yul\":7073:7091   */\n      tag_170\n      tag_165\n      jump\t// in\n    tag_170:\n        /* \"#utility.yul\":7059:7093   */\n    tag_169:\n        /* \"#utility.yul\":7118:7119   */\n      dup3\n        /* \"#utility.yul\":7115:7116   */\n      dup3\n        /* \"#utility.yul\":7111:7120   */\n      sub\n        /* \"#utility.yul\":7103:7120   */\n      swap1\n      pop\n        /* \"#utility.yul\":6935:7126   */\n      swap3\n      swap2\n      pop\n      pop\n      jump\t// out\n        /* \"#utility.yul\":7132:7228   */\n    tag_112:\n        /* \"#utility.yul\":7169:7176   */\n      0x00\n        /* \"#utility.yul\":7198:7222   */\n      tag_172\n        /* \"#utility.yul\":7216:7221   */\n      dup3\n        /* \"#utility.yul\":7198:7222   */\n      tag_173\n      jump\t// in\n    tag_172:\n        /* \"#utility.yul\":7187:7222   */\n      swap1\n      pop\n        /* \"#utility.yul\":7132:7228   */\n      swap2\n      swap1\n      pop\n      jump\t// out\n        /* \"#utility.yul\":7234:7338   */\n    tag_108:\n        /* \"#utility.yul\":7279:7286   */\n      0x00\n        /* \"#utility.yul\":7308:7332   */\n      tag_175\n        /* \"#utility.yul\":7326:7331   */\n      dup3\n        /* \"#utility.yul\":7308:7332   */\n      tag_173\n      jump\t// in\n    tag_175:\n        /* \"#utility.yul\":7297:7332   */\n      swap1\n      pop\n        /* \"#utility.yul\":7234:7338   */\n      swap2\n      swap1\n      pop\n      jump\t// out\n        /* \"#utility.yul\":7344:7470   */\n    tag_173:\n        /* \"#utility.yul\":7381:7388   */\n      0x00\n        /* \"#utility.yul\":7421:7463   */\n      0xffffffffffffffffffffffffffffffffffffffff\n        /* \"#utility.yul\":7414:7419   */\n      dup3\n        /* \"#utility.yul\":7410:7464   */\n      and\n        /* \"#utility.yul\":7399:7464   */\n      swap1\n      pop\n        /* \"#utility.yul\":7344:7470   */\n      swap2\n      swap1\n      pop\n      jump\t// out\n        /* \"#utility.yul\":7476:7553   */\n    tag_131:\n        /* \"#utility.yul\":7513:7520   */\n      0x00\n        /* \"#utility.yul\":7542:7547   */\n      dup2\n        /* \"#utility.yul\":7531:7547   */\n      swap1\n      pop\n        /* \"#utility.yul\":7476:7553   */\n      swap2\n      swap1\n      pop\n      jump\t// out\n        /* \"#utility.yul\":7559:7713   */\n    tag_73:\n        /* \"#utility.yul\":7643:7649   */\n      dup3\n        /* \"#utility.yul\":7638:7641   */\n      dup2\n        /* \"#utility.yul\":7633:7636   */\n      dup4\n        /* \"#utility.yul\":7620:7650   */\n      calldatacopy\n        /* \"#utility.yul\":7705:7706   */\n      0x00\n        /* \"#utility.yul\":7696:7702   */\n      dup4\n        /* \"#utility.yul\":7691:7694   */\n      dup4\n        /* \"#utility.yul\":7687:7703   */\n      add\n        /* \"#utility.yul\":7680:7707   */\n      mstore\n        /* \"#utility.yul\":7559:7713   */\n      pop\n      pop\n      pop\n      jump\t// out\n        /* \"#utility.yul\":7719:8026   */\n    tag_120:\n        /* \"#utility.yul\":7787:7788   */\n      0x00\n        /* \"#utility.yul\":7797:7910   */\n    tag_180:\n        /* \"#utility.yul\":7811:7817   */\n      dup4\n        /* \"#utility.yul\":7808:7809   */\n      dup2\n        /* \"#utility.yul\":7805:7818   */\n      lt\n        /* \"#utility.yul\":7797:7910   */\n      iszero\n      tag_182\n      jumpi\n        /* \"#utility.yul\":7896:7897   */\n      dup1\n        /* \"#utility.yul\":7891:7894   */\n      dup3\n        /* \"#utility.yul\":7887:7898   */\n      add\n        /* \"#utility.yul\":7881:7899   */\n      mload\n        /* \"#utility.yul\":7877:7878   */\n      dup2\n        /* \"#utility.yul\":7872:7875   */\n      dup5\n        /* \"#utility.yul\":7868:7879   */\n      add\n        /* \"#utility.yul\":7861:7900   */\n      mstore\n        /* \"#utility.yul\":7833:7835   */\n      0x20\n        /* \"#utility.yul\":7830:7831   */\n      dup2\n        /* \"#utility.yul\":7826:7836   */\n      add\n        /* \"#utility.yul\":7821:7836   */\n      swap1\n      pop\n        /* \"#utility.yul\":7797:7910   */\n      jump(tag_180)\n    tag_182:\n        /* \"#utility.yul\":7928:7934   */\n      dup4\n        /* \"#utility.yul\":7925:7926   */\n      dup2\n        /* \"#utility.yul\":7922:7935   */\n      gt\n        /* \"#utility.yul\":7919:8020   */\n      iszero\n      tag_183\n      jumpi\n        /* \"#utility.yul\":8008:8009   */\n      0x00\n        /* \"#utility.yul\":7999:8005   */\n      dup5\n        /* \"#utility.yul\":7994:7997   */\n      dup5\n        /* \"#utility.yul\":7990:8006   */\n      add\n        /* \"#utility.yul\":7983:8010   */\n      mstore\n        /* \"#utility.yul\":7919:8020   */\n    tag_183:\n        /* \"#utility.yul\":7768:8026   */\n      pop\n        /* \"#utility.yul\":7719:8026   */\n      pop\n      pop\n      pop\n      jump\t// out\n        /* \"#utility.yul\":8032:8352   */\n    tag_42:\n        /* \"#utility.yul\":8076:8082   */\n      0x00\n        /* \"#utility.yul\":8113:8114   */\n      0x02\n        /* \"#utility.yul\":8107:8111   */\n      dup3\n        /* \"#utility.yul\":8103:8115   */\n      div\n        /* \"#utility.yul\":8093:8115   */\n      swap1\n      pop\n        /* \"#utility.yul\":8160:8161   */\n      0x01\n        /* \"#utility.yul\":8154:8158   */\n      dup3\n        /* \"#utility.yul\":8150:8162   */\n      and\n        /* \"#utility.yul\":8181:8199   */\n      dup1\n        /* \"#utility.yul\":8171:8252   */\n      tag_185\n      jumpi\n        /* \"#utility.yul\":8237:8241   */\n      0x7f\n        /* \"#utility.yul\":8229:8235   */\n      dup3\n        /* \"#utility.yul\":8225:8242   */\n      and\n        /* \"#utility.yul\":8215:8242   */\n      swap2\n      pop\n        /* \"#utility.yul\":8171:8252   */\n    tag_185:\n        /* \"#utility.yul\":8299:8301   */\n      0x20\n        /* \"#utility.yul\":8291:8297   */\n      dup3\n        /* \"#utility.yul\":8288:8302   */\n      lt\n        /* \"#utility.yul\":8268:8286   */\n      dup2\n        /* \"#utility.yul\":8265:8303   */\n      eq\n        /* \"#utility.yul\":8262:8346   */\n      iszero\n      tag_186\n      jumpi\n        /* \"#utility.yul\":8318:8336   */\n      tag_187\n      tag_188\n      jump\t// in\n    tag_187:\n        /* \"#utility.yul\":8262:8346   */\n    tag_186:\n        /* \"#utility.yul\":8083:8352   */\n      pop\n        /* \"#utility.yul\":8032:8352   */\n      swap2\n      swap1\n      pop\n      jump\t// out\n        /* \"#utility.yul\":8358:8639   */\n    tag_151:\n        /* \"#utility.yul\":8441:8468   */\n      tag_190\n        /* \"#utility.yul\":8463:8467   */\n      dup3\n        /* \"#utility.yul\":8441:8468   */\n      tag_122\n      jump\t// in\n    tag_190:\n        /* \"#utility.yul\":8433:8439   */\n      dup2\n        /* \"#utility.yul\":8429:8469   */\n      add\n        /* \"#utility.yul\":8571:8577   */\n      dup2\n        /* \"#utility.yul\":8559:8569   */\n      dup2\n        /* \"#utility.yul\":8556:8578   */\n      lt\n        /* \"#utility.yul\":8535:8553   */\n      0xffffffffffffffff\n        /* \"#utility.yul\":8523:8533   */\n      dup3\n        /* \"#utility.yul\":8520:8554   */\n      gt\n        /* \"#utility.yul\":8517:8579   */\n      or\n        /* \"#utility.yul\":8514:8602   */\n      iszero\n      tag_191\n      jumpi\n        /* \"#utility.yul\":8582:8600   */\n      tag_192\n      tag_156\n      jump\t// in\n    tag_192:\n        /* \"#utility.yul\":8514:8602   */\n    tag_191:\n        /* \"#utility.yul\":8622:8632   */\n      dup1\n        /* \"#utility.yul\":8618:8620   */\n      0x40\n        /* \"#utility.yul\":8611:8633   */\n      mstore\n        /* \"#utility.yul\":8401:8639   */\n      pop\n        /* \"#utility.yul\":8358:8639   */\n      pop\n      pop\n      jump\t// out\n        /* \"#utility.yul\":8645:8825   */\n    tag_165:\n        /* \"#utility.yul\":8693:8770   */\n      0x4e487b7100000000000000000000000000000000000000000000000000000000\n        /* \"#utility.yul\":8690:8691   */\n      0x00\n        /* \"#utility.yul\":8683:8771   */\n      mstore\n        /* \"#utility.yul\":8790:8794   */\n      0x11\n        /* \"#utility.yul\":8787:8788   */\n      0x04\n        /* \"#utility.yul\":8780:8795   */\n      mstore\n        /* \"#utility.yul\":8814:8818   */\n      0x24\n        /* \"#utility.yul\":8811:8812   */\n      0x00\n        /* \"#utility.yul\":8804:8819   */\n      revert\n        /* \"#utility.yul\":8831:9011   */\n    tag_188:\n        /* \"#utility.yul\":8879:8956   */\n      0x4e487b7100000000000000000000000000000000000000000000000000000000\n        /* \"#utility.yul\":8876:8877   */\n      0x00\n        /* \"#utility.yul\":8869:8957   */\n      mstore\n        /* \"#utility.yul\":8976:8980   */\n      0x22\n        /* \"#utility.yul\":8973:8974   */\n      0x04\n        /* \"#utility.yul\":8966:8981   */\n      mstore\n        /* \"#utility.yul\":9000:9004   */\n      0x24\n        /* \"#utility.yul\":8997:8998   */\n      0x00\n        /* \"#utility.yul\":8990:9005   */\n      revert\n        /* \"#utility.yul\":9017:9197   */\n    tag_156:\n        /* \"#utility.yul\":9065:9142   */\n      0x4e487b7100000000000000000000000000000000000000000000000000000000\n        /* \"#utility.yul\":9062:9063   */\n      0x00\n        /* \"#utility.yul\":9055:9143   */\n      mstore\n        /* \"#utility.yul\":9162:9166   */\n      0x41\n        /* \"#utility.yul\":9159:9160   */\n      0x04\n        /* \"#utility.yul\":9152:9167   */\n      mstore\n        /* \"#utility.yul\":9186:9190   */\n      0x24\n        /* \"#utility.yul\":9183:9184   */\n      0x00\n        /* \"#utility.yul\":9176:9191   */\n      revert\n        /* \"#utility.yul\":9203:9320   */\n    tag_82:\n        /* \"#utility.yul\":9312:9313   */\n      0x00\n        /* \"#utility.yul\":9309:9310   */\n      dup1\n        /* \"#utility.yul\":9302:9314   */\n      revert\n        /* \"#utility.yul\":9326:9443   */\n    tag_71:\n        /* \"#utility.yul\":9435:9436   */\n      0x00\n        /* \"#utility.yul\":9432:9433   */\n      dup1\n        /* \"#utility.yul\":9425:9437   */\n      revert\n        /* \"#utility.yul\":9449:9566   */\n    tag_94:\n        /* \"#utility.yul\":9558:9559   */\n      0x00\n        /* \"#utility.yul\":9555:9556   */\n      dup1\n        /* \"#utility.yul\":9548:9560   */\n      revert\n        /* \"#utility.yul\":9572:9689   */\n    tag_91:\n        /* \"#utility.yul\":9681:9682   */\n      0x00\n        /* \"#utility.yul\":9678:9679   */\n      dup1\n        /* \"#utility.yul\":9671:9683   */\n      revert\n        /* \"#utility.yul\":9695:9797   */\n    tag_122:\n        /* \"#utility.yul\":9736:9742   */\n      0x00\n        /* \"#utility.yul\":9787:9789   */\n      0x1f\n        /* \"#utility.yul\":9783:9790   */\n      not\n        /* \"#utility.yul\":9778:9780   */\n      0x1f\n        /* \"#utility.yul\":9771:9776   */\n      dup4\n        /* \"#utility.yul\":9767:9781   */\n      add\n        /* \"#utility.yul\":9763:9791   */\n      and\n        /* \"#utility.yul\":9753:9791   */\n      swap1\n      pop\n        /* \"#utility.yul\":9695:9797   */\n      swap2\n      swap1\n      pop\n      jump\t// out\n        /* \"#utility.yul\":9803:10032   */\n    tag_127:\n        /* \"#utility.yul\":9943:9977   */\n      0x596f75206861766520746f2063726561746520646f6e6174696f6e20666f7220\n        /* \"#utility.yul\":9939:9940   */\n      0x00\n        /* \"#utility.yul\":9931:9937   */\n      dup3\n        /* \"#utility.yul\":9927:9941   */\n      add\n        /* \"#utility.yul\":9920:9978   */\n      mstore\n        /* \"#utility.yul\":10012:10024   */\n      0x73656e6420657468657200000000000000000000000000000000000000000000\n        /* \"#utility.yul\":10007:10009   */\n      0x20\n        /* \"#utility.yul\":9999:10005   */\n      dup3\n        /* \"#utility.yul\":9995:10010   */\n      add\n        /* \"#utility.yul\":9988:10025   */\n      mstore\n        /* \"#utility.yul\":9803:10032   */\n      pop\n      jump\t// out\n        /* \"#utility.yul\":10038:10176   */\n    tag_77:\n        /* \"#utility.yul\":10119:10151   */\n      tag_203\n        /* \"#utility.yul\":10145:10150   */\n      dup2\n        /* \"#utility.yul\":10119:10151   */\n      tag_108\n      jump\t// in\n    tag_203:\n        /* \"#utility.yul\":10112:10117   */\n      dup2\n        /* \"#utility.yul\":10109:10152   */\n      eq\n        /* \"#utility.yul\":10099:10170   */\n      tag_204\n      jumpi\n        /* \"#utility.yul\":10166:10167   */\n      0x00\n        /* \"#utility.yul\":10163:10164   */\n      dup1\n        /* \"#utility.yul\":10156:10168   */\n      revert\n        /* \"#utility.yul\":10099:10170   */\n    tag_204:\n        /* \"#utility.yul\":10038:10176   */\n      pop\n      jump\t// out\n        /* \"#utility.yul\":10182:10304   */\n    tag_87:\n        /* \"#utility.yul\":10255:10279   */\n      tag_206\n        /* \"#utility.yul\":10273:10278   */\n      dup2\n        /* \"#utility.yul\":10255:10279   */\n      tag_131\n      jump\t// in\n    tag_206:\n        /* \"#utility.yul\":10248:10253   */\n      dup2\n        /* \"#utility.yul\":10245:10280   */\n      eq\n        /* \"#utility.yul\":10235:10298   */\n      tag_207\n      jumpi\n        /* \"#utility.yul\":10294:10295   */\n      0x00\n        /* \"#utility.yul\":10291:10292   */\n      dup1\n        /* \"#utility.yul\":10284:10296   */\n      revert\n        /* \"#utility.yul\":10235:10298   */\n    tag_207:\n        /* \"#utility.yul\":10182:10304   */\n      pop\n      jump\t// out\n\n    auxdata: 0xa2646970667358221220ca906ec96f991208030fe43d7ba1fdfab467171a1bab765f10f8ba704264141964736f6c63430008070033\n}\n",
				"bytecode": {
					"linkReferences": {},
					"object": "608060405234801561001057600080fd5b50610bac806100206000396000f3fe608060405234801561001057600080fd5b506004361061004c5760003560e01c80638da5cb5b14610051578063c3e00e6b1461006f578063f14faf6f1461009f578063f8626af8146100bb575b600080fd5b6100596100ef565b6040516100669190610778565b60405180910390f35b61008960048036038101906100849190610623565b610113565b6040516100969190610814565b60405180910390f35b6100b960048036038101906100b491906106c2565b610207565b005b6100d560048036038101906100d091906106c2565b610360565b6040516100e6959493929190610793565b60405180910390f35b60008054906101000a900473ffffffffffffffffffffffffffffffffffffffff1681565b6000806002600060015481526020019081526020016000209050338160000160006101000a81548173ffffffffffffffffffffffffffffffffffffffff021916908373ffffffffffffffffffffffffffffffffffffffff160217905550858160010190805190602001906101889291906104e6565b50848160040160006101000a81548173ffffffffffffffffffffffffffffffffffffffff021916908373ffffffffffffffffffffffffffffffffffffffff16021790555083816003018190555060018060008282546101e791906108ca565b92505081905550600180546101fc9190610920565b915050949350505050565b60006002600083815260200190815260200160002090508060000160009054906101000a900473ffffffffffffffffffffffffffffffffffffffff1673ffffffffffffffffffffffffffffffffffffffff163373ffffffffffffffffffffffffffffffffffffffff16146102b0576040517f08c379a00000000000000000000000000000000000000000000000000000000081526004016102a7906107f4565b60405180910390fd5b8060040160009054906101000a900473ffffffffffffffffffffffffffffffffffffffff1673ffffffffffffffffffffffffffffffffffffffff166108fc82600301549081150290604051600060405180830381858888f1935050505015801561031e573d6000803e3d6000fd5b507f489807a5fd45f95df5a4da56d2ec4a895cd239ac44d0d9703ac6d8f0c590549c82826003015460405161035492919061082f565b60405180910390a15050565b60026020528060005260406000206000915090508060000160009054906101000a900473ffffffffffffffffffffffffffffffffffffffff16908060010180546103a9906109e4565b80601f01602080910402602001604051908101604052809291908181526020018280546103d5906109e4565b80156104225780601f106103f757610100808354040283529160200191610422565b820191906000526020600020905b81548152906001019060200180831161040557829003601f168201915b505050505090806002018054610437906109e4565b80601f0160208091040260200160405190810160405280929190818152602001828054610463906109e4565b80156104b05780601f10610485576101008083540402835291602001916104b0565b820191906000526020600020905b81548152906001019060200180831161049357829003601f168201915b5050505050908060030154908060040160009054906101000a900473ffffffffffffffffffffffffffffffffffffffff16905085565b8280546104f2906109e4565b90600052602060002090601f016020900481019282610514576000855561055b565b82601f1061052d57805160ff191683800117855561055b565b8280016001018555821561055b579182015b8281111561055a57825182559160200191906001019061053f565b5b509050610568919061056c565b5090565b5b8082111561058557600081600090555060010161056d565b5090565b600061059c6105978461087d565b610858565b9050828152602081018484840111156105b8576105b7610ad9565b5b6105c38482856109a2565b509392505050565b6000813590506105da81610b48565b92915050565b600082601f8301126105f5576105f4610ad4565b5b8135610605848260208601610589565b91505092915050565b60008135905061061d81610b5f565b92915050565b6000806000806080858703121561063d5761063c610ae3565b5b600085013567ffffffffffffffff81111561065b5761065a610ade565b5b610667878288016105e0565b9450506020610678878288016105cb565b93505060406106898782880161060e565b925050606085013567ffffffffffffffff8111156106aa576106a9610ade565b5b6106b6878288016105e0565b91505092959194509250565b6000602082840312156106d8576106d7610ae3565b5b60006106e68482850161060e565b91505092915050565b6106f881610966565b82525050565b61070781610954565b82525050565b6000610718826108ae565b61072281856108b9565b93506107328185602086016109b1565b61073b81610ae8565b840191505092915050565b6000610753602a836108b9565b915061075e82610af9565b604082019050919050565b61077281610998565b82525050565b600060208201905061078d60008301846106fe565b92915050565b600060a0820190506107a860008301886106fe565b81810360208301526107ba818761070d565b905081810360408301526107ce818661070d565b90506107dd6060830185610769565b6107ea60808301846106ef565b9695505050505050565b6000602082019050818103600083015261080d81610746565b9050919050565b60006020820190506108296000830184610769565b92915050565b60006040820190506108446000830185610769565b6108516020830184610769565b9392505050565b6000610862610873565b905061086e8282610a16565b919050565b6000604051905090565b600067ffffffffffffffff82111561089857610897610aa5565b5b6108a182610ae8565b9050602081019050919050565b600081519050919050565b600082825260208201905092915050565b60006108d582610998565b91506108e083610998565b9250827fffffffffffffffffffffffffffffffffffffffffffffffffffffffffffffffff0382111561091557610914610a47565b5b828201905092915050565b600061092b82610998565b915061093683610998565b92508282101561094957610948610a47565b5b828203905092915050565b600061095f82610978565b9050919050565b600061097182610978565b9050919050565b600073ffffffffffffffffffffffffffffffffffffffff82169050919050565b6000819050919050565b82818337600083830152505050565b60005b838110156109cf5780820151818401526020810190506109b4565b838111156109de576000848401525b50505050565b600060028204905060018216806109fc57607f821691505b60208210811415610a1057610a0f610a76565b5b50919050565b610a1f82610ae8565b810181811067ffffffffffffffff82111715610a3e57610a3d610aa5565b5b80604052505050565b7f4e487b7100000000000000000000000000000000000000000000000000000000600052601160045260246000fd5b7f4e487b7100000000000000000000000000000000000000000000000000000000600052602260045260246000fd5b7f4e487b7100000000000000000000000000000000000000000000000000000000600052604160045260246000fd5b600080fd5b600080fd5b600080fd5b600080fd5b6000601f19601f8301169050919050565b7f596f75206861766520746f2063726561746520646f6e6174696f6e20666f722060008201527f73656e6420657468657200000000000000000000000000000000000000000000602082015250565b610b5181610966565b8114610b5c57600080fd5b50565b610b6881610998565b8114610b7357600080fd5b5056fea2646970667358221220ca906ec96f991208030fe43d7ba1fdfab467171a1bab765f10f8ba704264141964736f6c63430008070033",
					"opcodes": "PUSH1 0x80 PUSH1 0x40 MSTORE CALLVALUE DUP1 ISZERO PUSH2 0x10 JUMPI PUSH1 0x0 DUP1 REVERT JUMPDEST POP PUSH2 0xBAC DUP1 PUSH2 0x20 PUSH1 0x0 CODECOPY PUSH1 0x0 RETURN INVALID PUSH1 0x80 PUSH1 0x40 MSTORE CALLVALUE DUP1 ISZERO PUSH2 0x10 JUMPI PUSH1 0x0 DUP1 REVERT JUMPDEST POP PUSH1 0x4 CALLDATASIZE LT PUSH2 0x4C JUMPI PUSH1 0x0 CALLDATALOAD PUSH1 0xE0 SHR DUP1 PUSH4 0x8DA5CB5B EQ PUSH2 0x51 JUMPI DUP1 PUSH4 0xC3E00E6B EQ PUSH2 0x6F JUMPI DUP1 PUSH4 0xF14FAF6F EQ PUSH2 0x9F JUMPI DUP1 PUSH4 0xF8626AF8 EQ PUSH2 0xBB JUMPI JUMPDEST PUSH1 0x0 DUP1 REVERT JUMPDEST PUSH2 0x59 PUSH2 0xEF JUMP JUMPDEST PUSH1 0x40 MLOAD PUSH2 0x66 SWAP2 SWAP1 PUSH2 0x778 JUMP JUMPDEST PUSH1 0x40 MLOAD DUP1 SWAP2 SUB SWAP1 RETURN JUMPDEST PUSH2 0x89 PUSH1 0x4 DUP1 CALLDATASIZE SUB DUP2 ADD SWAP1 PUSH2 0x84 SWAP2 SWAP1 PUSH2 0x623 JUMP JUMPDEST PUSH2 0x113 JUMP JUMPDEST PUSH1 0x40 MLOAD PUSH2 0x96 SWAP2 SWAP1 PUSH2 0x814 JUMP JUMPDEST PUSH1 0x40 MLOAD DUP1 SWAP2 SUB SWAP1 RETURN JUMPDEST PUSH2 0xB9 PUSH1 0x4 DUP1 CALLDATASIZE SUB DUP2 ADD SWAP1 PUSH2 0xB4 SWAP2 SWAP1 PUSH2 0x6C2 JUMP JUMPDEST PUSH2 0x207 JUMP JUMPDEST STOP JUMPDEST PUSH2 0xD5 PUSH1 0x4 DUP1 CALLDATASIZE SUB DUP2 ADD SWAP1 PUSH2 0xD0 SWAP2 SWAP1 PUSH2 0x6C2 JUMP JUMPDEST PUSH2 0x360 JUMP JUMPDEST PUSH1 0x40 MLOAD PUSH2 0xE6 SWAP6 SWAP5 SWAP4 SWAP3 SWAP2 SWAP1 PUSH2 0x793 JUMP JUMPDEST PUSH1 0x40 MLOAD DUP1 SWAP2 SUB SWAP1 RETURN JUMPDEST PUSH1 0x0 DUP1 SLOAD SWAP1 PUSH2 0x100 EXP SWAP1 DIV PUSH20 0xFFFFFFFFFFFFFFFFFFFFFFFFFFFFFFFFFFFFFFFF AND DUP2 JUMP JUMPDEST PUSH1 0x0 DUP1 PUSH1 0x2 PUSH1 0x0 PUSH1 0x1 SLOAD DUP2 MSTORE PUSH1 0x20 ADD SWAP1 DUP2 MSTORE PUSH1 0x20 ADD PUSH1 0x0 KECCAK256 SWAP1 POP CALLER DUP2 PUSH1 0x0 ADD PUSH1 0x0 PUSH2 0x100 EXP DUP2 SLOAD DUP2 PUSH20 0xFFFFFFFFFFFFFFFFFFFFFFFFFFFFFFFFFFFFFFFF MUL NOT AND SWAP1 DUP4 PUSH20 0xFFFFFFFFFFFFFFFFFFFFFFFFFFFFFFFFFFFFFFFF AND MUL OR SWAP1 SSTORE POP DUP6 DUP2 PUSH1 0x1 ADD SWAP1 DUP1 MLOAD SWAP1 PUSH1 0x20 ADD SWAP1 PUSH2 0x188 SWAP3 SWAP2 SWAP1 PUSH2 0x4E6 JUMP JUMPDEST POP DUP5 DUP2 PUSH1 0x4 ADD PUSH1 0x0 PUSH2 0x100 EXP DUP2 SLOAD DUP2 PUSH20 0xFFFFFFFFFFFFFFFFFFFFFFFFFFFFFFFFFFFFFFFF MUL NOT AND SWAP1 DUP4 PUSH20 0xFFFFFFFFFFFFFFFFFFFFFFFFFFFFFFFFFFFFFFFF AND MUL OR SWAP1 SSTORE POP DUP4 DUP2 PUSH1 0x3 ADD DUP2 SWAP1 SSTORE POP PUSH1 0x1 DUP1 PUSH1 0x0 DUP3 DUP3 SLOAD PUSH2 0x1E7 SWAP2 SWAP1 PUSH2 0x8CA JUMP JUMPDEST SWAP3 POP POP DUP2 SWAP1 SSTORE POP PUSH1 0x1 DUP1 SLOAD PUSH2 0x1FC SWAP2 SWAP1 PUSH2 0x920 JUMP JUMPDEST SWAP2 POP POP SWAP5 SWAP4 POP POP POP POP JUMP JUMPDEST PUSH1 0x0 PUSH1 0x2 PUSH1 0x0 DUP4 DUP2 MSTORE PUSH1 0x20 ADD SWAP1 DUP2 MSTORE PUSH1 0x20 ADD PUSH1 0x0 KECCAK256 SWAP1 POP DUP1 PUSH1 0x0 ADD PUSH1 0x0 SWAP1 SLOAD SWAP1 PUSH2 0x100 EXP SWAP1 DIV PUSH20 0xFFFFFFFFFFFFFFFFFFFFFFFFFFFFFFFFFFFFFFFF AND PUSH20 0xFFFFFFFFFFFFFFFFFFFFFFFFFFFFFFFFFFFFFFFF AND CALLER PUSH20 0xFFFFFFFFFFFFFFFFFFFFFFFFFFFFFFFFFFFFFFFF AND EQ PUSH2 0x2B0 JUMPI PUSH1 0x40 MLOAD PUSH32 0x8C379A000000000000000000000000000000000000000000000000000000000 DUP2 MSTORE PUSH1 0x4 ADD PUSH2 0x2A7 SWAP1 PUSH2 0x7F4 JUMP JUMPDEST PUSH1 0x40 MLOAD DUP1 SWAP2 SUB SWAP1 REVERT JUMPDEST DUP1 PUSH1 0x4 ADD PUSH1 0x0 SWAP1 SLOAD SWAP1 PUSH2 0x100 EXP SWAP1 DIV PUSH20 0xFFFFFFFFFFFFFFFFFFFFFFFFFFFFFFFFFFFFFFFF AND PUSH20 0xFFFFFFFFFFFFFFFFFFFFFFFFFFFFFFFFFFFFFFFF AND PUSH2 0x8FC DUP3 PUSH1 0x3 ADD SLOAD SWAP1 DUP2 ISZERO MUL SWAP1 PUSH1 0x40 MLOAD PUSH1 0x0 PUSH1 0x40 MLOAD DUP1 DUP4 SUB DUP2 DUP6 DUP9 DUP9 CALL SWAP4 POP POP POP POP ISZERO DUP1 ISZERO PUSH2 0x31E JUMPI RETURNDATASIZE PUSH1 0x0 DUP1 RETURNDATACOPY RETURNDATASIZE PUSH1 0x0 REVERT JUMPDEST POP PUSH32 0x489807A5FD45F95DF5A4DA56D2EC4A895CD239AC44D0D9703AC6D8F0C590549C DUP3 DUP3 PUSH1 0x3 ADD SLOAD PUSH1 0x40 MLOAD PUSH2 0x354 SWAP3 SWAP2 SWAP1 PUSH2 0x82F JUMP JUMPDEST PUSH1 0x40 MLOAD DUP1 SWAP2 SUB SWAP1 LOG1 POP POP JUMP JUMPDEST PUSH1 0x2 PUSH1 0x20 MSTORE DUP1 PUSH1 0x0 MSTORE PUSH1 0x40 PUSH1 0x0 KECCAK256 PUSH1 0x0 SWAP2 POP SWAP1 POP DUP1 PUSH1 0x0 ADD PUSH1 0x0 SWAP1 SLOAD SWAP1 PUSH2 0x100 EXP SWAP1 DIV PUSH20 0xFFFFFFFFFFFFFFFFFFFFFFFFFFFFFFFFFFFFFFFF AND SWAP1 DUP1 PUSH1 0x1 ADD DUP1 SLOAD PUSH2 0x3A9 SWAP1 PUSH2 0x9E4 JUMP JUMPDEST DUP1 PUSH1 0x1F ADD PUSH1 0x20 DUP1 SWAP2 DIV MUL PUSH1 0x20 ADD PUSH1 0x40 MLOAD SWAP1 DUP2 ADD PUSH1 0x40 MSTORE DUP1 SWAP3 SWAP2 SWAP1 DUP2 DUP2 MSTORE PUSH1 0x20 ADD DUP3 DUP1 SLOAD PUSH2 0x3D5 SWAP1 PUSH2 0x9E4 JUMP JUMPDEST DUP1 ISZERO PUSH2 0x422 JUMPI DUP1 PUSH1 0x1F LT PUSH2 0x3F7 JUMPI PUSH2 0x100 DUP1 DUP4 SLOAD DIV MUL DUP4 MSTORE SWAP2 PUSH1 0x20 ADD SWAP2 PUSH2 0x422 JUMP JUMPDEST DUP3 ADD SWAP2 SWAP1 PUSH1 0x0 MSTORE PUSH1 0x20 PUSH1 0x0 KECCAK256 SWAP1 JUMPDEST DUP2 SLOAD DUP2 MSTORE SWAP1 PUSH1 0x1 ADD SWAP1 PUSH1 0x20 ADD DUP1 DUP4 GT PUSH2 0x405 JUMPI DUP3 SWAP1 SUB PUSH1 0x1F AND DUP3 ADD SWAP2 JUMPDEST POP POP POP POP POP SWAP1 DUP1 PUSH1 0x2 ADD DUP1 SLOAD PUSH2 0x437 SWAP1 PUSH2 0x9E4 JUMP JUMPDEST DUP1 PUSH1 0x1F ADD PUSH1 0x20 DUP1 SWAP2 DIV MUL PUSH1 0x20 ADD PUSH1 0x40 MLOAD SWAP1 DUP2 ADD PUSH1 0x40 MSTORE DUP1 SWAP3 SWAP2 SWAP1 DUP2 DUP2 MSTORE PUSH1 0x20 ADD DUP3 DUP1 SLOAD PUSH2 0x463 SWAP1 PUSH2 0x9E4 JUMP JUMPDEST DUP1 ISZERO PUSH2 0x4B0 JUMPI DUP1 PUSH1 0x1F LT PUSH2 0x485 JUMPI PUSH2 0x100 DUP1 DUP4 SLOAD DIV MUL DUP4 MSTORE SWAP2 PUSH1 0x20 ADD SWAP2 PUSH2 0x4B0 JUMP JUMPDEST DUP3 ADD SWAP2 SWAP1 PUSH1 0x0 MSTORE PUSH1 0x20 PUSH1 0x0 KECCAK256 SWAP1 JUMPDEST DUP2 SLOAD DUP2 MSTORE SWAP1 PUSH1 0x1 ADD SWAP1 PUSH1 0x20 ADD DUP1 DUP4 GT PUSH2 0x493 JUMPI DUP3 SWAP1 SUB PUSH1 0x1F AND DUP3 ADD SWAP2 JUMPDEST POP POP POP POP POP SWAP1 DUP1 PUSH1 0x3 ADD SLOAD SWAP1 DUP1 PUSH1 0x4 ADD PUSH1 0x0 SWAP1 SLOAD SWAP1 PUSH2 0x100 EXP SWAP1 DIV PUSH20 0xFFFFFFFFFFFFFFFFFFFFFFFFFFFFFFFFFFFFFFFF AND SWAP1 POP DUP6 JUMP JUMPDEST DUP3 DUP1 SLOAD PUSH2 0x4F2 SWAP1 PUSH2 0x9E4 JUMP JUMPDEST SWAP1 PUSH1 0x0 MSTORE PUSH1 0x20 PUSH1 0x0 KECCAK256 SWAP1 PUSH1 0x1F ADD PUSH1 0x20 SWAP1 DIV DUP2 ADD SWAP3 DUP3 PUSH2 0x514 JUMPI PUSH1 0x0 DUP6 SSTORE PUSH2 0x55B JUMP JUMPDEST DUP3 PUSH1 0x1F LT PUSH2 0x52D JUMPI DUP1 MLOAD PUSH1 0xFF NOT AND DUP4 DUP1 ADD OR DUP6 SSTORE PUSH2 0x55B JUMP JUMPDEST DUP3 DUP1 ADD PUSH1 0x1 ADD DUP6 SSTORE DUP3 ISZERO PUSH2 0x55B JUMPI SWAP2 DUP3 ADD JUMPDEST DUP3 DUP2 GT ISZERO PUSH2 0x55A JUMPI DUP3 MLOAD DUP3 SSTORE SWAP2 PUSH1 0x20 ADD SWAP2 SWAP1 PUSH1 0x1 ADD SWAP1 PUSH2 0x53F JUMP JUMPDEST JUMPDEST POP SWAP1 POP PUSH2 0x568 SWAP2 SWAP1 PUSH2 0x56C JUMP JUMPDEST POP SWAP1 JUMP JUMPDEST JUMPDEST DUP1 DUP3 GT ISZERO PUSH2 0x585 JUMPI PUSH1 0x0 DUP2 PUSH1 0x0 SWAP1 SSTORE POP PUSH1 0x1 ADD PUSH2 0x56D JUMP JUMPDEST POP SWAP1 JUMP JUMPDEST PUSH1 0x0 PUSH2 0x59C PUSH2 0x597 DUP5 PUSH2 0x87D JUMP JUMPDEST PUSH2 0x858 JUMP JUMPDEST SWAP1 POP DUP3 DUP2 MSTORE PUSH1 0x20 DUP2 ADD DUP5 DUP5 DUP5 ADD GT ISZERO PUSH2 0x5B8 JUMPI PUSH2 0x5B7 PUSH2 0xAD9 JUMP JUMPDEST JUMPDEST PUSH2 0x5C3 DUP5 DUP3 DUP6 PUSH2 0x9A2 JUMP JUMPDEST POP SWAP4 SWAP3 POP POP POP JUMP JUMPDEST PUSH1 0x0 DUP2 CALLDATALOAD SWAP1 POP PUSH2 0x5DA DUP2 PUSH2 0xB48 JUMP JUMPDEST SWAP3 SWAP2 POP POP JUMP JUMPDEST PUSH1 0x0 DUP3 PUSH1 0x1F DUP4 ADD SLT PUSH2 0x5F5 JUMPI PUSH2 0x5F4 PUSH2 0xAD4 JUMP JUMPDEST JUMPDEST DUP2 CALLDATALOAD PUSH2 0x605 DUP5 DUP3 PUSH1 0x20 DUP7 ADD PUSH2 0x589 JUMP JUMPDEST SWAP2 POP POP SWAP3 SWAP2 POP POP JUMP JUMPDEST PUSH1 0x0 DUP2 CALLDATALOAD SWAP1 POP PUSH2 0x61D DUP2 PUSH2 0xB5F JUMP JUMPDEST SWAP3 SWAP2 POP POP JUMP JUMPDEST PUSH1 0x0 DUP1 PUSH1 0x0 DUP1 PUSH1 0x80 DUP6 DUP8 SUB SLT ISZERO PUSH2 0x63D JUMPI PUSH2 0x63C PUSH2 0xAE3 JUMP JUMPDEST JUMPDEST PUSH1 0x0 DUP6 ADD CALLDATALOAD PUSH8 0xFFFFFFFFFFFFFFFF DUP2 GT ISZERO PUSH2 0x65B JUMPI PUSH2 0x65A PUSH2 0xADE JUMP JUMPDEST JUMPDEST PUSH2 0x667 DUP8 DUP3 DUP9 ADD PUSH2 0x5E0 JUMP JUMPDEST SWAP5 POP POP PUSH1 0x20 PUSH2 0x678 DUP8 DUP3 DUP9 ADD PUSH2 0x5CB JUMP JUMPDEST SWAP4 POP POP PUSH1 0x40 PUSH2 0x689 DUP8 DUP3 DUP9 ADD PUSH2 0x60E JUMP JUMPDEST SWAP3 POP POP PUSH1 0x60 DUP6 ADD CALLDATALOAD PUSH8 0xFFFFFFFFFFFFFFFF DUP2 GT ISZERO PUSH2 0x6AA JUMPI PUSH2 0x6A9 PUSH2 0xADE JUMP JUMPDEST JUMPDEST PUSH2 0x6B6 DUP8 DUP3 DUP9 ADD PUSH2 0x5E0 JUMP JUMPDEST SWAP2 POP POP SWAP3 SWAP6 SWAP2 SWAP5 POP SWAP3 POP JUMP JUMPDEST PUSH1 0x0 PUSH1 0x20 DUP3 DUP5 SUB SLT ISZERO PUSH2 0x6D8 JUMPI PUSH2 0x6D7 PUSH2 0xAE3 JUMP JUMPDEST JUMPDEST PUSH1 0x0 PUSH2 0x6E6 DUP5 DUP3 DUP6 ADD PUSH2 0x60E JUMP JUMPDEST SWAP2 POP POP SWAP3 SWAP2 POP POP JUMP JUMPDEST PUSH2 0x6F8 DUP2 PUSH2 0x966 JUMP JUMPDEST DUP3 MSTORE POP POP JUMP JUMPDEST PUSH2 0x707 DUP2 PUSH2 0x954 JUMP JUMPDEST DUP3 MSTORE POP POP JUMP JUMPDEST PUSH1 0x0 PUSH2 0x718 DUP3 PUSH2 0x8AE JUMP JUMPDEST PUSH2 0x722 DUP2 DUP6 PUSH2 0x8B9 JUMP JUMPDEST SWAP4 POP PUSH2 0x732 DUP2 DUP6 PUSH1 0x20 DUP7 ADD PUSH2 0x9B1 JUMP JUMPDEST PUSH2 0x73B DUP2 PUSH2 0xAE8 JUMP JUMPDEST DUP5 ADD SWAP2 POP POP SWAP3 SWAP2 POP POP JUMP JUMPDEST PUSH1 0x0 PUSH2 0x753 PUSH1 0x2A DUP4 PUSH2 0x8B9 JUMP JUMPDEST SWAP2 POP PUSH2 0x75E DUP3 PUSH2 0xAF9 JUMP JUMPDEST PUSH1 0x40 DUP3 ADD SWAP1 POP SWAP2 SWAP1 POP JUMP JUMPDEST PUSH2 0x772 DUP2 PUSH2 0x998 JUMP JUMPDEST DUP3 MSTORE POP POP JUMP JUMPDEST PUSH1 0x0 PUSH1 0x20 DUP3 ADD SWAP1 POP PUSH2 0x78D PUSH1 0x0 DUP4 ADD DUP5 PUSH2 0x6FE JUMP JUMPDEST SWAP3 SWAP2 POP POP JUMP JUMPDEST PUSH1 0x0 PUSH1 0xA0 DUP3 ADD SWAP1 POP PUSH2 0x7A8 PUSH1 0x0 DUP4 ADD DUP9 PUSH2 0x6FE JUMP JUMPDEST DUP2 DUP2 SUB PUSH1 0x20 DUP4 ADD MSTORE PUSH2 0x7BA DUP2 DUP8 PUSH2 0x70D JUMP JUMPDEST SWAP1 POP DUP2 DUP2 SUB PUSH1 0x40 DUP4 ADD MSTORE PUSH2 0x7CE DUP2 DUP7 PUSH2 0x70D JUMP JUMPDEST SWAP1 POP PUSH2 0x7DD PUSH1 0x60 DUP4 ADD DUP6 PUSH2 0x769 JUMP JUMPDEST PUSH2 0x7EA PUSH1 0x80 DUP4 ADD DUP5 PUSH2 0x6EF JUMP JUMPDEST SWAP7 SWAP6 POP POP POP POP POP POP JUMP JUMPDEST PUSH1 0x0 PUSH1 0x20 DUP3 ADD SWAP1 POP DUP2 DUP2 SUB PUSH1 0x0 DUP4 ADD MSTORE PUSH2 0x80D DUP2 PUSH2 0x746 JUMP JUMPDEST SWAP1 POP SWAP2 SWAP1 POP JUMP JUMPDEST PUSH1 0x0 PUSH1 0x20 DUP3 ADD SWAP1 POP PUSH2 0x829 PUSH1 0x0 DUP4 ADD DUP5 PUSH2 0x769 JUMP JUMPDEST SWAP3 SWAP2 POP POP JUMP JUMPDEST PUSH1 0x0 PUSH1 0x40 DUP3 ADD SWAP1 POP PUSH2 0x844 PUSH1 0x0 DUP4 ADD DUP6 PUSH2 0x769 JUMP JUMPDEST PUSH2 0x851 PUSH1 0x20 DUP4 ADD DUP5 PUSH2 0x769 JUMP JUMPDEST SWAP4 SWAP3 POP POP POP JUMP JUMPDEST PUSH1 0x0 PUSH2 0x862 PUSH2 0x873 JUMP JUMPDEST SWAP1 POP PUSH2 0x86E DUP3 DUP3 PUSH2 0xA16 JUMP JUMPDEST SWAP2 SWAP1 POP JUMP JUMPDEST PUSH1 0x0 PUSH1 0x40 MLOAD SWAP1 POP SWAP1 JUMP JUMPDEST PUSH1 0x0 PUSH8 0xFFFFFFFFFFFFFFFF DUP3 GT ISZERO PUSH2 0x898 JUMPI PUSH2 0x897 PUSH2 0xAA5 JUMP JUMPDEST JUMPDEST PUSH2 0x8A1 DUP3 PUSH2 0xAE8 JUMP JUMPDEST SWAP1 POP PUSH1 0x20 DUP2 ADD SWAP1 POP SWAP2 SWAP1 POP JUMP JUMPDEST PUSH1 0x0 DUP2 MLOAD SWAP1 POP SWAP2 SWAP1 POP JUMP JUMPDEST PUSH1 0x0 DUP3 DUP3 MSTORE PUSH1 0x20 DUP3 ADD SWAP1 POP SWAP3 SWAP2 POP POP JUMP JUMPDEST PUSH1 0x0 PUSH2 0x8D5 DUP3 PUSH2 0x998 JUMP JUMPDEST SWAP2 POP PUSH2 0x8E0 DUP4 PUSH2 0x998 JUMP JUMPDEST SWAP3 POP DUP3 PUSH32 0xFFFFFFFFFFFFFFFFFFFFFFFFFFFFFFFFFFFFFFFFFFFFFFFFFFFFFFFFFFFFFFFF SUB DUP3 GT ISZERO PUSH2 0x915 JUMPI PUSH2 0x914 PUSH2 0xA47 JUMP JUMPDEST JUMPDEST DUP3 DUP3 ADD SWAP1 POP SWAP3 SWAP2 POP POP JUMP JUMPDEST PUSH1 0x0 PUSH2 0x92B DUP3 PUSH2 0x998 JUMP JUMPDEST SWAP2 POP PUSH2 0x936 DUP4 PUSH2 0x998 JUMP JUMPDEST SWAP3 POP DUP3 DUP3 LT ISZERO PUSH2 0x949 JUMPI PUSH2 0x948 PUSH2 0xA47 JUMP JUMPDEST JUMPDEST DUP3 DUP3 SUB SWAP1 POP SWAP3 SWAP2 POP POP JUMP JUMPDEST PUSH1 0x0 PUSH2 0x95F DUP3 PUSH2 0x978 JUMP JUMPDEST SWAP1 POP SWAP2 SWAP1 POP JUMP JUMPDEST PUSH1 0x0 PUSH2 0x971 DUP3 PUSH2 0x978 JUMP JUMPDEST SWAP1 POP SWAP2 SWAP1 POP JUMP JUMPDEST PUSH1 0x0 PUSH20 0xFFFFFFFFFFFFFFFFFFFFFFFFFFFFFFFFFFFFFFFF DUP3 AND SWAP1 POP SWAP2 SWAP1 POP JUMP JUMPDEST PUSH1 0x0 DUP2 SWAP1 POP SWAP2 SWAP1 POP JUMP JUMPDEST DUP3 DUP2 DUP4 CALLDATACOPY PUSH1 0x0 DUP4 DUP4 ADD MSTORE POP POP POP JUMP JUMPDEST PUSH1 0x0 JUMPDEST DUP4 DUP2 LT ISZERO PUSH2 0x9CF JUMPI DUP1 DUP3 ADD MLOAD DUP2 DUP5 ADD MSTORE PUSH1 0x20 DUP2 ADD SWAP1 POP PUSH2 0x9B4 JUMP JUMPDEST DUP4 DUP2 GT ISZERO PUSH2 0x9DE JUMPI PUSH1 0x0 DUP5 DUP5 ADD MSTORE JUMPDEST POP POP POP POP JUMP JUMPDEST PUSH1 0x0 PUSH1 0x2 DUP3 DIV SWAP1 POP PUSH1 0x1 DUP3 AND DUP1 PUSH2 0x9FC JUMPI PUSH1 0x7F DUP3 AND SWAP2 POP JUMPDEST PUSH1 0x20 DUP3 LT DUP2 EQ ISZERO PUSH2 0xA10 JUMPI PUSH2 0xA0F PUSH2 0xA76 JUMP JUMPDEST JUMPDEST POP SWAP2 SWAP1 POP JUMP JUMPDEST PUSH2 0xA1F DUP3 PUSH2 0xAE8 JUMP JUMPDEST DUP2 ADD DUP2 DUP2 LT PUSH8 0xFFFFFFFFFFFFFFFF DUP3 GT OR ISZERO PUSH2 0xA3E JUMPI PUSH2 0xA3D PUSH2 0xAA5 JUMP JUMPDEST JUMPDEST DUP1 PUSH1 0x40 MSTORE POP POP POP JUMP JUMPDEST PUSH32 0x4E487B7100000000000000000000000000000000000000000000000000000000 PUSH1 0x0 MSTORE PUSH1 0x11 PUSH1 0x4 MSTORE PUSH1 0x24 PUSH1 0x0 REVERT JUMPDEST PUSH32 0x4E487B7100000000000000000000000000000000000000000000000000000000 PUSH1 0x0 MSTORE PUSH1 0x22 PUSH1 0x4 MSTORE PUSH1 0x24 PUSH1 0x0 REVERT JUMPDEST PUSH32 0x4E487B7100000000000000000000000000000000000000000000000000000000 PUSH1 0x0 MSTORE PUSH1 0x41 PUSH1 0x4 MSTORE PUSH1 0x24 PUSH1 0x0 REVERT JUMPDEST PUSH1 0x0 DUP1 REVERT JUMPDEST PUSH1 0x0 DUP1 REVERT JUMPDEST PUSH1 0x0 DUP1 REVERT JUMPDEST PUSH1 0x0 DUP1 REVERT JUMPDEST PUSH1 0x0 PUSH1 0x1F NOT PUSH1 0x1F DUP4 ADD AND SWAP1 POP SWAP2 SWAP1 POP JUMP JUMPDEST PUSH32 0x596F75206861766520746F2063726561746520646F6E6174696F6E20666F7220 PUSH1 0x0 DUP3 ADD MSTORE PUSH32 0x73656E6420657468657200000000000000000000000000000000000000000000 PUSH1 0x20 DUP3 ADD MSTORE POP JUMP JUMPDEST PUSH2 0xB51 DUP2 PUSH2 0x966 JUMP JUMPDEST DUP2 EQ PUSH2 0xB5C JUMPI PUSH1 0x0 DUP1 REVERT JUMPDEST POP JUMP JUMPDEST PUSH2 0xB68 DUP2 PUSH2 0x998 JUMP JUMPDEST DUP2 EQ PUSH2 0xB73 JUMPI PUSH1 0x0 DUP1 REVERT JUMPDEST POP JUMP INVALID LOG2 PUSH5 0x6970667358 0x22 SLT KECCAK256 0xCA SWAP1 PUSH15 0xC96F991208030FE43D7BA1FDFAB467 OR BYTE SHL 0xAB PUSH23 0x5F10F8BA704264141964736F6C63430008070033000000 "
				},
				"gasEstimates": {
					"creation": {
						"codeDepositCost": "597600",
						"executionCost": "632",
						"totalCost": "598232"
					},
					"external": {
						"createDonation(string,address,uint256,string)": "infinite",
						"donate(uint256)": "infinite",
						"donations(uint256)": "infinite",
						"owner()": "2489"
					}
				},
				"methodIdentifiers": {
					"createDonation(string,address,uint256,string)": "c3e00e6b",
					"donate(uint256)": "f14faf6f",
					"donations(uint256)": "f8626af8",
					"owner()": "8da5cb5b"
				}
			},
			"storageLayout": {
				"storage": [
					{
						"astId": 3,
						"contract": "contracts/FinalCase/DonateStreamer.sol:DonateStreamer",
						"label": "owner",
						"offset": 0,
						"slot": "0",
						"type": "t_address"
					},
					{
						"astId": 16,
						"contract": "contracts/FinalCase/DonateStreamer.sol:DonateStreamer",
						"label": "totalDonations",
						"offset": 0,
						"slot": "1",
						"type": "t_uint256"
					},
					{
						"astId": 21,
						"contract": "contracts/FinalCase/DonateStreamer.sol:DonateStreamer",
						"label": "donations",
						"offset": 0,
						"slot": "2",
						"type": "t_mapping(t_uint256,t_struct(Donation)14_storage)"
					}
				],
				"types": {
					"t_address": {
						"encoding": "inplace",
						"label": "address",
						"numberOfBytes": "20"
					},
					"t_address_payable": {
						"encoding": "inplace",
						"label": "address payable",
						"numberOfBytes": "20"
					},
					"t_mapping(t_uint256,t_struct(Donation)14_storage)": {
						"encoding": "mapping",
						"key": "t_uint256",
						"label": "mapping(uint256 => struct DonateStreamer.Donation)",
						"numberOfBytes": "32",
						"value": "t_struct(Donation)14_storage"
					},
					"t_string_storage": {
						"encoding": "bytes",
						"label": "string",
						"numberOfBytes": "32"
					},
					"t_struct(Donation)14_storage": {
						"encoding": "inplace",
						"label": "struct DonateStreamer.Donation",
						"members": [
							{
								"astId": 5,
								"contract": "contracts/FinalCase/DonateStreamer.sol:DonateStreamer",
								"label": "creator",
								"offset": 0,
								"slot": "0",
								"type": "t_address"
							},
							{
								"astId": 7,
								"contract": "contracts/FinalCase/DonateStreamer.sol:DonateStreamer",
								"label": "name",
								"offset": 0,
								"slot": "1",
								"type": "t_string_storage"
							},
							{
								"astId": 9,
								"contract": "contracts/FinalCase/DonateStreamer.sol:DonateStreamer",
								"label": "message",
								"offset": 0,
								"slot": "2",
								"type": "t_string_storage"
							},
							{
								"astId": 11,
								"contract": "contracts/FinalCase/DonateStreamer.sol:DonateStreamer",
								"label": "amount",
								"offset": 0,
								"slot": "3",
								"type": "t_uint256"
							},
							{
								"astId": 13,
								"contract": "contracts/FinalCase/DonateStreamer.sol:DonateStreamer",
								"label": "streamer",
								"offset": 0,
								"slot": "4",
								"type": "t_address_payable"
							}
						],
						"numberOfBytes": "160"
					},
					"t_uint256": {
						"encoding": "inplace",
						"label": "uint256",
						"numberOfBytes": "32"
					}
				}
			},
			"userdoc": {
				"kind": "user",
				"methods": {},
				"version": 1
			}
		}
	}
}