{
	"contracts/FinalCase/DonateStreamer.sol": {
		"DonateStreamer": {
			"abi": [
				{
					"inputs": [],
					"stateMutability": "nonpayable",
					"type": "constructor"
				},
				{
					"anonymous": false,
					"inputs": [
						{
							"indexed": false,
							"internalType": "uint256",
							"name": "donationsId",
							"type": "uint256"
						},
						{
							"indexed": false,
							"internalType": "uint256",
							"name": "amount",
							"type": "uint256"
						}
					],
					"name": "Donate",
					"type": "event"
				},
				{
					"inputs": [],
					"name": "admin",
					"outputs": [
						{
							"internalType": "address",
							"name": "",
							"type": "address"
						}
					],
					"stateMutability": "view",
					"type": "function"
				},
				{
					"inputs": [],
					"name": "balance",
					"outputs": [
						{
							"internalType": "uint256",
							"name": "",
							"type": "uint256"
						}
					],
					"stateMutability": "view",
					"type": "function"
				},
				{
					"inputs": [
						{
							"internalType": "string",
							"name": "_name",
							"type": "string"
						},
						{
							"internalType": "address payable",
							"name": "_streamer",
							"type": "address"
						},
						{
							"internalType": "uint256",
							"name": "_amount",
							"type": "uint256"
						}
					],
					"name": "createDonation",
					"outputs": [
						{
							"internalType": "uint256",
							"name": "donationsId",
							"type": "uint256"
						}
					],
					"stateMutability": "nonpayable",
					"type": "function"
				},
				{
					"inputs": [
						{
							"internalType": "uint256",
							"name": "id",
							"type": "uint256"
						}
					],
					"name": "donate",
					"outputs": [],
					"stateMutability": "nonpayable",
					"type": "function"
				},
				{
					"inputs": [
						{
							"internalType": "uint256",
							"name": "",
							"type": "uint256"
						}
					],
					"name": "donations",
					"outputs": [
						{
							"internalType": "address",
							"name": "creator",
							"type": "address"
						},
						{
							"internalType": "string",
							"name": "name",
							"type": "string"
						},
						{
							"internalType": "uint256",
							"name": "amount",
							"type": "uint256"
						},
						{
							"internalType": "address payable",
							"name": "streamer",
							"type": "address"
						}
					],
					"stateMutability": "view",
					"type": "function"
				},
				{
					"inputs": [],
					"name": "sendEtherToContract",
					"outputs": [],
					"stateMutability": "payable",
					"type": "function"
				}
			],
			"devdoc": {
				"kind": "dev",
				"methods": {},
				"version": 1
			},
			"evm": {
				"assembly": "    /* \"contracts/FinalCase/DonateStreamer.sol\":62:1972  contract DonateStreamer {\r... */\n  mstore(0x40, 0x80)\n    /* \"contracts/FinalCase/DonateStreamer.sol\":153:204  constructor() {\r... */\n  callvalue\n  dup1\n  iszero\n  tag_1\n  jumpi\n  0x00\n  dup1\n  revert\ntag_1:\n  pop\n    /* \"contracts/FinalCase/DonateStreamer.sol\":186:196  msg.sender */\n  caller\n    /* \"contracts/FinalCase/DonateStreamer.sol\":178:183  admin */\n  0x01\n  0x00\n    /* \"contracts/FinalCase/DonateStreamer.sol\":178:196  admin = msg.sender */\n  0x0100\n  exp\n  dup2\n  sload\n  dup2\n  0xffffffffffffffffffffffffffffffffffffffff\n  mul\n  not\n  and\n  swap1\n  dup4\n  0xffffffffffffffffffffffffffffffffffffffff\n  and\n  mul\n  or\n  swap1\n  sstore\n  pop\n    /* \"contracts/FinalCase/DonateStreamer.sol\":62:1972  contract DonateStreamer {\r... */\n  dataSize(sub_0)\n  dup1\n  dataOffset(sub_0)\n  0x00\n  codecopy\n  0x00\n  return\nstop\n\nsub_0: assembly {\n        /* \"contracts/FinalCase/DonateStreamer.sol\":62:1972  contract DonateStreamer {\r... */\n      mstore(0x40, 0x80)\n      jumpi(tag_1, lt(calldatasize, 0x04))\n      shr(0xe0, calldataload(0x00))\n      dup1\n      0x325ec768\n      eq\n      tag_2\n      jumpi\n      dup1\n      0xb5e051d9\n      eq\n      tag_3\n      jumpi\n      dup1\n      0xb69ef8a8\n      eq\n      tag_4\n      jumpi\n      dup1\n      0xf14faf6f\n      eq\n      tag_5\n      jumpi\n      dup1\n      0xf851a440\n      eq\n      tag_6\n      jumpi\n      dup1\n      0xf8626af8\n      eq\n      tag_7\n      jumpi\n    tag_1:\n      0x00\n      dup1\n      revert\n        /* \"contracts/FinalCase/DonateStreamer.sol\":1375:1584  function sendEtherToContract() payable sufficientBalance external{     //akıllı kontrağa ether transferi\r... */\n    tag_2:\n      tag_8\n      tag_9\n      jump\t// in\n    tag_8:\n      stop\n        /* \"contracts/FinalCase/DonateStreamer.sol\":775:1367  function createDonation(    //bağışın miktarını ve yayıncının belirtilmesini sağlayan fonsiyon\r... */\n    tag_3:\n      callvalue\n      dup1\n      iszero\n      tag_10\n      jumpi\n      0x00\n      dup1\n      revert\n    tag_10:\n      pop\n      tag_11\n      0x04\n      dup1\n      calldatasize\n      sub\n      dup2\n      add\n      swap1\n      tag_12\n      swap2\n      swap1\n      tag_13\n      jump\t// in\n    tag_12:\n      tag_14\n      jump\t// in\n    tag_11:\n      mload(0x40)\n      tag_15\n      swap2\n      swap1\n      tag_16\n      jump\t// in\n    tag_15:\n      mload(0x40)\n      dup1\n      swap2\n      sub\n      swap1\n      return\n        /* \"contracts/FinalCase/DonateStreamer.sol\":95:117  uint256 public balance */\n    tag_4:\n      callvalue\n      dup1\n      iszero\n      tag_17\n      jumpi\n      0x00\n      dup1\n      revert\n    tag_17:\n      pop\n      tag_18\n      tag_19\n      jump\t// in\n    tag_18:\n      mload(0x40)\n      tag_20\n      swap2\n      swap1\n      tag_16\n      jump\t// in\n    tag_20:\n      mload(0x40)\n      dup1\n      swap2\n      sub\n      swap1\n      return\n        /* \"contracts/FinalCase/DonateStreamer.sol\":1592:1969  function donate(uint256 id) external {             //yayıncıya etherin aktarılması\r... */\n    tag_5:\n      callvalue\n      dup1\n      iszero\n      tag_21\n      jumpi\n      0x00\n      dup1\n      revert\n    tag_21:\n      pop\n      tag_22\n      0x04\n      dup1\n      calldatasize\n      sub\n      dup2\n      add\n      swap1\n      tag_23\n      swap2\n      swap1\n      tag_24\n      jump\t// in\n    tag_23:\n      tag_25\n      jump\t// in\n    tag_22:\n      stop\n        /* \"contracts/FinalCase/DonateStreamer.sol\":124:144  address public admin */\n    tag_6:\n      callvalue\n      dup1\n      iszero\n      tag_26\n      jumpi\n      0x00\n      dup1\n      revert\n    tag_26:\n      pop\n      tag_27\n      tag_28\n      jump\t// in\n    tag_27:\n      mload(0x40)\n      tag_29\n      swap2\n      swap1\n      tag_30\n      jump\t// in\n    tag_29:\n      mload(0x40)\n      dup1\n      swap2\n      sub\n      swap1\n      return\n        /* \"contracts/FinalCase/DonateStreamer.sol\":460:505  mapping(uint256 => Donation) public donations */\n    tag_7:\n      callvalue\n      dup1\n      iszero\n      tag_31\n      jumpi\n      0x00\n      dup1\n      revert\n    tag_31:\n      pop\n      tag_32\n      0x04\n      dup1\n      calldatasize\n      sub\n      dup2\n      add\n      swap1\n      tag_33\n      swap2\n      swap1\n      tag_24\n      jump\t// in\n    tag_33:\n      tag_34\n      jump\t// in\n    tag_32:\n      mload(0x40)\n      tag_35\n      swap5\n      swap4\n      swap3\n      swap2\n      swap1\n      tag_36\n      jump\t// in\n    tag_35:\n      mload(0x40)\n      dup1\n      swap2\n      sub\n      swap1\n      return\n        /* \"contracts/FinalCase/DonateStreamer.sol\":1375:1584  function sendEtherToContract() payable sufficientBalance external{     //akıllı kontrağa ether transferi\r... */\n    tag_9:\n        /* \"contracts/FinalCase/DonateStreamer.sol\":1567:1576  msg.value */\n      callvalue\n        /* \"contracts/FinalCase/DonateStreamer.sol\":1556:1563  balance */\n      0x00\n      dup1\n        /* \"contracts/FinalCase/DonateStreamer.sol\":1556:1576  balance += msg.value */\n      dup3\n      dup3\n      sload\n      tag_39\n      swap2\n      swap1\n      tag_40\n      jump\t// in\n    tag_39:\n      swap3\n      pop\n      pop\n      dup2\n      swap1\n      sstore\n      pop\n        /* \"contracts/FinalCase/DonateStreamer.sol\":1375:1584  function sendEtherToContract() payable sufficientBalance external{     //akıllı kontrağa ether transferi\r... */\n      jump\t// out\n        /* \"contracts/FinalCase/DonateStreamer.sol\":775:1367  function createDonation(    //bağışın miktarını ve yayıncının belirtilmesini sağlayan fonsiyon\r... */\n    tag_14:\n        /* \"contracts/FinalCase/DonateStreamer.sol\":993:1012  uint256 donationsId */\n      0x00\n        /* \"contracts/FinalCase/DonateStreamer.sol\":1024:1049  Donation storage donation */\n      dup1\n        /* \"contracts/FinalCase/DonateStreamer.sol\":1052:1061  donations */\n      0x03\n        /* \"contracts/FinalCase/DonateStreamer.sol\":1052:1077  donations[totalDonations] */\n      0x00\n        /* \"contracts/FinalCase/DonateStreamer.sol\":1062:1076  totalDonations */\n      sload(0x02)\n        /* \"contracts/FinalCase/DonateStreamer.sol\":1052:1077  donations[totalDonations] */\n      dup2\n      mstore\n      0x20\n      add\n      swap1\n      dup2\n      mstore\n      0x20\n      add\n      0x00\n      keccak256\n        /* \"contracts/FinalCase/DonateStreamer.sol\":1024:1077  Donation storage donation = donations[totalDonations] */\n      swap1\n      pop\n        /* \"contracts/FinalCase/DonateStreamer.sol\":1109:1119  msg.sender */\n      caller\n        /* \"contracts/FinalCase/DonateStreamer.sol\":1090:1098  donation */\n      dup2\n        /* \"contracts/FinalCase/DonateStreamer.sol\":1090:1106  donation.creator */\n      0x00\n      add\n      0x00\n        /* \"contracts/FinalCase/DonateStreamer.sol\":1090:1119  donation.creator = msg.sender */\n      0x0100\n      exp\n      dup2\n      sload\n      dup2\n      0xffffffffffffffffffffffffffffffffffffffff\n      mul\n      not\n      and\n      swap1\n      dup4\n      0xffffffffffffffffffffffffffffffffffffffff\n      and\n      mul\n      or\n      swap1\n      sstore\n      pop\n        /* \"contracts/FinalCase/DonateStreamer.sol\":1146:1151  _name */\n      dup5\n        /* \"contracts/FinalCase/DonateStreamer.sol\":1130:1138  donation */\n      dup2\n        /* \"contracts/FinalCase/DonateStreamer.sol\":1130:1143  donation.name */\n      0x01\n      add\n        /* \"contracts/FinalCase/DonateStreamer.sol\":1130:1151  donation.name = _name */\n      swap1\n      dup1\n      mload\n      swap1\n      0x20\n      add\n      swap1\n      tag_42\n      swap3\n      swap2\n      swap1\n      tag_43\n      jump\t// in\n    tag_42:\n      pop\n        /* \"contracts/FinalCase/DonateStreamer.sol\":1182:1191  _streamer */\n      dup4\n        /* \"contracts/FinalCase/DonateStreamer.sol\":1162:1170  donation */\n      dup2\n        /* \"contracts/FinalCase/DonateStreamer.sol\":1162:1179  donation.streamer */\n      0x03\n      add\n      0x00\n        /* \"contracts/FinalCase/DonateStreamer.sol\":1162:1191  donation.streamer = _streamer */\n      0x0100\n      exp\n      dup2\n      sload\n      dup2\n      0xffffffffffffffffffffffffffffffffffffffff\n      mul\n      not\n      and\n      swap1\n      dup4\n      0xffffffffffffffffffffffffffffffffffffffff\n      and\n      mul\n      or\n      swap1\n      sstore\n      pop\n        /* \"contracts/FinalCase/DonateStreamer.sol\":1220:1227  _amount */\n      dup3\n        /* \"contracts/FinalCase/DonateStreamer.sol\":1202:1210  donation */\n      dup2\n        /* \"contracts/FinalCase/DonateStreamer.sol\":1202:1217  donation.amount */\n      0x02\n      add\n        /* \"contracts/FinalCase/DonateStreamer.sol\":1202:1227  donation.amount = _amount */\n      dup2\n      swap1\n      sstore\n      pop\n        /* \"contracts/FinalCase/DonateStreamer.sol\":1256:1264  donation */\n      dup1\n        /* \"contracts/FinalCase/DonateStreamer.sol\":1256:1271  donation.amount */\n      0x02\n      add\n      sload\n        /* \"contracts/FinalCase/DonateStreamer.sol\":1248:1255  balance */\n      sload(0x00)\n        /* \"contracts/FinalCase/DonateStreamer.sol\":1248:1271  balance>donation.amount */\n      gt\n        /* \"contracts/FinalCase/DonateStreamer.sol\":1240:1294  require(balance>donation.amount, \"Not enough balance\") */\n      tag_44\n      jumpi\n      mload(0x40)\n      0x08c379a000000000000000000000000000000000000000000000000000000000\n      dup2\n      mstore\n      0x04\n      add\n      tag_45\n      swap1\n      tag_46\n      jump\t// in\n    tag_45:\n      mload(0x40)\n      dup1\n      swap2\n      sub\n      swap1\n      revert\n    tag_44:\n        /* \"contracts/FinalCase/DonateStreamer.sol\":1323:1324  1 */\n      0x01\n        /* \"contracts/FinalCase/DonateStreamer.sol\":1305:1319  totalDonations */\n      0x02\n      0x00\n        /* \"contracts/FinalCase/DonateStreamer.sol\":1305:1324  totalDonations += 1 */\n      dup3\n      dup3\n      sload\n      tag_47\n      swap2\n      swap1\n      tag_40\n      jump\t// in\n    tag_47:\n      swap3\n      pop\n      pop\n      dup2\n      swap1\n      sstore\n      pop\n        /* \"contracts/FinalCase/DonateStreamer.sol\":1358:1359  1 */\n      0x01\n        /* \"contracts/FinalCase/DonateStreamer.sol\":1342:1356  totalDonations */\n      sload(0x02)\n        /* \"contracts/FinalCase/DonateStreamer.sol\":1342:1359  totalDonations -1 */\n      tag_48\n      swap2\n      swap1\n      tag_49\n      jump\t// in\n    tag_48:\n        /* \"contracts/FinalCase/DonateStreamer.sol\":1335:1359  return totalDonations -1 */\n      swap2\n      pop\n      pop\n        /* \"contracts/FinalCase/DonateStreamer.sol\":775:1367  function createDonation(    //bağışın miktarını ve yayıncının belirtilmesini sağlayan fonsiyon\r... */\n      swap4\n      swap3\n      pop\n      pop\n      pop\n      jump\t// out\n        /* \"contracts/FinalCase/DonateStreamer.sol\":95:117  uint256 public balance */\n    tag_19:\n      sload(0x00)\n      dup2\n      jump\t// out\n        /* \"contracts/FinalCase/DonateStreamer.sol\":1592:1969  function donate(uint256 id) external {             //yayıncıya etherin aktarılması\r... */\n    tag_25:\n        /* \"contracts/FinalCase/DonateStreamer.sol\":1688:1713  Donation storage donation */\n      0x00\n        /* \"contracts/FinalCase/DonateStreamer.sol\":1716:1725  donations */\n      0x03\n        /* \"contracts/FinalCase/DonateStreamer.sol\":1716:1729  donations[id] */\n      0x00\n        /* \"contracts/FinalCase/DonateStreamer.sol\":1726:1728  id */\n      dup4\n        /* \"contracts/FinalCase/DonateStreamer.sol\":1716:1729  donations[id] */\n      dup2\n      mstore\n      0x20\n      add\n      swap1\n      dup2\n      mstore\n      0x20\n      add\n      0x00\n      keccak256\n        /* \"contracts/FinalCase/DonateStreamer.sol\":1688:1729  Donation storage donation = donations[id] */\n      swap1\n      pop\n        /* \"contracts/FinalCase/DonateStreamer.sol\":1762:1770  donation */\n      dup1\n        /* \"contracts/FinalCase/DonateStreamer.sol\":1762:1778  donation.creator */\n      0x00\n      add\n      0x00\n      swap1\n      sload\n      swap1\n      0x0100\n      exp\n      swap1\n      div\n      0xffffffffffffffffffffffffffffffffffffffff\n      and\n        /* \"contracts/FinalCase/DonateStreamer.sol\":1748:1778  msg.sender == donation.creator */\n      0xffffffffffffffffffffffffffffffffffffffff\n      and\n        /* \"contracts/FinalCase/DonateStreamer.sol\":1748:1758  msg.sender */\n      caller\n        /* \"contracts/FinalCase/DonateStreamer.sol\":1748:1778  msg.sender == donation.creator */\n      0xffffffffffffffffffffffffffffffffffffffff\n      and\n      eq\n        /* \"contracts/FinalCase/DonateStreamer.sol\":1740:1825  require(msg.sender == donation.creator, \"You have to create donation for send ether\") */\n      tag_51\n      jumpi\n      mload(0x40)\n      0x08c379a000000000000000000000000000000000000000000000000000000000\n      dup2\n      mstore\n      0x04\n      add\n      tag_52\n      swap1\n      tag_53\n      jump\t// in\n    tag_52:\n      mload(0x40)\n      dup1\n      swap2\n      sub\n      swap1\n      revert\n    tag_51:\n        /* \"contracts/FinalCase/DonateStreamer.sol\":1836:1844  donation */\n      dup1\n        /* \"contracts/FinalCase/DonateStreamer.sol\":1836:1853  donation.streamer */\n      0x03\n      add\n      0x00\n      swap1\n      sload\n      swap1\n      0x0100\n      exp\n      swap1\n      div\n      0xffffffffffffffffffffffffffffffffffffffff\n      and\n        /* \"contracts/FinalCase/DonateStreamer.sol\":1836:1862  donation.streamer.transfer */\n      0xffffffffffffffffffffffffffffffffffffffff\n      and\n        /* \"contracts/FinalCase/DonateStreamer.sol\":1836:1879  donation.streamer.transfer(donation.amount) */\n      0x08fc\n        /* \"contracts/FinalCase/DonateStreamer.sol\":1863:1871  donation */\n      dup3\n        /* \"contracts/FinalCase/DonateStreamer.sol\":1863:1878  donation.amount */\n      0x02\n      add\n      sload\n        /* \"contracts/FinalCase/DonateStreamer.sol\":1836:1879  donation.streamer.transfer(donation.amount) */\n      swap1\n      dup2\n      iszero\n      mul\n      swap1\n      mload(0x40)\n      0x00\n      mload(0x40)\n      dup1\n      dup4\n      sub\n      dup2\n      dup6\n      dup9\n      dup9\n      call\n      swap4\n      pop\n      pop\n      pop\n      pop\n      iszero\n      dup1\n      iszero\n      tag_55\n      jumpi\n      returndatasize\n      0x00\n      dup1\n      returndatacopy\n      revert(0x00, returndatasize)\n    tag_55:\n      pop\n        /* \"contracts/FinalCase/DonateStreamer.sol\":1901:1909  donation */\n      dup1\n        /* \"contracts/FinalCase/DonateStreamer.sol\":1901:1916  donation.amount */\n      0x02\n      add\n      sload\n        /* \"contracts/FinalCase/DonateStreamer.sol\":1890:1897  balance */\n      0x00\n      dup1\n        /* \"contracts/FinalCase/DonateStreamer.sol\":1890:1916  balance -= donation.amount */\n      dup3\n      dup3\n      sload\n      tag_56\n      swap2\n      swap1\n      tag_49\n      jump\t// in\n    tag_56:\n      swap3\n      pop\n      pop\n      dup2\n      swap1\n      sstore\n      pop\n        /* \"contracts/FinalCase/DonateStreamer.sol\":1934:1961  Donate(id, donation.amount) */\n      0x489807a5fd45f95df5a4da56d2ec4a895cd239ac44d0d9703ac6d8f0c590549c\n        /* \"contracts/FinalCase/DonateStreamer.sol\":1941:1943  id */\n      dup3\n        /* \"contracts/FinalCase/DonateStreamer.sol\":1945:1953  donation */\n      dup3\n        /* \"contracts/FinalCase/DonateStreamer.sol\":1945:1960  donation.amount */\n      0x02\n      add\n      sload\n        /* \"contracts/FinalCase/DonateStreamer.sol\":1934:1961  Donate(id, donation.amount) */\n      mload(0x40)\n      tag_57\n      swap3\n      swap2\n      swap1\n      tag_58\n      jump\t// in\n    tag_57:\n      mload(0x40)\n      dup1\n      swap2\n      sub\n      swap1\n      log1\n        /* \"contracts/FinalCase/DonateStreamer.sol\":1629:1969  {             //yayıncıya etherin aktarılması\r... */\n      pop\n        /* \"contracts/FinalCase/DonateStreamer.sol\":1592:1969  function donate(uint256 id) external {             //yayıncıya etherin aktarılması\r... */\n      pop\n      jump\t// out\n        /* \"contracts/FinalCase/DonateStreamer.sol\":124:144  address public admin */\n    tag_28:\n      0x01\n      0x00\n      swap1\n      sload\n      swap1\n      0x0100\n      exp\n      swap1\n      div\n      0xffffffffffffffffffffffffffffffffffffffff\n      and\n      dup2\n      jump\t// out\n        /* \"contracts/FinalCase/DonateStreamer.sol\":460:505  mapping(uint256 => Donation) public donations */\n    tag_34:\n      mstore(0x20, 0x03)\n      dup1\n      0x00\n      mstore\n      keccak256(0x00, 0x40)\n      0x00\n      swap2\n      pop\n      swap1\n      pop\n      dup1\n      0x00\n      add\n      0x00\n      swap1\n      sload\n      swap1\n      0x0100\n      exp\n      swap1\n      div\n      0xffffffffffffffffffffffffffffffffffffffff\n      and\n      swap1\n      dup1\n      0x01\n      add\n      dup1\n      sload\n      tag_59\n      swap1\n      tag_60\n      jump\t// in\n    tag_59:\n      dup1\n      0x1f\n      add\n      0x20\n      dup1\n      swap2\n      div\n      mul\n      0x20\n      add\n      mload(0x40)\n      swap1\n      dup2\n      add\n      0x40\n      mstore\n      dup1\n      swap3\n      swap2\n      swap1\n      dup2\n      dup2\n      mstore\n      0x20\n      add\n      dup3\n      dup1\n      sload\n      tag_61\n      swap1\n      tag_60\n      jump\t// in\n    tag_61:\n      dup1\n      iszero\n      tag_62\n      jumpi\n      dup1\n      0x1f\n      lt\n      tag_63\n      jumpi\n      0x0100\n      dup1\n      dup4\n      sload\n      div\n      mul\n      dup4\n      mstore\n      swap2\n      0x20\n      add\n      swap2\n      jump(tag_62)\n    tag_63:\n      dup3\n      add\n      swap2\n      swap1\n      0x00\n      mstore\n      keccak256(0x00, 0x20)\n      swap1\n    tag_64:\n      dup2\n      sload\n      dup2\n      mstore\n      swap1\n      0x01\n      add\n      swap1\n      0x20\n      add\n      dup1\n      dup4\n      gt\n      tag_64\n      jumpi\n      dup3\n      swap1\n      sub\n      0x1f\n      and\n      dup3\n      add\n      swap2\n    tag_62:\n      pop\n      pop\n      pop\n      pop\n      pop\n      swap1\n      dup1\n      0x02\n      add\n      sload\n      swap1\n      dup1\n      0x03\n      add\n      0x00\n      swap1\n      sload\n      swap1\n      0x0100\n      exp\n      swap1\n      div\n      0xffffffffffffffffffffffffffffffffffffffff\n      and\n      swap1\n      pop\n      dup5\n      jump\t// out\n    tag_43:\n      dup3\n      dup1\n      sload\n      tag_65\n      swap1\n      tag_60\n      jump\t// in\n    tag_65:\n      swap1\n      0x00\n      mstore\n      keccak256(0x00, 0x20)\n      swap1\n      0x1f\n      add\n      0x20\n      swap1\n      div\n      dup2\n      add\n      swap3\n      dup3\n      tag_67\n      jumpi\n      0x00\n      dup6\n      sstore\n      jump(tag_66)\n    tag_67:\n      dup3\n      0x1f\n      lt\n      tag_68\n      jumpi\n      dup1\n      mload\n      not(0xff)\n      and\n      dup4\n      dup1\n      add\n      or\n      dup6\n      sstore\n      jump(tag_66)\n    tag_68:\n      dup3\n      dup1\n      add\n      0x01\n      add\n      dup6\n      sstore\n      dup3\n      iszero\n      tag_66\n      jumpi\n      swap2\n      dup3\n      add\n    tag_69:\n      dup3\n      dup2\n      gt\n      iszero\n      tag_70\n      jumpi\n      dup3\n      mload\n      dup3\n      sstore\n      swap2\n      0x20\n      add\n      swap2\n      swap1\n      0x01\n      add\n      swap1\n      jump(tag_69)\n    tag_70:\n    tag_66:\n      pop\n      swap1\n      pop\n      tag_71\n      swap2\n      swap1\n      tag_72\n      jump\t// in\n    tag_71:\n      pop\n      swap1\n      jump\t// out\n    tag_72:\n    tag_73:\n      dup1\n      dup3\n      gt\n      iszero\n      tag_74\n      jumpi\n      0x00\n      dup2\n      0x00\n      swap1\n      sstore\n      pop\n      0x01\n      add\n      jump(tag_73)\n    tag_74:\n      pop\n      swap1\n      jump\t// out\n        /* \"#utility.yul\":7:419   */\n    tag_76:\n        /* \"#utility.yul\":85:90   */\n      0x00\n        /* \"#utility.yul\":110:176   */\n      tag_78\n        /* \"#utility.yul\":126:175   */\n      tag_79\n        /* \"#utility.yul\":168:174   */\n      dup5\n        /* \"#utility.yul\":126:175   */\n      tag_80\n      jump\t// in\n    tag_79:\n        /* \"#utility.yul\":110:176   */\n      tag_81\n      jump\t// in\n    tag_78:\n        /* \"#utility.yul\":101:176   */\n      swap1\n      pop\n        /* \"#utility.yul\":199:205   */\n      dup3\n        /* \"#utility.yul\":192:197   */\n      dup2\n        /* \"#utility.yul\":185:206   */\n      mstore\n        /* \"#utility.yul\":237:241   */\n      0x20\n        /* \"#utility.yul\":230:235   */\n      dup2\n        /* \"#utility.yul\":226:242   */\n      add\n        /* \"#utility.yul\":275:278   */\n      dup5\n        /* \"#utility.yul\":266:272   */\n      dup5\n        /* \"#utility.yul\":261:264   */\n      dup5\n        /* \"#utility.yul\":257:273   */\n      add\n        /* \"#utility.yul\":254:279   */\n      gt\n        /* \"#utility.yul\":251:363   */\n      iszero\n      tag_82\n      jumpi\n        /* \"#utility.yul\":282:361   */\n      tag_83\n      tag_84\n      jump\t// in\n    tag_83:\n        /* \"#utility.yul\":251:363   */\n    tag_82:\n        /* \"#utility.yul\":372:413   */\n      tag_85\n        /* \"#utility.yul\":406:412   */\n      dup5\n        /* \"#utility.yul\":401:404   */\n      dup3\n        /* \"#utility.yul\":396:399   */\n      dup6\n        /* \"#utility.yul\":372:413   */\n      tag_86\n      jump\t// in\n    tag_85:\n        /* \"#utility.yul\":91:419   */\n      pop\n        /* \"#utility.yul\":7:419   */\n      swap4\n      swap3\n      pop\n      pop\n      pop\n      jump\t// out\n        /* \"#utility.yul\":425:580   */\n    tag_87:\n        /* \"#utility.yul\":479:484   */\n      0x00\n        /* \"#utility.yul\":517:523   */\n      dup2\n        /* \"#utility.yul\":504:524   */\n      calldataload\n        /* \"#utility.yul\":495:524   */\n      swap1\n      pop\n        /* \"#utility.yul\":533:574   */\n      tag_89\n        /* \"#utility.yul\":568:573   */\n      dup2\n        /* \"#utility.yul\":533:574   */\n      tag_90\n      jump\t// in\n    tag_89:\n        /* \"#utility.yul\":425:580   */\n      swap3\n      swap2\n      pop\n      pop\n      jump\t// out\n        /* \"#utility.yul\":600:940   */\n    tag_91:\n        /* \"#utility.yul\":656:661   */\n      0x00\n        /* \"#utility.yul\":705:708   */\n      dup3\n        /* \"#utility.yul\":698:702   */\n      0x1f\n        /* \"#utility.yul\":690:696   */\n      dup4\n        /* \"#utility.yul\":686:703   */\n      add\n        /* \"#utility.yul\":682:709   */\n      slt\n        /* \"#utility.yul\":672:794   */\n      tag_93\n      jumpi\n        /* \"#utility.yul\":713:792   */\n      tag_94\n      tag_95\n      jump\t// in\n    tag_94:\n        /* \"#utility.yul\":672:794   */\n    tag_93:\n        /* \"#utility.yul\":830:836   */\n      dup2\n        /* \"#utility.yul\":817:837   */\n      calldataload\n        /* \"#utility.yul\":855:934   */\n      tag_96\n        /* \"#utility.yul\":930:933   */\n      dup5\n        /* \"#utility.yul\":922:928   */\n      dup3\n        /* \"#utility.yul\":915:919   */\n      0x20\n        /* \"#utility.yul\":907:913   */\n      dup7\n        /* \"#utility.yul\":903:920   */\n      add\n        /* \"#utility.yul\":855:934   */\n      tag_76\n      jump\t// in\n    tag_96:\n        /* \"#utility.yul\":846:934   */\n      swap2\n      pop\n        /* \"#utility.yul\":662:940   */\n      pop\n        /* \"#utility.yul\":600:940   */\n      swap3\n      swap2\n      pop\n      pop\n      jump\t// out\n        /* \"#utility.yul\":946:1085   */\n    tag_97:\n        /* \"#utility.yul\":992:997   */\n      0x00\n        /* \"#utility.yul\":1030:1036   */\n      dup2\n        /* \"#utility.yul\":1017:1037   */\n      calldataload\n        /* \"#utility.yul\":1008:1037   */\n      swap1\n      pop\n        /* \"#utility.yul\":1046:1079   */\n      tag_99\n        /* \"#utility.yul\":1073:1078   */\n      dup2\n        /* \"#utility.yul\":1046:1079   */\n      tag_100\n      jump\t// in\n    tag_99:\n        /* \"#utility.yul\":946:1085   */\n      swap3\n      swap2\n      pop\n      pop\n      jump\t// out\n        /* \"#utility.yul\":1091:1906   */\n    tag_13:\n        /* \"#utility.yul\":1186:1192   */\n      0x00\n        /* \"#utility.yul\":1194:1200   */\n      dup1\n        /* \"#utility.yul\":1202:1208   */\n      0x00\n        /* \"#utility.yul\":1251:1253   */\n      0x60\n        /* \"#utility.yul\":1239:1248   */\n      dup5\n        /* \"#utility.yul\":1230:1237   */\n      dup7\n        /* \"#utility.yul\":1226:1249   */\n      sub\n        /* \"#utility.yul\":1222:1254   */\n      slt\n        /* \"#utility.yul\":1219:1338   */\n      iszero\n      tag_102\n      jumpi\n        /* \"#utility.yul\":1257:1336   */\n      tag_103\n      tag_104\n      jump\t// in\n    tag_103:\n        /* \"#utility.yul\":1219:1338   */\n    tag_102:\n        /* \"#utility.yul\":1405:1406   */\n      0x00\n        /* \"#utility.yul\":1394:1403   */\n      dup5\n        /* \"#utility.yul\":1390:1407   */\n      add\n        /* \"#utility.yul\":1377:1408   */\n      calldataload\n        /* \"#utility.yul\":1435:1453   */\n      0xffffffffffffffff\n        /* \"#utility.yul\":1427:1433   */\n      dup2\n        /* \"#utility.yul\":1424:1454   */\n      gt\n        /* \"#utility.yul\":1421:1538   */\n      iszero\n      tag_105\n      jumpi\n        /* \"#utility.yul\":1457:1536   */\n      tag_106\n      tag_107\n      jump\t// in\n    tag_106:\n        /* \"#utility.yul\":1421:1538   */\n    tag_105:\n        /* \"#utility.yul\":1562:1625   */\n      tag_108\n        /* \"#utility.yul\":1617:1624   */\n      dup7\n        /* \"#utility.yul\":1608:1614   */\n      dup3\n        /* \"#utility.yul\":1597:1606   */\n      dup8\n        /* \"#utility.yul\":1593:1615   */\n      add\n        /* \"#utility.yul\":1562:1625   */\n      tag_91\n      jump\t// in\n    tag_108:\n        /* \"#utility.yul\":1552:1625   */\n      swap4\n      pop\n        /* \"#utility.yul\":1348:1635   */\n      pop\n        /* \"#utility.yul\":1674:1676   */\n      0x20\n        /* \"#utility.yul\":1700:1761   */\n      tag_109\n        /* \"#utility.yul\":1753:1760   */\n      dup7\n        /* \"#utility.yul\":1744:1750   */\n      dup3\n        /* \"#utility.yul\":1733:1742   */\n      dup8\n        /* \"#utility.yul\":1729:1751   */\n      add\n        /* \"#utility.yul\":1700:1761   */\n      tag_87\n      jump\t// in\n    tag_109:\n        /* \"#utility.yul\":1690:1761   */\n      swap3\n      pop\n        /* \"#utility.yul\":1645:1771   */\n      pop\n        /* \"#utility.yul\":1810:1812   */\n      0x40\n        /* \"#utility.yul\":1836:1889   */\n      tag_110\n        /* \"#utility.yul\":1881:1888   */\n      dup7\n        /* \"#utility.yul\":1872:1878   */\n      dup3\n        /* \"#utility.yul\":1861:1870   */\n      dup8\n        /* \"#utility.yul\":1857:1879   */\n      add\n        /* \"#utility.yul\":1836:1889   */\n      tag_97\n      jump\t// in\n    tag_110:\n        /* \"#utility.yul\":1826:1889   */\n      swap2\n      pop\n        /* \"#utility.yul\":1781:1899   */\n      pop\n        /* \"#utility.yul\":1091:1906   */\n      swap3\n      pop\n      swap3\n      pop\n      swap3\n      jump\t// out\n        /* \"#utility.yul\":1912:2241   */\n    tag_24:\n        /* \"#utility.yul\":1971:1977   */\n      0x00\n        /* \"#utility.yul\":2020:2022   */\n      0x20\n        /* \"#utility.yul\":2008:2017   */\n      dup3\n        /* \"#utility.yul\":1999:2006   */\n      dup5\n        /* \"#utility.yul\":1995:2018   */\n      sub\n        /* \"#utility.yul\":1991:2023   */\n      slt\n        /* \"#utility.yul\":1988:2107   */\n      iszero\n      tag_112\n      jumpi\n        /* \"#utility.yul\":2026:2105   */\n      tag_113\n      tag_104\n      jump\t// in\n    tag_113:\n        /* \"#utility.yul\":1988:2107   */\n    tag_112:\n        /* \"#utility.yul\":2146:2147   */\n      0x00\n        /* \"#utility.yul\":2171:2224   */\n      tag_114\n        /* \"#utility.yul\":2216:2223   */\n      dup5\n        /* \"#utility.yul\":2207:2213   */\n      dup3\n        /* \"#utility.yul\":2196:2205   */\n      dup6\n        /* \"#utility.yul\":2192:2214   */\n      add\n        /* \"#utility.yul\":2171:2224   */\n      tag_97\n      jump\t// in\n    tag_114:\n        /* \"#utility.yul\":2161:2224   */\n      swap2\n      pop\n        /* \"#utility.yul\":2117:2234   */\n      pop\n        /* \"#utility.yul\":1912:2241   */\n      swap3\n      swap2\n      pop\n      pop\n      jump\t// out\n        /* \"#utility.yul\":2247:2389   */\n    tag_115:\n        /* \"#utility.yul\":2350:2382   */\n      tag_117\n        /* \"#utility.yul\":2376:2381   */\n      dup2\n        /* \"#utility.yul\":2350:2382   */\n      tag_118\n      jump\t// in\n    tag_117:\n        /* \"#utility.yul\":2345:2348   */\n      dup3\n        /* \"#utility.yul\":2338:2383   */\n      mstore\n        /* \"#utility.yul\":2247:2389   */\n      pop\n      pop\n      jump\t// out\n        /* \"#utility.yul\":2395:2513   */\n    tag_119:\n        /* \"#utility.yul\":2482:2506   */\n      tag_121\n        /* \"#utility.yul\":2500:2505   */\n      dup2\n        /* \"#utility.yul\":2482:2506   */\n      tag_122\n      jump\t// in\n    tag_121:\n        /* \"#utility.yul\":2477:2480   */\n      dup3\n        /* \"#utility.yul\":2470:2507   */\n      mstore\n        /* \"#utility.yul\":2395:2513   */\n      pop\n      pop\n      jump\t// out\n        /* \"#utility.yul\":2519:2883   */\n    tag_123:\n        /* \"#utility.yul\":2607:2610   */\n      0x00\n        /* \"#utility.yul\":2635:2674   */\n      tag_125\n        /* \"#utility.yul\":2668:2673   */\n      dup3\n        /* \"#utility.yul\":2635:2674   */\n      tag_126\n      jump\t// in\n    tag_125:\n        /* \"#utility.yul\":2690:2761   */\n      tag_127\n        /* \"#utility.yul\":2754:2760   */\n      dup2\n        /* \"#utility.yul\":2749:2752   */\n      dup6\n        /* \"#utility.yul\":2690:2761   */\n      tag_128\n      jump\t// in\n    tag_127:\n        /* \"#utility.yul\":2683:2761   */\n      swap4\n      pop\n        /* \"#utility.yul\":2770:2822   */\n      tag_129\n        /* \"#utility.yul\":2815:2821   */\n      dup2\n        /* \"#utility.yul\":2810:2813   */\n      dup6\n        /* \"#utility.yul\":2803:2807   */\n      0x20\n        /* \"#utility.yul\":2796:2801   */\n      dup7\n        /* \"#utility.yul\":2792:2808   */\n      add\n        /* \"#utility.yul\":2770:2822   */\n      tag_130\n      jump\t// in\n    tag_129:\n        /* \"#utility.yul\":2847:2876   */\n      tag_131\n        /* \"#utility.yul\":2869:2875   */\n      dup2\n        /* \"#utility.yul\":2847:2876   */\n      tag_132\n      jump\t// in\n    tag_131:\n        /* \"#utility.yul\":2842:2845   */\n      dup5\n        /* \"#utility.yul\":2838:2877   */\n      add\n        /* \"#utility.yul\":2831:2877   */\n      swap2\n      pop\n        /* \"#utility.yul\":2611:2883   */\n      pop\n        /* \"#utility.yul\":2519:2883   */\n      swap3\n      swap2\n      pop\n      pop\n      jump\t// out\n        /* \"#utility.yul\":2889:3255   */\n    tag_133:\n        /* \"#utility.yul\":3031:3034   */\n      0x00\n        /* \"#utility.yul\":3052:3119   */\n      tag_135\n        /* \"#utility.yul\":3116:3118   */\n      0x2a\n        /* \"#utility.yul\":3111:3114   */\n      dup4\n        /* \"#utility.yul\":3052:3119   */\n      tag_128\n      jump\t// in\n    tag_135:\n        /* \"#utility.yul\":3045:3119   */\n      swap2\n      pop\n        /* \"#utility.yul\":3128:3221   */\n      tag_136\n        /* \"#utility.yul\":3217:3220   */\n      dup3\n        /* \"#utility.yul\":3128:3221   */\n      tag_137\n      jump\t// in\n    tag_136:\n        /* \"#utility.yul\":3246:3248   */\n      0x40\n        /* \"#utility.yul\":3241:3244   */\n      dup3\n        /* \"#utility.yul\":3237:3249   */\n      add\n        /* \"#utility.yul\":3230:3249   */\n      swap1\n      pop\n        /* \"#utility.yul\":2889:3255   */\n      swap2\n      swap1\n      pop\n      jump\t// out\n        /* \"#utility.yul\":3261:3627   */\n    tag_138:\n        /* \"#utility.yul\":3403:3406   */\n      0x00\n        /* \"#utility.yul\":3424:3491   */\n      tag_140\n        /* \"#utility.yul\":3488:3490   */\n      0x12\n        /* \"#utility.yul\":3483:3486   */\n      dup4\n        /* \"#utility.yul\":3424:3491   */\n      tag_128\n      jump\t// in\n    tag_140:\n        /* \"#utility.yul\":3417:3491   */\n      swap2\n      pop\n        /* \"#utility.yul\":3500:3593   */\n      tag_141\n        /* \"#utility.yul\":3589:3592   */\n      dup3\n        /* \"#utility.yul\":3500:3593   */\n      tag_142\n      jump\t// in\n    tag_141:\n        /* \"#utility.yul\":3618:3620   */\n      0x20\n        /* \"#utility.yul\":3613:3616   */\n      dup3\n        /* \"#utility.yul\":3609:3621   */\n      add\n        /* \"#utility.yul\":3602:3621   */\n      swap1\n      pop\n        /* \"#utility.yul\":3261:3627   */\n      swap2\n      swap1\n      pop\n      jump\t// out\n        /* \"#utility.yul\":3633:3751   */\n    tag_143:\n        /* \"#utility.yul\":3720:3744   */\n      tag_145\n        /* \"#utility.yul\":3738:3743   */\n      dup2\n        /* \"#utility.yul\":3720:3744   */\n      tag_146\n      jump\t// in\n    tag_145:\n        /* \"#utility.yul\":3715:3718   */\n      dup3\n        /* \"#utility.yul\":3708:3745   */\n      mstore\n        /* \"#utility.yul\":3633:3751   */\n      pop\n      pop\n      jump\t// out\n        /* \"#utility.yul\":3757:3979   */\n    tag_30:\n        /* \"#utility.yul\":3850:3854   */\n      0x00\n        /* \"#utility.yul\":3888:3890   */\n      0x20\n        /* \"#utility.yul\":3877:3886   */\n      dup3\n        /* \"#utility.yul\":3873:3891   */\n      add\n        /* \"#utility.yul\":3865:3891   */\n      swap1\n      pop\n        /* \"#utility.yul\":3901:3972   */\n      tag_148\n        /* \"#utility.yul\":3969:3970   */\n      0x00\n        /* \"#utility.yul\":3958:3967   */\n      dup4\n        /* \"#utility.yul\":3954:3971   */\n      add\n        /* \"#utility.yul\":3945:3951   */\n      dup5\n        /* \"#utility.yul\":3901:3972   */\n      tag_119\n      jump\t// in\n    tag_148:\n        /* \"#utility.yul\":3757:3979   */\n      swap3\n      swap2\n      pop\n      pop\n      jump\t// out\n        /* \"#utility.yul\":3985:4661   */\n    tag_36:\n        /* \"#utility.yul\":4198:4202   */\n      0x00\n        /* \"#utility.yul\":4236:4239   */\n      0x80\n        /* \"#utility.yul\":4225:4234   */\n      dup3\n        /* \"#utility.yul\":4221:4240   */\n      add\n        /* \"#utility.yul\":4213:4240   */\n      swap1\n      pop\n        /* \"#utility.yul\":4250:4321   */\n      tag_150\n        /* \"#utility.yul\":4318:4319   */\n      0x00\n        /* \"#utility.yul\":4307:4316   */\n      dup4\n        /* \"#utility.yul\":4303:4320   */\n      add\n        /* \"#utility.yul\":4294:4300   */\n      dup8\n        /* \"#utility.yul\":4250:4321   */\n      tag_119\n      jump\t// in\n    tag_150:\n        /* \"#utility.yul\":4368:4377   */\n      dup2\n        /* \"#utility.yul\":4362:4366   */\n      dup2\n        /* \"#utility.yul\":4358:4378   */\n      sub\n        /* \"#utility.yul\":4353:4355   */\n      0x20\n        /* \"#utility.yul\":4342:4351   */\n      dup4\n        /* \"#utility.yul\":4338:4356   */\n      add\n        /* \"#utility.yul\":4331:4379   */\n      mstore\n        /* \"#utility.yul\":4396:4474   */\n      tag_151\n        /* \"#utility.yul\":4469:4473   */\n      dup2\n        /* \"#utility.yul\":4460:4466   */\n      dup7\n        /* \"#utility.yul\":4396:4474   */\n      tag_123\n      jump\t// in\n    tag_151:\n        /* \"#utility.yul\":4388:4474   */\n      swap1\n      pop\n        /* \"#utility.yul\":4484:4556   */\n      tag_152\n        /* \"#utility.yul\":4552:4554   */\n      0x40\n        /* \"#utility.yul\":4541:4550   */\n      dup4\n        /* \"#utility.yul\":4537:4555   */\n      add\n        /* \"#utility.yul\":4528:4534   */\n      dup6\n        /* \"#utility.yul\":4484:4556   */\n      tag_143\n      jump\t// in\n    tag_152:\n        /* \"#utility.yul\":4566:4654   */\n      tag_153\n        /* \"#utility.yul\":4650:4652   */\n      0x60\n        /* \"#utility.yul\":4639:4648   */\n      dup4\n        /* \"#utility.yul\":4635:4653   */\n      add\n        /* \"#utility.yul\":4626:4632   */\n      dup5\n        /* \"#utility.yul\":4566:4654   */\n      tag_115\n      jump\t// in\n    tag_153:\n        /* \"#utility.yul\":3985:4661   */\n      swap6\n      swap5\n      pop\n      pop\n      pop\n      pop\n      pop\n      jump\t// out\n        /* \"#utility.yul\":4667:5086   */\n    tag_53:\n        /* \"#utility.yul\":4833:4837   */\n      0x00\n        /* \"#utility.yul\":4871:4873   */\n      0x20\n        /* \"#utility.yul\":4860:4869   */\n      dup3\n        /* \"#utility.yul\":4856:4874   */\n      add\n        /* \"#utility.yul\":4848:4874   */\n      swap1\n      pop\n        /* \"#utility.yul\":4920:4929   */\n      dup2\n        /* \"#utility.yul\":4914:4918   */\n      dup2\n        /* \"#utility.yul\":4910:4930   */\n      sub\n        /* \"#utility.yul\":4906:4907   */\n      0x00\n        /* \"#utility.yul\":4895:4904   */\n      dup4\n        /* \"#utility.yul\":4891:4908   */\n      add\n        /* \"#utility.yul\":4884:4931   */\n      mstore\n        /* \"#utility.yul\":4948:5079   */\n      tag_155\n        /* \"#utility.yul\":5074:5078   */\n      dup2\n        /* \"#utility.yul\":4948:5079   */\n      tag_133\n      jump\t// in\n    tag_155:\n        /* \"#utility.yul\":4940:5079   */\n      swap1\n      pop\n        /* \"#utility.yul\":4667:5086   */\n      swap2\n      swap1\n      pop\n      jump\t// out\n        /* \"#utility.yul\":5092:5511   */\n    tag_46:\n        /* \"#utility.yul\":5258:5262   */\n      0x00\n        /* \"#utility.yul\":5296:5298   */\n      0x20\n        /* \"#utility.yul\":5285:5294   */\n      dup3\n        /* \"#utility.yul\":5281:5299   */\n      add\n        /* \"#utility.yul\":5273:5299   */\n      swap1\n      pop\n        /* \"#utility.yul\":5345:5354   */\n      dup2\n        /* \"#utility.yul\":5339:5343   */\n      dup2\n        /* \"#utility.yul\":5335:5355   */\n      sub\n        /* \"#utility.yul\":5331:5332   */\n      0x00\n        /* \"#utility.yul\":5320:5329   */\n      dup4\n        /* \"#utility.yul\":5316:5333   */\n      add\n        /* \"#utility.yul\":5309:5356   */\n      mstore\n        /* \"#utility.yul\":5373:5504   */\n      tag_157\n        /* \"#utility.yul\":5499:5503   */\n      dup2\n        /* \"#utility.yul\":5373:5504   */\n      tag_138\n      jump\t// in\n    tag_157:\n        /* \"#utility.yul\":5365:5504   */\n      swap1\n      pop\n        /* \"#utility.yul\":5092:5511   */\n      swap2\n      swap1\n      pop\n      jump\t// out\n        /* \"#utility.yul\":5517:5739   */\n    tag_16:\n        /* \"#utility.yul\":5610:5614   */\n      0x00\n        /* \"#utility.yul\":5648:5650   */\n      0x20\n        /* \"#utility.yul\":5637:5646   */\n      dup3\n        /* \"#utility.yul\":5633:5651   */\n      add\n        /* \"#utility.yul\":5625:5651   */\n      swap1\n      pop\n        /* \"#utility.yul\":5661:5732   */\n      tag_159\n        /* \"#utility.yul\":5729:5730   */\n      0x00\n        /* \"#utility.yul\":5718:5727   */\n      dup4\n        /* \"#utility.yul\":5714:5731   */\n      add\n        /* \"#utility.yul\":5705:5711   */\n      dup5\n        /* \"#utility.yul\":5661:5732   */\n      tag_143\n      jump\t// in\n    tag_159:\n        /* \"#utility.yul\":5517:5739   */\n      swap3\n      swap2\n      pop\n      pop\n      jump\t// out\n        /* \"#utility.yul\":5745:6077   */\n    tag_58:\n        /* \"#utility.yul\":5866:5870   */\n      0x00\n        /* \"#utility.yul\":5904:5906   */\n      0x40\n        /* \"#utility.yul\":5893:5902   */\n      dup3\n        /* \"#utility.yul\":5889:5907   */\n      add\n        /* \"#utility.yul\":5881:5907   */\n      swap1\n      pop\n        /* \"#utility.yul\":5917:5988   */\n      tag_161\n        /* \"#utility.yul\":5985:5986   */\n      0x00\n        /* \"#utility.yul\":5974:5983   */\n      dup4\n        /* \"#utility.yul\":5970:5987   */\n      add\n        /* \"#utility.yul\":5961:5967   */\n      dup6\n        /* \"#utility.yul\":5917:5988   */\n      tag_143\n      jump\t// in\n    tag_161:\n        /* \"#utility.yul\":5998:6070   */\n      tag_162\n        /* \"#utility.yul\":6066:6068   */\n      0x20\n        /* \"#utility.yul\":6055:6064   */\n      dup4\n        /* \"#utility.yul\":6051:6069   */\n      add\n        /* \"#utility.yul\":6042:6048   */\n      dup5\n        /* \"#utility.yul\":5998:6070   */\n      tag_143\n      jump\t// in\n    tag_162:\n        /* \"#utility.yul\":5745:6077   */\n      swap4\n      swap3\n      pop\n      pop\n      pop\n      jump\t// out\n        /* \"#utility.yul\":6083:6212   */\n    tag_81:\n        /* \"#utility.yul\":6117:6123   */\n      0x00\n        /* \"#utility.yul\":6144:6164   */\n      tag_164\n      tag_165\n      jump\t// in\n    tag_164:\n        /* \"#utility.yul\":6134:6164   */\n      swap1\n      pop\n        /* \"#utility.yul\":6173:6206   */\n      tag_166\n        /* \"#utility.yul\":6201:6205   */\n      dup3\n        /* \"#utility.yul\":6193:6199   */\n      dup3\n        /* \"#utility.yul\":6173:6206   */\n      tag_167\n      jump\t// in\n    tag_166:\n        /* \"#utility.yul\":6083:6212   */\n      swap2\n      swap1\n      pop\n      jump\t// out\n        /* \"#utility.yul\":6218:6293   */\n    tag_165:\n        /* \"#utility.yul\":6251:6257   */\n      0x00\n        /* \"#utility.yul\":6284:6286   */\n      0x40\n        /* \"#utility.yul\":6278:6287   */\n      mload\n        /* \"#utility.yul\":6268:6287   */\n      swap1\n      pop\n        /* \"#utility.yul\":6218:6293   */\n      swap1\n      jump\t// out\n        /* \"#utility.yul\":6299:6607   */\n    tag_80:\n        /* \"#utility.yul\":6361:6365   */\n      0x00\n        /* \"#utility.yul\":6451:6469   */\n      0xffffffffffffffff\n        /* \"#utility.yul\":6443:6449   */\n      dup3\n        /* \"#utility.yul\":6440:6470   */\n      gt\n        /* \"#utility.yul\":6437:6493   */\n      iszero\n      tag_170\n      jumpi\n        /* \"#utility.yul\":6473:6491   */\n      tag_171\n      tag_172\n      jump\t// in\n    tag_171:\n        /* \"#utility.yul\":6437:6493   */\n    tag_170:\n        /* \"#utility.yul\":6511:6540   */\n      tag_173\n        /* \"#utility.yul\":6533:6539   */\n      dup3\n        /* \"#utility.yul\":6511:6540   */\n      tag_132\n      jump\t// in\n    tag_173:\n        /* \"#utility.yul\":6503:6540   */\n      swap1\n      pop\n        /* \"#utility.yul\":6595:6599   */\n      0x20\n        /* \"#utility.yul\":6589:6593   */\n      dup2\n        /* \"#utility.yul\":6585:6600   */\n      add\n        /* \"#utility.yul\":6577:6600   */\n      swap1\n      pop\n        /* \"#utility.yul\":6299:6607   */\n      swap2\n      swap1\n      pop\n      jump\t// out\n        /* \"#utility.yul\":6613:6712   */\n    tag_126:\n        /* \"#utility.yul\":6665:6671   */\n      0x00\n        /* \"#utility.yul\":6699:6704   */\n      dup2\n        /* \"#utility.yul\":6693:6705   */\n      mload\n        /* \"#utility.yul\":6683:6705   */\n      swap1\n      pop\n        /* \"#utility.yul\":6613:6712   */\n      swap2\n      swap1\n      pop\n      jump\t// out\n        /* \"#utility.yul\":6718:6887   */\n    tag_128:\n        /* \"#utility.yul\":6802:6813   */\n      0x00\n        /* \"#utility.yul\":6836:6842   */\n      dup3\n        /* \"#utility.yul\":6831:6834   */\n      dup3\n        /* \"#utility.yul\":6824:6843   */\n      mstore\n        /* \"#utility.yul\":6876:6880   */\n      0x20\n        /* \"#utility.yul\":6871:6874   */\n      dup3\n        /* \"#utility.yul\":6867:6881   */\n      add\n        /* \"#utility.yul\":6852:6881   */\n      swap1\n      pop\n        /* \"#utility.yul\":6718:6887   */\n      swap3\n      swap2\n      pop\n      pop\n      jump\t// out\n        /* \"#utility.yul\":6893:7198   */\n    tag_40:\n        /* \"#utility.yul\":6933:6936   */\n      0x00\n        /* \"#utility.yul\":6952:6972   */\n      tag_177\n        /* \"#utility.yul\":6970:6971   */\n      dup3\n        /* \"#utility.yul\":6952:6972   */\n      tag_146\n      jump\t// in\n    tag_177:\n        /* \"#utility.yul\":6947:6972   */\n      swap2\n      pop\n        /* \"#utility.yul\":6986:7006   */\n      tag_178\n        /* \"#utility.yul\":7004:7005   */\n      dup4\n        /* \"#utility.yul\":6986:7006   */\n      tag_146\n      jump\t// in\n    tag_178:\n        /* \"#utility.yul\":6981:7006   */\n      swap3\n      pop\n        /* \"#utility.yul\":7140:7141   */\n      dup3\n        /* \"#utility.yul\":7072:7138   */\n      0xffffffffffffffffffffffffffffffffffffffffffffffffffffffffffffffff\n        /* \"#utility.yul\":7068:7142   */\n      sub\n        /* \"#utility.yul\":7065:7066   */\n      dup3\n        /* \"#utility.yul\":7062:7143   */\n      gt\n        /* \"#utility.yul\":7059:7166   */\n      iszero\n      tag_179\n      jumpi\n        /* \"#utility.yul\":7146:7164   */\n      tag_180\n      tag_181\n      jump\t// in\n    tag_180:\n        /* \"#utility.yul\":7059:7166   */\n    tag_179:\n        /* \"#utility.yul\":7190:7191   */\n      dup3\n        /* \"#utility.yul\":7187:7188   */\n      dup3\n        /* \"#utility.yul\":7183:7192   */\n      add\n        /* \"#utility.yul\":7176:7192   */\n      swap1\n      pop\n        /* \"#utility.yul\":6893:7198   */\n      swap3\n      swap2\n      pop\n      pop\n      jump\t// out\n        /* \"#utility.yul\":7204:7395   */\n    tag_49:\n        /* \"#utility.yul\":7244:7248   */\n      0x00\n        /* \"#utility.yul\":7264:7284   */\n      tag_183\n        /* \"#utility.yul\":7282:7283   */\n      dup3\n        /* \"#utility.yul\":7264:7284   */\n      tag_146\n      jump\t// in\n    tag_183:\n        /* \"#utility.yul\":7259:7284   */\n      swap2\n      pop\n        /* \"#utility.yul\":7298:7318   */\n      tag_184\n        /* \"#utility.yul\":7316:7317   */\n      dup4\n        /* \"#utility.yul\":7298:7318   */\n      tag_146\n      jump\t// in\n    tag_184:\n        /* \"#utility.yul\":7293:7318   */\n      swap3\n      pop\n        /* \"#utility.yul\":7337:7338   */\n      dup3\n        /* \"#utility.yul\":7334:7335   */\n      dup3\n        /* \"#utility.yul\":7331:7339   */\n      lt\n        /* \"#utility.yul\":7328:7362   */\n      iszero\n      tag_185\n      jumpi\n        /* \"#utility.yul\":7342:7360   */\n      tag_186\n      tag_181\n      jump\t// in\n    tag_186:\n        /* \"#utility.yul\":7328:7362   */\n    tag_185:\n        /* \"#utility.yul\":7387:7388   */\n      dup3\n        /* \"#utility.yul\":7384:7385   */\n      dup3\n        /* \"#utility.yul\":7380:7389   */\n      sub\n        /* \"#utility.yul\":7372:7389   */\n      swap1\n      pop\n        /* \"#utility.yul\":7204:7395   */\n      swap3\n      swap2\n      pop\n      pop\n      jump\t// out\n        /* \"#utility.yul\":7401:7497   */\n    tag_122:\n        /* \"#utility.yul\":7438:7445   */\n      0x00\n        /* \"#utility.yul\":7467:7491   */\n      tag_188\n        /* \"#utility.yul\":7485:7490   */\n      dup3\n        /* \"#utility.yul\":7467:7491   */\n      tag_189\n      jump\t// in\n    tag_188:\n        /* \"#utility.yul\":7456:7491   */\n      swap1\n      pop\n        /* \"#utility.yul\":7401:7497   */\n      swap2\n      swap1\n      pop\n      jump\t// out\n        /* \"#utility.yul\":7503:7607   */\n    tag_118:\n        /* \"#utility.yul\":7548:7555   */\n      0x00\n        /* \"#utility.yul\":7577:7601   */\n      tag_191\n        /* \"#utility.yul\":7595:7600   */\n      dup3\n        /* \"#utility.yul\":7577:7601   */\n      tag_189\n      jump\t// in\n    tag_191:\n        /* \"#utility.yul\":7566:7601   */\n      swap1\n      pop\n        /* \"#utility.yul\":7503:7607   */\n      swap2\n      swap1\n      pop\n      jump\t// out\n        /* \"#utility.yul\":7613:7739   */\n    tag_189:\n        /* \"#utility.yul\":7650:7657   */\n      0x00\n        /* \"#utility.yul\":7690:7732   */\n      0xffffffffffffffffffffffffffffffffffffffff\n        /* \"#utility.yul\":7683:7688   */\n      dup3\n        /* \"#utility.yul\":7679:7733   */\n      and\n        /* \"#utility.yul\":7668:7733   */\n      swap1\n      pop\n        /* \"#utility.yul\":7613:7739   */\n      swap2\n      swap1\n      pop\n      jump\t// out\n        /* \"#utility.yul\":7745:7822   */\n    tag_146:\n        /* \"#utility.yul\":7782:7789   */\n      0x00\n        /* \"#utility.yul\":7811:7816   */\n      dup2\n        /* \"#utility.yul\":7800:7816   */\n      swap1\n      pop\n        /* \"#utility.yul\":7745:7822   */\n      swap2\n      swap1\n      pop\n      jump\t// out\n        /* \"#utility.yul\":7828:7982   */\n    tag_86:\n        /* \"#utility.yul\":7912:7918   */\n      dup3\n        /* \"#utility.yul\":7907:7910   */\n      dup2\n        /* \"#utility.yul\":7902:7905   */\n      dup4\n        /* \"#utility.yul\":7889:7919   */\n      calldatacopy\n        /* \"#utility.yul\":7974:7975   */\n      0x00\n        /* \"#utility.yul\":7965:7971   */\n      dup4\n        /* \"#utility.yul\":7960:7963   */\n      dup4\n        /* \"#utility.yul\":7956:7972   */\n      add\n        /* \"#utility.yul\":7949:7976   */\n      mstore\n        /* \"#utility.yul\":7828:7982   */\n      pop\n      pop\n      pop\n      jump\t// out\n        /* \"#utility.yul\":7988:8295   */\n    tag_130:\n        /* \"#utility.yul\":8056:8057   */\n      0x00\n        /* \"#utility.yul\":8066:8179   */\n    tag_196:\n        /* \"#utility.yul\":8080:8086   */\n      dup4\n        /* \"#utility.yul\":8077:8078   */\n      dup2\n        /* \"#utility.yul\":8074:8087   */\n      lt\n        /* \"#utility.yul\":8066:8179   */\n      iszero\n      tag_198\n      jumpi\n        /* \"#utility.yul\":8165:8166   */\n      dup1\n        /* \"#utility.yul\":8160:8163   */\n      dup3\n        /* \"#utility.yul\":8156:8167   */\n      add\n        /* \"#utility.yul\":8150:8168   */\n      mload\n        /* \"#utility.yul\":8146:8147   */\n      dup2\n        /* \"#utility.yul\":8141:8144   */\n      dup5\n        /* \"#utility.yul\":8137:8148   */\n      add\n        /* \"#utility.yul\":8130:8169   */\n      mstore\n        /* \"#utility.yul\":8102:8104   */\n      0x20\n        /* \"#utility.yul\":8099:8100   */\n      dup2\n        /* \"#utility.yul\":8095:8105   */\n      add\n        /* \"#utility.yul\":8090:8105   */\n      swap1\n      pop\n        /* \"#utility.yul\":8066:8179   */\n      jump(tag_196)\n    tag_198:\n        /* \"#utility.yul\":8197:8203   */\n      dup4\n        /* \"#utility.yul\":8194:8195   */\n      dup2\n        /* \"#utility.yul\":8191:8204   */\n      gt\n        /* \"#utility.yul\":8188:8289   */\n      iszero\n      tag_199\n      jumpi\n        /* \"#utility.yul\":8277:8278   */\n      0x00\n        /* \"#utility.yul\":8268:8274   */\n      dup5\n        /* \"#utility.yul\":8263:8266   */\n      dup5\n        /* \"#utility.yul\":8259:8275   */\n      add\n        /* \"#utility.yul\":8252:8279   */\n      mstore\n        /* \"#utility.yul\":8188:8289   */\n    tag_199:\n        /* \"#utility.yul\":8037:8295   */\n      pop\n        /* \"#utility.yul\":7988:8295   */\n      pop\n      pop\n      pop\n      jump\t// out\n        /* \"#utility.yul\":8301:8621   */\n    tag_60:\n        /* \"#utility.yul\":8345:8351   */\n      0x00\n        /* \"#utility.yul\":8382:8383   */\n      0x02\n        /* \"#utility.yul\":8376:8380   */\n      dup3\n        /* \"#utility.yul\":8372:8384   */\n      div\n        /* \"#utility.yul\":8362:8384   */\n      swap1\n      pop\n        /* \"#utility.yul\":8429:8430   */\n      0x01\n        /* \"#utility.yul\":8423:8427   */\n      dup3\n        /* \"#utility.yul\":8419:8431   */\n      and\n        /* \"#utility.yul\":8450:8468   */\n      dup1\n        /* \"#utility.yul\":8440:8521   */\n      tag_201\n      jumpi\n        /* \"#utility.yul\":8506:8510   */\n      0x7f\n        /* \"#utility.yul\":8498:8504   */\n      dup3\n        /* \"#utility.yul\":8494:8511   */\n      and\n        /* \"#utility.yul\":8484:8511   */\n      swap2\n      pop\n        /* \"#utility.yul\":8440:8521   */\n    tag_201:\n        /* \"#utility.yul\":8568:8570   */\n      0x20\n        /* \"#utility.yul\":8560:8566   */\n      dup3\n        /* \"#utility.yul\":8557:8571   */\n      lt\n        /* \"#utility.yul\":8537:8555   */\n      dup2\n        /* \"#utility.yul\":8534:8572   */\n      eq\n        /* \"#utility.yul\":8531:8615   */\n      iszero\n      tag_202\n      jumpi\n        /* \"#utility.yul\":8587:8605   */\n      tag_203\n      tag_204\n      jump\t// in\n    tag_203:\n        /* \"#utility.yul\":8531:8615   */\n    tag_202:\n        /* \"#utility.yul\":8352:8621   */\n      pop\n        /* \"#utility.yul\":8301:8621   */\n      swap2\n      swap1\n      pop\n      jump\t// out\n        /* \"#utility.yul\":8627:8908   */\n    tag_167:\n        /* \"#utility.yul\":8710:8737   */\n      tag_206\n        /* \"#utility.yul\":8732:8736   */\n      dup3\n        /* \"#utility.yul\":8710:8737   */\n      tag_132\n      jump\t// in\n    tag_206:\n        /* \"#utility.yul\":8702:8708   */\n      dup2\n        /* \"#utility.yul\":8698:8738   */\n      add\n        /* \"#utility.yul\":8840:8846   */\n      dup2\n        /* \"#utility.yul\":8828:8838   */\n      dup2\n        /* \"#utility.yul\":8825:8847   */\n      lt\n        /* \"#utility.yul\":8804:8822   */\n      0xffffffffffffffff\n        /* \"#utility.yul\":8792:8802   */\n      dup3\n        /* \"#utility.yul\":8789:8823   */\n      gt\n        /* \"#utility.yul\":8786:8848   */\n      or\n        /* \"#utility.yul\":8783:8871   */\n      iszero\n      tag_207\n      jumpi\n        /* \"#utility.yul\":8851:8869   */\n      tag_208\n      tag_172\n      jump\t// in\n    tag_208:\n        /* \"#utility.yul\":8783:8871   */\n    tag_207:\n        /* \"#utility.yul\":8891:8901   */\n      dup1\n        /* \"#utility.yul\":8887:8889   */\n      0x40\n        /* \"#utility.yul\":8880:8902   */\n      mstore\n        /* \"#utility.yul\":8670:8908   */\n      pop\n        /* \"#utility.yul\":8627:8908   */\n      pop\n      pop\n      jump\t// out\n        /* \"#utility.yul\":8914:9094   */\n    tag_181:\n        /* \"#utility.yul\":8962:9039   */\n      0x4e487b7100000000000000000000000000000000000000000000000000000000\n        /* \"#utility.yul\":8959:8960   */\n      0x00\n        /* \"#utility.yul\":8952:9040   */\n      mstore\n        /* \"#utility.yul\":9059:9063   */\n      0x11\n        /* \"#utility.yul\":9056:9057   */\n      0x04\n        /* \"#utility.yul\":9049:9064   */\n      mstore\n        /* \"#utility.yul\":9083:9087   */\n      0x24\n        /* \"#utility.yul\":9080:9081   */\n      0x00\n        /* \"#utility.yul\":9073:9088   */\n      revert\n        /* \"#utility.yul\":9100:9280   */\n    tag_204:\n        /* \"#utility.yul\":9148:9225   */\n      0x4e487b7100000000000000000000000000000000000000000000000000000000\n        /* \"#utility.yul\":9145:9146   */\n      0x00\n        /* \"#utility.yul\":9138:9226   */\n      mstore\n        /* \"#utility.yul\":9245:9249   */\n      0x22\n        /* \"#utility.yul\":9242:9243   */\n      0x04\n        /* \"#utility.yul\":9235:9250   */\n      mstore\n        /* \"#utility.yul\":9269:9273   */\n      0x24\n        /* \"#utility.yul\":9266:9267   */\n      0x00\n        /* \"#utility.yul\":9259:9274   */\n      revert\n        /* \"#utility.yul\":9286:9466   */\n    tag_172:\n        /* \"#utility.yul\":9334:9411   */\n      0x4e487b7100000000000000000000000000000000000000000000000000000000\n        /* \"#utility.yul\":9331:9332   */\n      0x00\n        /* \"#utility.yul\":9324:9412   */\n      mstore\n        /* \"#utility.yul\":9431:9435   */\n      0x41\n        /* \"#utility.yul\":9428:9429   */\n      0x04\n        /* \"#utility.yul\":9421:9436   */\n      mstore\n        /* \"#utility.yul\":9455:9459   */\n      0x24\n        /* \"#utility.yul\":9452:9453   */\n      0x00\n        /* \"#utility.yul\":9445:9460   */\n      revert\n        /* \"#utility.yul\":9472:9589   */\n    tag_95:\n        /* \"#utility.yul\":9581:9582   */\n      0x00\n        /* \"#utility.yul\":9578:9579   */\n      dup1\n        /* \"#utility.yul\":9571:9583   */\n      revert\n        /* \"#utility.yul\":9595:9712   */\n    tag_84:\n        /* \"#utility.yul\":9704:9705   */\n      0x00\n        /* \"#utility.yul\":9701:9702   */\n      dup1\n        /* \"#utility.yul\":9694:9706   */\n      revert\n        /* \"#utility.yul\":9718:9835   */\n    tag_107:\n        /* \"#utility.yul\":9827:9828   */\n      0x00\n        /* \"#utility.yul\":9824:9825   */\n      dup1\n        /* \"#utility.yul\":9817:9829   */\n      revert\n        /* \"#utility.yul\":9841:9958   */\n    tag_104:\n        /* \"#utility.yul\":9950:9951   */\n      0x00\n        /* \"#utility.yul\":9947:9948   */\n      dup1\n        /* \"#utility.yul\":9940:9952   */\n      revert\n        /* \"#utility.yul\":9964:10066   */\n    tag_132:\n        /* \"#utility.yul\":10005:10011   */\n      0x00\n        /* \"#utility.yul\":10056:10058   */\n      0x1f\n        /* \"#utility.yul\":10052:10059   */\n      not\n        /* \"#utility.yul\":10047:10049   */\n      0x1f\n        /* \"#utility.yul\":10040:10045   */\n      dup4\n        /* \"#utility.yul\":10036:10050   */\n      add\n        /* \"#utility.yul\":10032:10060   */\n      and\n        /* \"#utility.yul\":10022:10060   */\n      swap1\n      pop\n        /* \"#utility.yul\":9964:10066   */\n      swap2\n      swap1\n      pop\n      jump\t// out\n        /* \"#utility.yul\":10072:10301   */\n    tag_137:\n        /* \"#utility.yul\":10212:10246   */\n      0x596f75206861766520746f2063726561746520646f6e6174696f6e20666f7220\n        /* \"#utility.yul\":10208:10209   */\n      0x00\n        /* \"#utility.yul\":10200:10206   */\n      dup3\n        /* \"#utility.yul\":10196:10210   */\n      add\n        /* \"#utility.yul\":10189:10247   */\n      mstore\n        /* \"#utility.yul\":10281:10293   */\n      0x73656e6420657468657200000000000000000000000000000000000000000000\n        /* \"#utility.yul\":10276:10278   */\n      0x20\n        /* \"#utility.yul\":10268:10274   */\n      dup3\n        /* \"#utility.yul\":10264:10279   */\n      add\n        /* \"#utility.yul\":10257:10294   */\n      mstore\n        /* \"#utility.yul\":10072:10301   */\n      pop\n      jump\t// out\n        /* \"#utility.yul\":10307:10475   */\n    tag_142:\n        /* \"#utility.yul\":10447:10467   */\n      0x4e6f7420656e6f7567682062616c616e63650000000000000000000000000000\n        /* \"#utility.yul\":10443:10444   */\n      0x00\n        /* \"#utility.yul\":10435:10441   */\n      dup3\n        /* \"#utility.yul\":10431:10445   */\n      add\n        /* \"#utility.yul\":10424:10468   */\n      mstore\n        /* \"#utility.yul\":10307:10475   */\n      pop\n      jump\t// out\n        /* \"#utility.yul\":10481:10619   */\n    tag_90:\n        /* \"#utility.yul\":10562:10594   */\n      tag_220\n        /* \"#utility.yul\":10588:10593   */\n      dup2\n        /* \"#utility.yul\":10562:10594   */\n      tag_118\n      jump\t// in\n    tag_220:\n        /* \"#utility.yul\":10555:10560   */\n      dup2\n        /* \"#utility.yul\":10552:10595   */\n      eq\n        /* \"#utility.yul\":10542:10613   */\n      tag_221\n      jumpi\n        /* \"#utility.yul\":10609:10610   */\n      0x00\n        /* \"#utility.yul\":10606:10607   */\n      dup1\n        /* \"#utility.yul\":10599:10611   */\n      revert\n        /* \"#utility.yul\":10542:10613   */\n    tag_221:\n        /* \"#utility.yul\":10481:10619   */\n      pop\n      jump\t// out\n        /* \"#utility.yul\":10625:10747   */\n    tag_100:\n        /* \"#utility.yul\":10698:10722   */\n      tag_223\n        /* \"#utility.yul\":10716:10721   */\n      dup2\n        /* \"#utility.yul\":10698:10722   */\n      tag_146\n      jump\t// in\n    tag_223:\n        /* \"#utility.yul\":10691:10696   */\n      dup2\n        /* \"#utility.yul\":10688:10723   */\n      eq\n        /* \"#utility.yul\":10678:10741   */\n      tag_224\n      jumpi\n        /* \"#utility.yul\":10737:10738   */\n      0x00\n        /* \"#utility.yul\":10734:10735   */\n      dup1\n        /* \"#utility.yul\":10727:10739   */\n      revert\n        /* \"#utility.yul\":10678:10741   */\n    tag_224:\n        /* \"#utility.yul\":10625:10747   */\n      pop\n      jump\t// out\n\n    auxdata: 0xa2646970667358221220a59eccde3f5875d7f9f58ffef5968c8c14844417ab24d06c6ff7fda80e831b5e64736f6c63430008070033\n}\n",
				"bytecode": {
					"linkReferences": {},
					"object": "608060405234801561001057600080fd5b5033600160006101000a81548173ffffffffffffffffffffffffffffffffffffffff021916908373ffffffffffffffffffffffffffffffffffffffff160217905550610c3d806100616000396000f3fe6080604052600436106100555760003560e01c8063325ec7681461005a578063b5e051d914610064578063b69ef8a8146100a1578063f14faf6f146100cc578063f851a440146100f5578063f8626af814610120575b600080fd5b610062610160565b005b34801561007057600080fd5b5061008b6004803603810190610086919061068d565b61017a565b604051610098919061087c565b60405180910390f35b3480156100ad57600080fd5b506100b66102b7565b6040516100c3919061087c565b60405180910390f35b3480156100d857600080fd5b506100f360048036038101906100ee91906106fc565b6102bd565b005b34801561010157600080fd5b5061010a610432565b60405161011791906107d5565b60405180910390f35b34801561012c57600080fd5b50610147600480360381019061014291906106fc565b610458565b60405161015794939291906107f0565b60405180910390f35b346000808282546101719190610932565b92505081905550565b6000806003600060025481526020019081526020016000209050338160000160006101000a81548173ffffffffffffffffffffffffffffffffffffffff021916908373ffffffffffffffffffffffffffffffffffffffff160217905550848160010190805190602001906101ef929190610550565b50838160030160006101000a81548173ffffffffffffffffffffffffffffffffffffffff021916908373ffffffffffffffffffffffffffffffffffffffff160217905550828160020181905550806002015460005411610284576040517f08c379a000000000000000000000000000000000000000000000000000000000815260040161027b9061085c565b60405180910390fd5b6001600260008282546102979190610932565b9250508190555060016002546102ad9190610988565b9150509392505050565b60005481565b60006003600083815260200190815260200160002090508060000160009054906101000a900473ffffffffffffffffffffffffffffffffffffffff1673ffffffffffffffffffffffffffffffffffffffff163373ffffffffffffffffffffffffffffffffffffffff1614610366576040517f08c379a000000000000000000000000000000000000000000000000000000000815260040161035d9061083c565b60405180910390fd5b8060030160009054906101000a900473ffffffffffffffffffffffffffffffffffffffff1673ffffffffffffffffffffffffffffffffffffffff166108fc82600201549081150290604051600060405180830381858888f193505050501580156103d4573d6000803e3d6000fd5b5080600201546000808282546103ea9190610988565b925050819055507f489807a5fd45f95df5a4da56d2ec4a895cd239ac44d0d9703ac6d8f0c590549c828260020154604051610426929190610897565b60405180910390a15050565b600160009054906101000a900473ffffffffffffffffffffffffffffffffffffffff1681565b60036020528060005260406000206000915090508060000160009054906101000a900473ffffffffffffffffffffffffffffffffffffffff16908060010180546104a190610a4c565b80601f01602080910402602001604051908101604052809291908181526020018280546104cd90610a4c565b801561051a5780601f106104ef5761010080835404028352916020019161051a565b820191906000526020600020905b8154815290600101906020018083116104fd57829003601f168201915b5050505050908060020154908060030160009054906101000a900473ffffffffffffffffffffffffffffffffffffffff16905084565b82805461055c90610a4c565b90600052602060002090601f01602090048101928261057e57600085556105c5565b82601f1061059757805160ff19168380011785556105c5565b828001600101855582156105c5579182015b828111156105c45782518255916020019190600101906105a9565b5b5090506105d291906105d6565b5090565b5b808211156105ef5760008160009055506001016105d7565b5090565b6000610606610601846108e5565b6108c0565b90508281526020810184848401111561062257610621610b41565b5b61062d848285610a0a565b509392505050565b60008135905061064481610bd9565b92915050565b600082601f83011261065f5761065e610b3c565b5b813561066f8482602086016105f3565b91505092915050565b60008135905061068781610bf0565b92915050565b6000806000606084860312156106a6576106a5610b4b565b5b600084013567ffffffffffffffff8111156106c4576106c3610b46565b5b6106d08682870161064a565b93505060206106e186828701610635565b92505060406106f286828701610678565b9150509250925092565b60006020828403121561071257610711610b4b565b5b600061072084828501610678565b91505092915050565b610732816109ce565b82525050565b610741816109bc565b82525050565b600061075282610916565b61075c8185610921565b935061076c818560208601610a19565b61077581610b50565b840191505092915050565b600061078d602a83610921565b915061079882610b61565b604082019050919050565b60006107b0601283610921565b91506107bb82610bb0565b602082019050919050565b6107cf81610a00565b82525050565b60006020820190506107ea6000830184610738565b92915050565b60006080820190506108056000830187610738565b81810360208301526108178186610747565b905061082660408301856107c6565b6108336060830184610729565b95945050505050565b6000602082019050818103600083015261085581610780565b9050919050565b60006020820190508181036000830152610875816107a3565b9050919050565b600060208201905061089160008301846107c6565b92915050565b60006040820190506108ac60008301856107c6565b6108b960208301846107c6565b9392505050565b60006108ca6108db565b90506108d68282610a7e565b919050565b6000604051905090565b600067ffffffffffffffff821115610900576108ff610b0d565b5b61090982610b50565b9050602081019050919050565b600081519050919050565b600082825260208201905092915050565b600061093d82610a00565b915061094883610a00565b9250827fffffffffffffffffffffffffffffffffffffffffffffffffffffffffffffffff0382111561097d5761097c610aaf565b5b828201905092915050565b600061099382610a00565b915061099e83610a00565b9250828210156109b1576109b0610aaf565b5b828203905092915050565b60006109c7826109e0565b9050919050565b60006109d9826109e0565b9050919050565b600073ffffffffffffffffffffffffffffffffffffffff82169050919050565b6000819050919050565b82818337600083830152505050565b60005b83811015610a37578082015181840152602081019050610a1c565b83811115610a46576000848401525b50505050565b60006002820490506001821680610a6457607f821691505b60208210811415610a7857610a77610ade565b5b50919050565b610a8782610b50565b810181811067ffffffffffffffff82111715610aa657610aa5610b0d565b5b80604052505050565b7f4e487b7100000000000000000000000000000000000000000000000000000000600052601160045260246000fd5b7f4e487b7100000000000000000000000000000000000000000000000000000000600052602260045260246000fd5b7f4e487b7100000000000000000000000000000000000000000000000000000000600052604160045260246000fd5b600080fd5b600080fd5b600080fd5b600080fd5b6000601f19601f8301169050919050565b7f596f75206861766520746f2063726561746520646f6e6174696f6e20666f722060008201527f73656e6420657468657200000000000000000000000000000000000000000000602082015250565b7f4e6f7420656e6f7567682062616c616e63650000000000000000000000000000600082015250565b610be2816109ce565b8114610bed57600080fd5b50565b610bf981610a00565b8114610c0457600080fd5b5056fea2646970667358221220a59eccde3f5875d7f9f58ffef5968c8c14844417ab24d06c6ff7fda80e831b5e64736f6c63430008070033",
					"opcodes": "PUSH1 0x80 PUSH1 0x40 MSTORE CALLVALUE DUP1 ISZERO PUSH2 0x10 JUMPI PUSH1 0x0 DUP1 REVERT JUMPDEST POP CALLER PUSH1 0x1 PUSH1 0x0 PUSH2 0x100 EXP DUP2 SLOAD DUP2 PUSH20 0xFFFFFFFFFFFFFFFFFFFFFFFFFFFFFFFFFFFFFFFF MUL NOT AND SWAP1 DUP4 PUSH20 0xFFFFFFFFFFFFFFFFFFFFFFFFFFFFFFFFFFFFFFFF AND MUL OR SWAP1 SSTORE POP PUSH2 0xC3D DUP1 PUSH2 0x61 PUSH1 0x0 CODECOPY PUSH1 0x0 RETURN INVALID PUSH1 0x80 PUSH1 0x40 MSTORE PUSH1 0x4 CALLDATASIZE LT PUSH2 0x55 JUMPI PUSH1 0x0 CALLDATALOAD PUSH1 0xE0 SHR DUP1 PUSH4 0x325EC768 EQ PUSH2 0x5A JUMPI DUP1 PUSH4 0xB5E051D9 EQ PUSH2 0x64 JUMPI DUP1 PUSH4 0xB69EF8A8 EQ PUSH2 0xA1 JUMPI DUP1 PUSH4 0xF14FAF6F EQ PUSH2 0xCC JUMPI DUP1 PUSH4 0xF851A440 EQ PUSH2 0xF5 JUMPI DUP1 PUSH4 0xF8626AF8 EQ PUSH2 0x120 JUMPI JUMPDEST PUSH1 0x0 DUP1 REVERT JUMPDEST PUSH2 0x62 PUSH2 0x160 JUMP JUMPDEST STOP JUMPDEST CALLVALUE DUP1 ISZERO PUSH2 0x70 JUMPI PUSH1 0x0 DUP1 REVERT JUMPDEST POP PUSH2 0x8B PUSH1 0x4 DUP1 CALLDATASIZE SUB DUP2 ADD SWAP1 PUSH2 0x86 SWAP2 SWAP1 PUSH2 0x68D JUMP JUMPDEST PUSH2 0x17A JUMP JUMPDEST PUSH1 0x40 MLOAD PUSH2 0x98 SWAP2 SWAP1 PUSH2 0x87C JUMP JUMPDEST PUSH1 0x40 MLOAD DUP1 SWAP2 SUB SWAP1 RETURN JUMPDEST CALLVALUE DUP1 ISZERO PUSH2 0xAD JUMPI PUSH1 0x0 DUP1 REVERT JUMPDEST POP PUSH2 0xB6 PUSH2 0x2B7 JUMP JUMPDEST PUSH1 0x40 MLOAD PUSH2 0xC3 SWAP2 SWAP1 PUSH2 0x87C JUMP JUMPDEST PUSH1 0x40 MLOAD DUP1 SWAP2 SUB SWAP1 RETURN JUMPDEST CALLVALUE DUP1 ISZERO PUSH2 0xD8 JUMPI PUSH1 0x0 DUP1 REVERT JUMPDEST POP PUSH2 0xF3 PUSH1 0x4 DUP1 CALLDATASIZE SUB DUP2 ADD SWAP1 PUSH2 0xEE SWAP2 SWAP1 PUSH2 0x6FC JUMP JUMPDEST PUSH2 0x2BD JUMP JUMPDEST STOP JUMPDEST CALLVALUE DUP1 ISZERO PUSH2 0x101 JUMPI PUSH1 0x0 DUP1 REVERT JUMPDEST POP PUSH2 0x10A PUSH2 0x432 JUMP JUMPDEST PUSH1 0x40 MLOAD PUSH2 0x117 SWAP2 SWAP1 PUSH2 0x7D5 JUMP JUMPDEST PUSH1 0x40 MLOAD DUP1 SWAP2 SUB SWAP1 RETURN JUMPDEST CALLVALUE DUP1 ISZERO PUSH2 0x12C JUMPI PUSH1 0x0 DUP1 REVERT JUMPDEST POP PUSH2 0x147 PUSH1 0x4 DUP1 CALLDATASIZE SUB DUP2 ADD SWAP1 PUSH2 0x142 SWAP2 SWAP1 PUSH2 0x6FC JUMP JUMPDEST PUSH2 0x458 JUMP JUMPDEST PUSH1 0x40 MLOAD PUSH2 0x157 SWAP5 SWAP4 SWAP3 SWAP2 SWAP1 PUSH2 0x7F0 JUMP JUMPDEST PUSH1 0x40 MLOAD DUP1 SWAP2 SUB SWAP1 RETURN JUMPDEST CALLVALUE PUSH1 0x0 DUP1 DUP3 DUP3 SLOAD PUSH2 0x171 SWAP2 SWAP1 PUSH2 0x932 JUMP JUMPDEST SWAP3 POP POP DUP2 SWAP1 SSTORE POP JUMP JUMPDEST PUSH1 0x0 DUP1 PUSH1 0x3 PUSH1 0x0 PUSH1 0x2 SLOAD DUP2 MSTORE PUSH1 0x20 ADD SWAP1 DUP2 MSTORE PUSH1 0x20 ADD PUSH1 0x0 KECCAK256 SWAP1 POP CALLER DUP2 PUSH1 0x0 ADD PUSH1 0x0 PUSH2 0x100 EXP DUP2 SLOAD DUP2 PUSH20 0xFFFFFFFFFFFFFFFFFFFFFFFFFFFFFFFFFFFFFFFF MUL NOT AND SWAP1 DUP4 PUSH20 0xFFFFFFFFFFFFFFFFFFFFFFFFFFFFFFFFFFFFFFFF AND MUL OR SWAP1 SSTORE POP DUP5 DUP2 PUSH1 0x1 ADD SWAP1 DUP1 MLOAD SWAP1 PUSH1 0x20 ADD SWAP1 PUSH2 0x1EF SWAP3 SWAP2 SWAP1 PUSH2 0x550 JUMP JUMPDEST POP DUP4 DUP2 PUSH1 0x3 ADD PUSH1 0x0 PUSH2 0x100 EXP DUP2 SLOAD DUP2 PUSH20 0xFFFFFFFFFFFFFFFFFFFFFFFFFFFFFFFFFFFFFFFF MUL NOT AND SWAP1 DUP4 PUSH20 0xFFFFFFFFFFFFFFFFFFFFFFFFFFFFFFFFFFFFFFFF AND MUL OR SWAP1 SSTORE POP DUP3 DUP2 PUSH1 0x2 ADD DUP2 SWAP1 SSTORE POP DUP1 PUSH1 0x2 ADD SLOAD PUSH1 0x0 SLOAD GT PUSH2 0x284 JUMPI PUSH1 0x40 MLOAD PUSH32 0x8C379A000000000000000000000000000000000000000000000000000000000 DUP2 MSTORE PUSH1 0x4 ADD PUSH2 0x27B SWAP1 PUSH2 0x85C JUMP JUMPDEST PUSH1 0x40 MLOAD DUP1 SWAP2 SUB SWAP1 REVERT JUMPDEST PUSH1 0x1 PUSH1 0x2 PUSH1 0x0 DUP3 DUP3 SLOAD PUSH2 0x297 SWAP2 SWAP1 PUSH2 0x932 JUMP JUMPDEST SWAP3 POP POP DUP2 SWAP1 SSTORE POP PUSH1 0x1 PUSH1 0x2 SLOAD PUSH2 0x2AD SWAP2 SWAP1 PUSH2 0x988 JUMP JUMPDEST SWAP2 POP POP SWAP4 SWAP3 POP POP POP JUMP JUMPDEST PUSH1 0x0 SLOAD DUP2 JUMP JUMPDEST PUSH1 0x0 PUSH1 0x3 PUSH1 0x0 DUP4 DUP2 MSTORE PUSH1 0x20 ADD SWAP1 DUP2 MSTORE PUSH1 0x20 ADD PUSH1 0x0 KECCAK256 SWAP1 POP DUP1 PUSH1 0x0 ADD PUSH1 0x0 SWAP1 SLOAD SWAP1 PUSH2 0x100 EXP SWAP1 DIV PUSH20 0xFFFFFFFFFFFFFFFFFFFFFFFFFFFFFFFFFFFFFFFF AND PUSH20 0xFFFFFFFFFFFFFFFFFFFFFFFFFFFFFFFFFFFFFFFF AND CALLER PUSH20 0xFFFFFFFFFFFFFFFFFFFFFFFFFFFFFFFFFFFFFFFF AND EQ PUSH2 0x366 JUMPI PUSH1 0x40 MLOAD PUSH32 0x8C379A000000000000000000000000000000000000000000000000000000000 DUP2 MSTORE PUSH1 0x4 ADD PUSH2 0x35D SWAP1 PUSH2 0x83C JUMP JUMPDEST PUSH1 0x40 MLOAD DUP1 SWAP2 SUB SWAP1 REVERT JUMPDEST DUP1 PUSH1 0x3 ADD PUSH1 0x0 SWAP1 SLOAD SWAP1 PUSH2 0x100 EXP SWAP1 DIV PUSH20 0xFFFFFFFFFFFFFFFFFFFFFFFFFFFFFFFFFFFFFFFF AND PUSH20 0xFFFFFFFFFFFFFFFFFFFFFFFFFFFFFFFFFFFFFFFF AND PUSH2 0x8FC DUP3 PUSH1 0x2 ADD SLOAD SWAP1 DUP2 ISZERO MUL SWAP1 PUSH1 0x40 MLOAD PUSH1 0x0 PUSH1 0x40 MLOAD DUP1 DUP4 SUB DUP2 DUP6 DUP9 DUP9 CALL SWAP4 POP POP POP POP ISZERO DUP1 ISZERO PUSH2 0x3D4 JUMPI RETURNDATASIZE PUSH1 0x0 DUP1 RETURNDATACOPY RETURNDATASIZE PUSH1 0x0 REVERT JUMPDEST POP DUP1 PUSH1 0x2 ADD SLOAD PUSH1 0x0 DUP1 DUP3 DUP3 SLOAD PUSH2 0x3EA SWAP2 SWAP1 PUSH2 0x988 JUMP JUMPDEST SWAP3 POP POP DUP2 SWAP1 SSTORE POP PUSH32 0x489807A5FD45F95DF5A4DA56D2EC4A895CD239AC44D0D9703AC6D8F0C590549C DUP3 DUP3 PUSH1 0x2 ADD SLOAD PUSH1 0x40 MLOAD PUSH2 0x426 SWAP3 SWAP2 SWAP1 PUSH2 0x897 JUMP JUMPDEST PUSH1 0x40 MLOAD DUP1 SWAP2 SUB SWAP1 LOG1 POP POP JUMP JUMPDEST PUSH1 0x1 PUSH1 0x0 SWAP1 SLOAD SWAP1 PUSH2 0x100 EXP SWAP1 DIV PUSH20 0xFFFFFFFFFFFFFFFFFFFFFFFFFFFFFFFFFFFFFFFF AND DUP2 JUMP JUMPDEST PUSH1 0x3 PUSH1 0x20 MSTORE DUP1 PUSH1 0x0 MSTORE PUSH1 0x40 PUSH1 0x0 KECCAK256 PUSH1 0x0 SWAP2 POP SWAP1 POP DUP1 PUSH1 0x0 ADD PUSH1 0x0 SWAP1 SLOAD SWAP1 PUSH2 0x100 EXP SWAP1 DIV PUSH20 0xFFFFFFFFFFFFFFFFFFFFFFFFFFFFFFFFFFFFFFFF AND SWAP1 DUP1 PUSH1 0x1 ADD DUP1 SLOAD PUSH2 0x4A1 SWAP1 PUSH2 0xA4C JUMP JUMPDEST DUP1 PUSH1 0x1F ADD PUSH1 0x20 DUP1 SWAP2 DIV MUL PUSH1 0x20 ADD PUSH1 0x40 MLOAD SWAP1 DUP2 ADD PUSH1 0x40 MSTORE DUP1 SWAP3 SWAP2 SWAP1 DUP2 DUP2 MSTORE PUSH1 0x20 ADD DUP3 DUP1 SLOAD PUSH2 0x4CD SWAP1 PUSH2 0xA4C JUMP JUMPDEST DUP1 ISZERO PUSH2 0x51A JUMPI DUP1 PUSH1 0x1F LT PUSH2 0x4EF JUMPI PUSH2 0x100 DUP1 DUP4 SLOAD DIV MUL DUP4 MSTORE SWAP2 PUSH1 0x20 ADD SWAP2 PUSH2 0x51A JUMP JUMPDEST DUP3 ADD SWAP2 SWAP1 PUSH1 0x0 MSTORE PUSH1 0x20 PUSH1 0x0 KECCAK256 SWAP1 JUMPDEST DUP2 SLOAD DUP2 MSTORE SWAP1 PUSH1 0x1 ADD SWAP1 PUSH1 0x20 ADD DUP1 DUP4 GT PUSH2 0x4FD JUMPI DUP3 SWAP1 SUB PUSH1 0x1F AND DUP3 ADD SWAP2 JUMPDEST POP POP POP POP POP SWAP1 DUP1 PUSH1 0x2 ADD SLOAD SWAP1 DUP1 PUSH1 0x3 ADD PUSH1 0x0 SWAP1 SLOAD SWAP1 PUSH2 0x100 EXP SWAP1 DIV PUSH20 0xFFFFFFFFFFFFFFFFFFFFFFFFFFFFFFFFFFFFFFFF AND SWAP1 POP DUP5 JUMP JUMPDEST DUP3 DUP1 SLOAD PUSH2 0x55C SWAP1 PUSH2 0xA4C JUMP JUMPDEST SWAP1 PUSH1 0x0 MSTORE PUSH1 0x20 PUSH1 0x0 KECCAK256 SWAP1 PUSH1 0x1F ADD PUSH1 0x20 SWAP1 DIV DUP2 ADD SWAP3 DUP3 PUSH2 0x57E JUMPI PUSH1 0x0 DUP6 SSTORE PUSH2 0x5C5 JUMP JUMPDEST DUP3 PUSH1 0x1F LT PUSH2 0x597 JUMPI DUP1 MLOAD PUSH1 0xFF NOT AND DUP4 DUP1 ADD OR DUP6 SSTORE PUSH2 0x5C5 JUMP JUMPDEST DUP3 DUP1 ADD PUSH1 0x1 ADD DUP6 SSTORE DUP3 ISZERO PUSH2 0x5C5 JUMPI SWAP2 DUP3 ADD JUMPDEST DUP3 DUP2 GT ISZERO PUSH2 0x5C4 JUMPI DUP3 MLOAD DUP3 SSTORE SWAP2 PUSH1 0x20 ADD SWAP2 SWAP1 PUSH1 0x1 ADD SWAP1 PUSH2 0x5A9 JUMP JUMPDEST JUMPDEST POP SWAP1 POP PUSH2 0x5D2 SWAP2 SWAP1 PUSH2 0x5D6 JUMP JUMPDEST POP SWAP1 JUMP JUMPDEST JUMPDEST DUP1 DUP3 GT ISZERO PUSH2 0x5EF JUMPI PUSH1 0x0 DUP2 PUSH1 0x0 SWAP1 SSTORE POP PUSH1 0x1 ADD PUSH2 0x5D7 JUMP JUMPDEST POP SWAP1 JUMP JUMPDEST PUSH1 0x0 PUSH2 0x606 PUSH2 0x601 DUP5 PUSH2 0x8E5 JUMP JUMPDEST PUSH2 0x8C0 JUMP JUMPDEST SWAP1 POP DUP3 DUP2 MSTORE PUSH1 0x20 DUP2 ADD DUP5 DUP5 DUP5 ADD GT ISZERO PUSH2 0x622 JUMPI PUSH2 0x621 PUSH2 0xB41 JUMP JUMPDEST JUMPDEST PUSH2 0x62D DUP5 DUP3 DUP6 PUSH2 0xA0A JUMP JUMPDEST POP SWAP4 SWAP3 POP POP POP JUMP JUMPDEST PUSH1 0x0 DUP2 CALLDATALOAD SWAP1 POP PUSH2 0x644 DUP2 PUSH2 0xBD9 JUMP JUMPDEST SWAP3 SWAP2 POP POP JUMP JUMPDEST PUSH1 0x0 DUP3 PUSH1 0x1F DUP4 ADD SLT PUSH2 0x65F JUMPI PUSH2 0x65E PUSH2 0xB3C JUMP JUMPDEST JUMPDEST DUP2 CALLDATALOAD PUSH2 0x66F DUP5 DUP3 PUSH1 0x20 DUP7 ADD PUSH2 0x5F3 JUMP JUMPDEST SWAP2 POP POP SWAP3 SWAP2 POP POP JUMP JUMPDEST PUSH1 0x0 DUP2 CALLDATALOAD SWAP1 POP PUSH2 0x687 DUP2 PUSH2 0xBF0 JUMP JUMPDEST SWAP3 SWAP2 POP POP JUMP JUMPDEST PUSH1 0x0 DUP1 PUSH1 0x0 PUSH1 0x60 DUP5 DUP7 SUB SLT ISZERO PUSH2 0x6A6 JUMPI PUSH2 0x6A5 PUSH2 0xB4B JUMP JUMPDEST JUMPDEST PUSH1 0x0 DUP5 ADD CALLDATALOAD PUSH8 0xFFFFFFFFFFFFFFFF DUP2 GT ISZERO PUSH2 0x6C4 JUMPI PUSH2 0x6C3 PUSH2 0xB46 JUMP JUMPDEST JUMPDEST PUSH2 0x6D0 DUP7 DUP3 DUP8 ADD PUSH2 0x64A JUMP JUMPDEST SWAP4 POP POP PUSH1 0x20 PUSH2 0x6E1 DUP7 DUP3 DUP8 ADD PUSH2 0x635 JUMP JUMPDEST SWAP3 POP POP PUSH1 0x40 PUSH2 0x6F2 DUP7 DUP3 DUP8 ADD PUSH2 0x678 JUMP JUMPDEST SWAP2 POP POP SWAP3 POP SWAP3 POP SWAP3 JUMP JUMPDEST PUSH1 0x0 PUSH1 0x20 DUP3 DUP5 SUB SLT ISZERO PUSH2 0x712 JUMPI PUSH2 0x711 PUSH2 0xB4B JUMP JUMPDEST JUMPDEST PUSH1 0x0 PUSH2 0x720 DUP5 DUP3 DUP6 ADD PUSH2 0x678 JUMP JUMPDEST SWAP2 POP POP SWAP3 SWAP2 POP POP JUMP JUMPDEST PUSH2 0x732 DUP2 PUSH2 0x9CE JUMP JUMPDEST DUP3 MSTORE POP POP JUMP JUMPDEST PUSH2 0x741 DUP2 PUSH2 0x9BC JUMP JUMPDEST DUP3 MSTORE POP POP JUMP JUMPDEST PUSH1 0x0 PUSH2 0x752 DUP3 PUSH2 0x916 JUMP JUMPDEST PUSH2 0x75C DUP2 DUP6 PUSH2 0x921 JUMP JUMPDEST SWAP4 POP PUSH2 0x76C DUP2 DUP6 PUSH1 0x20 DUP7 ADD PUSH2 0xA19 JUMP JUMPDEST PUSH2 0x775 DUP2 PUSH2 0xB50 JUMP JUMPDEST DUP5 ADD SWAP2 POP POP SWAP3 SWAP2 POP POP JUMP JUMPDEST PUSH1 0x0 PUSH2 0x78D PUSH1 0x2A DUP4 PUSH2 0x921 JUMP JUMPDEST SWAP2 POP PUSH2 0x798 DUP3 PUSH2 0xB61 JUMP JUMPDEST PUSH1 0x40 DUP3 ADD SWAP1 POP SWAP2 SWAP1 POP JUMP JUMPDEST PUSH1 0x0 PUSH2 0x7B0 PUSH1 0x12 DUP4 PUSH2 0x921 JUMP JUMPDEST SWAP2 POP PUSH2 0x7BB DUP3 PUSH2 0xBB0 JUMP JUMPDEST PUSH1 0x20 DUP3 ADD SWAP1 POP SWAP2 SWAP1 POP JUMP JUMPDEST PUSH2 0x7CF DUP2 PUSH2 0xA00 JUMP JUMPDEST DUP3 MSTORE POP POP JUMP JUMPDEST PUSH1 0x0 PUSH1 0x20 DUP3 ADD SWAP1 POP PUSH2 0x7EA PUSH1 0x0 DUP4 ADD DUP5 PUSH2 0x738 JUMP JUMPDEST SWAP3 SWAP2 POP POP JUMP JUMPDEST PUSH1 0x0 PUSH1 0x80 DUP3 ADD SWAP1 POP PUSH2 0x805 PUSH1 0x0 DUP4 ADD DUP8 PUSH2 0x738 JUMP JUMPDEST DUP2 DUP2 SUB PUSH1 0x20 DUP4 ADD MSTORE PUSH2 0x817 DUP2 DUP7 PUSH2 0x747 JUMP JUMPDEST SWAP1 POP PUSH2 0x826 PUSH1 0x40 DUP4 ADD DUP6 PUSH2 0x7C6 JUMP JUMPDEST PUSH2 0x833 PUSH1 0x60 DUP4 ADD DUP5 PUSH2 0x729 JUMP JUMPDEST SWAP6 SWAP5 POP POP POP POP POP JUMP JUMPDEST PUSH1 0x0 PUSH1 0x20 DUP3 ADD SWAP1 POP DUP2 DUP2 SUB PUSH1 0x0 DUP4 ADD MSTORE PUSH2 0x855 DUP2 PUSH2 0x780 JUMP JUMPDEST SWAP1 POP SWAP2 SWAP1 POP JUMP JUMPDEST PUSH1 0x0 PUSH1 0x20 DUP3 ADD SWAP1 POP DUP2 DUP2 SUB PUSH1 0x0 DUP4 ADD MSTORE PUSH2 0x875 DUP2 PUSH2 0x7A3 JUMP JUMPDEST SWAP1 POP SWAP2 SWAP1 POP JUMP JUMPDEST PUSH1 0x0 PUSH1 0x20 DUP3 ADD SWAP1 POP PUSH2 0x891 PUSH1 0x0 DUP4 ADD DUP5 PUSH2 0x7C6 JUMP JUMPDEST SWAP3 SWAP2 POP POP JUMP JUMPDEST PUSH1 0x0 PUSH1 0x40 DUP3 ADD SWAP1 POP PUSH2 0x8AC PUSH1 0x0 DUP4 ADD DUP6 PUSH2 0x7C6 JUMP JUMPDEST PUSH2 0x8B9 PUSH1 0x20 DUP4 ADD DUP5 PUSH2 0x7C6 JUMP JUMPDEST SWAP4 SWAP3 POP POP POP JUMP JUMPDEST PUSH1 0x0 PUSH2 0x8CA PUSH2 0x8DB JUMP JUMPDEST SWAP1 POP PUSH2 0x8D6 DUP3 DUP3 PUSH2 0xA7E JUMP JUMPDEST SWAP2 SWAP1 POP JUMP JUMPDEST PUSH1 0x0 PUSH1 0x40 MLOAD SWAP1 POP SWAP1 JUMP JUMPDEST PUSH1 0x0 PUSH8 0xFFFFFFFFFFFFFFFF DUP3 GT ISZERO PUSH2 0x900 JUMPI PUSH2 0x8FF PUSH2 0xB0D JUMP JUMPDEST JUMPDEST PUSH2 0x909 DUP3 PUSH2 0xB50 JUMP JUMPDEST SWAP1 POP PUSH1 0x20 DUP2 ADD SWAP1 POP SWAP2 SWAP1 POP JUMP JUMPDEST PUSH1 0x0 DUP2 MLOAD SWAP1 POP SWAP2 SWAP1 POP JUMP JUMPDEST PUSH1 0x0 DUP3 DUP3 MSTORE PUSH1 0x20 DUP3 ADD SWAP1 POP SWAP3 SWAP2 POP POP JUMP JUMPDEST PUSH1 0x0 PUSH2 0x93D DUP3 PUSH2 0xA00 JUMP JUMPDEST SWAP2 POP PUSH2 0x948 DUP4 PUSH2 0xA00 JUMP JUMPDEST SWAP3 POP DUP3 PUSH32 0xFFFFFFFFFFFFFFFFFFFFFFFFFFFFFFFFFFFFFFFFFFFFFFFFFFFFFFFFFFFFFFFF SUB DUP3 GT ISZERO PUSH2 0x97D JUMPI PUSH2 0x97C PUSH2 0xAAF JUMP JUMPDEST JUMPDEST DUP3 DUP3 ADD SWAP1 POP SWAP3 SWAP2 POP POP JUMP JUMPDEST PUSH1 0x0 PUSH2 0x993 DUP3 PUSH2 0xA00 JUMP JUMPDEST SWAP2 POP PUSH2 0x99E DUP4 PUSH2 0xA00 JUMP JUMPDEST SWAP3 POP DUP3 DUP3 LT ISZERO PUSH2 0x9B1 JUMPI PUSH2 0x9B0 PUSH2 0xAAF JUMP JUMPDEST JUMPDEST DUP3 DUP3 SUB SWAP1 POP SWAP3 SWAP2 POP POP JUMP JUMPDEST PUSH1 0x0 PUSH2 0x9C7 DUP3 PUSH2 0x9E0 JUMP JUMPDEST SWAP1 POP SWAP2 SWAP1 POP JUMP JUMPDEST PUSH1 0x0 PUSH2 0x9D9 DUP3 PUSH2 0x9E0 JUMP JUMPDEST SWAP1 POP SWAP2 SWAP1 POP JUMP JUMPDEST PUSH1 0x0 PUSH20 0xFFFFFFFFFFFFFFFFFFFFFFFFFFFFFFFFFFFFFFFF DUP3 AND SWAP1 POP SWAP2 SWAP1 POP JUMP JUMPDEST PUSH1 0x0 DUP2 SWAP1 POP SWAP2 SWAP1 POP JUMP JUMPDEST DUP3 DUP2 DUP4 CALLDATACOPY PUSH1 0x0 DUP4 DUP4 ADD MSTORE POP POP POP JUMP JUMPDEST PUSH1 0x0 JUMPDEST DUP4 DUP2 LT ISZERO PUSH2 0xA37 JUMPI DUP1 DUP3 ADD MLOAD DUP2 DUP5 ADD MSTORE PUSH1 0x20 DUP2 ADD SWAP1 POP PUSH2 0xA1C JUMP JUMPDEST DUP4 DUP2 GT ISZERO PUSH2 0xA46 JUMPI PUSH1 0x0 DUP5 DUP5 ADD MSTORE JUMPDEST POP POP POP POP JUMP JUMPDEST PUSH1 0x0 PUSH1 0x2 DUP3 DIV SWAP1 POP PUSH1 0x1 DUP3 AND DUP1 PUSH2 0xA64 JUMPI PUSH1 0x7F DUP3 AND SWAP2 POP JUMPDEST PUSH1 0x20 DUP3 LT DUP2 EQ ISZERO PUSH2 0xA78 JUMPI PUSH2 0xA77 PUSH2 0xADE JUMP JUMPDEST JUMPDEST POP SWAP2 SWAP1 POP JUMP JUMPDEST PUSH2 0xA87 DUP3 PUSH2 0xB50 JUMP JUMPDEST DUP2 ADD DUP2 DUP2 LT PUSH8 0xFFFFFFFFFFFFFFFF DUP3 GT OR ISZERO PUSH2 0xAA6 JUMPI PUSH2 0xAA5 PUSH2 0xB0D JUMP JUMPDEST JUMPDEST DUP1 PUSH1 0x40 MSTORE POP POP POP JUMP JUMPDEST PUSH32 0x4E487B7100000000000000000000000000000000000000000000000000000000 PUSH1 0x0 MSTORE PUSH1 0x11 PUSH1 0x4 MSTORE PUSH1 0x24 PUSH1 0x0 REVERT JUMPDEST PUSH32 0x4E487B7100000000000000000000000000000000000000000000000000000000 PUSH1 0x0 MSTORE PUSH1 0x22 PUSH1 0x4 MSTORE PUSH1 0x24 PUSH1 0x0 REVERT JUMPDEST PUSH32 0x4E487B7100000000000000000000000000000000000000000000000000000000 PUSH1 0x0 MSTORE PUSH1 0x41 PUSH1 0x4 MSTORE PUSH1 0x24 PUSH1 0x0 REVERT JUMPDEST PUSH1 0x0 DUP1 REVERT JUMPDEST PUSH1 0x0 DUP1 REVERT JUMPDEST PUSH1 0x0 DUP1 REVERT JUMPDEST PUSH1 0x0 DUP1 REVERT JUMPDEST PUSH1 0x0 PUSH1 0x1F NOT PUSH1 0x1F DUP4 ADD AND SWAP1 POP SWAP2 SWAP1 POP JUMP JUMPDEST PUSH32 0x596F75206861766520746F2063726561746520646F6E6174696F6E20666F7220 PUSH1 0x0 DUP3 ADD MSTORE PUSH32 0x73656E6420657468657200000000000000000000000000000000000000000000 PUSH1 0x20 DUP3 ADD MSTORE POP JUMP JUMPDEST PUSH32 0x4E6F7420656E6F7567682062616C616E63650000000000000000000000000000 PUSH1 0x0 DUP3 ADD MSTORE POP JUMP JUMPDEST PUSH2 0xBE2 DUP2 PUSH2 0x9CE JUMP JUMPDEST DUP2 EQ PUSH2 0xBED JUMPI PUSH1 0x0 DUP1 REVERT JUMPDEST POP JUMP JUMPDEST PUSH2 0xBF9 DUP2 PUSH2 0xA00 JUMP JUMPDEST DUP2 EQ PUSH2 0xC04 JUMPI PUSH1 0x0 DUP1 REVERT JUMPDEST POP JUMP INVALID LOG2 PUSH5 0x6970667358 0x22 SLT KECCAK256 0xA5 SWAP15 0xCC 0xDE EXTCODEHASH PC PUSH22 0xD7F9F58FFEF5968C8C14844417AB24D06C6FF7FDA80E DUP4 SHL 0x5E PUSH5 0x736F6C6343 STOP ADDMOD SMOD STOP CALLER "
				},
				"gasEstimates": {
					"creation": {
						"codeDepositCost": "626600",
						"executionCost": "24923",
						"totalCost": "651523"
					},
					"external": {
						"admin()": "2580",
						"balance()": "2451",
						"createDonation(string,address,uint256)": "infinite",
						"donate(uint256)": "infinite",
						"donations(uint256)": "infinite",
						"sendEtherToContract()": "infinite"
					}
				},
				"methodIdentifiers": {
					"admin()": "f851a440",
					"balance()": "b69ef8a8",
					"createDonation(string,address,uint256)": "b5e051d9",
					"donate(uint256)": "f14faf6f",
					"donations(uint256)": "f8626af8",
					"sendEtherToContract()": "325ec768"
				}
			},
			"storageLayout": {
				"storage": [
					{
						"astId": 3,
						"contract": "contracts/FinalCase/DonateStreamer.sol:DonateStreamer",
						"label": "balance",
						"offset": 0,
						"slot": "0",
						"type": "t_uint256"
					},
					{
						"astId": 5,
						"contract": "contracts/FinalCase/DonateStreamer.sol:DonateStreamer",
						"label": "admin",
						"offset": 0,
						"slot": "1",
						"type": "t_address"
					},
					{
						"astId": 25,
						"contract": "contracts/FinalCase/DonateStreamer.sol:DonateStreamer",
						"label": "totalDonations",
						"offset": 0,
						"slot": "2",
						"type": "t_uint256"
					},
					{
						"astId": 30,
						"contract": "contracts/FinalCase/DonateStreamer.sol:DonateStreamer",
						"label": "donations",
						"offset": 0,
						"slot": "3",
						"type": "t_mapping(t_uint256,t_struct(Donation)23_storage)"
					}
				],
				"types": {
					"t_address": {
						"encoding": "inplace",
						"label": "address",
						"numberOfBytes": "20"
					},
					"t_address_payable": {
						"encoding": "inplace",
						"label": "address payable",
						"numberOfBytes": "20"
					},
					"t_mapping(t_uint256,t_struct(Donation)23_storage)": {
						"encoding": "mapping",
						"key": "t_uint256",
						"label": "mapping(uint256 => struct DonateStreamer.Donation)",
						"numberOfBytes": "32",
						"value": "t_struct(Donation)23_storage"
					},
					"t_string_storage": {
						"encoding": "bytes",
						"label": "string",
						"numberOfBytes": "32"
					},
					"t_struct(Donation)23_storage": {
						"encoding": "inplace",
						"label": "struct DonateStreamer.Donation",
						"members": [
							{
								"astId": 16,
								"contract": "contracts/FinalCase/DonateStreamer.sol:DonateStreamer",
								"label": "creator",
								"offset": 0,
								"slot": "0",
								"type": "t_address"
							},
							{
								"astId": 18,
								"contract": "contracts/FinalCase/DonateStreamer.sol:DonateStreamer",
								"label": "name",
								"offset": 0,
								"slot": "1",
								"type": "t_string_storage"
							},
							{
								"astId": 20,
								"contract": "contracts/FinalCase/DonateStreamer.sol:DonateStreamer",
								"label": "amount",
								"offset": 0,
								"slot": "2",
								"type": "t_uint256"
							},
							{
								"astId": 22,
								"contract": "contracts/FinalCase/DonateStreamer.sol:DonateStreamer",
								"label": "streamer",
								"offset": 0,
								"slot": "3",
								"type": "t_address_payable"
							}
						],
						"numberOfBytes": "128"
					},
					"t_uint256": {
						"encoding": "inplace",
						"label": "uint256",
						"numberOfBytes": "32"
					}
				}
			},
			"userdoc": {
				"kind": "user",
				"methods": {},
				"version": 1
			}
		}
	}
}