{
	"contracts/FinalCase/DonateStreamer.sol": {
		"DonateStreamer": {
			"abi": [
				{
					"anonymous": false,
					"inputs": [
						{
							"indexed": false,
							"internalType": "uint256",
							"name": "donationsId",
							"type": "uint256"
						},
						{
							"indexed": false,
							"internalType": "uint256",
							"name": "amount",
							"type": "uint256"
						}
					],
					"name": "Donate",
					"type": "event"
				},
				{
					"inputs": [],
					"name": "balance",
					"outputs": [
						{
							"internalType": "uint256",
							"name": "",
							"type": "uint256"
						}
					],
					"stateMutability": "view",
					"type": "function"
				},
				{
					"inputs": [
						{
							"internalType": "string",
							"name": "_name",
							"type": "string"
						},
						{
							"internalType": "address payable",
							"name": "_streamer",
							"type": "address"
						},
						{
							"internalType": "uint256",
							"name": "_amount",
							"type": "uint256"
						}
					],
					"name": "createDonation",
					"outputs": [
						{
							"internalType": "uint256",
							"name": "donationsId",
							"type": "uint256"
						}
					],
					"stateMutability": "nonpayable",
					"type": "function"
				},
				{
					"inputs": [
						{
							"internalType": "uint256",
							"name": "id",
							"type": "uint256"
						}
					],
					"name": "donate",
					"outputs": [],
					"stateMutability": "nonpayable",
					"type": "function"
				},
				{
					"inputs": [
						{
							"internalType": "uint256",
							"name": "",
							"type": "uint256"
						}
					],
					"name": "donations",
					"outputs": [
						{
							"internalType": "address",
							"name": "creator",
							"type": "address"
						},
						{
							"internalType": "string",
							"name": "name",
							"type": "string"
						},
						{
							"internalType": "uint256",
							"name": "amount",
							"type": "uint256"
						},
						{
							"internalType": "address payable",
							"name": "streamer",
							"type": "address"
						}
					],
					"stateMutability": "view",
					"type": "function"
				},
				{
					"inputs": [],
					"name": "sendEtherToContract",
					"outputs": [],
					"stateMutability": "payable",
					"type": "function"
				},
				{
					"inputs": [],
					"name": "totalDonations",
					"outputs": [
						{
							"internalType": "uint256",
							"name": "",
							"type": "uint256"
						}
					],
					"stateMutability": "view",
					"type": "function"
				}
			],
			"devdoc": {
				"kind": "dev",
				"methods": {},
				"version": 1
			},
			"evm": {
				"assembly": "    /* \"contracts/FinalCase/DonateStreamer.sol\":62:1624  contract DonateStreamer {\r... */\n  mstore(0x40, 0x80)\n  callvalue\n  dup1\n  iszero\n  tag_1\n  jumpi\n  0x00\n  dup1\n  revert\ntag_1:\n  pop\n  dataSize(sub_0)\n  dup1\n  dataOffset(sub_0)\n  0x00\n  codecopy\n  0x00\n  return\nstop\n\nsub_0: assembly {\n        /* \"contracts/FinalCase/DonateStreamer.sol\":62:1624  contract DonateStreamer {\r... */\n      mstore(0x40, 0x80)\n      jumpi(tag_1, lt(calldatasize, 0x04))\n      shr(0xe0, calldataload(0x00))\n      dup1\n      0x325ec768\n      eq\n      tag_2\n      jumpi\n      dup1\n      0xb5e051d9\n      eq\n      tag_3\n      jumpi\n      dup1\n      0xb69ef8a8\n      eq\n      tag_4\n      jumpi\n      dup1\n      0xde2ed893\n      eq\n      tag_5\n      jumpi\n      dup1\n      0xf14faf6f\n      eq\n      tag_6\n      jumpi\n      dup1\n      0xf8626af8\n      eq\n      tag_7\n      jumpi\n    tag_1:\n      0x00\n      dup1\n      revert\n        /* \"contracts/FinalCase/DonateStreamer.sol\":1137:1284  function sendEtherToContract() payable external{\r... */\n    tag_2:\n      tag_8\n      tag_9\n      jump\t// in\n    tag_8:\n      stop\n        /* \"contracts/FinalCase/DonateStreamer.sol\":617:1129  function createDonation(\r... */\n    tag_3:\n      callvalue\n      dup1\n      iszero\n      tag_10\n      jumpi\n      0x00\n      dup1\n      revert\n    tag_10:\n      pop\n      tag_11\n      0x04\n      dup1\n      calldatasize\n      sub\n      dup2\n      add\n      swap1\n      tag_12\n      swap2\n      swap1\n      tag_13\n      jump\t// in\n    tag_12:\n      tag_14\n      jump\t// in\n    tag_11:\n      mload(0x40)\n      tag_15\n      swap2\n      swap1\n      tag_16\n      jump\t// in\n    tag_15:\n      mload(0x40)\n      dup1\n      swap2\n      sub\n      swap1\n      return\n        /* \"contracts/FinalCase/DonateStreamer.sol\":95:117  uint256 public balance */\n    tag_4:\n      callvalue\n      dup1\n      iszero\n      tag_17\n      jumpi\n      0x00\n      dup1\n      revert\n    tag_17:\n      pop\n      tag_18\n      tag_19\n      jump\t// in\n    tag_18:\n      mload(0x40)\n      tag_20\n      swap2\n      swap1\n      tag_16\n      jump\t// in\n    tag_20:\n      mload(0x40)\n      dup1\n      swap2\n      sub\n      swap1\n      return\n        /* \"contracts/FinalCase/DonateStreamer.sol\":311:340  uint256 public totalDonations */\n    tag_5:\n      callvalue\n      dup1\n      iszero\n      tag_21\n      jumpi\n      0x00\n      dup1\n      revert\n    tag_21:\n      pop\n      tag_22\n      tag_23\n      jump\t// in\n    tag_22:\n      mload(0x40)\n      tag_24\n      swap2\n      swap1\n      tag_16\n      jump\t// in\n    tag_24:\n      mload(0x40)\n      dup1\n      swap2\n      sub\n      swap1\n      return\n        /* \"contracts/FinalCase/DonateStreamer.sol\":1292:1621  function donate(uint256 id) external {\r... */\n    tag_6:\n      callvalue\n      dup1\n      iszero\n      tag_25\n      jumpi\n      0x00\n      dup1\n      revert\n    tag_25:\n      pop\n      tag_26\n      0x04\n      dup1\n      calldatasize\n      sub\n      dup2\n      add\n      swap1\n      tag_27\n      swap2\n      swap1\n      tag_28\n      jump\t// in\n    tag_27:\n      tag_29\n      jump\t// in\n    tag_26:\n      stop\n        /* \"contracts/FinalCase/DonateStreamer.sol\":381:426  mapping(uint256 => Donation) public donations */\n    tag_7:\n      callvalue\n      dup1\n      iszero\n      tag_30\n      jumpi\n      0x00\n      dup1\n      revert\n    tag_30:\n      pop\n      tag_31\n      0x04\n      dup1\n      calldatasize\n      sub\n      dup2\n      add\n      swap1\n      tag_32\n      swap2\n      swap1\n      tag_28\n      jump\t// in\n    tag_32:\n      tag_33\n      jump\t// in\n    tag_31:\n      mload(0x40)\n      tag_34\n      swap5\n      swap4\n      swap3\n      swap2\n      swap1\n      tag_35\n      jump\t// in\n    tag_34:\n      mload(0x40)\n      dup1\n      swap2\n      sub\n      swap1\n      return\n        /* \"contracts/FinalCase/DonateStreamer.sol\":1137:1284  function sendEtherToContract() payable external{\r... */\n    tag_9:\n        /* \"contracts/FinalCase/DonateStreamer.sol\":1214:1215  0 */\n      0x00\n        /* \"contracts/FinalCase/DonateStreamer.sol\":1203:1212  msg.value */\n      callvalue\n        /* \"contracts/FinalCase/DonateStreamer.sol\":1203:1215  msg.value >0 */\n      gt\n        /* \"contracts/FinalCase/DonateStreamer.sol\":1195:1245  require(msg.value >0, \"You should specify amount\") */\n      tag_37\n      jumpi\n      mload(0x40)\n      0x08c379a000000000000000000000000000000000000000000000000000000000\n      dup2\n      mstore\n      0x04\n      add\n      tag_38\n      swap1\n      tag_39\n      jump\t// in\n    tag_38:\n      mload(0x40)\n      dup1\n      swap2\n      sub\n      swap1\n      revert\n    tag_37:\n        /* \"contracts/FinalCase/DonateStreamer.sol\":1267:1276  msg.value */\n      callvalue\n        /* \"contracts/FinalCase/DonateStreamer.sol\":1256:1263  balance */\n      0x00\n      dup1\n        /* \"contracts/FinalCase/DonateStreamer.sol\":1256:1276  balance += msg.value */\n      dup3\n      dup3\n      sload\n      tag_40\n      swap2\n      swap1\n      tag_41\n      jump\t// in\n    tag_40:\n      swap3\n      pop\n      pop\n      dup2\n      swap1\n      sstore\n      pop\n        /* \"contracts/FinalCase/DonateStreamer.sol\":1137:1284  function sendEtherToContract() payable external{\r... */\n      jump\t// out\n        /* \"contracts/FinalCase/DonateStreamer.sol\":617:1129  function createDonation(\r... */\n    tag_14:\n        /* \"contracts/FinalCase/DonateStreamer.sol\":755:774  uint256 donationsId */\n      0x00\n        /* \"contracts/FinalCase/DonateStreamer.sol\":786:811  Donation storage donation */\n      dup1\n        /* \"contracts/FinalCase/DonateStreamer.sol\":814:823  donations */\n      0x02\n        /* \"contracts/FinalCase/DonateStreamer.sol\":814:839  donations[totalDonations] */\n      0x00\n        /* \"contracts/FinalCase/DonateStreamer.sol\":824:838  totalDonations */\n      sload(0x01)\n        /* \"contracts/FinalCase/DonateStreamer.sol\":814:839  donations[totalDonations] */\n      dup2\n      mstore\n      0x20\n      add\n      swap1\n      dup2\n      mstore\n      0x20\n      add\n      0x00\n      keccak256\n        /* \"contracts/FinalCase/DonateStreamer.sol\":786:839  Donation storage donation = donations[totalDonations] */\n      swap1\n      pop\n        /* \"contracts/FinalCase/DonateStreamer.sol\":866:874  donation */\n      dup1\n        /* \"contracts/FinalCase/DonateStreamer.sol\":866:881  donation.amount */\n      0x02\n      add\n      sload\n        /* \"contracts/FinalCase/DonateStreamer.sol\":858:865  balance */\n      sload(0x00)\n        /* \"contracts/FinalCase/DonateStreamer.sol\":858:881  balance>donation.amount */\n      gt\n        /* \"contracts/FinalCase/DonateStreamer.sol\":850:904  require(balance>donation.amount, \"Not enough balance\") */\n      tag_43\n      jumpi\n      mload(0x40)\n      0x08c379a000000000000000000000000000000000000000000000000000000000\n      dup2\n      mstore\n      0x04\n      add\n      tag_44\n      swap1\n      tag_45\n      jump\t// in\n    tag_44:\n      mload(0x40)\n      dup1\n      swap2\n      sub\n      swap1\n      revert\n    tag_43:\n        /* \"contracts/FinalCase/DonateStreamer.sol\":936:946  msg.sender */\n      caller\n        /* \"contracts/FinalCase/DonateStreamer.sol\":917:925  donation */\n      dup2\n        /* \"contracts/FinalCase/DonateStreamer.sol\":917:933  donation.creator */\n      0x00\n      add\n      0x00\n        /* \"contracts/FinalCase/DonateStreamer.sol\":917:946  donation.creator = msg.sender */\n      0x0100\n      exp\n      dup2\n      sload\n      dup2\n      0xffffffffffffffffffffffffffffffffffffffff\n      mul\n      not\n      and\n      swap1\n      dup4\n      0xffffffffffffffffffffffffffffffffffffffff\n      and\n      mul\n      or\n      swap1\n      sstore\n      pop\n        /* \"contracts/FinalCase/DonateStreamer.sol\":973:978  _name */\n      dup5\n        /* \"contracts/FinalCase/DonateStreamer.sol\":957:965  donation */\n      dup2\n        /* \"contracts/FinalCase/DonateStreamer.sol\":957:970  donation.name */\n      0x01\n      add\n        /* \"contracts/FinalCase/DonateStreamer.sol\":957:978  donation.name = _name */\n      swap1\n      dup1\n      mload\n      swap1\n      0x20\n      add\n      swap1\n      tag_46\n      swap3\n      swap2\n      swap1\n      tag_47\n      jump\t// in\n    tag_46:\n      pop\n        /* \"contracts/FinalCase/DonateStreamer.sol\":1009:1018  _streamer */\n      dup4\n        /* \"contracts/FinalCase/DonateStreamer.sol\":989:997  donation */\n      dup2\n        /* \"contracts/FinalCase/DonateStreamer.sol\":989:1006  donation.streamer */\n      0x03\n      add\n      0x00\n        /* \"contracts/FinalCase/DonateStreamer.sol\":989:1018  donation.streamer = _streamer */\n      0x0100\n      exp\n      dup2\n      sload\n      dup2\n      0xffffffffffffffffffffffffffffffffffffffff\n      mul\n      not\n      and\n      swap1\n      dup4\n      0xffffffffffffffffffffffffffffffffffffffff\n      and\n      mul\n      or\n      swap1\n      sstore\n      pop\n        /* \"contracts/FinalCase/DonateStreamer.sol\":1047:1054  _amount */\n      dup3\n        /* \"contracts/FinalCase/DonateStreamer.sol\":1029:1037  donation */\n      dup2\n        /* \"contracts/FinalCase/DonateStreamer.sol\":1029:1044  donation.amount */\n      0x02\n      add\n        /* \"contracts/FinalCase/DonateStreamer.sol\":1029:1054  donation.amount = _amount */\n      dup2\n      swap1\n      sstore\n      pop\n        /* \"contracts/FinalCase/DonateStreamer.sol\":1085:1086  1 */\n      0x01\n        /* \"contracts/FinalCase/DonateStreamer.sol\":1067:1081  totalDonations */\n      dup1\n      0x00\n        /* \"contracts/FinalCase/DonateStreamer.sol\":1067:1086  totalDonations += 1 */\n      dup3\n      dup3\n      sload\n      tag_48\n      swap2\n      swap1\n      tag_41\n      jump\t// in\n    tag_48:\n      swap3\n      pop\n      pop\n      dup2\n      swap1\n      sstore\n      pop\n        /* \"contracts/FinalCase/DonateStreamer.sol\":1120:1121  1 */\n      0x01\n        /* \"contracts/FinalCase/DonateStreamer.sol\":1104:1118  totalDonations */\n      dup1\n      sload\n        /* \"contracts/FinalCase/DonateStreamer.sol\":1104:1121  totalDonations -1 */\n      tag_49\n      swap2\n      swap1\n      tag_50\n      jump\t// in\n    tag_49:\n        /* \"contracts/FinalCase/DonateStreamer.sol\":1097:1121  return totalDonations -1 */\n      swap2\n      pop\n      pop\n        /* \"contracts/FinalCase/DonateStreamer.sol\":617:1129  function createDonation(\r... */\n      swap4\n      swap3\n      pop\n      pop\n      pop\n      jump\t// out\n        /* \"contracts/FinalCase/DonateStreamer.sol\":95:117  uint256 public balance */\n    tag_19:\n      sload(0x00)\n      dup2\n      jump\t// out\n        /* \"contracts/FinalCase/DonateStreamer.sol\":311:340  uint256 public totalDonations */\n    tag_23:\n      sload(0x01)\n      dup2\n      jump\t// out\n        /* \"contracts/FinalCase/DonateStreamer.sol\":1292:1621  function donate(uint256 id) external {\r... */\n    tag_29:\n        /* \"contracts/FinalCase/DonateStreamer.sol\":1340:1365  Donation storage donation */\n      0x00\n        /* \"contracts/FinalCase/DonateStreamer.sol\":1368:1377  donations */\n      0x02\n        /* \"contracts/FinalCase/DonateStreamer.sol\":1368:1381  donations[id] */\n      0x00\n        /* \"contracts/FinalCase/DonateStreamer.sol\":1378:1380  id */\n      dup4\n        /* \"contracts/FinalCase/DonateStreamer.sol\":1368:1381  donations[id] */\n      dup2\n      mstore\n      0x20\n      add\n      swap1\n      dup2\n      mstore\n      0x20\n      add\n      0x00\n      keccak256\n        /* \"contracts/FinalCase/DonateStreamer.sol\":1340:1381  Donation storage donation = donations[id] */\n      swap1\n      pop\n        /* \"contracts/FinalCase/DonateStreamer.sol\":1414:1422  donation */\n      dup1\n        /* \"contracts/FinalCase/DonateStreamer.sol\":1414:1430  donation.creator */\n      0x00\n      add\n      0x00\n      swap1\n      sload\n      swap1\n      0x0100\n      exp\n      swap1\n      div\n      0xffffffffffffffffffffffffffffffffffffffff\n      and\n        /* \"contracts/FinalCase/DonateStreamer.sol\":1400:1430  msg.sender == donation.creator */\n      0xffffffffffffffffffffffffffffffffffffffff\n      and\n        /* \"contracts/FinalCase/DonateStreamer.sol\":1400:1410  msg.sender */\n      caller\n        /* \"contracts/FinalCase/DonateStreamer.sol\":1400:1430  msg.sender == donation.creator */\n      0xffffffffffffffffffffffffffffffffffffffff\n      and\n      eq\n        /* \"contracts/FinalCase/DonateStreamer.sol\":1392:1477  require(msg.sender == donation.creator, \"You have to create donation for send ether\") */\n      tag_52\n      jumpi\n      mload(0x40)\n      0x08c379a000000000000000000000000000000000000000000000000000000000\n      dup2\n      mstore\n      0x04\n      add\n      tag_53\n      swap1\n      tag_54\n      jump\t// in\n    tag_53:\n      mload(0x40)\n      dup1\n      swap2\n      sub\n      swap1\n      revert\n    tag_52:\n        /* \"contracts/FinalCase/DonateStreamer.sol\":1488:1496  donation */\n      dup1\n        /* \"contracts/FinalCase/DonateStreamer.sol\":1488:1505  donation.streamer */\n      0x03\n      add\n      0x00\n      swap1\n      sload\n      swap1\n      0x0100\n      exp\n      swap1\n      div\n      0xffffffffffffffffffffffffffffffffffffffff\n      and\n        /* \"contracts/FinalCase/DonateStreamer.sol\":1488:1514  donation.streamer.transfer */\n      0xffffffffffffffffffffffffffffffffffffffff\n      and\n        /* \"contracts/FinalCase/DonateStreamer.sol\":1488:1531  donation.streamer.transfer(donation.amount) */\n      0x08fc\n        /* \"contracts/FinalCase/DonateStreamer.sol\":1515:1523  donation */\n      dup3\n        /* \"contracts/FinalCase/DonateStreamer.sol\":1515:1530  donation.amount */\n      0x02\n      add\n      sload\n        /* \"contracts/FinalCase/DonateStreamer.sol\":1488:1531  donation.streamer.transfer(donation.amount) */\n      swap1\n      dup2\n      iszero\n      mul\n      swap1\n      mload(0x40)\n      0x00\n      mload(0x40)\n      dup1\n      dup4\n      sub\n      dup2\n      dup6\n      dup9\n      dup9\n      call\n      swap4\n      pop\n      pop\n      pop\n      pop\n      iszero\n      dup1\n      iszero\n      tag_56\n      jumpi\n      returndatasize\n      0x00\n      dup1\n      returndatacopy\n      revert(0x00, returndatasize)\n    tag_56:\n      pop\n        /* \"contracts/FinalCase/DonateStreamer.sol\":1553:1561  donation */\n      dup1\n        /* \"contracts/FinalCase/DonateStreamer.sol\":1553:1568  donation.amount */\n      0x02\n      add\n      sload\n        /* \"contracts/FinalCase/DonateStreamer.sol\":1542:1549  balance */\n      0x00\n      dup1\n        /* \"contracts/FinalCase/DonateStreamer.sol\":1542:1568  balance -= donation.amount */\n      dup3\n      dup3\n      sload\n      tag_57\n      swap2\n      swap1\n      tag_50\n      jump\t// in\n    tag_57:\n      swap3\n      pop\n      pop\n      dup2\n      swap1\n      sstore\n      pop\n        /* \"contracts/FinalCase/DonateStreamer.sol\":1586:1613  Donate(id, donation.amount) */\n      0x489807a5fd45f95df5a4da56d2ec4a895cd239ac44d0d9703ac6d8f0c590549c\n        /* \"contracts/FinalCase/DonateStreamer.sol\":1593:1595  id */\n      dup3\n        /* \"contracts/FinalCase/DonateStreamer.sol\":1597:1605  donation */\n      dup3\n        /* \"contracts/FinalCase/DonateStreamer.sol\":1597:1612  donation.amount */\n      0x02\n      add\n      sload\n        /* \"contracts/FinalCase/DonateStreamer.sol\":1586:1613  Donate(id, donation.amount) */\n      mload(0x40)\n      tag_58\n      swap3\n      swap2\n      swap1\n      tag_59\n      jump\t// in\n    tag_58:\n      mload(0x40)\n      dup1\n      swap2\n      sub\n      swap1\n      log1\n        /* \"contracts/FinalCase/DonateStreamer.sol\":1329:1621  {\r... */\n      pop\n        /* \"contracts/FinalCase/DonateStreamer.sol\":1292:1621  function donate(uint256 id) external {\r... */\n      pop\n      jump\t// out\n        /* \"contracts/FinalCase/DonateStreamer.sol\":381:426  mapping(uint256 => Donation) public donations */\n    tag_33:\n      mstore(0x20, 0x02)\n      dup1\n      0x00\n      mstore\n      keccak256(0x00, 0x40)\n      0x00\n      swap2\n      pop\n      swap1\n      pop\n      dup1\n      0x00\n      add\n      0x00\n      swap1\n      sload\n      swap1\n      0x0100\n      exp\n      swap1\n      div\n      0xffffffffffffffffffffffffffffffffffffffff\n      and\n      swap1\n      dup1\n      0x01\n      add\n      dup1\n      sload\n      tag_60\n      swap1\n      tag_61\n      jump\t// in\n    tag_60:\n      dup1\n      0x1f\n      add\n      0x20\n      dup1\n      swap2\n      div\n      mul\n      0x20\n      add\n      mload(0x40)\n      swap1\n      dup2\n      add\n      0x40\n      mstore\n      dup1\n      swap3\n      swap2\n      swap1\n      dup2\n      dup2\n      mstore\n      0x20\n      add\n      dup3\n      dup1\n      sload\n      tag_62\n      swap1\n      tag_61\n      jump\t// in\n    tag_62:\n      dup1\n      iszero\n      tag_63\n      jumpi\n      dup1\n      0x1f\n      lt\n      tag_64\n      jumpi\n      0x0100\n      dup1\n      dup4\n      sload\n      div\n      mul\n      dup4\n      mstore\n      swap2\n      0x20\n      add\n      swap2\n      jump(tag_63)\n    tag_64:\n      dup3\n      add\n      swap2\n      swap1\n      0x00\n      mstore\n      keccak256(0x00, 0x20)\n      swap1\n    tag_65:\n      dup2\n      sload\n      dup2\n      mstore\n      swap1\n      0x01\n      add\n      swap1\n      0x20\n      add\n      dup1\n      dup4\n      gt\n      tag_65\n      jumpi\n      dup3\n      swap1\n      sub\n      0x1f\n      and\n      dup3\n      add\n      swap2\n    tag_63:\n      pop\n      pop\n      pop\n      pop\n      pop\n      swap1\n      dup1\n      0x02\n      add\n      sload\n      swap1\n      dup1\n      0x03\n      add\n      0x00\n      swap1\n      sload\n      swap1\n      0x0100\n      exp\n      swap1\n      div\n      0xffffffffffffffffffffffffffffffffffffffff\n      and\n      swap1\n      pop\n      dup5\n      jump\t// out\n    tag_47:\n      dup3\n      dup1\n      sload\n      tag_66\n      swap1\n      tag_61\n      jump\t// in\n    tag_66:\n      swap1\n      0x00\n      mstore\n      keccak256(0x00, 0x20)\n      swap1\n      0x1f\n      add\n      0x20\n      swap1\n      div\n      dup2\n      add\n      swap3\n      dup3\n      tag_68\n      jumpi\n      0x00\n      dup6\n      sstore\n      jump(tag_67)\n    tag_68:\n      dup3\n      0x1f\n      lt\n      tag_69\n      jumpi\n      dup1\n      mload\n      not(0xff)\n      and\n      dup4\n      dup1\n      add\n      or\n      dup6\n      sstore\n      jump(tag_67)\n    tag_69:\n      dup3\n      dup1\n      add\n      0x01\n      add\n      dup6\n      sstore\n      dup3\n      iszero\n      tag_67\n      jumpi\n      swap2\n      dup3\n      add\n    tag_70:\n      dup3\n      dup2\n      gt\n      iszero\n      tag_71\n      jumpi\n      dup3\n      mload\n      dup3\n      sstore\n      swap2\n      0x20\n      add\n      swap2\n      swap1\n      0x01\n      add\n      swap1\n      jump(tag_70)\n    tag_71:\n    tag_67:\n      pop\n      swap1\n      pop\n      tag_72\n      swap2\n      swap1\n      tag_73\n      jump\t// in\n    tag_72:\n      pop\n      swap1\n      jump\t// out\n    tag_73:\n    tag_74:\n      dup1\n      dup3\n      gt\n      iszero\n      tag_75\n      jumpi\n      0x00\n      dup2\n      0x00\n      swap1\n      sstore\n      pop\n      0x01\n      add\n      jump(tag_74)\n    tag_75:\n      pop\n      swap1\n      jump\t// out\n        /* \"#utility.yul\":7:419   */\n    tag_77:\n        /* \"#utility.yul\":85:90   */\n      0x00\n        /* \"#utility.yul\":110:176   */\n      tag_79\n        /* \"#utility.yul\":126:175   */\n      tag_80\n        /* \"#utility.yul\":168:174   */\n      dup5\n        /* \"#utility.yul\":126:175   */\n      tag_81\n      jump\t// in\n    tag_80:\n        /* \"#utility.yul\":110:176   */\n      tag_82\n      jump\t// in\n    tag_79:\n        /* \"#utility.yul\":101:176   */\n      swap1\n      pop\n        /* \"#utility.yul\":199:205   */\n      dup3\n        /* \"#utility.yul\":192:197   */\n      dup2\n        /* \"#utility.yul\":185:206   */\n      mstore\n        /* \"#utility.yul\":237:241   */\n      0x20\n        /* \"#utility.yul\":230:235   */\n      dup2\n        /* \"#utility.yul\":226:242   */\n      add\n        /* \"#utility.yul\":275:278   */\n      dup5\n        /* \"#utility.yul\":266:272   */\n      dup5\n        /* \"#utility.yul\":261:264   */\n      dup5\n        /* \"#utility.yul\":257:273   */\n      add\n        /* \"#utility.yul\":254:279   */\n      gt\n        /* \"#utility.yul\":251:363   */\n      iszero\n      tag_83\n      jumpi\n        /* \"#utility.yul\":282:361   */\n      tag_84\n      tag_85\n      jump\t// in\n    tag_84:\n        /* \"#utility.yul\":251:363   */\n    tag_83:\n        /* \"#utility.yul\":372:413   */\n      tag_86\n        /* \"#utility.yul\":406:412   */\n      dup5\n        /* \"#utility.yul\":401:404   */\n      dup3\n        /* \"#utility.yul\":396:399   */\n      dup6\n        /* \"#utility.yul\":372:413   */\n      tag_87\n      jump\t// in\n    tag_86:\n        /* \"#utility.yul\":91:419   */\n      pop\n        /* \"#utility.yul\":7:419   */\n      swap4\n      swap3\n      pop\n      pop\n      pop\n      jump\t// out\n        /* \"#utility.yul\":425:580   */\n    tag_88:\n        /* \"#utility.yul\":479:484   */\n      0x00\n        /* \"#utility.yul\":517:523   */\n      dup2\n        /* \"#utility.yul\":504:524   */\n      calldataload\n        /* \"#utility.yul\":495:524   */\n      swap1\n      pop\n        /* \"#utility.yul\":533:574   */\n      tag_90\n        /* \"#utility.yul\":568:573   */\n      dup2\n        /* \"#utility.yul\":533:574   */\n      tag_91\n      jump\t// in\n    tag_90:\n        /* \"#utility.yul\":425:580   */\n      swap3\n      swap2\n      pop\n      pop\n      jump\t// out\n        /* \"#utility.yul\":600:940   */\n    tag_92:\n        /* \"#utility.yul\":656:661   */\n      0x00\n        /* \"#utility.yul\":705:708   */\n      dup3\n        /* \"#utility.yul\":698:702   */\n      0x1f\n        /* \"#utility.yul\":690:696   */\n      dup4\n        /* \"#utility.yul\":686:703   */\n      add\n        /* \"#utility.yul\":682:709   */\n      slt\n        /* \"#utility.yul\":672:794   */\n      tag_94\n      jumpi\n        /* \"#utility.yul\":713:792   */\n      tag_95\n      tag_96\n      jump\t// in\n    tag_95:\n        /* \"#utility.yul\":672:794   */\n    tag_94:\n        /* \"#utility.yul\":830:836   */\n      dup2\n        /* \"#utility.yul\":817:837   */\n      calldataload\n        /* \"#utility.yul\":855:934   */\n      tag_97\n        /* \"#utility.yul\":930:933   */\n      dup5\n        /* \"#utility.yul\":922:928   */\n      dup3\n        /* \"#utility.yul\":915:919   */\n      0x20\n        /* \"#utility.yul\":907:913   */\n      dup7\n        /* \"#utility.yul\":903:920   */\n      add\n        /* \"#utility.yul\":855:934   */\n      tag_77\n      jump\t// in\n    tag_97:\n        /* \"#utility.yul\":846:934   */\n      swap2\n      pop\n        /* \"#utility.yul\":662:940   */\n      pop\n        /* \"#utility.yul\":600:940   */\n      swap3\n      swap2\n      pop\n      pop\n      jump\t// out\n        /* \"#utility.yul\":946:1085   */\n    tag_98:\n        /* \"#utility.yul\":992:997   */\n      0x00\n        /* \"#utility.yul\":1030:1036   */\n      dup2\n        /* \"#utility.yul\":1017:1037   */\n      calldataload\n        /* \"#utility.yul\":1008:1037   */\n      swap1\n      pop\n        /* \"#utility.yul\":1046:1079   */\n      tag_100\n        /* \"#utility.yul\":1073:1078   */\n      dup2\n        /* \"#utility.yul\":1046:1079   */\n      tag_101\n      jump\t// in\n    tag_100:\n        /* \"#utility.yul\":946:1085   */\n      swap3\n      swap2\n      pop\n      pop\n      jump\t// out\n        /* \"#utility.yul\":1091:1906   */\n    tag_13:\n        /* \"#utility.yul\":1186:1192   */\n      0x00\n        /* \"#utility.yul\":1194:1200   */\n      dup1\n        /* \"#utility.yul\":1202:1208   */\n      0x00\n        /* \"#utility.yul\":1251:1253   */\n      0x60\n        /* \"#utility.yul\":1239:1248   */\n      dup5\n        /* \"#utility.yul\":1230:1237   */\n      dup7\n        /* \"#utility.yul\":1226:1249   */\n      sub\n        /* \"#utility.yul\":1222:1254   */\n      slt\n        /* \"#utility.yul\":1219:1338   */\n      iszero\n      tag_103\n      jumpi\n        /* \"#utility.yul\":1257:1336   */\n      tag_104\n      tag_105\n      jump\t// in\n    tag_104:\n        /* \"#utility.yul\":1219:1338   */\n    tag_103:\n        /* \"#utility.yul\":1405:1406   */\n      0x00\n        /* \"#utility.yul\":1394:1403   */\n      dup5\n        /* \"#utility.yul\":1390:1407   */\n      add\n        /* \"#utility.yul\":1377:1408   */\n      calldataload\n        /* \"#utility.yul\":1435:1453   */\n      0xffffffffffffffff\n        /* \"#utility.yul\":1427:1433   */\n      dup2\n        /* \"#utility.yul\":1424:1454   */\n      gt\n        /* \"#utility.yul\":1421:1538   */\n      iszero\n      tag_106\n      jumpi\n        /* \"#utility.yul\":1457:1536   */\n      tag_107\n      tag_108\n      jump\t// in\n    tag_107:\n        /* \"#utility.yul\":1421:1538   */\n    tag_106:\n        /* \"#utility.yul\":1562:1625   */\n      tag_109\n        /* \"#utility.yul\":1617:1624   */\n      dup7\n        /* \"#utility.yul\":1608:1614   */\n      dup3\n        /* \"#utility.yul\":1597:1606   */\n      dup8\n        /* \"#utility.yul\":1593:1615   */\n      add\n        /* \"#utility.yul\":1562:1625   */\n      tag_92\n      jump\t// in\n    tag_109:\n        /* \"#utility.yul\":1552:1625   */\n      swap4\n      pop\n        /* \"#utility.yul\":1348:1635   */\n      pop\n        /* \"#utility.yul\":1674:1676   */\n      0x20\n        /* \"#utility.yul\":1700:1761   */\n      tag_110\n        /* \"#utility.yul\":1753:1760   */\n      dup7\n        /* \"#utility.yul\":1744:1750   */\n      dup3\n        /* \"#utility.yul\":1733:1742   */\n      dup8\n        /* \"#utility.yul\":1729:1751   */\n      add\n        /* \"#utility.yul\":1700:1761   */\n      tag_88\n      jump\t// in\n    tag_110:\n        /* \"#utility.yul\":1690:1761   */\n      swap3\n      pop\n        /* \"#utility.yul\":1645:1771   */\n      pop\n        /* \"#utility.yul\":1810:1812   */\n      0x40\n        /* \"#utility.yul\":1836:1889   */\n      tag_111\n        /* \"#utility.yul\":1881:1888   */\n      dup7\n        /* \"#utility.yul\":1872:1878   */\n      dup3\n        /* \"#utility.yul\":1861:1870   */\n      dup8\n        /* \"#utility.yul\":1857:1879   */\n      add\n        /* \"#utility.yul\":1836:1889   */\n      tag_98\n      jump\t// in\n    tag_111:\n        /* \"#utility.yul\":1826:1889   */\n      swap2\n      pop\n        /* \"#utility.yul\":1781:1899   */\n      pop\n        /* \"#utility.yul\":1091:1906   */\n      swap3\n      pop\n      swap3\n      pop\n      swap3\n      jump\t// out\n        /* \"#utility.yul\":1912:2241   */\n    tag_28:\n        /* \"#utility.yul\":1971:1977   */\n      0x00\n        /* \"#utility.yul\":2020:2022   */\n      0x20\n        /* \"#utility.yul\":2008:2017   */\n      dup3\n        /* \"#utility.yul\":1999:2006   */\n      dup5\n        /* \"#utility.yul\":1995:2018   */\n      sub\n        /* \"#utility.yul\":1991:2023   */\n      slt\n        /* \"#utility.yul\":1988:2107   */\n      iszero\n      tag_113\n      jumpi\n        /* \"#utility.yul\":2026:2105   */\n      tag_114\n      tag_105\n      jump\t// in\n    tag_114:\n        /* \"#utility.yul\":1988:2107   */\n    tag_113:\n        /* \"#utility.yul\":2146:2147   */\n      0x00\n        /* \"#utility.yul\":2171:2224   */\n      tag_115\n        /* \"#utility.yul\":2216:2223   */\n      dup5\n        /* \"#utility.yul\":2207:2213   */\n      dup3\n        /* \"#utility.yul\":2196:2205   */\n      dup6\n        /* \"#utility.yul\":2192:2214   */\n      add\n        /* \"#utility.yul\":2171:2224   */\n      tag_98\n      jump\t// in\n    tag_115:\n        /* \"#utility.yul\":2161:2224   */\n      swap2\n      pop\n        /* \"#utility.yul\":2117:2234   */\n      pop\n        /* \"#utility.yul\":1912:2241   */\n      swap3\n      swap2\n      pop\n      pop\n      jump\t// out\n        /* \"#utility.yul\":2247:2389   */\n    tag_116:\n        /* \"#utility.yul\":2350:2382   */\n      tag_118\n        /* \"#utility.yul\":2376:2381   */\n      dup2\n        /* \"#utility.yul\":2350:2382   */\n      tag_119\n      jump\t// in\n    tag_118:\n        /* \"#utility.yul\":2345:2348   */\n      dup3\n        /* \"#utility.yul\":2338:2383   */\n      mstore\n        /* \"#utility.yul\":2247:2389   */\n      pop\n      pop\n      jump\t// out\n        /* \"#utility.yul\":2395:2513   */\n    tag_120:\n        /* \"#utility.yul\":2482:2506   */\n      tag_122\n        /* \"#utility.yul\":2500:2505   */\n      dup2\n        /* \"#utility.yul\":2482:2506   */\n      tag_123\n      jump\t// in\n    tag_122:\n        /* \"#utility.yul\":2477:2480   */\n      dup3\n        /* \"#utility.yul\":2470:2507   */\n      mstore\n        /* \"#utility.yul\":2395:2513   */\n      pop\n      pop\n      jump\t// out\n        /* \"#utility.yul\":2519:2883   */\n    tag_124:\n        /* \"#utility.yul\":2607:2610   */\n      0x00\n        /* \"#utility.yul\":2635:2674   */\n      tag_126\n        /* \"#utility.yul\":2668:2673   */\n      dup3\n        /* \"#utility.yul\":2635:2674   */\n      tag_127\n      jump\t// in\n    tag_126:\n        /* \"#utility.yul\":2690:2761   */\n      tag_128\n        /* \"#utility.yul\":2754:2760   */\n      dup2\n        /* \"#utility.yul\":2749:2752   */\n      dup6\n        /* \"#utility.yul\":2690:2761   */\n      tag_129\n      jump\t// in\n    tag_128:\n        /* \"#utility.yul\":2683:2761   */\n      swap4\n      pop\n        /* \"#utility.yul\":2770:2822   */\n      tag_130\n        /* \"#utility.yul\":2815:2821   */\n      dup2\n        /* \"#utility.yul\":2810:2813   */\n      dup6\n        /* \"#utility.yul\":2803:2807   */\n      0x20\n        /* \"#utility.yul\":2796:2801   */\n      dup7\n        /* \"#utility.yul\":2792:2808   */\n      add\n        /* \"#utility.yul\":2770:2822   */\n      tag_131\n      jump\t// in\n    tag_130:\n        /* \"#utility.yul\":2847:2876   */\n      tag_132\n        /* \"#utility.yul\":2869:2875   */\n      dup2\n        /* \"#utility.yul\":2847:2876   */\n      tag_133\n      jump\t// in\n    tag_132:\n        /* \"#utility.yul\":2842:2845   */\n      dup5\n        /* \"#utility.yul\":2838:2877   */\n      add\n        /* \"#utility.yul\":2831:2877   */\n      swap2\n      pop\n        /* \"#utility.yul\":2611:2883   */\n      pop\n        /* \"#utility.yul\":2519:2883   */\n      swap3\n      swap2\n      pop\n      pop\n      jump\t// out\n        /* \"#utility.yul\":2889:3255   */\n    tag_134:\n        /* \"#utility.yul\":3031:3034   */\n      0x00\n        /* \"#utility.yul\":3052:3119   */\n      tag_136\n        /* \"#utility.yul\":3116:3118   */\n      0x19\n        /* \"#utility.yul\":3111:3114   */\n      dup4\n        /* \"#utility.yul\":3052:3119   */\n      tag_129\n      jump\t// in\n    tag_136:\n        /* \"#utility.yul\":3045:3119   */\n      swap2\n      pop\n        /* \"#utility.yul\":3128:3221   */\n      tag_137\n        /* \"#utility.yul\":3217:3220   */\n      dup3\n        /* \"#utility.yul\":3128:3221   */\n      tag_138\n      jump\t// in\n    tag_137:\n        /* \"#utility.yul\":3246:3248   */\n      0x20\n        /* \"#utility.yul\":3241:3244   */\n      dup3\n        /* \"#utility.yul\":3237:3249   */\n      add\n        /* \"#utility.yul\":3230:3249   */\n      swap1\n      pop\n        /* \"#utility.yul\":2889:3255   */\n      swap2\n      swap1\n      pop\n      jump\t// out\n        /* \"#utility.yul\":3261:3627   */\n    tag_139:\n        /* \"#utility.yul\":3403:3406   */\n      0x00\n        /* \"#utility.yul\":3424:3491   */\n      tag_141\n        /* \"#utility.yul\":3488:3490   */\n      0x2a\n        /* \"#utility.yul\":3483:3486   */\n      dup4\n        /* \"#utility.yul\":3424:3491   */\n      tag_129\n      jump\t// in\n    tag_141:\n        /* \"#utility.yul\":3417:3491   */\n      swap2\n      pop\n        /* \"#utility.yul\":3500:3593   */\n      tag_142\n        /* \"#utility.yul\":3589:3592   */\n      dup3\n        /* \"#utility.yul\":3500:3593   */\n      tag_143\n      jump\t// in\n    tag_142:\n        /* \"#utility.yul\":3618:3620   */\n      0x40\n        /* \"#utility.yul\":3613:3616   */\n      dup3\n        /* \"#utility.yul\":3609:3621   */\n      add\n        /* \"#utility.yul\":3602:3621   */\n      swap1\n      pop\n        /* \"#utility.yul\":3261:3627   */\n      swap2\n      swap1\n      pop\n      jump\t// out\n        /* \"#utility.yul\":3633:3999   */\n    tag_144:\n        /* \"#utility.yul\":3775:3778   */\n      0x00\n        /* \"#utility.yul\":3796:3863   */\n      tag_146\n        /* \"#utility.yul\":3860:3862   */\n      0x12\n        /* \"#utility.yul\":3855:3858   */\n      dup4\n        /* \"#utility.yul\":3796:3863   */\n      tag_129\n      jump\t// in\n    tag_146:\n        /* \"#utility.yul\":3789:3863   */\n      swap2\n      pop\n        /* \"#utility.yul\":3872:3965   */\n      tag_147\n        /* \"#utility.yul\":3961:3964   */\n      dup3\n        /* \"#utility.yul\":3872:3965   */\n      tag_148\n      jump\t// in\n    tag_147:\n        /* \"#utility.yul\":3990:3992   */\n      0x20\n        /* \"#utility.yul\":3985:3988   */\n      dup3\n        /* \"#utility.yul\":3981:3993   */\n      add\n        /* \"#utility.yul\":3974:3993   */\n      swap1\n      pop\n        /* \"#utility.yul\":3633:3999   */\n      swap2\n      swap1\n      pop\n      jump\t// out\n        /* \"#utility.yul\":4005:4123   */\n    tag_149:\n        /* \"#utility.yul\":4092:4116   */\n      tag_151\n        /* \"#utility.yul\":4110:4115   */\n      dup2\n        /* \"#utility.yul\":4092:4116   */\n      tag_152\n      jump\t// in\n    tag_151:\n        /* \"#utility.yul\":4087:4090   */\n      dup3\n        /* \"#utility.yul\":4080:4117   */\n      mstore\n        /* \"#utility.yul\":4005:4123   */\n      pop\n      pop\n      jump\t// out\n        /* \"#utility.yul\":4129:4805   */\n    tag_35:\n        /* \"#utility.yul\":4342:4346   */\n      0x00\n        /* \"#utility.yul\":4380:4383   */\n      0x80\n        /* \"#utility.yul\":4369:4378   */\n      dup3\n        /* \"#utility.yul\":4365:4384   */\n      add\n        /* \"#utility.yul\":4357:4384   */\n      swap1\n      pop\n        /* \"#utility.yul\":4394:4465   */\n      tag_154\n        /* \"#utility.yul\":4462:4463   */\n      0x00\n        /* \"#utility.yul\":4451:4460   */\n      dup4\n        /* \"#utility.yul\":4447:4464   */\n      add\n        /* \"#utility.yul\":4438:4444   */\n      dup8\n        /* \"#utility.yul\":4394:4465   */\n      tag_120\n      jump\t// in\n    tag_154:\n        /* \"#utility.yul\":4512:4521   */\n      dup2\n        /* \"#utility.yul\":4506:4510   */\n      dup2\n        /* \"#utility.yul\":4502:4522   */\n      sub\n        /* \"#utility.yul\":4497:4499   */\n      0x20\n        /* \"#utility.yul\":4486:4495   */\n      dup4\n        /* \"#utility.yul\":4482:4500   */\n      add\n        /* \"#utility.yul\":4475:4523   */\n      mstore\n        /* \"#utility.yul\":4540:4618   */\n      tag_155\n        /* \"#utility.yul\":4613:4617   */\n      dup2\n        /* \"#utility.yul\":4604:4610   */\n      dup7\n        /* \"#utility.yul\":4540:4618   */\n      tag_124\n      jump\t// in\n    tag_155:\n        /* \"#utility.yul\":4532:4618   */\n      swap1\n      pop\n        /* \"#utility.yul\":4628:4700   */\n      tag_156\n        /* \"#utility.yul\":4696:4698   */\n      0x40\n        /* \"#utility.yul\":4685:4694   */\n      dup4\n        /* \"#utility.yul\":4681:4699   */\n      add\n        /* \"#utility.yul\":4672:4678   */\n      dup6\n        /* \"#utility.yul\":4628:4700   */\n      tag_149\n      jump\t// in\n    tag_156:\n        /* \"#utility.yul\":4710:4798   */\n      tag_157\n        /* \"#utility.yul\":4794:4796   */\n      0x60\n        /* \"#utility.yul\":4783:4792   */\n      dup4\n        /* \"#utility.yul\":4779:4797   */\n      add\n        /* \"#utility.yul\":4770:4776   */\n      dup5\n        /* \"#utility.yul\":4710:4798   */\n      tag_116\n      jump\t// in\n    tag_157:\n        /* \"#utility.yul\":4129:4805   */\n      swap6\n      swap5\n      pop\n      pop\n      pop\n      pop\n      pop\n      jump\t// out\n        /* \"#utility.yul\":4811:5230   */\n    tag_39:\n        /* \"#utility.yul\":4977:4981   */\n      0x00\n        /* \"#utility.yul\":5015:5017   */\n      0x20\n        /* \"#utility.yul\":5004:5013   */\n      dup3\n        /* \"#utility.yul\":5000:5018   */\n      add\n        /* \"#utility.yul\":4992:5018   */\n      swap1\n      pop\n        /* \"#utility.yul\":5064:5073   */\n      dup2\n        /* \"#utility.yul\":5058:5062   */\n      dup2\n        /* \"#utility.yul\":5054:5074   */\n      sub\n        /* \"#utility.yul\":5050:5051   */\n      0x00\n        /* \"#utility.yul\":5039:5048   */\n      dup4\n        /* \"#utility.yul\":5035:5052   */\n      add\n        /* \"#utility.yul\":5028:5075   */\n      mstore\n        /* \"#utility.yul\":5092:5223   */\n      tag_159\n        /* \"#utility.yul\":5218:5222   */\n      dup2\n        /* \"#utility.yul\":5092:5223   */\n      tag_134\n      jump\t// in\n    tag_159:\n        /* \"#utility.yul\":5084:5223   */\n      swap1\n      pop\n        /* \"#utility.yul\":4811:5230   */\n      swap2\n      swap1\n      pop\n      jump\t// out\n        /* \"#utility.yul\":5236:5655   */\n    tag_54:\n        /* \"#utility.yul\":5402:5406   */\n      0x00\n        /* \"#utility.yul\":5440:5442   */\n      0x20\n        /* \"#utility.yul\":5429:5438   */\n      dup3\n        /* \"#utility.yul\":5425:5443   */\n      add\n        /* \"#utility.yul\":5417:5443   */\n      swap1\n      pop\n        /* \"#utility.yul\":5489:5498   */\n      dup2\n        /* \"#utility.yul\":5483:5487   */\n      dup2\n        /* \"#utility.yul\":5479:5499   */\n      sub\n        /* \"#utility.yul\":5475:5476   */\n      0x00\n        /* \"#utility.yul\":5464:5473   */\n      dup4\n        /* \"#utility.yul\":5460:5477   */\n      add\n        /* \"#utility.yul\":5453:5500   */\n      mstore\n        /* \"#utility.yul\":5517:5648   */\n      tag_161\n        /* \"#utility.yul\":5643:5647   */\n      dup2\n        /* \"#utility.yul\":5517:5648   */\n      tag_139\n      jump\t// in\n    tag_161:\n        /* \"#utility.yul\":5509:5648   */\n      swap1\n      pop\n        /* \"#utility.yul\":5236:5655   */\n      swap2\n      swap1\n      pop\n      jump\t// out\n        /* \"#utility.yul\":5661:6080   */\n    tag_45:\n        /* \"#utility.yul\":5827:5831   */\n      0x00\n        /* \"#utility.yul\":5865:5867   */\n      0x20\n        /* \"#utility.yul\":5854:5863   */\n      dup3\n        /* \"#utility.yul\":5850:5868   */\n      add\n        /* \"#utility.yul\":5842:5868   */\n      swap1\n      pop\n        /* \"#utility.yul\":5914:5923   */\n      dup2\n        /* \"#utility.yul\":5908:5912   */\n      dup2\n        /* \"#utility.yul\":5904:5924   */\n      sub\n        /* \"#utility.yul\":5900:5901   */\n      0x00\n        /* \"#utility.yul\":5889:5898   */\n      dup4\n        /* \"#utility.yul\":5885:5902   */\n      add\n        /* \"#utility.yul\":5878:5925   */\n      mstore\n        /* \"#utility.yul\":5942:6073   */\n      tag_163\n        /* \"#utility.yul\":6068:6072   */\n      dup2\n        /* \"#utility.yul\":5942:6073   */\n      tag_144\n      jump\t// in\n    tag_163:\n        /* \"#utility.yul\":5934:6073   */\n      swap1\n      pop\n        /* \"#utility.yul\":5661:6080   */\n      swap2\n      swap1\n      pop\n      jump\t// out\n        /* \"#utility.yul\":6086:6308   */\n    tag_16:\n        /* \"#utility.yul\":6179:6183   */\n      0x00\n        /* \"#utility.yul\":6217:6219   */\n      0x20\n        /* \"#utility.yul\":6206:6215   */\n      dup3\n        /* \"#utility.yul\":6202:6220   */\n      add\n        /* \"#utility.yul\":6194:6220   */\n      swap1\n      pop\n        /* \"#utility.yul\":6230:6301   */\n      tag_165\n        /* \"#utility.yul\":6298:6299   */\n      0x00\n        /* \"#utility.yul\":6287:6296   */\n      dup4\n        /* \"#utility.yul\":6283:6300   */\n      add\n        /* \"#utility.yul\":6274:6280   */\n      dup5\n        /* \"#utility.yul\":6230:6301   */\n      tag_149\n      jump\t// in\n    tag_165:\n        /* \"#utility.yul\":6086:6308   */\n      swap3\n      swap2\n      pop\n      pop\n      jump\t// out\n        /* \"#utility.yul\":6314:6646   */\n    tag_59:\n        /* \"#utility.yul\":6435:6439   */\n      0x00\n        /* \"#utility.yul\":6473:6475   */\n      0x40\n        /* \"#utility.yul\":6462:6471   */\n      dup3\n        /* \"#utility.yul\":6458:6476   */\n      add\n        /* \"#utility.yul\":6450:6476   */\n      swap1\n      pop\n        /* \"#utility.yul\":6486:6557   */\n      tag_167\n        /* \"#utility.yul\":6554:6555   */\n      0x00\n        /* \"#utility.yul\":6543:6552   */\n      dup4\n        /* \"#utility.yul\":6539:6556   */\n      add\n        /* \"#utility.yul\":6530:6536   */\n      dup6\n        /* \"#utility.yul\":6486:6557   */\n      tag_149\n      jump\t// in\n    tag_167:\n        /* \"#utility.yul\":6567:6639   */\n      tag_168\n        /* \"#utility.yul\":6635:6637   */\n      0x20\n        /* \"#utility.yul\":6624:6633   */\n      dup4\n        /* \"#utility.yul\":6620:6638   */\n      add\n        /* \"#utility.yul\":6611:6617   */\n      dup5\n        /* \"#utility.yul\":6567:6639   */\n      tag_149\n      jump\t// in\n    tag_168:\n        /* \"#utility.yul\":6314:6646   */\n      swap4\n      swap3\n      pop\n      pop\n      pop\n      jump\t// out\n        /* \"#utility.yul\":6652:6781   */\n    tag_82:\n        /* \"#utility.yul\":6686:6692   */\n      0x00\n        /* \"#utility.yul\":6713:6733   */\n      tag_170\n      tag_171\n      jump\t// in\n    tag_170:\n        /* \"#utility.yul\":6703:6733   */\n      swap1\n      pop\n        /* \"#utility.yul\":6742:6775   */\n      tag_172\n        /* \"#utility.yul\":6770:6774   */\n      dup3\n        /* \"#utility.yul\":6762:6768   */\n      dup3\n        /* \"#utility.yul\":6742:6775   */\n      tag_173\n      jump\t// in\n    tag_172:\n        /* \"#utility.yul\":6652:6781   */\n      swap2\n      swap1\n      pop\n      jump\t// out\n        /* \"#utility.yul\":6787:6862   */\n    tag_171:\n        /* \"#utility.yul\":6820:6826   */\n      0x00\n        /* \"#utility.yul\":6853:6855   */\n      0x40\n        /* \"#utility.yul\":6847:6856   */\n      mload\n        /* \"#utility.yul\":6837:6856   */\n      swap1\n      pop\n        /* \"#utility.yul\":6787:6862   */\n      swap1\n      jump\t// out\n        /* \"#utility.yul\":6868:7176   */\n    tag_81:\n        /* \"#utility.yul\":6930:6934   */\n      0x00\n        /* \"#utility.yul\":7020:7038   */\n      0xffffffffffffffff\n        /* \"#utility.yul\":7012:7018   */\n      dup3\n        /* \"#utility.yul\":7009:7039   */\n      gt\n        /* \"#utility.yul\":7006:7062   */\n      iszero\n      tag_176\n      jumpi\n        /* \"#utility.yul\":7042:7060   */\n      tag_177\n      tag_178\n      jump\t// in\n    tag_177:\n        /* \"#utility.yul\":7006:7062   */\n    tag_176:\n        /* \"#utility.yul\":7080:7109   */\n      tag_179\n        /* \"#utility.yul\":7102:7108   */\n      dup3\n        /* \"#utility.yul\":7080:7109   */\n      tag_133\n      jump\t// in\n    tag_179:\n        /* \"#utility.yul\":7072:7109   */\n      swap1\n      pop\n        /* \"#utility.yul\":7164:7168   */\n      0x20\n        /* \"#utility.yul\":7158:7162   */\n      dup2\n        /* \"#utility.yul\":7154:7169   */\n      add\n        /* \"#utility.yul\":7146:7169   */\n      swap1\n      pop\n        /* \"#utility.yul\":6868:7176   */\n      swap2\n      swap1\n      pop\n      jump\t// out\n        /* \"#utility.yul\":7182:7281   */\n    tag_127:\n        /* \"#utility.yul\":7234:7240   */\n      0x00\n        /* \"#utility.yul\":7268:7273   */\n      dup2\n        /* \"#utility.yul\":7262:7274   */\n      mload\n        /* \"#utility.yul\":7252:7274   */\n      swap1\n      pop\n        /* \"#utility.yul\":7182:7281   */\n      swap2\n      swap1\n      pop\n      jump\t// out\n        /* \"#utility.yul\":7287:7456   */\n    tag_129:\n        /* \"#utility.yul\":7371:7382   */\n      0x00\n        /* \"#utility.yul\":7405:7411   */\n      dup3\n        /* \"#utility.yul\":7400:7403   */\n      dup3\n        /* \"#utility.yul\":7393:7412   */\n      mstore\n        /* \"#utility.yul\":7445:7449   */\n      0x20\n        /* \"#utility.yul\":7440:7443   */\n      dup3\n        /* \"#utility.yul\":7436:7450   */\n      add\n        /* \"#utility.yul\":7421:7450   */\n      swap1\n      pop\n        /* \"#utility.yul\":7287:7456   */\n      swap3\n      swap2\n      pop\n      pop\n      jump\t// out\n        /* \"#utility.yul\":7462:7767   */\n    tag_41:\n        /* \"#utility.yul\":7502:7505   */\n      0x00\n        /* \"#utility.yul\":7521:7541   */\n      tag_183\n        /* \"#utility.yul\":7539:7540   */\n      dup3\n        /* \"#utility.yul\":7521:7541   */\n      tag_152\n      jump\t// in\n    tag_183:\n        /* \"#utility.yul\":7516:7541   */\n      swap2\n      pop\n        /* \"#utility.yul\":7555:7575   */\n      tag_184\n        /* \"#utility.yul\":7573:7574   */\n      dup4\n        /* \"#utility.yul\":7555:7575   */\n      tag_152\n      jump\t// in\n    tag_184:\n        /* \"#utility.yul\":7550:7575   */\n      swap3\n      pop\n        /* \"#utility.yul\":7709:7710   */\n      dup3\n        /* \"#utility.yul\":7641:7707   */\n      0xffffffffffffffffffffffffffffffffffffffffffffffffffffffffffffffff\n        /* \"#utility.yul\":7637:7711   */\n      sub\n        /* \"#utility.yul\":7634:7635   */\n      dup3\n        /* \"#utility.yul\":7631:7712   */\n      gt\n        /* \"#utility.yul\":7628:7735   */\n      iszero\n      tag_185\n      jumpi\n        /* \"#utility.yul\":7715:7733   */\n      tag_186\n      tag_187\n      jump\t// in\n    tag_186:\n        /* \"#utility.yul\":7628:7735   */\n    tag_185:\n        /* \"#utility.yul\":7759:7760   */\n      dup3\n        /* \"#utility.yul\":7756:7757   */\n      dup3\n        /* \"#utility.yul\":7752:7761   */\n      add\n        /* \"#utility.yul\":7745:7761   */\n      swap1\n      pop\n        /* \"#utility.yul\":7462:7767   */\n      swap3\n      swap2\n      pop\n      pop\n      jump\t// out\n        /* \"#utility.yul\":7773:7964   */\n    tag_50:\n        /* \"#utility.yul\":7813:7817   */\n      0x00\n        /* \"#utility.yul\":7833:7853   */\n      tag_189\n        /* \"#utility.yul\":7851:7852   */\n      dup3\n        /* \"#utility.yul\":7833:7853   */\n      tag_152\n      jump\t// in\n    tag_189:\n        /* \"#utility.yul\":7828:7853   */\n      swap2\n      pop\n        /* \"#utility.yul\":7867:7887   */\n      tag_190\n        /* \"#utility.yul\":7885:7886   */\n      dup4\n        /* \"#utility.yul\":7867:7887   */\n      tag_152\n      jump\t// in\n    tag_190:\n        /* \"#utility.yul\":7862:7887   */\n      swap3\n      pop\n        /* \"#utility.yul\":7906:7907   */\n      dup3\n        /* \"#utility.yul\":7903:7904   */\n      dup3\n        /* \"#utility.yul\":7900:7908   */\n      lt\n        /* \"#utility.yul\":7897:7931   */\n      iszero\n      tag_191\n      jumpi\n        /* \"#utility.yul\":7911:7929   */\n      tag_192\n      tag_187\n      jump\t// in\n    tag_192:\n        /* \"#utility.yul\":7897:7931   */\n    tag_191:\n        /* \"#utility.yul\":7956:7957   */\n      dup3\n        /* \"#utility.yul\":7953:7954   */\n      dup3\n        /* \"#utility.yul\":7949:7958   */\n      sub\n        /* \"#utility.yul\":7941:7958   */\n      swap1\n      pop\n        /* \"#utility.yul\":7773:7964   */\n      swap3\n      swap2\n      pop\n      pop\n      jump\t// out\n        /* \"#utility.yul\":7970:8066   */\n    tag_123:\n        /* \"#utility.yul\":8007:8014   */\n      0x00\n        /* \"#utility.yul\":8036:8060   */\n      tag_194\n        /* \"#utility.yul\":8054:8059   */\n      dup3\n        /* \"#utility.yul\":8036:8060   */\n      tag_195\n      jump\t// in\n    tag_194:\n        /* \"#utility.yul\":8025:8060   */\n      swap1\n      pop\n        /* \"#utility.yul\":7970:8066   */\n      swap2\n      swap1\n      pop\n      jump\t// out\n        /* \"#utility.yul\":8072:8176   */\n    tag_119:\n        /* \"#utility.yul\":8117:8124   */\n      0x00\n        /* \"#utility.yul\":8146:8170   */\n      tag_197\n        /* \"#utility.yul\":8164:8169   */\n      dup3\n        /* \"#utility.yul\":8146:8170   */\n      tag_195\n      jump\t// in\n    tag_197:\n        /* \"#utility.yul\":8135:8170   */\n      swap1\n      pop\n        /* \"#utility.yul\":8072:8176   */\n      swap2\n      swap1\n      pop\n      jump\t// out\n        /* \"#utility.yul\":8182:8308   */\n    tag_195:\n        /* \"#utility.yul\":8219:8226   */\n      0x00\n        /* \"#utility.yul\":8259:8301   */\n      0xffffffffffffffffffffffffffffffffffffffff\n        /* \"#utility.yul\":8252:8257   */\n      dup3\n        /* \"#utility.yul\":8248:8302   */\n      and\n        /* \"#utility.yul\":8237:8302   */\n      swap1\n      pop\n        /* \"#utility.yul\":8182:8308   */\n      swap2\n      swap1\n      pop\n      jump\t// out\n        /* \"#utility.yul\":8314:8391   */\n    tag_152:\n        /* \"#utility.yul\":8351:8358   */\n      0x00\n        /* \"#utility.yul\":8380:8385   */\n      dup2\n        /* \"#utility.yul\":8369:8385   */\n      swap1\n      pop\n        /* \"#utility.yul\":8314:8391   */\n      swap2\n      swap1\n      pop\n      jump\t// out\n        /* \"#utility.yul\":8397:8551   */\n    tag_87:\n        /* \"#utility.yul\":8481:8487   */\n      dup3\n        /* \"#utility.yul\":8476:8479   */\n      dup2\n        /* \"#utility.yul\":8471:8474   */\n      dup4\n        /* \"#utility.yul\":8458:8488   */\n      calldatacopy\n        /* \"#utility.yul\":8543:8544   */\n      0x00\n        /* \"#utility.yul\":8534:8540   */\n      dup4\n        /* \"#utility.yul\":8529:8532   */\n      dup4\n        /* \"#utility.yul\":8525:8541   */\n      add\n        /* \"#utility.yul\":8518:8545   */\n      mstore\n        /* \"#utility.yul\":8397:8551   */\n      pop\n      pop\n      pop\n      jump\t// out\n        /* \"#utility.yul\":8557:8864   */\n    tag_131:\n        /* \"#utility.yul\":8625:8626   */\n      0x00\n        /* \"#utility.yul\":8635:8748   */\n    tag_202:\n        /* \"#utility.yul\":8649:8655   */\n      dup4\n        /* \"#utility.yul\":8646:8647   */\n      dup2\n        /* \"#utility.yul\":8643:8656   */\n      lt\n        /* \"#utility.yul\":8635:8748   */\n      iszero\n      tag_204\n      jumpi\n        /* \"#utility.yul\":8734:8735   */\n      dup1\n        /* \"#utility.yul\":8729:8732   */\n      dup3\n        /* \"#utility.yul\":8725:8736   */\n      add\n        /* \"#utility.yul\":8719:8737   */\n      mload\n        /* \"#utility.yul\":8715:8716   */\n      dup2\n        /* \"#utility.yul\":8710:8713   */\n      dup5\n        /* \"#utility.yul\":8706:8717   */\n      add\n        /* \"#utility.yul\":8699:8738   */\n      mstore\n        /* \"#utility.yul\":8671:8673   */\n      0x20\n        /* \"#utility.yul\":8668:8669   */\n      dup2\n        /* \"#utility.yul\":8664:8674   */\n      add\n        /* \"#utility.yul\":8659:8674   */\n      swap1\n      pop\n        /* \"#utility.yul\":8635:8748   */\n      jump(tag_202)\n    tag_204:\n        /* \"#utility.yul\":8766:8772   */\n      dup4\n        /* \"#utility.yul\":8763:8764   */\n      dup2\n        /* \"#utility.yul\":8760:8773   */\n      gt\n        /* \"#utility.yul\":8757:8858   */\n      iszero\n      tag_205\n      jumpi\n        /* \"#utility.yul\":8846:8847   */\n      0x00\n        /* \"#utility.yul\":8837:8843   */\n      dup5\n        /* \"#utility.yul\":8832:8835   */\n      dup5\n        /* \"#utility.yul\":8828:8844   */\n      add\n        /* \"#utility.yul\":8821:8848   */\n      mstore\n        /* \"#utility.yul\":8757:8858   */\n    tag_205:\n        /* \"#utility.yul\":8606:8864   */\n      pop\n        /* \"#utility.yul\":8557:8864   */\n      pop\n      pop\n      pop\n      jump\t// out\n        /* \"#utility.yul\":8870:9190   */\n    tag_61:\n        /* \"#utility.yul\":8914:8920   */\n      0x00\n        /* \"#utility.yul\":8951:8952   */\n      0x02\n        /* \"#utility.yul\":8945:8949   */\n      dup3\n        /* \"#utility.yul\":8941:8953   */\n      div\n        /* \"#utility.yul\":8931:8953   */\n      swap1\n      pop\n        /* \"#utility.yul\":8998:8999   */\n      0x01\n        /* \"#utility.yul\":8992:8996   */\n      dup3\n        /* \"#utility.yul\":8988:9000   */\n      and\n        /* \"#utility.yul\":9019:9037   */\n      dup1\n        /* \"#utility.yul\":9009:9090   */\n      tag_207\n      jumpi\n        /* \"#utility.yul\":9075:9079   */\n      0x7f\n        /* \"#utility.yul\":9067:9073   */\n      dup3\n        /* \"#utility.yul\":9063:9080   */\n      and\n        /* \"#utility.yul\":9053:9080   */\n      swap2\n      pop\n        /* \"#utility.yul\":9009:9090   */\n    tag_207:\n        /* \"#utility.yul\":9137:9139   */\n      0x20\n        /* \"#utility.yul\":9129:9135   */\n      dup3\n        /* \"#utility.yul\":9126:9140   */\n      lt\n        /* \"#utility.yul\":9106:9124   */\n      dup2\n        /* \"#utility.yul\":9103:9141   */\n      eq\n        /* \"#utility.yul\":9100:9184   */\n      iszero\n      tag_208\n      jumpi\n        /* \"#utility.yul\":9156:9174   */\n      tag_209\n      tag_210\n      jump\t// in\n    tag_209:\n        /* \"#utility.yul\":9100:9184   */\n    tag_208:\n        /* \"#utility.yul\":8921:9190   */\n      pop\n        /* \"#utility.yul\":8870:9190   */\n      swap2\n      swap1\n      pop\n      jump\t// out\n        /* \"#utility.yul\":9196:9477   */\n    tag_173:\n        /* \"#utility.yul\":9279:9306   */\n      tag_212\n        /* \"#utility.yul\":9301:9305   */\n      dup3\n        /* \"#utility.yul\":9279:9306   */\n      tag_133\n      jump\t// in\n    tag_212:\n        /* \"#utility.yul\":9271:9277   */\n      dup2\n        /* \"#utility.yul\":9267:9307   */\n      add\n        /* \"#utility.yul\":9409:9415   */\n      dup2\n        /* \"#utility.yul\":9397:9407   */\n      dup2\n        /* \"#utility.yul\":9394:9416   */\n      lt\n        /* \"#utility.yul\":9373:9391   */\n      0xffffffffffffffff\n        /* \"#utility.yul\":9361:9371   */\n      dup3\n        /* \"#utility.yul\":9358:9392   */\n      gt\n        /* \"#utility.yul\":9355:9417   */\n      or\n        /* \"#utility.yul\":9352:9440   */\n      iszero\n      tag_213\n      jumpi\n        /* \"#utility.yul\":9420:9438   */\n      tag_214\n      tag_178\n      jump\t// in\n    tag_214:\n        /* \"#utility.yul\":9352:9440   */\n    tag_213:\n        /* \"#utility.yul\":9460:9470   */\n      dup1\n        /* \"#utility.yul\":9456:9458   */\n      0x40\n        /* \"#utility.yul\":9449:9471   */\n      mstore\n        /* \"#utility.yul\":9239:9477   */\n      pop\n        /* \"#utility.yul\":9196:9477   */\n      pop\n      pop\n      jump\t// out\n        /* \"#utility.yul\":9483:9663   */\n    tag_187:\n        /* \"#utility.yul\":9531:9608   */\n      0x4e487b7100000000000000000000000000000000000000000000000000000000\n        /* \"#utility.yul\":9528:9529   */\n      0x00\n        /* \"#utility.yul\":9521:9609   */\n      mstore\n        /* \"#utility.yul\":9628:9632   */\n      0x11\n        /* \"#utility.yul\":9625:9626   */\n      0x04\n        /* \"#utility.yul\":9618:9633   */\n      mstore\n        /* \"#utility.yul\":9652:9656   */\n      0x24\n        /* \"#utility.yul\":9649:9650   */\n      0x00\n        /* \"#utility.yul\":9642:9657   */\n      revert\n        /* \"#utility.yul\":9669:9849   */\n    tag_210:\n        /* \"#utility.yul\":9717:9794   */\n      0x4e487b7100000000000000000000000000000000000000000000000000000000\n        /* \"#utility.yul\":9714:9715   */\n      0x00\n        /* \"#utility.yul\":9707:9795   */\n      mstore\n        /* \"#utility.yul\":9814:9818   */\n      0x22\n        /* \"#utility.yul\":9811:9812   */\n      0x04\n        /* \"#utility.yul\":9804:9819   */\n      mstore\n        /* \"#utility.yul\":9838:9842   */\n      0x24\n        /* \"#utility.yul\":9835:9836   */\n      0x00\n        /* \"#utility.yul\":9828:9843   */\n      revert\n        /* \"#utility.yul\":9855:10035   */\n    tag_178:\n        /* \"#utility.yul\":9903:9980   */\n      0x4e487b7100000000000000000000000000000000000000000000000000000000\n        /* \"#utility.yul\":9900:9901   */\n      0x00\n        /* \"#utility.yul\":9893:9981   */\n      mstore\n        /* \"#utility.yul\":10000:10004   */\n      0x41\n        /* \"#utility.yul\":9997:9998   */\n      0x04\n        /* \"#utility.yul\":9990:10005   */\n      mstore\n        /* \"#utility.yul\":10024:10028   */\n      0x24\n        /* \"#utility.yul\":10021:10022   */\n      0x00\n        /* \"#utility.yul\":10014:10029   */\n      revert\n        /* \"#utility.yul\":10041:10158   */\n    tag_96:\n        /* \"#utility.yul\":10150:10151   */\n      0x00\n        /* \"#utility.yul\":10147:10148   */\n      dup1\n        /* \"#utility.yul\":10140:10152   */\n      revert\n        /* \"#utility.yul\":10164:10281   */\n    tag_85:\n        /* \"#utility.yul\":10273:10274   */\n      0x00\n        /* \"#utility.yul\":10270:10271   */\n      dup1\n        /* \"#utility.yul\":10263:10275   */\n      revert\n        /* \"#utility.yul\":10287:10404   */\n    tag_108:\n        /* \"#utility.yul\":10396:10397   */\n      0x00\n        /* \"#utility.yul\":10393:10394   */\n      dup1\n        /* \"#utility.yul\":10386:10398   */\n      revert\n        /* \"#utility.yul\":10410:10527   */\n    tag_105:\n        /* \"#utility.yul\":10519:10520   */\n      0x00\n        /* \"#utility.yul\":10516:10517   */\n      dup1\n        /* \"#utility.yul\":10509:10521   */\n      revert\n        /* \"#utility.yul\":10533:10635   */\n    tag_133:\n        /* \"#utility.yul\":10574:10580   */\n      0x00\n        /* \"#utility.yul\":10625:10627   */\n      0x1f\n        /* \"#utility.yul\":10621:10628   */\n      not\n        /* \"#utility.yul\":10616:10618   */\n      0x1f\n        /* \"#utility.yul\":10609:10614   */\n      dup4\n        /* \"#utility.yul\":10605:10619   */\n      add\n        /* \"#utility.yul\":10601:10629   */\n      and\n        /* \"#utility.yul\":10591:10629   */\n      swap1\n      pop\n        /* \"#utility.yul\":10533:10635   */\n      swap2\n      swap1\n      pop\n      jump\t// out\n        /* \"#utility.yul\":10641:10816   */\n    tag_138:\n        /* \"#utility.yul\":10781:10808   */\n      0x596f752073686f756c64207370656369667920616d6f756e7400000000000000\n        /* \"#utility.yul\":10777:10778   */\n      0x00\n        /* \"#utility.yul\":10769:10775   */\n      dup3\n        /* \"#utility.yul\":10765:10779   */\n      add\n        /* \"#utility.yul\":10758:10809   */\n      mstore\n        /* \"#utility.yul\":10641:10816   */\n      pop\n      jump\t// out\n        /* \"#utility.yul\":10822:11051   */\n    tag_143:\n        /* \"#utility.yul\":10962:10996   */\n      0x596f75206861766520746f2063726561746520646f6e6174696f6e20666f7220\n        /* \"#utility.yul\":10958:10959   */\n      0x00\n        /* \"#utility.yul\":10950:10956   */\n      dup3\n        /* \"#utility.yul\":10946:10960   */\n      add\n        /* \"#utility.yul\":10939:10997   */\n      mstore\n        /* \"#utility.yul\":11031:11043   */\n      0x73656e6420657468657200000000000000000000000000000000000000000000\n        /* \"#utility.yul\":11026:11028   */\n      0x20\n        /* \"#utility.yul\":11018:11024   */\n      dup3\n        /* \"#utility.yul\":11014:11029   */\n      add\n        /* \"#utility.yul\":11007:11044   */\n      mstore\n        /* \"#utility.yul\":10822:11051   */\n      pop\n      jump\t// out\n        /* \"#utility.yul\":11057:11225   */\n    tag_148:\n        /* \"#utility.yul\":11197:11217   */\n      0x4e6f7420656e6f7567682062616c616e63650000000000000000000000000000\n        /* \"#utility.yul\":11193:11194   */\n      0x00\n        /* \"#utility.yul\":11185:11191   */\n      dup3\n        /* \"#utility.yul\":11181:11195   */\n      add\n        /* \"#utility.yul\":11174:11218   */\n      mstore\n        /* \"#utility.yul\":11057:11225   */\n      pop\n      jump\t// out\n        /* \"#utility.yul\":11231:11369   */\n    tag_91:\n        /* \"#utility.yul\":11312:11344   */\n      tag_227\n        /* \"#utility.yul\":11338:11343   */\n      dup2\n        /* \"#utility.yul\":11312:11344   */\n      tag_119\n      jump\t// in\n    tag_227:\n        /* \"#utility.yul\":11305:11310   */\n      dup2\n        /* \"#utility.yul\":11302:11345   */\n      eq\n        /* \"#utility.yul\":11292:11363   */\n      tag_228\n      jumpi\n        /* \"#utility.yul\":11359:11360   */\n      0x00\n        /* \"#utility.yul\":11356:11357   */\n      dup1\n        /* \"#utility.yul\":11349:11361   */\n      revert\n        /* \"#utility.yul\":11292:11363   */\n    tag_228:\n        /* \"#utility.yul\":11231:11369   */\n      pop\n      jump\t// out\n        /* \"#utility.yul\":11375:11497   */\n    tag_101:\n        /* \"#utility.yul\":11448:11472   */\n      tag_230\n        /* \"#utility.yul\":11466:11471   */\n      dup2\n        /* \"#utility.yul\":11448:11472   */\n      tag_152\n      jump\t// in\n    tag_230:\n        /* \"#utility.yul\":11441:11446   */\n      dup2\n        /* \"#utility.yul\":11438:11473   */\n      eq\n        /* \"#utility.yul\":11428:11491   */\n      tag_231\n      jumpi\n        /* \"#utility.yul\":11487:11488   */\n      0x00\n        /* \"#utility.yul\":11484:11485   */\n      dup1\n        /* \"#utility.yul\":11477:11489   */\n      revert\n        /* \"#utility.yul\":11428:11491   */\n    tag_231:\n        /* \"#utility.yul\":11375:11497   */\n      pop\n      jump\t// out\n\n    auxdata: 0xa2646970667358221220be51619c04d5046f97e052c086db9202d4130a91e00cc582100c67d27dd6b35f64736f6c63430008070033\n}\n",
				"bytecode": {
					"linkReferences": {},
					"object": "608060405234801561001057600080fd5b50610caf806100206000396000f3fe6080604052600436106100555760003560e01c8063325ec7681461005a578063b5e051d914610064578063b69ef8a8146100a1578063de2ed893146100cc578063f14faf6f146100f7578063f8626af814610120575b600080fd5b610062610160565b005b34801561007057600080fd5b5061008b600480360381019061008691906106ae565b6101bd565b60405161009891906108c5565b60405180910390f35b3480156100ad57600080fd5b506100b66102f8565b6040516100c391906108c5565b60405180910390f35b3480156100d857600080fd5b506100e16102fe565b6040516100ee91906108c5565b60405180910390f35b34801561010357600080fd5b5061011e6004803603810190610119919061071d565b610304565b005b34801561012c57600080fd5b506101476004803603810190610142919061071d565b610479565b6040516101579493929190610819565b60405180910390f35b600034116101a3576040517f08c379a000000000000000000000000000000000000000000000000000000000815260040161019a90610865565b60405180910390fd5b346000808282546101b4919061097b565b92505081905550565b600080600260006001548152602001908152602001600020905080600201546000541161021f576040517f08c379a0000000000000000000000000000000000000000000000000000000008152600401610216906108a5565b60405180910390fd5b338160000160006101000a81548173ffffffffffffffffffffffffffffffffffffffff021916908373ffffffffffffffffffffffffffffffffffffffff1602179055508481600101908051906020019061027a929190610571565b50838160030160006101000a81548173ffffffffffffffffffffffffffffffffffffffff021916908373ffffffffffffffffffffffffffffffffffffffff16021790555082816002018190555060018060008282546102d9919061097b565b92505081905550600180546102ee91906109d1565b9150509392505050565b60005481565b60015481565b60006002600083815260200190815260200160002090508060000160009054906101000a900473ffffffffffffffffffffffffffffffffffffffff1673ffffffffffffffffffffffffffffffffffffffff163373ffffffffffffffffffffffffffffffffffffffff16146103ad576040517f08c379a00000000000000000000000000000000000000000000000000000000081526004016103a490610885565b60405180910390fd5b8060030160009054906101000a900473ffffffffffffffffffffffffffffffffffffffff1673ffffffffffffffffffffffffffffffffffffffff166108fc82600201549081150290604051600060405180830381858888f1935050505015801561041b573d6000803e3d6000fd5b50806002015460008082825461043191906109d1565b925050819055507f489807a5fd45f95df5a4da56d2ec4a895cd239ac44d0d9703ac6d8f0c590549c82826002015460405161046d9291906108e0565b60405180910390a15050565b60026020528060005260406000206000915090508060000160009054906101000a900473ffffffffffffffffffffffffffffffffffffffff16908060010180546104c290610a95565b80601f01602080910402602001604051908101604052809291908181526020018280546104ee90610a95565b801561053b5780601f106105105761010080835404028352916020019161053b565b820191906000526020600020905b81548152906001019060200180831161051e57829003601f168201915b5050505050908060020154908060030160009054906101000a900473ffffffffffffffffffffffffffffffffffffffff16905084565b82805461057d90610a95565b90600052602060002090601f01602090048101928261059f57600085556105e6565b82601f106105b857805160ff19168380011785556105e6565b828001600101855582156105e6579182015b828111156105e55782518255916020019190600101906105ca565b5b5090506105f391906105f7565b5090565b5b808211156106105760008160009055506001016105f8565b5090565b60006106276106228461092e565b610909565b90508281526020810184848401111561064357610642610b8a565b5b61064e848285610a53565b509392505050565b60008135905061066581610c4b565b92915050565b600082601f8301126106805761067f610b85565b5b8135610690848260208601610614565b91505092915050565b6000813590506106a881610c62565b92915050565b6000806000606084860312156106c7576106c6610b94565b5b600084013567ffffffffffffffff8111156106e5576106e4610b8f565b5b6106f18682870161066b565b935050602061070286828701610656565b925050604061071386828701610699565b9150509250925092565b60006020828403121561073357610732610b94565b5b600061074184828501610699565b91505092915050565b61075381610a17565b82525050565b61076281610a05565b82525050565b60006107738261095f565b61077d818561096a565b935061078d818560208601610a62565b61079681610b99565b840191505092915050565b60006107ae60198361096a565b91506107b982610baa565b602082019050919050565b60006107d1602a8361096a565b91506107dc82610bd3565b604082019050919050565b60006107f460128361096a565b91506107ff82610c22565b602082019050919050565b61081381610a49565b82525050565b600060808201905061082e6000830187610759565b81810360208301526108408186610768565b905061084f604083018561080a565b61085c606083018461074a565b95945050505050565b6000602082019050818103600083015261087e816107a1565b9050919050565b6000602082019050818103600083015261089e816107c4565b9050919050565b600060208201905081810360008301526108be816107e7565b9050919050565b60006020820190506108da600083018461080a565b92915050565b60006040820190506108f5600083018561080a565b610902602083018461080a565b9392505050565b6000610913610924565b905061091f8282610ac7565b919050565b6000604051905090565b600067ffffffffffffffff82111561094957610948610b56565b5b61095282610b99565b9050602081019050919050565b600081519050919050565b600082825260208201905092915050565b600061098682610a49565b915061099183610a49565b9250827fffffffffffffffffffffffffffffffffffffffffffffffffffffffffffffffff038211156109c6576109c5610af8565b5b828201905092915050565b60006109dc82610a49565b91506109e783610a49565b9250828210156109fa576109f9610af8565b5b828203905092915050565b6000610a1082610a29565b9050919050565b6000610a2282610a29565b9050919050565b600073ffffffffffffffffffffffffffffffffffffffff82169050919050565b6000819050919050565b82818337600083830152505050565b60005b83811015610a80578082015181840152602081019050610a65565b83811115610a8f576000848401525b50505050565b60006002820490506001821680610aad57607f821691505b60208210811415610ac157610ac0610b27565b5b50919050565b610ad082610b99565b810181811067ffffffffffffffff82111715610aef57610aee610b56565b5b80604052505050565b7f4e487b7100000000000000000000000000000000000000000000000000000000600052601160045260246000fd5b7f4e487b7100000000000000000000000000000000000000000000000000000000600052602260045260246000fd5b7f4e487b7100000000000000000000000000000000000000000000000000000000600052604160045260246000fd5b600080fd5b600080fd5b600080fd5b600080fd5b6000601f19601f8301169050919050565b7f596f752073686f756c64207370656369667920616d6f756e7400000000000000600082015250565b7f596f75206861766520746f2063726561746520646f6e6174696f6e20666f722060008201527f73656e6420657468657200000000000000000000000000000000000000000000602082015250565b7f4e6f7420656e6f7567682062616c616e63650000000000000000000000000000600082015250565b610c5481610a17565b8114610c5f57600080fd5b50565b610c6b81610a49565b8114610c7657600080fd5b5056fea2646970667358221220be51619c04d5046f97e052c086db9202d4130a91e00cc582100c67d27dd6b35f64736f6c63430008070033",
					"opcodes": "PUSH1 0x80 PUSH1 0x40 MSTORE CALLVALUE DUP1 ISZERO PUSH2 0x10 JUMPI PUSH1 0x0 DUP1 REVERT JUMPDEST POP PUSH2 0xCAF DUP1 PUSH2 0x20 PUSH1 0x0 CODECOPY PUSH1 0x0 RETURN INVALID PUSH1 0x80 PUSH1 0x40 MSTORE PUSH1 0x4 CALLDATASIZE LT PUSH2 0x55 JUMPI PUSH1 0x0 CALLDATALOAD PUSH1 0xE0 SHR DUP1 PUSH4 0x325EC768 EQ PUSH2 0x5A JUMPI DUP1 PUSH4 0xB5E051D9 EQ PUSH2 0x64 JUMPI DUP1 PUSH4 0xB69EF8A8 EQ PUSH2 0xA1 JUMPI DUP1 PUSH4 0xDE2ED893 EQ PUSH2 0xCC JUMPI DUP1 PUSH4 0xF14FAF6F EQ PUSH2 0xF7 JUMPI DUP1 PUSH4 0xF8626AF8 EQ PUSH2 0x120 JUMPI JUMPDEST PUSH1 0x0 DUP1 REVERT JUMPDEST PUSH2 0x62 PUSH2 0x160 JUMP JUMPDEST STOP JUMPDEST CALLVALUE DUP1 ISZERO PUSH2 0x70 JUMPI PUSH1 0x0 DUP1 REVERT JUMPDEST POP PUSH2 0x8B PUSH1 0x4 DUP1 CALLDATASIZE SUB DUP2 ADD SWAP1 PUSH2 0x86 SWAP2 SWAP1 PUSH2 0x6AE JUMP JUMPDEST PUSH2 0x1BD JUMP JUMPDEST PUSH1 0x40 MLOAD PUSH2 0x98 SWAP2 SWAP1 PUSH2 0x8C5 JUMP JUMPDEST PUSH1 0x40 MLOAD DUP1 SWAP2 SUB SWAP1 RETURN JUMPDEST CALLVALUE DUP1 ISZERO PUSH2 0xAD JUMPI PUSH1 0x0 DUP1 REVERT JUMPDEST POP PUSH2 0xB6 PUSH2 0x2F8 JUMP JUMPDEST PUSH1 0x40 MLOAD PUSH2 0xC3 SWAP2 SWAP1 PUSH2 0x8C5 JUMP JUMPDEST PUSH1 0x40 MLOAD DUP1 SWAP2 SUB SWAP1 RETURN JUMPDEST CALLVALUE DUP1 ISZERO PUSH2 0xD8 JUMPI PUSH1 0x0 DUP1 REVERT JUMPDEST POP PUSH2 0xE1 PUSH2 0x2FE JUMP JUMPDEST PUSH1 0x40 MLOAD PUSH2 0xEE SWAP2 SWAP1 PUSH2 0x8C5 JUMP JUMPDEST PUSH1 0x40 MLOAD DUP1 SWAP2 SUB SWAP1 RETURN JUMPDEST CALLVALUE DUP1 ISZERO PUSH2 0x103 JUMPI PUSH1 0x0 DUP1 REVERT JUMPDEST POP PUSH2 0x11E PUSH1 0x4 DUP1 CALLDATASIZE SUB DUP2 ADD SWAP1 PUSH2 0x119 SWAP2 SWAP1 PUSH2 0x71D JUMP JUMPDEST PUSH2 0x304 JUMP JUMPDEST STOP JUMPDEST CALLVALUE DUP1 ISZERO PUSH2 0x12C JUMPI PUSH1 0x0 DUP1 REVERT JUMPDEST POP PUSH2 0x147 PUSH1 0x4 DUP1 CALLDATASIZE SUB DUP2 ADD SWAP1 PUSH2 0x142 SWAP2 SWAP1 PUSH2 0x71D JUMP JUMPDEST PUSH2 0x479 JUMP JUMPDEST PUSH1 0x40 MLOAD PUSH2 0x157 SWAP5 SWAP4 SWAP3 SWAP2 SWAP1 PUSH2 0x819 JUMP JUMPDEST PUSH1 0x40 MLOAD DUP1 SWAP2 SUB SWAP1 RETURN JUMPDEST PUSH1 0x0 CALLVALUE GT PUSH2 0x1A3 JUMPI PUSH1 0x40 MLOAD PUSH32 0x8C379A000000000000000000000000000000000000000000000000000000000 DUP2 MSTORE PUSH1 0x4 ADD PUSH2 0x19A SWAP1 PUSH2 0x865 JUMP JUMPDEST PUSH1 0x40 MLOAD DUP1 SWAP2 SUB SWAP1 REVERT JUMPDEST CALLVALUE PUSH1 0x0 DUP1 DUP3 DUP3 SLOAD PUSH2 0x1B4 SWAP2 SWAP1 PUSH2 0x97B JUMP JUMPDEST SWAP3 POP POP DUP2 SWAP1 SSTORE POP JUMP JUMPDEST PUSH1 0x0 DUP1 PUSH1 0x2 PUSH1 0x0 PUSH1 0x1 SLOAD DUP2 MSTORE PUSH1 0x20 ADD SWAP1 DUP2 MSTORE PUSH1 0x20 ADD PUSH1 0x0 KECCAK256 SWAP1 POP DUP1 PUSH1 0x2 ADD SLOAD PUSH1 0x0 SLOAD GT PUSH2 0x21F JUMPI PUSH1 0x40 MLOAD PUSH32 0x8C379A000000000000000000000000000000000000000000000000000000000 DUP2 MSTORE PUSH1 0x4 ADD PUSH2 0x216 SWAP1 PUSH2 0x8A5 JUMP JUMPDEST PUSH1 0x40 MLOAD DUP1 SWAP2 SUB SWAP1 REVERT JUMPDEST CALLER DUP2 PUSH1 0x0 ADD PUSH1 0x0 PUSH2 0x100 EXP DUP2 SLOAD DUP2 PUSH20 0xFFFFFFFFFFFFFFFFFFFFFFFFFFFFFFFFFFFFFFFF MUL NOT AND SWAP1 DUP4 PUSH20 0xFFFFFFFFFFFFFFFFFFFFFFFFFFFFFFFFFFFFFFFF AND MUL OR SWAP1 SSTORE POP DUP5 DUP2 PUSH1 0x1 ADD SWAP1 DUP1 MLOAD SWAP1 PUSH1 0x20 ADD SWAP1 PUSH2 0x27A SWAP3 SWAP2 SWAP1 PUSH2 0x571 JUMP JUMPDEST POP DUP4 DUP2 PUSH1 0x3 ADD PUSH1 0x0 PUSH2 0x100 EXP DUP2 SLOAD DUP2 PUSH20 0xFFFFFFFFFFFFFFFFFFFFFFFFFFFFFFFFFFFFFFFF MUL NOT AND SWAP1 DUP4 PUSH20 0xFFFFFFFFFFFFFFFFFFFFFFFFFFFFFFFFFFFFFFFF AND MUL OR SWAP1 SSTORE POP DUP3 DUP2 PUSH1 0x2 ADD DUP2 SWAP1 SSTORE POP PUSH1 0x1 DUP1 PUSH1 0x0 DUP3 DUP3 SLOAD PUSH2 0x2D9 SWAP2 SWAP1 PUSH2 0x97B JUMP JUMPDEST SWAP3 POP POP DUP2 SWAP1 SSTORE POP PUSH1 0x1 DUP1 SLOAD PUSH2 0x2EE SWAP2 SWAP1 PUSH2 0x9D1 JUMP JUMPDEST SWAP2 POP POP SWAP4 SWAP3 POP POP POP JUMP JUMPDEST PUSH1 0x0 SLOAD DUP2 JUMP JUMPDEST PUSH1 0x1 SLOAD DUP2 JUMP JUMPDEST PUSH1 0x0 PUSH1 0x2 PUSH1 0x0 DUP4 DUP2 MSTORE PUSH1 0x20 ADD SWAP1 DUP2 MSTORE PUSH1 0x20 ADD PUSH1 0x0 KECCAK256 SWAP1 POP DUP1 PUSH1 0x0 ADD PUSH1 0x0 SWAP1 SLOAD SWAP1 PUSH2 0x100 EXP SWAP1 DIV PUSH20 0xFFFFFFFFFFFFFFFFFFFFFFFFFFFFFFFFFFFFFFFF AND PUSH20 0xFFFFFFFFFFFFFFFFFFFFFFFFFFFFFFFFFFFFFFFF AND CALLER PUSH20 0xFFFFFFFFFFFFFFFFFFFFFFFFFFFFFFFFFFFFFFFF AND EQ PUSH2 0x3AD JUMPI PUSH1 0x40 MLOAD PUSH32 0x8C379A000000000000000000000000000000000000000000000000000000000 DUP2 MSTORE PUSH1 0x4 ADD PUSH2 0x3A4 SWAP1 PUSH2 0x885 JUMP JUMPDEST PUSH1 0x40 MLOAD DUP1 SWAP2 SUB SWAP1 REVERT JUMPDEST DUP1 PUSH1 0x3 ADD PUSH1 0x0 SWAP1 SLOAD SWAP1 PUSH2 0x100 EXP SWAP1 DIV PUSH20 0xFFFFFFFFFFFFFFFFFFFFFFFFFFFFFFFFFFFFFFFF AND PUSH20 0xFFFFFFFFFFFFFFFFFFFFFFFFFFFFFFFFFFFFFFFF AND PUSH2 0x8FC DUP3 PUSH1 0x2 ADD SLOAD SWAP1 DUP2 ISZERO MUL SWAP1 PUSH1 0x40 MLOAD PUSH1 0x0 PUSH1 0x40 MLOAD DUP1 DUP4 SUB DUP2 DUP6 DUP9 DUP9 CALL SWAP4 POP POP POP POP ISZERO DUP1 ISZERO PUSH2 0x41B JUMPI RETURNDATASIZE PUSH1 0x0 DUP1 RETURNDATACOPY RETURNDATASIZE PUSH1 0x0 REVERT JUMPDEST POP DUP1 PUSH1 0x2 ADD SLOAD PUSH1 0x0 DUP1 DUP3 DUP3 SLOAD PUSH2 0x431 SWAP2 SWAP1 PUSH2 0x9D1 JUMP JUMPDEST SWAP3 POP POP DUP2 SWAP1 SSTORE POP PUSH32 0x489807A5FD45F95DF5A4DA56D2EC4A895CD239AC44D0D9703AC6D8F0C590549C DUP3 DUP3 PUSH1 0x2 ADD SLOAD PUSH1 0x40 MLOAD PUSH2 0x46D SWAP3 SWAP2 SWAP1 PUSH2 0x8E0 JUMP JUMPDEST PUSH1 0x40 MLOAD DUP1 SWAP2 SUB SWAP1 LOG1 POP POP JUMP JUMPDEST PUSH1 0x2 PUSH1 0x20 MSTORE DUP1 PUSH1 0x0 MSTORE PUSH1 0x40 PUSH1 0x0 KECCAK256 PUSH1 0x0 SWAP2 POP SWAP1 POP DUP1 PUSH1 0x0 ADD PUSH1 0x0 SWAP1 SLOAD SWAP1 PUSH2 0x100 EXP SWAP1 DIV PUSH20 0xFFFFFFFFFFFFFFFFFFFFFFFFFFFFFFFFFFFFFFFF AND SWAP1 DUP1 PUSH1 0x1 ADD DUP1 SLOAD PUSH2 0x4C2 SWAP1 PUSH2 0xA95 JUMP JUMPDEST DUP1 PUSH1 0x1F ADD PUSH1 0x20 DUP1 SWAP2 DIV MUL PUSH1 0x20 ADD PUSH1 0x40 MLOAD SWAP1 DUP2 ADD PUSH1 0x40 MSTORE DUP1 SWAP3 SWAP2 SWAP1 DUP2 DUP2 MSTORE PUSH1 0x20 ADD DUP3 DUP1 SLOAD PUSH2 0x4EE SWAP1 PUSH2 0xA95 JUMP JUMPDEST DUP1 ISZERO PUSH2 0x53B JUMPI DUP1 PUSH1 0x1F LT PUSH2 0x510 JUMPI PUSH2 0x100 DUP1 DUP4 SLOAD DIV MUL DUP4 MSTORE SWAP2 PUSH1 0x20 ADD SWAP2 PUSH2 0x53B JUMP JUMPDEST DUP3 ADD SWAP2 SWAP1 PUSH1 0x0 MSTORE PUSH1 0x20 PUSH1 0x0 KECCAK256 SWAP1 JUMPDEST DUP2 SLOAD DUP2 MSTORE SWAP1 PUSH1 0x1 ADD SWAP1 PUSH1 0x20 ADD DUP1 DUP4 GT PUSH2 0x51E JUMPI DUP3 SWAP1 SUB PUSH1 0x1F AND DUP3 ADD SWAP2 JUMPDEST POP POP POP POP POP SWAP1 DUP1 PUSH1 0x2 ADD SLOAD SWAP1 DUP1 PUSH1 0x3 ADD PUSH1 0x0 SWAP1 SLOAD SWAP1 PUSH2 0x100 EXP SWAP1 DIV PUSH20 0xFFFFFFFFFFFFFFFFFFFFFFFFFFFFFFFFFFFFFFFF AND SWAP1 POP DUP5 JUMP JUMPDEST DUP3 DUP1 SLOAD PUSH2 0x57D SWAP1 PUSH2 0xA95 JUMP JUMPDEST SWAP1 PUSH1 0x0 MSTORE PUSH1 0x20 PUSH1 0x0 KECCAK256 SWAP1 PUSH1 0x1F ADD PUSH1 0x20 SWAP1 DIV DUP2 ADD SWAP3 DUP3 PUSH2 0x59F JUMPI PUSH1 0x0 DUP6 SSTORE PUSH2 0x5E6 JUMP JUMPDEST DUP3 PUSH1 0x1F LT PUSH2 0x5B8 JUMPI DUP1 MLOAD PUSH1 0xFF NOT AND DUP4 DUP1 ADD OR DUP6 SSTORE PUSH2 0x5E6 JUMP JUMPDEST DUP3 DUP1 ADD PUSH1 0x1 ADD DUP6 SSTORE DUP3 ISZERO PUSH2 0x5E6 JUMPI SWAP2 DUP3 ADD JUMPDEST DUP3 DUP2 GT ISZERO PUSH2 0x5E5 JUMPI DUP3 MLOAD DUP3 SSTORE SWAP2 PUSH1 0x20 ADD SWAP2 SWAP1 PUSH1 0x1 ADD SWAP1 PUSH2 0x5CA JUMP JUMPDEST JUMPDEST POP SWAP1 POP PUSH2 0x5F3 SWAP2 SWAP1 PUSH2 0x5F7 JUMP JUMPDEST POP SWAP1 JUMP JUMPDEST JUMPDEST DUP1 DUP3 GT ISZERO PUSH2 0x610 JUMPI PUSH1 0x0 DUP2 PUSH1 0x0 SWAP1 SSTORE POP PUSH1 0x1 ADD PUSH2 0x5F8 JUMP JUMPDEST POP SWAP1 JUMP JUMPDEST PUSH1 0x0 PUSH2 0x627 PUSH2 0x622 DUP5 PUSH2 0x92E JUMP JUMPDEST PUSH2 0x909 JUMP JUMPDEST SWAP1 POP DUP3 DUP2 MSTORE PUSH1 0x20 DUP2 ADD DUP5 DUP5 DUP5 ADD GT ISZERO PUSH2 0x643 JUMPI PUSH2 0x642 PUSH2 0xB8A JUMP JUMPDEST JUMPDEST PUSH2 0x64E DUP5 DUP3 DUP6 PUSH2 0xA53 JUMP JUMPDEST POP SWAP4 SWAP3 POP POP POP JUMP JUMPDEST PUSH1 0x0 DUP2 CALLDATALOAD SWAP1 POP PUSH2 0x665 DUP2 PUSH2 0xC4B JUMP JUMPDEST SWAP3 SWAP2 POP POP JUMP JUMPDEST PUSH1 0x0 DUP3 PUSH1 0x1F DUP4 ADD SLT PUSH2 0x680 JUMPI PUSH2 0x67F PUSH2 0xB85 JUMP JUMPDEST JUMPDEST DUP2 CALLDATALOAD PUSH2 0x690 DUP5 DUP3 PUSH1 0x20 DUP7 ADD PUSH2 0x614 JUMP JUMPDEST SWAP2 POP POP SWAP3 SWAP2 POP POP JUMP JUMPDEST PUSH1 0x0 DUP2 CALLDATALOAD SWAP1 POP PUSH2 0x6A8 DUP2 PUSH2 0xC62 JUMP JUMPDEST SWAP3 SWAP2 POP POP JUMP JUMPDEST PUSH1 0x0 DUP1 PUSH1 0x0 PUSH1 0x60 DUP5 DUP7 SUB SLT ISZERO PUSH2 0x6C7 JUMPI PUSH2 0x6C6 PUSH2 0xB94 JUMP JUMPDEST JUMPDEST PUSH1 0x0 DUP5 ADD CALLDATALOAD PUSH8 0xFFFFFFFFFFFFFFFF DUP2 GT ISZERO PUSH2 0x6E5 JUMPI PUSH2 0x6E4 PUSH2 0xB8F JUMP JUMPDEST JUMPDEST PUSH2 0x6F1 DUP7 DUP3 DUP8 ADD PUSH2 0x66B JUMP JUMPDEST SWAP4 POP POP PUSH1 0x20 PUSH2 0x702 DUP7 DUP3 DUP8 ADD PUSH2 0x656 JUMP JUMPDEST SWAP3 POP POP PUSH1 0x40 PUSH2 0x713 DUP7 DUP3 DUP8 ADD PUSH2 0x699 JUMP JUMPDEST SWAP2 POP POP SWAP3 POP SWAP3 POP SWAP3 JUMP JUMPDEST PUSH1 0x0 PUSH1 0x20 DUP3 DUP5 SUB SLT ISZERO PUSH2 0x733 JUMPI PUSH2 0x732 PUSH2 0xB94 JUMP JUMPDEST JUMPDEST PUSH1 0x0 PUSH2 0x741 DUP5 DUP3 DUP6 ADD PUSH2 0x699 JUMP JUMPDEST SWAP2 POP POP SWAP3 SWAP2 POP POP JUMP JUMPDEST PUSH2 0x753 DUP2 PUSH2 0xA17 JUMP JUMPDEST DUP3 MSTORE POP POP JUMP JUMPDEST PUSH2 0x762 DUP2 PUSH2 0xA05 JUMP JUMPDEST DUP3 MSTORE POP POP JUMP JUMPDEST PUSH1 0x0 PUSH2 0x773 DUP3 PUSH2 0x95F JUMP JUMPDEST PUSH2 0x77D DUP2 DUP6 PUSH2 0x96A JUMP JUMPDEST SWAP4 POP PUSH2 0x78D DUP2 DUP6 PUSH1 0x20 DUP7 ADD PUSH2 0xA62 JUMP JUMPDEST PUSH2 0x796 DUP2 PUSH2 0xB99 JUMP JUMPDEST DUP5 ADD SWAP2 POP POP SWAP3 SWAP2 POP POP JUMP JUMPDEST PUSH1 0x0 PUSH2 0x7AE PUSH1 0x19 DUP4 PUSH2 0x96A JUMP JUMPDEST SWAP2 POP PUSH2 0x7B9 DUP3 PUSH2 0xBAA JUMP JUMPDEST PUSH1 0x20 DUP3 ADD SWAP1 POP SWAP2 SWAP1 POP JUMP JUMPDEST PUSH1 0x0 PUSH2 0x7D1 PUSH1 0x2A DUP4 PUSH2 0x96A JUMP JUMPDEST SWAP2 POP PUSH2 0x7DC DUP3 PUSH2 0xBD3 JUMP JUMPDEST PUSH1 0x40 DUP3 ADD SWAP1 POP SWAP2 SWAP1 POP JUMP JUMPDEST PUSH1 0x0 PUSH2 0x7F4 PUSH1 0x12 DUP4 PUSH2 0x96A JUMP JUMPDEST SWAP2 POP PUSH2 0x7FF DUP3 PUSH2 0xC22 JUMP JUMPDEST PUSH1 0x20 DUP3 ADD SWAP1 POP SWAP2 SWAP1 POP JUMP JUMPDEST PUSH2 0x813 DUP2 PUSH2 0xA49 JUMP JUMPDEST DUP3 MSTORE POP POP JUMP JUMPDEST PUSH1 0x0 PUSH1 0x80 DUP3 ADD SWAP1 POP PUSH2 0x82E PUSH1 0x0 DUP4 ADD DUP8 PUSH2 0x759 JUMP JUMPDEST DUP2 DUP2 SUB PUSH1 0x20 DUP4 ADD MSTORE PUSH2 0x840 DUP2 DUP7 PUSH2 0x768 JUMP JUMPDEST SWAP1 POP PUSH2 0x84F PUSH1 0x40 DUP4 ADD DUP6 PUSH2 0x80A JUMP JUMPDEST PUSH2 0x85C PUSH1 0x60 DUP4 ADD DUP5 PUSH2 0x74A JUMP JUMPDEST SWAP6 SWAP5 POP POP POP POP POP JUMP JUMPDEST PUSH1 0x0 PUSH1 0x20 DUP3 ADD SWAP1 POP DUP2 DUP2 SUB PUSH1 0x0 DUP4 ADD MSTORE PUSH2 0x87E DUP2 PUSH2 0x7A1 JUMP JUMPDEST SWAP1 POP SWAP2 SWAP1 POP JUMP JUMPDEST PUSH1 0x0 PUSH1 0x20 DUP3 ADD SWAP1 POP DUP2 DUP2 SUB PUSH1 0x0 DUP4 ADD MSTORE PUSH2 0x89E DUP2 PUSH2 0x7C4 JUMP JUMPDEST SWAP1 POP SWAP2 SWAP1 POP JUMP JUMPDEST PUSH1 0x0 PUSH1 0x20 DUP3 ADD SWAP1 POP DUP2 DUP2 SUB PUSH1 0x0 DUP4 ADD MSTORE PUSH2 0x8BE DUP2 PUSH2 0x7E7 JUMP JUMPDEST SWAP1 POP SWAP2 SWAP1 POP JUMP JUMPDEST PUSH1 0x0 PUSH1 0x20 DUP3 ADD SWAP1 POP PUSH2 0x8DA PUSH1 0x0 DUP4 ADD DUP5 PUSH2 0x80A JUMP JUMPDEST SWAP3 SWAP2 POP POP JUMP JUMPDEST PUSH1 0x0 PUSH1 0x40 DUP3 ADD SWAP1 POP PUSH2 0x8F5 PUSH1 0x0 DUP4 ADD DUP6 PUSH2 0x80A JUMP JUMPDEST PUSH2 0x902 PUSH1 0x20 DUP4 ADD DUP5 PUSH2 0x80A JUMP JUMPDEST SWAP4 SWAP3 POP POP POP JUMP JUMPDEST PUSH1 0x0 PUSH2 0x913 PUSH2 0x924 JUMP JUMPDEST SWAP1 POP PUSH2 0x91F DUP3 DUP3 PUSH2 0xAC7 JUMP JUMPDEST SWAP2 SWAP1 POP JUMP JUMPDEST PUSH1 0x0 PUSH1 0x40 MLOAD SWAP1 POP SWAP1 JUMP JUMPDEST PUSH1 0x0 PUSH8 0xFFFFFFFFFFFFFFFF DUP3 GT ISZERO PUSH2 0x949 JUMPI PUSH2 0x948 PUSH2 0xB56 JUMP JUMPDEST JUMPDEST PUSH2 0x952 DUP3 PUSH2 0xB99 JUMP JUMPDEST SWAP1 POP PUSH1 0x20 DUP2 ADD SWAP1 POP SWAP2 SWAP1 POP JUMP JUMPDEST PUSH1 0x0 DUP2 MLOAD SWAP1 POP SWAP2 SWAP1 POP JUMP JUMPDEST PUSH1 0x0 DUP3 DUP3 MSTORE PUSH1 0x20 DUP3 ADD SWAP1 POP SWAP3 SWAP2 POP POP JUMP JUMPDEST PUSH1 0x0 PUSH2 0x986 DUP3 PUSH2 0xA49 JUMP JUMPDEST SWAP2 POP PUSH2 0x991 DUP4 PUSH2 0xA49 JUMP JUMPDEST SWAP3 POP DUP3 PUSH32 0xFFFFFFFFFFFFFFFFFFFFFFFFFFFFFFFFFFFFFFFFFFFFFFFFFFFFFFFFFFFFFFFF SUB DUP3 GT ISZERO PUSH2 0x9C6 JUMPI PUSH2 0x9C5 PUSH2 0xAF8 JUMP JUMPDEST JUMPDEST DUP3 DUP3 ADD SWAP1 POP SWAP3 SWAP2 POP POP JUMP JUMPDEST PUSH1 0x0 PUSH2 0x9DC DUP3 PUSH2 0xA49 JUMP JUMPDEST SWAP2 POP PUSH2 0x9E7 DUP4 PUSH2 0xA49 JUMP JUMPDEST SWAP3 POP DUP3 DUP3 LT ISZERO PUSH2 0x9FA JUMPI PUSH2 0x9F9 PUSH2 0xAF8 JUMP JUMPDEST JUMPDEST DUP3 DUP3 SUB SWAP1 POP SWAP3 SWAP2 POP POP JUMP JUMPDEST PUSH1 0x0 PUSH2 0xA10 DUP3 PUSH2 0xA29 JUMP JUMPDEST SWAP1 POP SWAP2 SWAP1 POP JUMP JUMPDEST PUSH1 0x0 PUSH2 0xA22 DUP3 PUSH2 0xA29 JUMP JUMPDEST SWAP1 POP SWAP2 SWAP1 POP JUMP JUMPDEST PUSH1 0x0 PUSH20 0xFFFFFFFFFFFFFFFFFFFFFFFFFFFFFFFFFFFFFFFF DUP3 AND SWAP1 POP SWAP2 SWAP1 POP JUMP JUMPDEST PUSH1 0x0 DUP2 SWAP1 POP SWAP2 SWAP1 POP JUMP JUMPDEST DUP3 DUP2 DUP4 CALLDATACOPY PUSH1 0x0 DUP4 DUP4 ADD MSTORE POP POP POP JUMP JUMPDEST PUSH1 0x0 JUMPDEST DUP4 DUP2 LT ISZERO PUSH2 0xA80 JUMPI DUP1 DUP3 ADD MLOAD DUP2 DUP5 ADD MSTORE PUSH1 0x20 DUP2 ADD SWAP1 POP PUSH2 0xA65 JUMP JUMPDEST DUP4 DUP2 GT ISZERO PUSH2 0xA8F JUMPI PUSH1 0x0 DUP5 DUP5 ADD MSTORE JUMPDEST POP POP POP POP JUMP JUMPDEST PUSH1 0x0 PUSH1 0x2 DUP3 DIV SWAP1 POP PUSH1 0x1 DUP3 AND DUP1 PUSH2 0xAAD JUMPI PUSH1 0x7F DUP3 AND SWAP2 POP JUMPDEST PUSH1 0x20 DUP3 LT DUP2 EQ ISZERO PUSH2 0xAC1 JUMPI PUSH2 0xAC0 PUSH2 0xB27 JUMP JUMPDEST JUMPDEST POP SWAP2 SWAP1 POP JUMP JUMPDEST PUSH2 0xAD0 DUP3 PUSH2 0xB99 JUMP JUMPDEST DUP2 ADD DUP2 DUP2 LT PUSH8 0xFFFFFFFFFFFFFFFF DUP3 GT OR ISZERO PUSH2 0xAEF JUMPI PUSH2 0xAEE PUSH2 0xB56 JUMP JUMPDEST JUMPDEST DUP1 PUSH1 0x40 MSTORE POP POP POP JUMP JUMPDEST PUSH32 0x4E487B7100000000000000000000000000000000000000000000000000000000 PUSH1 0x0 MSTORE PUSH1 0x11 PUSH1 0x4 MSTORE PUSH1 0x24 PUSH1 0x0 REVERT JUMPDEST PUSH32 0x4E487B7100000000000000000000000000000000000000000000000000000000 PUSH1 0x0 MSTORE PUSH1 0x22 PUSH1 0x4 MSTORE PUSH1 0x24 PUSH1 0x0 REVERT JUMPDEST PUSH32 0x4E487B7100000000000000000000000000000000000000000000000000000000 PUSH1 0x0 MSTORE PUSH1 0x41 PUSH1 0x4 MSTORE PUSH1 0x24 PUSH1 0x0 REVERT JUMPDEST PUSH1 0x0 DUP1 REVERT JUMPDEST PUSH1 0x0 DUP1 REVERT JUMPDEST PUSH1 0x0 DUP1 REVERT JUMPDEST PUSH1 0x0 DUP1 REVERT JUMPDEST PUSH1 0x0 PUSH1 0x1F NOT PUSH1 0x1F DUP4 ADD AND SWAP1 POP SWAP2 SWAP1 POP JUMP JUMPDEST PUSH32 0x596F752073686F756C64207370656369667920616D6F756E7400000000000000 PUSH1 0x0 DUP3 ADD MSTORE POP JUMP JUMPDEST PUSH32 0x596F75206861766520746F2063726561746520646F6E6174696F6E20666F7220 PUSH1 0x0 DUP3 ADD MSTORE PUSH32 0x73656E6420657468657200000000000000000000000000000000000000000000 PUSH1 0x20 DUP3 ADD MSTORE POP JUMP JUMPDEST PUSH32 0x4E6F7420656E6F7567682062616C616E63650000000000000000000000000000 PUSH1 0x0 DUP3 ADD MSTORE POP JUMP JUMPDEST PUSH2 0xC54 DUP2 PUSH2 0xA17 JUMP JUMPDEST DUP2 EQ PUSH2 0xC5F JUMPI PUSH1 0x0 DUP1 REVERT JUMPDEST POP JUMP JUMPDEST PUSH2 0xC6B DUP2 PUSH2 0xA49 JUMP JUMPDEST DUP2 EQ PUSH2 0xC76 JUMPI PUSH1 0x0 DUP1 REVERT JUMPDEST POP JUMP INVALID LOG2 PUSH5 0x6970667358 0x22 SLT KECCAK256 0xBE MLOAD PUSH2 0x9C04 0xD5 DIV PUSH16 0x97E052C086DB9202D4130A91E00CC582 LT 0xC PUSH8 0xD27DD6B35F64736F PUSH13 0x63430008070033000000000000 "
				},
				"gasEstimates": {
					"creation": {
						"codeDepositCost": "649400",
						"executionCost": "683",
						"totalCost": "650083"
					},
					"external": {
						"balance()": "2451",
						"createDonation(string,address,uint256)": "infinite",
						"donate(uint256)": "infinite",
						"donations(uint256)": "infinite",
						"sendEtherToContract()": "infinite",
						"totalDonations()": "2473"
					}
				},
				"methodIdentifiers": {
					"balance()": "b69ef8a8",
					"createDonation(string,address,uint256)": "b5e051d9",
					"donate(uint256)": "f14faf6f",
					"donations(uint256)": "f8626af8",
					"sendEtherToContract()": "325ec768",
					"totalDonations()": "de2ed893"
				}
			},
			"storageLayout": {
				"storage": [
					{
						"astId": 3,
						"contract": "contracts/FinalCase/DonateStreamer.sol:DonateStreamer",
						"label": "balance",
						"offset": 0,
						"slot": "0",
						"type": "t_uint256"
					},
					{
						"astId": 14,
						"contract": "contracts/FinalCase/DonateStreamer.sol:DonateStreamer",
						"label": "totalDonations",
						"offset": 0,
						"slot": "1",
						"type": "t_uint256"
					},
					{
						"astId": 19,
						"contract": "contracts/FinalCase/DonateStreamer.sol:DonateStreamer",
						"label": "donations",
						"offset": 0,
						"slot": "2",
						"type": "t_mapping(t_uint256,t_struct(Donation)12_storage)"
					}
				],
				"types": {
					"t_address": {
						"encoding": "inplace",
						"label": "address",
						"numberOfBytes": "20"
					},
					"t_address_payable": {
						"encoding": "inplace",
						"label": "address payable",
						"numberOfBytes": "20"
					},
					"t_mapping(t_uint256,t_struct(Donation)12_storage)": {
						"encoding": "mapping",
						"key": "t_uint256",
						"label": "mapping(uint256 => struct DonateStreamer.Donation)",
						"numberOfBytes": "32",
						"value": "t_struct(Donation)12_storage"
					},
					"t_string_storage": {
						"encoding": "bytes",
						"label": "string",
						"numberOfBytes": "32"
					},
					"t_struct(Donation)12_storage": {
						"encoding": "inplace",
						"label": "struct DonateStreamer.Donation",
						"members": [
							{
								"astId": 5,
								"contract": "contracts/FinalCase/DonateStreamer.sol:DonateStreamer",
								"label": "creator",
								"offset": 0,
								"slot": "0",
								"type": "t_address"
							},
							{
								"astId": 7,
								"contract": "contracts/FinalCase/DonateStreamer.sol:DonateStreamer",
								"label": "name",
								"offset": 0,
								"slot": "1",
								"type": "t_string_storage"
							},
							{
								"astId": 9,
								"contract": "contracts/FinalCase/DonateStreamer.sol:DonateStreamer",
								"label": "amount",
								"offset": 0,
								"slot": "2",
								"type": "t_uint256"
							},
							{
								"astId": 11,
								"contract": "contracts/FinalCase/DonateStreamer.sol:DonateStreamer",
								"label": "streamer",
								"offset": 0,
								"slot": "3",
								"type": "t_address_payable"
							}
						],
						"numberOfBytes": "128"
					},
					"t_uint256": {
						"encoding": "inplace",
						"label": "uint256",
						"numberOfBytes": "32"
					}
				}
			},
			"userdoc": {
				"kind": "user",
				"methods": {},
				"version": 1
			}
		}
	}
}